{
  "contracts/PoolFactory.sol": {
    "PoolFactory": {
      "abi": [
        {
          "inputs": [
            {
              "internalType": "address",
              "name": "_twitterVerifyAddress",
              "type": "address"
            }
          ],
          "stateMutability": "nonpayable",
          "type": "constructor"
        },
        {
          "anonymous": false,
          "inputs": [
            {
              "indexed": true,
              "internalType": "address",
              "name": "previousOwner",
              "type": "address"
            },
            {
              "indexed": true,
              "internalType": "address",
              "name": "newOwner",
              "type": "address"
            }
          ],
          "name": "OwnershipTransferred",
          "type": "event"
        },
        {
          "inputs": [
            {
              "internalType": "bool",
              "name": "_bool",
              "type": "bool"
            }
          ],
          "name": "changePoolCreationBool",
          "outputs": [],
          "stateMutability": "nonpayable",
          "type": "function"
        },
        {
          "inputs": [
            {
              "internalType": "string",
              "name": "_poolName",
              "type": "string"
            },
            {
              "internalType": "uint256",
              "name": "_capital",
              "type": "uint256"
            },
            {
              "internalType": "address",
              "name": "_capitalAddress",
              "type": "address"
            },
            {
              "internalType": "address",
              "name": "_nftAddress",
              "type": "address"
            },
            {
              "internalType": "address",
              "name": "_rng",
              "type": "address"
            },
            {
              "internalType": "uint256",
              "name": "_campaignLength",
              "type": "uint256"
            },
            {
              "internalType": "uint256",
              "name": "_votingLength",
              "type": "uint256"
            },
            {
              "internalType": "uint256",
              "name": "_decisionLength",
              "type": "uint256"
            },
            {
              "internalType": "uint256",
              "name": "_submissionLength",
              "type": "uint256"
            }
          ],
          "name": "createPool",
          "outputs": [],
          "stateMutability": "nonpayable",
          "type": "function"
        },
        {
          "inputs": [],
          "name": "owner",
          "outputs": [
            {
              "internalType": "address",
              "name": "",
              "type": "address"
            }
          ],
          "stateMutability": "view",
          "type": "function"
        },
        {
          "inputs": [],
          "name": "renounceOwnership",
          "outputs": [],
          "stateMutability": "nonpayable",
          "type": "function"
        },
        {
          "inputs": [
            {
              "internalType": "address",
              "name": "_address",
              "type": "address"
            }
          ],
          "name": "setTwitterVerifyAddress",
          "outputs": [],
          "stateMutability": "nonpayable",
          "type": "function"
        },
        {
          "inputs": [
            {
              "internalType": "address",
              "name": "newOwner",
              "type": "address"
            }
          ],
          "name": "transferOwnership",
          "outputs": [],
          "stateMutability": "nonpayable",
          "type": "function"
        }
      ],
      "evm": {
        "bytecode": {
          "linkReferences": {},
          "object": "608060405234801561001057600080fd5b506040516131ac3803806131ac83398101604081905261002f9161009f565b600080546001600160a01b031916339081178255604051909182917f8be0079c531659141344cd1fd0a4f28419497f9722a3daafe3b4186f6b6457e0908290a350600280546001600160a01b039092166001600160a01b03199283168117909155600380549092161790556100cd565b6000602082840312156100b0578081fd5b81516001600160a01b03811681146100c6578182fd5b9392505050565b6130d0806100dc6000396000f3fe60806040523480156200001157600080fd5b50600436106200007b5760003560e01c8063d1954fca1162000056578063d1954fca14620000c2578063f2fde38b14620000d9578063f9e8dab714620000f057600080fd5b806364c3c3431462000080578063715018a614620000995780638da5cb5b14620000a3575b600080fd5b620000976200009136600462000660565b62000107565b005b62000097620001b1565b600054604080516001600160a01b039092168252519081900360200190f35b62000097620000d33660046200063c565b62000264565b62000097620000ea3660046200063c565b620002f9565b62000097620001013660046200067f565b6200043b565b6000546001600160a01b03163314620001675760405162461bcd60e51b815260206004820181905260248201527f4f776e61626c653a2063616c6c6572206973206e6f7420746865206f776e657260448201526064015b60405180910390fd5b6000805491151574010000000000000000000000000000000000000000027fffffffffffffffffffffff00ffffffffffffffffffffffffffffffffffffffff909216919091179055565b6000546001600160a01b031633146200020d5760405162461bcd60e51b815260206004820181905260248201527f4f776e61626c653a2063616c6c6572206973206e6f7420746865206f776e657260448201526064016200015e565b600080546040516001600160a01b03909116907f8be0079c531659141344cd1fd0a4f28419497f9722a3daafe3b4186f6b6457e0908390a36000805473ffffffffffffffffffffffffffffffffffffffff19169055565b6000546001600160a01b03163314620002c05760405162461bcd60e51b815260206004820181905260248201527f4f776e61626c653a2063616c6c6572206973206e6f7420746865206f776e657260448201526064016200015e565b600280546001600160a01b0390921673ffffffffffffffffffffffffffffffffffffffff19928316811790915560038054909216179055565b6000546001600160a01b03163314620003555760405162461bcd60e51b815260206004820181905260248201527f4f776e61626c653a2063616c6c6572206973206e6f7420746865206f776e657260448201526064016200015e565b6001600160a01b038116620003d35760405162461bcd60e51b815260206004820152602660248201527f4f776e61626c653a206e6577206f776e657220697320746865207a65726f206160448201527f646472657373000000000000000000000000000000000000000000000000000060648201526084016200015e565b600080546040516001600160a01b03808516939216917f8be0079c531659141344cd1fd0a4f28419497f9722a3daafe3b4186f6b6457e091a36000805473ffffffffffffffffffffffffffffffffffffffff19166001600160a01b0392909216919091179055565b6003546040517f7fc9592d0000000000000000000000000000000000000000000000000000000081523360048201526000916001600160a01b031690637fc9592d90602401600060405180830381600087803b1580156200049b57600080fd5b505af1158015620004b0573d6000803e3d6000fd5b505050506040513d6000823e601f3d908101601f19168201604052620004da919081019062000769565b90508060200151620005555760405162461bcd60e51b815260206004820152602c60248201527f43616c6c65722061646472657373206973206e6f74207665726966696564207760448201527f697468205477697474657221000000000000000000000000000000000000000060648201526084016200015e565b60008a82604001518b8b8b338c8c8c8c8c604051620005749062000611565b6200058a9b9a9998979695949392919062000865565b604051809103906000f080158015620005a7573d6000803e3d6000fd5b506001805480820182556000919091527fb10e2d527612073b26eecdfd717e6a320cf44b4afac2b0732d9fcbe2b7fa0cf601805473ffffffffffffffffffffffffffffffffffffffff19166001600160a01b03929092169190911790555050505050505050505050565b6126b580620009e683390190565b80356001600160a01b03811681146200063757600080fd5b919050565b6000602082840312156200064e578081fd5b62000659826200061f565b9392505050565b60006020828403121562000672578081fd5b81356200065981620009d3565b60008060008060008060008060006101208a8c0312156200069e578485fd5b893567ffffffffffffffff811115620006b5578586fd5b8a01601f81018c13620006c6578586fd5b8035620006dd620006d78262000946565b62000912565b8181528d6020838501011115620006f2578788fd5b816020840160208301378760208383010152809b5050505060208a013597506200071f60408b016200061f565b96506200072f60608b016200061f565b95506200073f60808b016200061f565b989b979a50959894979660a0860135965060c08601359560e0810135955061010001359350915050565b600060208083850312156200077c578182fd5b825167ffffffffffffffff8082111562000794578384fd5b9084019060608287031215620007a8578384fd5b620007b2620008e6565b8251815283830151620007c581620009d3565b81850152604083015182811115620007db578586fd5b80840193505086601f840112620007f0578485fd5b8251915062000803620006d78362000946565b828152878584860101111562000817578586fd5b620008288386830187870162000971565b60408201529695505050505050565b600081518084526200085181602086016020860162000971565b601f01601f19169290920160200192915050565b60006101608083526200087b8184018f62000837565b9050828103602084015262000891818e62000837565b604084019c909c5250506001600160a01b039889166060820152968816608088015294871660a08701529290951660c085015260e0840152610100830193909352610120820192909252610140015292915050565b6040516060810167ffffffffffffffff811182821017156200090c576200090c620009a4565b60405290565b604051601f8201601f1916810167ffffffffffffffff811182821017156200093e576200093e620009a4565b604052919050565b600067ffffffffffffffff821115620009635762000963620009a4565b50601f01601f191660200190565b60005b838110156200098e57818101518382015260200162000974565b838111156200099e576000848401525b50505050565b7f4e487b7100000000000000000000000000000000000000000000000000000000600052604160045260246000fd5b8015158114620009e257600080fd5b5056fe608060405260006029553480156200001657600080fd5b50604051620026b5380380620026b58339810160408190526200003991620003bd565b600080546001600160a01b03199081166001600160a01b0389811691821790935560068c905560018054909216928b169283179091556040516323b872dd60e01b81526004810191909152306024820152604481018b90526323b872dd90606401602060405180830381600087803b158015620000b557600080fd5b505af1158015620000ca573d6000803e3d6000fd5b505050506040513d601f19601f82011682018060405250810190620000f0919062000394565b620001585760405162461bcd60e51b815260206004820152602e60248201527f7472616e6466657246726f6d206661696c65642c20706f6f6c206e6f7420626160448201526d636b65642062792066756e64732160901b606482015260840160405180910390fd5b600a600654620001699190620004cd565b602355600280546001600160a01b03808a166001600160a01b03199283161790925560038054928816929091169190911790558a51620001b19060049060208e01906200021e565b508951620001c79060059060208d01906200021e565b5043620001d58282620004a8565b6007819055620001e7908590620004a8565b6008819055620001f9908490620004a8565b600955620002088582620004a8565b600a5550620005419a5050505050505050505050565b8280546200022c90620004ee565b90600052602060002090601f0160209004810192826200025057600085556200029b565b82601f106200026b57805160ff19168380011785556200029b565b828001600101855582156200029b579182015b828111156200029b5782518255916020019190600101906200027e565b50620002a9929150620002ad565b5090565b5b80821115620002a95760008155600101620002ae565b80516001600160a01b0381168114620002dc57600080fd5b919050565b600082601f830112620002f2578081fd5b81516001600160401b03808211156200030f576200030f6200052b565b604051601f8301601f19908116603f011681019082821181831017156200033a576200033a6200052b565b8160405283815260209250868385880101111562000356578485fd5b8491505b838210156200037957858201830151818301840152908201906200035a565b838211156200038a57848385830101525b9695505050505050565b600060208284031215620003a6578081fd5b81518015158114620003b6578182fd5b9392505050565b60008060008060008060008060008060006101608c8e031215620003df578687fd5b8b516001600160401b03811115620003f5578788fd5b620004038e828f01620002e1565b60208e0151909c5090506001600160401b0381111562000421578788fd5b6200042f8e828f01620002e1565b9a505060408c015198506200044760608d01620002c4565b97506200045760808d01620002c4565b96506200046760a08d01620002c4565b95506200047760c08d01620002c4565b945060e08c015193506101008c015192506101208c015191506101408c015190509295989b509295989b9093969950565b60008219821115620004c857634e487b7160e01b81526011600452602481fd5b500190565b600082620004e957634e487b7160e01b81526012600452602481fd5b500490565b600181811c908216806200050357607f821691505b602082108114156200052557634e487b7160e01b600052602260045260246000fd5b50919050565b634e487b7160e01b600052604160045260246000fd5b61216480620005516000396000f3fe608060405234801561001057600080fd5b506004361061011b5760003560e01c80635353a2d8116100b25780638863544111610081578063b278fa4b11610066578063b278fa4b14610218578063c89f2ce414610220578063f3466dfa1461022957600080fd5b806388635441146101f2578063a9e732bb1461020557600080fd5b80635353a2d8146101a65780635a047364146101b95780635cbddb9f146101cc5780635cd68d8b146101d557600080fd5b80633d702099116100ee5780633d7020991461016357806347ba59c9146101765780634c524be41461018b5780634c9916571461019e57600080fd5b8063156a51d6146101205780631b818fb51461013c57806320196065146101455780632180877f1461015a575b600080fd5b61012960085481565b6040519081526020015b60405180910390f35b61012960075481565b61014d610231565b6040516101339190611feb565b610129600a5481565b610129610171366004611fd3565b6102bf565b610189610184366004611e68565b6102d6565b005b610189610199366004611fd3565b610631565b610189610ce9565b6101896101b4366004611f29565b610fda565b6101896101c7366004611fd3565b61105f565b61012960095481565b600b546101e29060ff1681565b6040519015158152602001610133565b610129610200366004611fd3565b61156a565b610189610213366004611fd3565b61157a565b6101896119c6565b61012960065481565b61014d611d82565b6005805461023e9061208c565b80601f016020809104026020016040519081016040528092919081815260200182805461026a9061208c565b80156102b75780601f1061028c576101008083540402835291602001916102b7565b820191906000526020600020905b81548152906001019060200180831161029a57829003601f168201915b505050505081565b601681600a81106102cf57600080fd5b0154905081565b60075443106103525760405162461bcd60e51b815260206004820152603460248201527f43616e206e6f7420616464207375626d697373696f6e7320647572696e67207460448201527f68652066616e20766f74696e6720706572696f6400000000000000000000000060648201526084015b60405180910390fd5b6001546023546040516323b872dd60e01b815233600482015230602482015260448101919091526001600160a01b03909116906323b872dd90606401602060405180830381600087803b1580156103a857600080fd5b505af11580156103bc573d6000803e3d6000fd5b505050506040513d601f19601f820116820180604052508101906103e09190611eea565b6104525760405162461bcd60e51b815260206004820152603460248201527f7472616e6466657246726f6d206661696c65642c207375626d697373696f6e2060448201527f6e6f74206261636b65642062792066756e6473210000000000000000000000006064820152608401610349565b60005b600381101561055f576002546001600160a01b03166323b872dd333085856003811061049157634e487b7160e01b600052603260045260246000fd5b60200201516040516001600160e01b031960e086901b1681526001600160a01b0393841660048201529290911660248301526044820152606401600060405180830381600087803b1580156104e557600080fd5b505af11580156104f9573d6000803e3d6000fd5b505060295460009081526028602052604090209150839050826003811061053057634e487b7160e01b600052603260045260246000fd5b602090810291909101518254600181018455600093845291909220015580610557816120c7565b915050610455565b506040805180820182523380825260235460208084019190915260298054600090815260288084528682209482526001909401835285812081905590548152919052918220600301805491926105b4836120c7565b909155505060298054600090815260286020908152604082206002908101805460018082018355918552838520875191909302909201805473ffffffffffffffffffffffffffffffffffffffff19166001600160a01b039093169290921782559185015191015581549190610628836120c7565b91905055505050565b6000546001600160a01b0316331461069f5760405162461bcd60e51b815260206004820152602b60248201527f4f6e6c792074686520506f6f6c204f776e65722063616e2063616c6c2074686960448201526a732066756e6374696f6e2160a81b6064820152608401610349565b60245460ff16156106f25760405162461bcd60e51b815260206004820152601860248201527f416c72656164792073656c65637465642077696e6e65722100000000000000006044820152606401610349565b600a5443116107695760405162461bcd60e51b815260206004820152603460248201527f43616e206f6e6c792063686f6f736520612077696e6e6572206166746572207460448201527f68652063616d706169676e206973206f766572210000000000000000000000006064820152608401610349565b60265460ff166107e15760405162461bcd60e51b815260206004820152602360248201527f596f75206861766520746f2063616c6c2063686563466f72546965732066697260448201527f73742100000000000000000000000000000000000000000000000000000000006064820152608401610349565b6024805460ff191660011790556000805b60275481101561084a576020818154811061081d57634e487b7160e01b600052603260045260246000fd5b9060005260206000200154831415610838576001915061084a565b80610842816120c7565b9150506107f2565b50806108be5760405162461bcd60e51b815260206004820152602f60248201527f596f75206d7573742073656c65637420612077696e6e65722066726f6d20746860448201527f6520746f702074656e206c6973742100000000000000000000000000000000006064820152608401610349565b602282905560028054600084815260286020526040812090920180546001600160a01b03909216926323b872dd923092919061090a57634e487b7160e01b600052603260045260246000fd5b60009182526020808320600290920290910154602254835260289091526040822080546001600160a01b0390921692909161095557634e487b7160e01b600052603260045260246000fd5b6000918252602090912001546040516001600160e01b031960e086901b1681526001600160a01b0393841660048201529290911660248301526044820152606401600060405180830381600087803b1580156109b057600080fd5b505af11580156109c4573d6000803e3d6000fd5b5050506000838152602860205260408120600301549091506109e890600190612075565b600360009054906101000a90046001600160a01b03166001600160a01b03166322cce6896040518163ffffffff1660e01b8152600401602060405180830381600087803b158015610a3857600080fd5b505af1158015610a4c573d6000803e3d6000fd5b505050506040513d601f19601f82011682018060405250810190610a709190611f11565b610a7a91906120e2565b610a8590600161203e565b60008481526028602052604081206002018054929350909183908110610abb57634e487b7160e01b600052603260045260246000fd5b6000918252602080832060029283020154915460225484526028909152604090922080546001600160a01b03928316945091909216916323b872dd91309185916001908110610b1a57634e487b7160e01b600052603260045260246000fd5b6000918252602090912001546040516001600160e01b031960e086901b1681526001600160a01b0393841660048201529290911660248301526044820152606401600060405180830381600087803b158015610b7557600080fd5b505af1158015610b89573d6000803e3d6000fd5b5050600280546000805460225482526028602052604090912080546001600160a01b0393841696506323b872dd95503094939092169290918110610bdd57634e487b7160e01b600052603260045260246000fd5b6000918252602090912001546040516001600160e01b031960e086901b1681526001600160a01b0393841660048201529290911660248301526044820152606401600060405180830381600087803b158015610c3857600080fd5b505af1158015610c4c573d6000803e3d6000fd5b50506001546000546006546040516323b872dd60e01b81523060048201526001600160a01b0392831660248201526044810191909152911692506323b872dd9150606401602060405180830381600087803b158015610caa57600080fd5b505af1158015610cbe573d6000803e3d6000fd5b505050506040513d601f19601f82011682018060405250810190610ce29190611eea565b5050505050565b6000546001600160a01b03163314610d575760405162461bcd60e51b815260206004820152602b60248201527f4f6e6c792074686520506f6f6c204f776e65722063616e2063616c6c2074686960448201526a732066756e6374696f6e2160a81b6064820152608401610349565b600b5460ff16610da95760405162461bcd60e51b815260206004820152601c60248201527f4e65656420746f2072756e20676574546f7054656e20666972737421000000006044820152606401610349565b60265460ff1615610dfc5760405162461bcd60e51b815260206004820152601860248201527f416c726561647920636865636b656420666f72207469657300000000000000006044820152606401610349565b6016546000805b600a811015610ef75782601682600a8110610e2e57634e487b7160e01b600052603260045260246000fd5b01541015610ee557601681600a8110610e5757634e487b7160e01b600052603260045260246000fd5b015492508091506020600c82600a8110610e8157634e487b7160e01b600052603260045260246000fd5b0154815460018101835560009283526020909220909101556021601682600a8110610ebc57634e487b7160e01b600052603260045260246000fd5b0154815460018101835560009283526020832001556027805491610edf836120c7565b91905055505b80610eef816120c7565b915050610e03565b506000805b602954811015610fc757602354600082815260286020526040902060030154610f2790600190612075565b610f319190612056565b915081841415610fb5576020805460018181019092557fc97bfaf2f8ee708c303a06d134f5ecd8389ae0432af62dc132a24118292866bb0182905560218054918201815560009081527f3a6357012c1a3ae0a17d304c9920310382d968ebcc4b1771f41c6b304205b5709091018390556027805491610faf836120c7565b91905055505b80610fbf816120c7565b915050610efc565b50506026805460ff191660011790555050565b6000546001600160a01b031633146110485760405162461bcd60e51b815260206004820152602b60248201527f4f6e6c792074686520506f6f6c204f776e65722063616e2063616c6c2074686960448201526a732066756e6374696f6e2160a81b6064820152608401610349565b805161105b906004906020840190611d8f565b5050565b6000546001600160a01b03163314156110c45760405162461bcd60e51b815260206004820152602160248201527f4f6e6c792046616e732063616e2063616c6c20746869732066756e6374696f6e6044820152602160f81b6064820152608401610349565b600081815260286020526040812060020180549091906110f457634e487b7160e01b600052603260045260246000fd5b60009182526020909120600290910201546001600160a01b03163314156111835760405162461bcd60e51b815260206004820152602d60248201527f4172746973742063616e206e6f7420766f746520666f72207468656972206f7760448201527f6e207375626d697373696f6e21000000000000000000000000000000000000006064820152608401610349565b6007544310156111fb5760405162461bcd60e51b815260206004820152603560248201527f43616e206e6f7420737461727420766f74696e6720756e74696c207375626d6960448201527f7373696f6e20706572696f64206973206f7665722100000000000000000000006064820152608401610349565b60095443111561124d5760405162461bcd60e51b815260206004820152601a60248201527f46616e20566f74696e6720506572696f64206973204f766572210000000000006044820152606401610349565b60008181526028602052604081208054829061127957634e487b7160e01b600052603260045260246000fd5b9060005260206000200154116112f75760405162461bcd60e51b815260206004820152602560248201527f546865726520617265206e6f204e46547320696e2074686973207375626d697360448201527f73696f6e210000000000000000000000000000000000000000000000000000006064820152608401610349565b6001546023546040516323b872dd60e01b815233600482015230602482015260448101919091526001600160a01b03909116906323b872dd90606401602060405180830381600087803b15801561134d57600080fd5b505af1158015611361573d6000803e3d6000fd5b505050506040513d601f19601f820116820180604052508101906113859190611eea565b6113f75760405162461bcd60e51b815260206004820152602e60248201527f7472616e6466657246726f6d206661696c65642c20766f7465206e6f7420626160448201527f636b65642062792066756e6473210000000000000000000000000000000000006064820152608401610349565b60015b6000828152602860205260409020600301548110156114e557600082815260286020526040902060020180548290811061144457634e487b7160e01b600052603260045260246000fd5b60009182526020909120600290910201546001600160a01b03163314156114d35760405162461bcd60e51b815260206004820152602b60248201527f557365722068617320616c726561647920766f74656420666f7220746869732060448201527f7375626d697373696f6e210000000000000000000000000000000000000000006064820152608401610349565b806114dd816120c7565b9150506113fa565b5060408051808201825233815260235460208083019182526000858152602882529384206002808201805460018082018355918852938720865194909202909101805473ffffffffffffffffffffffffffffffffffffffff19166001600160a01b039094169390931783559251919092015583835260030180549192610628836120c7565b600c81600a81106102cf57600080fd5b600a5443116115f15760405162461bcd60e51b815260206004820152602760248201527f43616e206e6f7420636173686f757420756e74696c2063616d706169676e206960448201527f73206f76657221000000000000000000000000000000000000000000000000006064820152608401610349565b60008060005b60008481526028602052604090206003015481101561168257600084815260286020526040902060020180543391908390811061164457634e487b7160e01b600052603260045260246000fd5b60009182526020909120600290910201546001600160a01b031614156116705760019250809150611682565b8061167a816120c7565b9150506115f7565b5060008381526028602052604081206002018054839081106116b457634e487b7160e01b600052603260045260246000fd5b906000526020600020906002020160010154905060006028600086815260200190815260200160002060020183815481106116ff57634e487b7160e01b600052603260045260246000fd5b90600052602060002090600202016001018190555082801561171f575081155b156118d5576001546040516323b872dd60e01b8152306004820152336024820152604481018390526001600160a01b03909116906323b872dd90606401602060405180830381600087803b15801561177657600080fd5b505af115801561178a573d6000803e3d6000fd5b505050506040513d601f19601f820116820180604052508101906117ae9190611eea565b6117b757600080fd5b60225484146118d05760005b600381101561189a57600254600086815260286020526040902080546001600160a01b03909216916323b872dd9130913391908690811061181457634e487b7160e01b600052603260045260246000fd5b6000918252602090912001546040516001600160e01b031960e086901b1681526001600160a01b0393841660048201529290911660248301526044820152606401600060405180830381600087803b15801561186f57600080fd5b505af1158015611883573d6000803e3d6000fd5b505050508080611892906120c7565b9150506117c3565b50604080516060810182526000808252602080830182905282840182905287825260289052919091206118ce916003611e13565b505b6119c0565b821561196e576001546040516323b872dd60e01b8152306004820152336024820152604481018390526001600160a01b03909116906323b872dd90606401602060405180830381600087803b15801561192d57600080fd5b505af1158015611941573d6000803e3d6000fd5b505050506040513d601f19601f820116820180604052508101906119659190611eea565b6118d057600080fd5b60405162461bcd60e51b815260206004820152602160248201527f5573657220776173206e6f7420666f756e6420696e207375626d697373696f6e6044820152602160f81b6064820152608401610349565b50505050565b6000546001600160a01b03163314611a345760405162461bcd60e51b815260206004820152602b60248201527f4f6e6c792074686520506f6f6c204f776e65722063616e2063616c6c2074686960448201526a732066756e6374696f6e2160a81b6064820152608401610349565b60295460255410611aad5760405162461bcd60e51b815260206004820152602b60248201527f416c726561647920666f756e6420746f702074656e2066726f6d20616c6c207360448201527f75626d697373696f6e73210000000000000000000000000000000000000000006064820152608401610349565b6008544311611b245760405162461bcd60e51b815260206004820152602f60248201527f43616e6e6f742073656c65637420746f702074656e20756e74696c2066616e2060448201527f766f74696e67206973206f7665722100000000000000000000000000000000006064820152608401610349565b6000806000805b60645a118015611b3e5750602954602554105b15611cc757602354602554600090815260286020526040902060030154611b6790600190612075565b611b719190612056565b6016549450600093509150829050805b600a811015611c6957601681600a8110611bab57634e487b7160e01b600052603260045260246000fd5b0154611c045782601682600a8110611bd357634e487b7160e01b600052603260045260246000fd5b0155602554600c82600a8110611bf957634e487b7160e01b600052603260045260246000fd5b015560019150611c69565b84601682600a8110611c2657634e487b7160e01b600052603260045260246000fd5b01541015611c5757601681600a8110611c4f57634e487b7160e01b600052603260045260246000fd5b015494508093505b80611c61816120c7565b915050611b81565b5080611cc25783821115611cc25781601684600a8110611c9957634e487b7160e01b600052603260045260246000fd5b0155602554600c84600a8110611cbf57634e487b7160e01b600052603260045260246000fd5b01555b611b2b565b602554611cd590600161203e565b6025556003546040517fb37217a40000000000000000000000000000000000000000000000000000000081524360048201526001600160a01b039091169063b37217a490602401602060405180830381600087803b158015611d3657600080fd5b505af1158015611d4a573d6000803e3d6000fd5b505050506040513d601f19601f82011682018060405250810190611d6e9190611f11565b5050600b805460ff19166001179055505050565b6004805461023e9061208c565b828054611d9b9061208c565b90600052602060002090601f016020900481019282611dbd5760008555611e03565b82601f10611dd657805160ff1916838001178555611e03565b82800160010185558215611e03579182015b82811115611e03578251825591602001919060010190611de8565b50611e0f929150611e53565b5090565b828054828255906000526020600020908101928215611e03579160200282015b82811115611e03578251829060ff16905591602001919060010190611e33565b5b80821115611e0f5760008155600101611e54565b600060608284031215611e79578081fd5b82601f830112611e87578081fd5b6040516060810181811067ffffffffffffffff82111715611eaa57611eaa612118565b604052808360608101861015611ebe578384fd5b835b6003811015611edf578135835260209283019290910190600101611ec0565b509195945050505050565b600060208284031215611efb578081fd5b81518015158114611f0a578182fd5b9392505050565b600060208284031215611f22578081fd5b5051919050565b600060208284031215611f3a578081fd5b813567ffffffffffffffff80821115611f51578283fd5b818401915084601f830112611f64578283fd5b813581811115611f7657611f76612118565b604051601f8201601f19908116603f01168101908382118183101715611f9e57611f9e612118565b81604052828152876020848701011115611fb6578586fd5b826020860160208301379182016020019490945295945050505050565b600060208284031215611fe4578081fd5b5035919050565b6000602080835283518082850152825b8181101561201757858101830151858201604001528201611ffb565b818111156120285783604083870101525b50601f01601f1916929092016040019392505050565b6000821982111561205157612051612102565b500190565b600081600019048311821515161561207057612070612102565b500290565b60008282101561208757612087612102565b500390565b600181811c908216806120a057607f821691505b602082108114156120c157634e487b7160e01b600052602260045260246000fd5b50919050565b60006000198214156120db576120db612102565b5060010190565b6000826120fd57634e487b7160e01b81526012600452602481fd5b500690565b634e487b7160e01b600052601160045260246000fd5b634e487b7160e01b600052604160045260246000fdfea2646970667358221220127729b4c117f6313110a5c390054595665e6e5e2ef731c85ead9b9377b8cb2664736f6c63430008040033a26469706673582212205d7eef85151b902692c36e7fc6967a4c9e3dfe1642fb3ec9bdb986889ca2cf1764736f6c63430008040033",
          "opcodes": "PUSH1 0x80 PUSH1 0x40 MSTORE CALLVALUE DUP1 ISZERO PUSH2 0x10 JUMPI PUSH1 0x0 DUP1 REVERT JUMPDEST POP PUSH1 0x40 MLOAD PUSH2 0x31AC CODESIZE SUB DUP1 PUSH2 0x31AC DUP4 CODECOPY DUP2 ADD PUSH1 0x40 DUP2 SWAP1 MSTORE PUSH2 0x2F SWAP2 PUSH2 0x9F JUMP JUMPDEST PUSH1 0x0 DUP1 SLOAD PUSH1 0x1 PUSH1 0x1 PUSH1 0xA0 SHL SUB NOT AND CALLER SWAP1 DUP2 OR DUP3 SSTORE PUSH1 0x40 MLOAD SWAP1 SWAP2 DUP3 SWAP2 PUSH32 0x8BE0079C531659141344CD1FD0A4F28419497F9722A3DAAFE3B4186F6B6457E0 SWAP1 DUP3 SWAP1 LOG3 POP PUSH1 0x2 DUP1 SLOAD PUSH1 0x1 PUSH1 0x1 PUSH1 0xA0 SHL SUB SWAP1 SWAP3 AND PUSH1 0x1 PUSH1 0x1 PUSH1 0xA0 SHL SUB NOT SWAP3 DUP4 AND DUP2 OR SWAP1 SWAP2 SSTORE PUSH1 0x3 DUP1 SLOAD SWAP1 SWAP3 AND OR SWAP1 SSTORE PUSH2 0xCD JUMP JUMPDEST PUSH1 0x0 PUSH1 0x20 DUP3 DUP5 SUB SLT ISZERO PUSH2 0xB0 JUMPI DUP1 DUP2 REVERT JUMPDEST DUP2 MLOAD PUSH1 0x1 PUSH1 0x1 PUSH1 0xA0 SHL SUB DUP2 AND DUP2 EQ PUSH2 0xC6 JUMPI DUP2 DUP3 REVERT JUMPDEST SWAP4 SWAP3 POP POP POP JUMP JUMPDEST PUSH2 0x30D0 DUP1 PUSH2 0xDC PUSH1 0x0 CODECOPY PUSH1 0x0 RETURN INVALID PUSH1 0x80 PUSH1 0x40 MSTORE CALLVALUE DUP1 ISZERO PUSH3 0x11 JUMPI PUSH1 0x0 DUP1 REVERT JUMPDEST POP PUSH1 0x4 CALLDATASIZE LT PUSH3 0x7B JUMPI PUSH1 0x0 CALLDATALOAD PUSH1 0xE0 SHR DUP1 PUSH4 0xD1954FCA GT PUSH3 0x56 JUMPI DUP1 PUSH4 0xD1954FCA EQ PUSH3 0xC2 JUMPI DUP1 PUSH4 0xF2FDE38B EQ PUSH3 0xD9 JUMPI DUP1 PUSH4 0xF9E8DAB7 EQ PUSH3 0xF0 JUMPI PUSH1 0x0 DUP1 REVERT JUMPDEST DUP1 PUSH4 0x64C3C343 EQ PUSH3 0x80 JUMPI DUP1 PUSH4 0x715018A6 EQ PUSH3 0x99 JUMPI DUP1 PUSH4 0x8DA5CB5B EQ PUSH3 0xA3 JUMPI JUMPDEST PUSH1 0x0 DUP1 REVERT JUMPDEST PUSH3 0x97 PUSH3 0x91 CALLDATASIZE PUSH1 0x4 PUSH3 0x660 JUMP JUMPDEST PUSH3 0x107 JUMP JUMPDEST STOP JUMPDEST PUSH3 0x97 PUSH3 0x1B1 JUMP JUMPDEST PUSH1 0x0 SLOAD PUSH1 0x40 DUP1 MLOAD PUSH1 0x1 PUSH1 0x1 PUSH1 0xA0 SHL SUB SWAP1 SWAP3 AND DUP3 MSTORE MLOAD SWAP1 DUP2 SWAP1 SUB PUSH1 0x20 ADD SWAP1 RETURN JUMPDEST PUSH3 0x97 PUSH3 0xD3 CALLDATASIZE PUSH1 0x4 PUSH3 0x63C JUMP JUMPDEST PUSH3 0x264 JUMP JUMPDEST PUSH3 0x97 PUSH3 0xEA CALLDATASIZE PUSH1 0x4 PUSH3 0x63C JUMP JUMPDEST PUSH3 0x2F9 JUMP JUMPDEST PUSH3 0x97 PUSH3 0x101 CALLDATASIZE PUSH1 0x4 PUSH3 0x67F JUMP JUMPDEST PUSH3 0x43B JUMP JUMPDEST PUSH1 0x0 SLOAD PUSH1 0x1 PUSH1 0x1 PUSH1 0xA0 SHL SUB AND CALLER EQ PUSH3 0x167 JUMPI PUSH1 0x40 MLOAD PUSH3 0x461BCD PUSH1 0xE5 SHL DUP2 MSTORE PUSH1 0x20 PUSH1 0x4 DUP3 ADD DUP2 SWAP1 MSTORE PUSH1 0x24 DUP3 ADD MSTORE PUSH32 0x4F776E61626C653A2063616C6C6572206973206E6F7420746865206F776E6572 PUSH1 0x44 DUP3 ADD MSTORE PUSH1 0x64 ADD JUMPDEST PUSH1 0x40 MLOAD DUP1 SWAP2 SUB SWAP1 REVERT JUMPDEST PUSH1 0x0 DUP1 SLOAD SWAP2 ISZERO ISZERO PUSH21 0x10000000000000000000000000000000000000000 MUL PUSH32 0xFFFFFFFFFFFFFFFFFFFFFF00FFFFFFFFFFFFFFFFFFFFFFFFFFFFFFFFFFFFFFFF SWAP1 SWAP3 AND SWAP2 SWAP1 SWAP2 OR SWAP1 SSTORE JUMP JUMPDEST PUSH1 0x0 SLOAD PUSH1 0x1 PUSH1 0x1 PUSH1 0xA0 SHL SUB AND CALLER EQ PUSH3 0x20D JUMPI PUSH1 0x40 MLOAD PUSH3 0x461BCD PUSH1 0xE5 SHL DUP2 MSTORE PUSH1 0x20 PUSH1 0x4 DUP3 ADD DUP2 SWAP1 MSTORE PUSH1 0x24 DUP3 ADD MSTORE PUSH32 0x4F776E61626C653A2063616C6C6572206973206E6F7420746865206F776E6572 PUSH1 0x44 DUP3 ADD MSTORE PUSH1 0x64 ADD PUSH3 0x15E JUMP JUMPDEST PUSH1 0x0 DUP1 SLOAD PUSH1 0x40 MLOAD PUSH1 0x1 PUSH1 0x1 PUSH1 0xA0 SHL SUB SWAP1 SWAP2 AND SWAP1 PUSH32 0x8BE0079C531659141344CD1FD0A4F28419497F9722A3DAAFE3B4186F6B6457E0 SWAP1 DUP4 SWAP1 LOG3 PUSH1 0x0 DUP1 SLOAD PUSH20 0xFFFFFFFFFFFFFFFFFFFFFFFFFFFFFFFFFFFFFFFF NOT AND SWAP1 SSTORE JUMP JUMPDEST PUSH1 0x0 SLOAD PUSH1 0x1 PUSH1 0x1 PUSH1 0xA0 SHL SUB AND CALLER EQ PUSH3 0x2C0 JUMPI PUSH1 0x40 MLOAD PUSH3 0x461BCD PUSH1 0xE5 SHL DUP2 MSTORE PUSH1 0x20 PUSH1 0x4 DUP3 ADD DUP2 SWAP1 MSTORE PUSH1 0x24 DUP3 ADD MSTORE PUSH32 0x4F776E61626C653A2063616C6C6572206973206E6F7420746865206F776E6572 PUSH1 0x44 DUP3 ADD MSTORE PUSH1 0x64 ADD PUSH3 0x15E JUMP JUMPDEST PUSH1 0x2 DUP1 SLOAD PUSH1 0x1 PUSH1 0x1 PUSH1 0xA0 SHL SUB SWAP1 SWAP3 AND PUSH20 0xFFFFFFFFFFFFFFFFFFFFFFFFFFFFFFFFFFFFFFFF NOT SWAP3 DUP4 AND DUP2 OR SWAP1 SWAP2 SSTORE PUSH1 0x3 DUP1 SLOAD SWAP1 SWAP3 AND OR SWAP1 SSTORE JUMP JUMPDEST PUSH1 0x0 SLOAD PUSH1 0x1 PUSH1 0x1 PUSH1 0xA0 SHL SUB AND CALLER EQ PUSH3 0x355 JUMPI PUSH1 0x40 MLOAD PUSH3 0x461BCD PUSH1 0xE5 SHL DUP2 MSTORE PUSH1 0x20 PUSH1 0x4 DUP3 ADD DUP2 SWAP1 MSTORE PUSH1 0x24 DUP3 ADD MSTORE PUSH32 0x4F776E61626C653A2063616C6C6572206973206E6F7420746865206F776E6572 PUSH1 0x44 DUP3 ADD MSTORE PUSH1 0x64 ADD PUSH3 0x15E JUMP JUMPDEST PUSH1 0x1 PUSH1 0x1 PUSH1 0xA0 SHL SUB DUP2 AND PUSH3 0x3D3 JUMPI PUSH1 0x40 MLOAD PUSH3 0x461BCD PUSH1 0xE5 SHL DUP2 MSTORE PUSH1 0x20 PUSH1 0x4 DUP3 ADD MSTORE PUSH1 0x26 PUSH1 0x24 DUP3 ADD MSTORE PUSH32 0x4F776E61626C653A206E6577206F776E657220697320746865207A65726F2061 PUSH1 0x44 DUP3 ADD MSTORE PUSH32 0x6464726573730000000000000000000000000000000000000000000000000000 PUSH1 0x64 DUP3 ADD MSTORE PUSH1 0x84 ADD PUSH3 0x15E JUMP JUMPDEST PUSH1 0x0 DUP1 SLOAD PUSH1 0x40 MLOAD PUSH1 0x1 PUSH1 0x1 PUSH1 0xA0 SHL SUB DUP1 DUP6 AND SWAP4 SWAP3 AND SWAP2 PUSH32 0x8BE0079C531659141344CD1FD0A4F28419497F9722A3DAAFE3B4186F6B6457E0 SWAP2 LOG3 PUSH1 0x0 DUP1 SLOAD PUSH20 0xFFFFFFFFFFFFFFFFFFFFFFFFFFFFFFFFFFFFFFFF NOT AND PUSH1 0x1 PUSH1 0x1 PUSH1 0xA0 SHL SUB SWAP3 SWAP1 SWAP3 AND SWAP2 SWAP1 SWAP2 OR SWAP1 SSTORE JUMP JUMPDEST PUSH1 0x3 SLOAD PUSH1 0x40 MLOAD PUSH32 0x7FC9592D00000000000000000000000000000000000000000000000000000000 DUP2 MSTORE CALLER PUSH1 0x4 DUP3 ADD MSTORE PUSH1 0x0 SWAP2 PUSH1 0x1 PUSH1 0x1 PUSH1 0xA0 SHL SUB AND SWAP1 PUSH4 0x7FC9592D SWAP1 PUSH1 0x24 ADD PUSH1 0x0 PUSH1 0x40 MLOAD DUP1 DUP4 SUB DUP2 PUSH1 0x0 DUP8 DUP1 EXTCODESIZE ISZERO DUP1 ISZERO PUSH3 0x49B JUMPI PUSH1 0x0 DUP1 REVERT JUMPDEST POP GAS CALL ISZERO DUP1 ISZERO PUSH3 0x4B0 JUMPI RETURNDATASIZE PUSH1 0x0 DUP1 RETURNDATACOPY RETURNDATASIZE PUSH1 0x0 REVERT JUMPDEST POP POP POP POP PUSH1 0x40 MLOAD RETURNDATASIZE PUSH1 0x0 DUP3 RETURNDATACOPY PUSH1 0x1F RETURNDATASIZE SWAP1 DUP2 ADD PUSH1 0x1F NOT AND DUP3 ADD PUSH1 0x40 MSTORE PUSH3 0x4DA SWAP2 SWAP1 DUP2 ADD SWAP1 PUSH3 0x769 JUMP JUMPDEST SWAP1 POP DUP1 PUSH1 0x20 ADD MLOAD PUSH3 0x555 JUMPI PUSH1 0x40 MLOAD PUSH3 0x461BCD PUSH1 0xE5 SHL DUP2 MSTORE PUSH1 0x20 PUSH1 0x4 DUP3 ADD MSTORE PUSH1 0x2C PUSH1 0x24 DUP3 ADD MSTORE PUSH32 0x43616C6C65722061646472657373206973206E6F742076657269666965642077 PUSH1 0x44 DUP3 ADD MSTORE PUSH32 0x6974682054776974746572210000000000000000000000000000000000000000 PUSH1 0x64 DUP3 ADD MSTORE PUSH1 0x84 ADD PUSH3 0x15E JUMP JUMPDEST PUSH1 0x0 DUP11 DUP3 PUSH1 0x40 ADD MLOAD DUP12 DUP12 DUP12 CALLER DUP13 DUP13 DUP13 DUP13 DUP13 PUSH1 0x40 MLOAD PUSH3 0x574 SWAP1 PUSH3 0x611 JUMP JUMPDEST PUSH3 0x58A SWAP12 SWAP11 SWAP10 SWAP9 SWAP8 SWAP7 SWAP6 SWAP5 SWAP4 SWAP3 SWAP2 SWAP1 PUSH3 0x865 JUMP JUMPDEST PUSH1 0x40 MLOAD DUP1 SWAP2 SUB SWAP1 PUSH1 0x0 CREATE DUP1 ISZERO DUP1 ISZERO PUSH3 0x5A7 JUMPI RETURNDATASIZE PUSH1 0x0 DUP1 RETURNDATACOPY RETURNDATASIZE PUSH1 0x0 REVERT JUMPDEST POP PUSH1 0x1 DUP1 SLOAD DUP1 DUP3 ADD DUP3 SSTORE PUSH1 0x0 SWAP2 SWAP1 SWAP2 MSTORE PUSH32 0xB10E2D527612073B26EECDFD717E6A320CF44B4AFAC2B0732D9FCBE2B7FA0CF6 ADD DUP1 SLOAD PUSH20 0xFFFFFFFFFFFFFFFFFFFFFFFFFFFFFFFFFFFFFFFF NOT AND PUSH1 0x1 PUSH1 0x1 PUSH1 0xA0 SHL SUB SWAP3 SWAP1 SWAP3 AND SWAP2 SWAP1 SWAP2 OR SWAP1 SSTORE POP POP POP POP POP POP POP POP POP POP POP JUMP JUMPDEST PUSH2 0x26B5 DUP1 PUSH3 0x9E6 DUP4 CODECOPY ADD SWAP1 JUMP JUMPDEST DUP1 CALLDATALOAD PUSH1 0x1 PUSH1 0x1 PUSH1 0xA0 SHL SUB DUP2 AND DUP2 EQ PUSH3 0x637 JUMPI PUSH1 0x0 DUP1 REVERT JUMPDEST SWAP2 SWAP1 POP JUMP JUMPDEST PUSH1 0x0 PUSH1 0x20 DUP3 DUP5 SUB SLT ISZERO PUSH3 0x64E JUMPI DUP1 DUP2 REVERT JUMPDEST PUSH3 0x659 DUP3 PUSH3 0x61F JUMP JUMPDEST SWAP4 SWAP3 POP POP POP JUMP JUMPDEST PUSH1 0x0 PUSH1 0x20 DUP3 DUP5 SUB SLT ISZERO PUSH3 0x672 JUMPI DUP1 DUP2 REVERT JUMPDEST DUP2 CALLDATALOAD PUSH3 0x659 DUP2 PUSH3 0x9D3 JUMP JUMPDEST PUSH1 0x0 DUP1 PUSH1 0x0 DUP1 PUSH1 0x0 DUP1 PUSH1 0x0 DUP1 PUSH1 0x0 PUSH2 0x120 DUP11 DUP13 SUB SLT ISZERO PUSH3 0x69E JUMPI DUP5 DUP6 REVERT JUMPDEST DUP10 CALLDATALOAD PUSH8 0xFFFFFFFFFFFFFFFF DUP2 GT ISZERO PUSH3 0x6B5 JUMPI DUP6 DUP7 REVERT JUMPDEST DUP11 ADD PUSH1 0x1F DUP2 ADD DUP13 SGT PUSH3 0x6C6 JUMPI DUP6 DUP7 REVERT JUMPDEST DUP1 CALLDATALOAD PUSH3 0x6DD PUSH3 0x6D7 DUP3 PUSH3 0x946 JUMP JUMPDEST PUSH3 0x912 JUMP JUMPDEST DUP2 DUP2 MSTORE DUP14 PUSH1 0x20 DUP4 DUP6 ADD ADD GT ISZERO PUSH3 0x6F2 JUMPI DUP8 DUP9 REVERT JUMPDEST DUP2 PUSH1 0x20 DUP5 ADD PUSH1 0x20 DUP4 ADD CALLDATACOPY DUP8 PUSH1 0x20 DUP4 DUP4 ADD ADD MSTORE DUP1 SWAP12 POP POP POP POP PUSH1 0x20 DUP11 ADD CALLDATALOAD SWAP8 POP PUSH3 0x71F PUSH1 0x40 DUP12 ADD PUSH3 0x61F JUMP JUMPDEST SWAP7 POP PUSH3 0x72F PUSH1 0x60 DUP12 ADD PUSH3 0x61F JUMP JUMPDEST SWAP6 POP PUSH3 0x73F PUSH1 0x80 DUP12 ADD PUSH3 0x61F JUMP JUMPDEST SWAP9 SWAP12 SWAP8 SWAP11 POP SWAP6 SWAP9 SWAP5 SWAP8 SWAP7 PUSH1 0xA0 DUP7 ADD CALLDATALOAD SWAP7 POP PUSH1 0xC0 DUP7 ADD CALLDATALOAD SWAP6 PUSH1 0xE0 DUP2 ADD CALLDATALOAD SWAP6 POP PUSH2 0x100 ADD CALLDATALOAD SWAP4 POP SWAP2 POP POP JUMP JUMPDEST PUSH1 0x0 PUSH1 0x20 DUP1 DUP4 DUP6 SUB SLT ISZERO PUSH3 0x77C JUMPI DUP2 DUP3 REVERT JUMPDEST DUP3 MLOAD PUSH8 0xFFFFFFFFFFFFFFFF DUP1 DUP3 GT ISZERO PUSH3 0x794 JUMPI DUP4 DUP5 REVERT JUMPDEST SWAP1 DUP5 ADD SWAP1 PUSH1 0x60 DUP3 DUP8 SUB SLT ISZERO PUSH3 0x7A8 JUMPI DUP4 DUP5 REVERT JUMPDEST PUSH3 0x7B2 PUSH3 0x8E6 JUMP JUMPDEST DUP3 MLOAD DUP2 MSTORE DUP4 DUP4 ADD MLOAD PUSH3 0x7C5 DUP2 PUSH3 0x9D3 JUMP JUMPDEST DUP2 DUP6 ADD MSTORE PUSH1 0x40 DUP4 ADD MLOAD DUP3 DUP2 GT ISZERO PUSH3 0x7DB JUMPI DUP6 DUP7 REVERT JUMPDEST DUP1 DUP5 ADD SWAP4 POP POP DUP7 PUSH1 0x1F DUP5 ADD SLT PUSH3 0x7F0 JUMPI DUP5 DUP6 REVERT JUMPDEST DUP3 MLOAD SWAP2 POP PUSH3 0x803 PUSH3 0x6D7 DUP4 PUSH3 0x946 JUMP JUMPDEST DUP3 DUP2 MSTORE DUP8 DUP6 DUP5 DUP7 ADD ADD GT ISZERO PUSH3 0x817 JUMPI DUP6 DUP7 REVERT JUMPDEST PUSH3 0x828 DUP4 DUP7 DUP4 ADD DUP8 DUP8 ADD PUSH3 0x971 JUMP JUMPDEST PUSH1 0x40 DUP3 ADD MSTORE SWAP7 SWAP6 POP POP POP POP POP POP JUMP JUMPDEST PUSH1 0x0 DUP2 MLOAD DUP1 DUP5 MSTORE PUSH3 0x851 DUP2 PUSH1 0x20 DUP7 ADD PUSH1 0x20 DUP7 ADD PUSH3 0x971 JUMP JUMPDEST PUSH1 0x1F ADD PUSH1 0x1F NOT AND SWAP3 SWAP1 SWAP3 ADD PUSH1 0x20 ADD SWAP3 SWAP2 POP POP JUMP JUMPDEST PUSH1 0x0 PUSH2 0x160 DUP1 DUP4 MSTORE PUSH3 0x87B DUP2 DUP5 ADD DUP16 PUSH3 0x837 JUMP JUMPDEST SWAP1 POP DUP3 DUP2 SUB PUSH1 0x20 DUP5 ADD MSTORE PUSH3 0x891 DUP2 DUP15 PUSH3 0x837 JUMP JUMPDEST PUSH1 0x40 DUP5 ADD SWAP13 SWAP1 SWAP13 MSTORE POP POP PUSH1 0x1 PUSH1 0x1 PUSH1 0xA0 SHL SUB SWAP9 DUP10 AND PUSH1 0x60 DUP3 ADD MSTORE SWAP7 DUP9 AND PUSH1 0x80 DUP9 ADD MSTORE SWAP5 DUP8 AND PUSH1 0xA0 DUP8 ADD MSTORE SWAP3 SWAP1 SWAP6 AND PUSH1 0xC0 DUP6 ADD MSTORE PUSH1 0xE0 DUP5 ADD MSTORE PUSH2 0x100 DUP4 ADD SWAP4 SWAP1 SWAP4 MSTORE PUSH2 0x120 DUP3 ADD SWAP3 SWAP1 SWAP3 MSTORE PUSH2 0x140 ADD MSTORE SWAP3 SWAP2 POP POP JUMP JUMPDEST PUSH1 0x40 MLOAD PUSH1 0x60 DUP2 ADD PUSH8 0xFFFFFFFFFFFFFFFF DUP2 GT DUP3 DUP3 LT OR ISZERO PUSH3 0x90C JUMPI PUSH3 0x90C PUSH3 0x9A4 JUMP JUMPDEST PUSH1 0x40 MSTORE SWAP1 JUMP JUMPDEST PUSH1 0x40 MLOAD PUSH1 0x1F DUP3 ADD PUSH1 0x1F NOT AND DUP2 ADD PUSH8 0xFFFFFFFFFFFFFFFF DUP2 GT DUP3 DUP3 LT OR ISZERO PUSH3 0x93E JUMPI PUSH3 0x93E PUSH3 0x9A4 JUMP JUMPDEST PUSH1 0x40 MSTORE SWAP2 SWAP1 POP JUMP JUMPDEST PUSH1 0x0 PUSH8 0xFFFFFFFFFFFFFFFF DUP3 GT ISZERO PUSH3 0x963 JUMPI PUSH3 0x963 PUSH3 0x9A4 JUMP JUMPDEST POP PUSH1 0x1F ADD PUSH1 0x1F NOT AND PUSH1 0x20 ADD SWAP1 JUMP JUMPDEST PUSH1 0x0 JUMPDEST DUP4 DUP2 LT ISZERO PUSH3 0x98E JUMPI DUP2 DUP2 ADD MLOAD DUP4 DUP3 ADD MSTORE PUSH1 0x20 ADD PUSH3 0x974 JUMP JUMPDEST DUP4 DUP2 GT ISZERO PUSH3 0x99E JUMPI PUSH1 0x0 DUP5 DUP5 ADD MSTORE JUMPDEST POP POP POP POP JUMP JUMPDEST PUSH32 0x4E487B7100000000000000000000000000000000000000000000000000000000 PUSH1 0x0 MSTORE PUSH1 0x41 PUSH1 0x4 MSTORE PUSH1 0x24 PUSH1 0x0 REVERT JUMPDEST DUP1 ISZERO ISZERO DUP2 EQ PUSH3 0x9E2 JUMPI PUSH1 0x0 DUP1 REVERT JUMPDEST POP JUMP INVALID PUSH1 0x80 PUSH1 0x40 MSTORE PUSH1 0x0 PUSH1 0x29 SSTORE CALLVALUE DUP1 ISZERO PUSH3 0x16 JUMPI PUSH1 0x0 DUP1 REVERT JUMPDEST POP PUSH1 0x40 MLOAD PUSH3 0x26B5 CODESIZE SUB DUP1 PUSH3 0x26B5 DUP4 CODECOPY DUP2 ADD PUSH1 0x40 DUP2 SWAP1 MSTORE PUSH3 0x39 SWAP2 PUSH3 0x3BD JUMP JUMPDEST PUSH1 0x0 DUP1 SLOAD PUSH1 0x1 PUSH1 0x1 PUSH1 0xA0 SHL SUB NOT SWAP1 DUP2 AND PUSH1 0x1 PUSH1 0x1 PUSH1 0xA0 SHL SUB DUP10 DUP2 AND SWAP2 DUP3 OR SWAP1 SWAP4 SSTORE PUSH1 0x6 DUP13 SWAP1 SSTORE PUSH1 0x1 DUP1 SLOAD SWAP1 SWAP3 AND SWAP3 DUP12 AND SWAP3 DUP4 OR SWAP1 SWAP2 SSTORE PUSH1 0x40 MLOAD PUSH4 0x23B872DD PUSH1 0xE0 SHL DUP2 MSTORE PUSH1 0x4 DUP2 ADD SWAP2 SWAP1 SWAP2 MSTORE ADDRESS PUSH1 0x24 DUP3 ADD MSTORE PUSH1 0x44 DUP2 ADD DUP12 SWAP1 MSTORE PUSH4 0x23B872DD SWAP1 PUSH1 0x64 ADD PUSH1 0x20 PUSH1 0x40 MLOAD DUP1 DUP4 SUB DUP2 PUSH1 0x0 DUP8 DUP1 EXTCODESIZE ISZERO DUP1 ISZERO PUSH3 0xB5 JUMPI PUSH1 0x0 DUP1 REVERT JUMPDEST POP GAS CALL ISZERO DUP1 ISZERO PUSH3 0xCA JUMPI RETURNDATASIZE PUSH1 0x0 DUP1 RETURNDATACOPY RETURNDATASIZE PUSH1 0x0 REVERT JUMPDEST POP POP POP POP PUSH1 0x40 MLOAD RETURNDATASIZE PUSH1 0x1F NOT PUSH1 0x1F DUP3 ADD AND DUP3 ADD DUP1 PUSH1 0x40 MSTORE POP DUP2 ADD SWAP1 PUSH3 0xF0 SWAP2 SWAP1 PUSH3 0x394 JUMP JUMPDEST PUSH3 0x158 JUMPI PUSH1 0x40 MLOAD PUSH3 0x461BCD PUSH1 0xE5 SHL DUP2 MSTORE PUSH1 0x20 PUSH1 0x4 DUP3 ADD MSTORE PUSH1 0x2E PUSH1 0x24 DUP3 ADD MSTORE PUSH32 0x7472616E6466657246726F6D206661696C65642C20706F6F6C206E6F74206261 PUSH1 0x44 DUP3 ADD MSTORE PUSH14 0x636B65642062792066756E647321 PUSH1 0x90 SHL PUSH1 0x64 DUP3 ADD MSTORE PUSH1 0x84 ADD PUSH1 0x40 MLOAD DUP1 SWAP2 SUB SWAP1 REVERT JUMPDEST PUSH1 0xA PUSH1 0x6 SLOAD PUSH3 0x169 SWAP2 SWAP1 PUSH3 0x4CD JUMP JUMPDEST PUSH1 0x23 SSTORE PUSH1 0x2 DUP1 SLOAD PUSH1 0x1 PUSH1 0x1 PUSH1 0xA0 SHL SUB DUP1 DUP11 AND PUSH1 0x1 PUSH1 0x1 PUSH1 0xA0 SHL SUB NOT SWAP3 DUP4 AND OR SWAP1 SWAP3 SSTORE PUSH1 0x3 DUP1 SLOAD SWAP3 DUP9 AND SWAP3 SWAP1 SWAP2 AND SWAP2 SWAP1 SWAP2 OR SWAP1 SSTORE DUP11 MLOAD PUSH3 0x1B1 SWAP1 PUSH1 0x4 SWAP1 PUSH1 0x20 DUP15 ADD SWAP1 PUSH3 0x21E JUMP JUMPDEST POP DUP10 MLOAD PUSH3 0x1C7 SWAP1 PUSH1 0x5 SWAP1 PUSH1 0x20 DUP14 ADD SWAP1 PUSH3 0x21E JUMP JUMPDEST POP NUMBER PUSH3 0x1D5 DUP3 DUP3 PUSH3 0x4A8 JUMP JUMPDEST PUSH1 0x7 DUP2 SWAP1 SSTORE PUSH3 0x1E7 SWAP1 DUP6 SWAP1 PUSH3 0x4A8 JUMP JUMPDEST PUSH1 0x8 DUP2 SWAP1 SSTORE PUSH3 0x1F9 SWAP1 DUP5 SWAP1 PUSH3 0x4A8 JUMP JUMPDEST PUSH1 0x9 SSTORE PUSH3 0x208 DUP6 DUP3 PUSH3 0x4A8 JUMP JUMPDEST PUSH1 0xA SSTORE POP PUSH3 0x541 SWAP11 POP POP POP POP POP POP POP POP POP POP POP JUMP JUMPDEST DUP3 DUP1 SLOAD PUSH3 0x22C SWAP1 PUSH3 0x4EE JUMP JUMPDEST SWAP1 PUSH1 0x0 MSTORE PUSH1 0x20 PUSH1 0x0 KECCAK256 SWAP1 PUSH1 0x1F ADD PUSH1 0x20 SWAP1 DIV DUP2 ADD SWAP3 DUP3 PUSH3 0x250 JUMPI PUSH1 0x0 DUP6 SSTORE PUSH3 0x29B JUMP JUMPDEST DUP3 PUSH1 0x1F LT PUSH3 0x26B JUMPI DUP1 MLOAD PUSH1 0xFF NOT AND DUP4 DUP1 ADD OR DUP6 SSTORE PUSH3 0x29B JUMP JUMPDEST DUP3 DUP1 ADD PUSH1 0x1 ADD DUP6 SSTORE DUP3 ISZERO PUSH3 0x29B JUMPI SWAP2 DUP3 ADD JUMPDEST DUP3 DUP2 GT ISZERO PUSH3 0x29B JUMPI DUP3 MLOAD DUP3 SSTORE SWAP2 PUSH1 0x20 ADD SWAP2 SWAP1 PUSH1 0x1 ADD SWAP1 PUSH3 0x27E JUMP JUMPDEST POP PUSH3 0x2A9 SWAP3 SWAP2 POP PUSH3 0x2AD JUMP JUMPDEST POP SWAP1 JUMP JUMPDEST JUMPDEST DUP1 DUP3 GT ISZERO PUSH3 0x2A9 JUMPI PUSH1 0x0 DUP2 SSTORE PUSH1 0x1 ADD PUSH3 0x2AE JUMP JUMPDEST DUP1 MLOAD PUSH1 0x1 PUSH1 0x1 PUSH1 0xA0 SHL SUB DUP2 AND DUP2 EQ PUSH3 0x2DC JUMPI PUSH1 0x0 DUP1 REVERT JUMPDEST SWAP2 SWAP1 POP JUMP JUMPDEST PUSH1 0x0 DUP3 PUSH1 0x1F DUP4 ADD SLT PUSH3 0x2F2 JUMPI DUP1 DUP2 REVERT JUMPDEST DUP2 MLOAD PUSH1 0x1 PUSH1 0x1 PUSH1 0x40 SHL SUB DUP1 DUP3 GT ISZERO PUSH3 0x30F JUMPI PUSH3 0x30F PUSH3 0x52B JUMP JUMPDEST PUSH1 0x40 MLOAD PUSH1 0x1F DUP4 ADD PUSH1 0x1F NOT SWAP1 DUP2 AND PUSH1 0x3F ADD AND DUP2 ADD SWAP1 DUP3 DUP3 GT DUP2 DUP4 LT OR ISZERO PUSH3 0x33A JUMPI PUSH3 0x33A PUSH3 0x52B JUMP JUMPDEST DUP2 PUSH1 0x40 MSTORE DUP4 DUP2 MSTORE PUSH1 0x20 SWAP3 POP DUP7 DUP4 DUP6 DUP9 ADD ADD GT ISZERO PUSH3 0x356 JUMPI DUP5 DUP6 REVERT JUMPDEST DUP5 SWAP2 POP JUMPDEST DUP4 DUP3 LT ISZERO PUSH3 0x379 JUMPI DUP6 DUP3 ADD DUP4 ADD MLOAD DUP2 DUP4 ADD DUP5 ADD MSTORE SWAP1 DUP3 ADD SWAP1 PUSH3 0x35A JUMP JUMPDEST DUP4 DUP3 GT ISZERO PUSH3 0x38A JUMPI DUP5 DUP4 DUP6 DUP4 ADD ADD MSTORE JUMPDEST SWAP7 SWAP6 POP POP POP POP POP POP JUMP JUMPDEST PUSH1 0x0 PUSH1 0x20 DUP3 DUP5 SUB SLT ISZERO PUSH3 0x3A6 JUMPI DUP1 DUP2 REVERT JUMPDEST DUP2 MLOAD DUP1 ISZERO ISZERO DUP2 EQ PUSH3 0x3B6 JUMPI DUP2 DUP3 REVERT JUMPDEST SWAP4 SWAP3 POP POP POP JUMP JUMPDEST PUSH1 0x0 DUP1 PUSH1 0x0 DUP1 PUSH1 0x0 DUP1 PUSH1 0x0 DUP1 PUSH1 0x0 DUP1 PUSH1 0x0 PUSH2 0x160 DUP13 DUP15 SUB SLT ISZERO PUSH3 0x3DF JUMPI DUP7 DUP8 REVERT JUMPDEST DUP12 MLOAD PUSH1 0x1 PUSH1 0x1 PUSH1 0x40 SHL SUB DUP2 GT ISZERO PUSH3 0x3F5 JUMPI DUP8 DUP9 REVERT JUMPDEST PUSH3 0x403 DUP15 DUP3 DUP16 ADD PUSH3 0x2E1 JUMP JUMPDEST PUSH1 0x20 DUP15 ADD MLOAD SWAP1 SWAP13 POP SWAP1 POP PUSH1 0x1 PUSH1 0x1 PUSH1 0x40 SHL SUB DUP2 GT ISZERO PUSH3 0x421 JUMPI DUP8 DUP9 REVERT JUMPDEST PUSH3 0x42F DUP15 DUP3 DUP16 ADD PUSH3 0x2E1 JUMP JUMPDEST SWAP11 POP POP PUSH1 0x40 DUP13 ADD MLOAD SWAP9 POP PUSH3 0x447 PUSH1 0x60 DUP14 ADD PUSH3 0x2C4 JUMP JUMPDEST SWAP8 POP PUSH3 0x457 PUSH1 0x80 DUP14 ADD PUSH3 0x2C4 JUMP JUMPDEST SWAP7 POP PUSH3 0x467 PUSH1 0xA0 DUP14 ADD PUSH3 0x2C4 JUMP JUMPDEST SWAP6 POP PUSH3 0x477 PUSH1 0xC0 DUP14 ADD PUSH3 0x2C4 JUMP JUMPDEST SWAP5 POP PUSH1 0xE0 DUP13 ADD MLOAD SWAP4 POP PUSH2 0x100 DUP13 ADD MLOAD SWAP3 POP PUSH2 0x120 DUP13 ADD MLOAD SWAP2 POP PUSH2 0x140 DUP13 ADD MLOAD SWAP1 POP SWAP3 SWAP6 SWAP9 SWAP12 POP SWAP3 SWAP6 SWAP9 SWAP12 SWAP1 SWAP4 SWAP7 SWAP10 POP JUMP JUMPDEST PUSH1 0x0 DUP3 NOT DUP3 GT ISZERO PUSH3 0x4C8 JUMPI PUSH4 0x4E487B71 PUSH1 0xE0 SHL DUP2 MSTORE PUSH1 0x11 PUSH1 0x4 MSTORE PUSH1 0x24 DUP2 REVERT JUMPDEST POP ADD SWAP1 JUMP JUMPDEST PUSH1 0x0 DUP3 PUSH3 0x4E9 JUMPI PUSH4 0x4E487B71 PUSH1 0xE0 SHL DUP2 MSTORE PUSH1 0x12 PUSH1 0x4 MSTORE PUSH1 0x24 DUP2 REVERT JUMPDEST POP DIV SWAP1 JUMP JUMPDEST PUSH1 0x1 DUP2 DUP2 SHR SWAP1 DUP3 AND DUP1 PUSH3 0x503 JUMPI PUSH1 0x7F DUP3 AND SWAP2 POP JUMPDEST PUSH1 0x20 DUP3 LT DUP2 EQ ISZERO PUSH3 0x525 JUMPI PUSH4 0x4E487B71 PUSH1 0xE0 SHL PUSH1 0x0 MSTORE PUSH1 0x22 PUSH1 0x4 MSTORE PUSH1 0x24 PUSH1 0x0 REVERT JUMPDEST POP SWAP2 SWAP1 POP JUMP JUMPDEST PUSH4 0x4E487B71 PUSH1 0xE0 SHL PUSH1 0x0 MSTORE PUSH1 0x41 PUSH1 0x4 MSTORE PUSH1 0x24 PUSH1 0x0 REVERT JUMPDEST PUSH2 0x2164 DUP1 PUSH3 0x551 PUSH1 0x0 CODECOPY PUSH1 0x0 RETURN INVALID PUSH1 0x80 PUSH1 0x40 MSTORE CALLVALUE DUP1 ISZERO PUSH2 0x10 JUMPI PUSH1 0x0 DUP1 REVERT JUMPDEST POP PUSH1 0x4 CALLDATASIZE LT PUSH2 0x11B JUMPI PUSH1 0x0 CALLDATALOAD PUSH1 0xE0 SHR DUP1 PUSH4 0x5353A2D8 GT PUSH2 0xB2 JUMPI DUP1 PUSH4 0x88635441 GT PUSH2 0x81 JUMPI DUP1 PUSH4 0xB278FA4B GT PUSH2 0x66 JUMPI DUP1 PUSH4 0xB278FA4B EQ PUSH2 0x218 JUMPI DUP1 PUSH4 0xC89F2CE4 EQ PUSH2 0x220 JUMPI DUP1 PUSH4 0xF3466DFA EQ PUSH2 0x229 JUMPI PUSH1 0x0 DUP1 REVERT JUMPDEST DUP1 PUSH4 0x88635441 EQ PUSH2 0x1F2 JUMPI DUP1 PUSH4 0xA9E732BB EQ PUSH2 0x205 JUMPI PUSH1 0x0 DUP1 REVERT JUMPDEST DUP1 PUSH4 0x5353A2D8 EQ PUSH2 0x1A6 JUMPI DUP1 PUSH4 0x5A047364 EQ PUSH2 0x1B9 JUMPI DUP1 PUSH4 0x5CBDDB9F EQ PUSH2 0x1CC JUMPI DUP1 PUSH4 0x5CD68D8B EQ PUSH2 0x1D5 JUMPI PUSH1 0x0 DUP1 REVERT JUMPDEST DUP1 PUSH4 0x3D702099 GT PUSH2 0xEE JUMPI DUP1 PUSH4 0x3D702099 EQ PUSH2 0x163 JUMPI DUP1 PUSH4 0x47BA59C9 EQ PUSH2 0x176 JUMPI DUP1 PUSH4 0x4C524BE4 EQ PUSH2 0x18B JUMPI DUP1 PUSH4 0x4C991657 EQ PUSH2 0x19E JUMPI PUSH1 0x0 DUP1 REVERT JUMPDEST DUP1 PUSH4 0x156A51D6 EQ PUSH2 0x120 JUMPI DUP1 PUSH4 0x1B818FB5 EQ PUSH2 0x13C JUMPI DUP1 PUSH4 0x20196065 EQ PUSH2 0x145 JUMPI DUP1 PUSH4 0x2180877F EQ PUSH2 0x15A JUMPI JUMPDEST PUSH1 0x0 DUP1 REVERT JUMPDEST PUSH2 0x129 PUSH1 0x8 SLOAD DUP2 JUMP JUMPDEST PUSH1 0x40 MLOAD SWAP1 DUP2 MSTORE PUSH1 0x20 ADD JUMPDEST PUSH1 0x40 MLOAD DUP1 SWAP2 SUB SWAP1 RETURN JUMPDEST PUSH2 0x129 PUSH1 0x7 SLOAD DUP2 JUMP JUMPDEST PUSH2 0x14D PUSH2 0x231 JUMP JUMPDEST PUSH1 0x40 MLOAD PUSH2 0x133 SWAP2 SWAP1 PUSH2 0x1FEB JUMP JUMPDEST PUSH2 0x129 PUSH1 0xA SLOAD DUP2 JUMP JUMPDEST PUSH2 0x129 PUSH2 0x171 CALLDATASIZE PUSH1 0x4 PUSH2 0x1FD3 JUMP JUMPDEST PUSH2 0x2BF JUMP JUMPDEST PUSH2 0x189 PUSH2 0x184 CALLDATASIZE PUSH1 0x4 PUSH2 0x1E68 JUMP JUMPDEST PUSH2 0x2D6 JUMP JUMPDEST STOP JUMPDEST PUSH2 0x189 PUSH2 0x199 CALLDATASIZE PUSH1 0x4 PUSH2 0x1FD3 JUMP JUMPDEST PUSH2 0x631 JUMP JUMPDEST PUSH2 0x189 PUSH2 0xCE9 JUMP JUMPDEST PUSH2 0x189 PUSH2 0x1B4 CALLDATASIZE PUSH1 0x4 PUSH2 0x1F29 JUMP JUMPDEST PUSH2 0xFDA JUMP JUMPDEST PUSH2 0x189 PUSH2 0x1C7 CALLDATASIZE PUSH1 0x4 PUSH2 0x1FD3 JUMP JUMPDEST PUSH2 0x105F JUMP JUMPDEST PUSH2 0x129 PUSH1 0x9 SLOAD DUP2 JUMP JUMPDEST PUSH1 0xB SLOAD PUSH2 0x1E2 SWAP1 PUSH1 0xFF AND DUP2 JUMP JUMPDEST PUSH1 0x40 MLOAD SWAP1 ISZERO ISZERO DUP2 MSTORE PUSH1 0x20 ADD PUSH2 0x133 JUMP JUMPDEST PUSH2 0x129 PUSH2 0x200 CALLDATASIZE PUSH1 0x4 PUSH2 0x1FD3 JUMP JUMPDEST PUSH2 0x156A JUMP JUMPDEST PUSH2 0x189 PUSH2 0x213 CALLDATASIZE PUSH1 0x4 PUSH2 0x1FD3 JUMP JUMPDEST PUSH2 0x157A JUMP JUMPDEST PUSH2 0x189 PUSH2 0x19C6 JUMP JUMPDEST PUSH2 0x129 PUSH1 0x6 SLOAD DUP2 JUMP JUMPDEST PUSH2 0x14D PUSH2 0x1D82 JUMP JUMPDEST PUSH1 0x5 DUP1 SLOAD PUSH2 0x23E SWAP1 PUSH2 0x208C JUMP JUMPDEST DUP1 PUSH1 0x1F ADD PUSH1 0x20 DUP1 SWAP2 DIV MUL PUSH1 0x20 ADD PUSH1 0x40 MLOAD SWAP1 DUP2 ADD PUSH1 0x40 MSTORE DUP1 SWAP3 SWAP2 SWAP1 DUP2 DUP2 MSTORE PUSH1 0x20 ADD DUP3 DUP1 SLOAD PUSH2 0x26A SWAP1 PUSH2 0x208C JUMP JUMPDEST DUP1 ISZERO PUSH2 0x2B7 JUMPI DUP1 PUSH1 0x1F LT PUSH2 0x28C JUMPI PUSH2 0x100 DUP1 DUP4 SLOAD DIV MUL DUP4 MSTORE SWAP2 PUSH1 0x20 ADD SWAP2 PUSH2 0x2B7 JUMP JUMPDEST DUP3 ADD SWAP2 SWAP1 PUSH1 0x0 MSTORE PUSH1 0x20 PUSH1 0x0 KECCAK256 SWAP1 JUMPDEST DUP2 SLOAD DUP2 MSTORE SWAP1 PUSH1 0x1 ADD SWAP1 PUSH1 0x20 ADD DUP1 DUP4 GT PUSH2 0x29A JUMPI DUP3 SWAP1 SUB PUSH1 0x1F AND DUP3 ADD SWAP2 JUMPDEST POP POP POP POP POP DUP2 JUMP JUMPDEST PUSH1 0x16 DUP2 PUSH1 0xA DUP2 LT PUSH2 0x2CF JUMPI PUSH1 0x0 DUP1 REVERT JUMPDEST ADD SLOAD SWAP1 POP DUP2 JUMP JUMPDEST PUSH1 0x7 SLOAD NUMBER LT PUSH2 0x352 JUMPI PUSH1 0x40 MLOAD PUSH3 0x461BCD PUSH1 0xE5 SHL DUP2 MSTORE PUSH1 0x20 PUSH1 0x4 DUP3 ADD MSTORE PUSH1 0x34 PUSH1 0x24 DUP3 ADD MSTORE PUSH32 0x43616E206E6F7420616464207375626D697373696F6E7320647572696E672074 PUSH1 0x44 DUP3 ADD MSTORE PUSH32 0x68652066616E20766F74696E6720706572696F64000000000000000000000000 PUSH1 0x64 DUP3 ADD MSTORE PUSH1 0x84 ADD JUMPDEST PUSH1 0x40 MLOAD DUP1 SWAP2 SUB SWAP1 REVERT JUMPDEST PUSH1 0x1 SLOAD PUSH1 0x23 SLOAD PUSH1 0x40 MLOAD PUSH4 0x23B872DD PUSH1 0xE0 SHL DUP2 MSTORE CALLER PUSH1 0x4 DUP3 ADD MSTORE ADDRESS PUSH1 0x24 DUP3 ADD MSTORE PUSH1 0x44 DUP2 ADD SWAP2 SWAP1 SWAP2 MSTORE PUSH1 0x1 PUSH1 0x1 PUSH1 0xA0 SHL SUB SWAP1 SWAP2 AND SWAP1 PUSH4 0x23B872DD SWAP1 PUSH1 0x64 ADD PUSH1 0x20 PUSH1 0x40 MLOAD DUP1 DUP4 SUB DUP2 PUSH1 0x0 DUP8 DUP1 EXTCODESIZE ISZERO DUP1 ISZERO PUSH2 0x3A8 JUMPI PUSH1 0x0 DUP1 REVERT JUMPDEST POP GAS CALL ISZERO DUP1 ISZERO PUSH2 0x3BC JUMPI RETURNDATASIZE PUSH1 0x0 DUP1 RETURNDATACOPY RETURNDATASIZE PUSH1 0x0 REVERT JUMPDEST POP POP POP POP PUSH1 0x40 MLOAD RETURNDATASIZE PUSH1 0x1F NOT PUSH1 0x1F DUP3 ADD AND DUP3 ADD DUP1 PUSH1 0x40 MSTORE POP DUP2 ADD SWAP1 PUSH2 0x3E0 SWAP2 SWAP1 PUSH2 0x1EEA JUMP JUMPDEST PUSH2 0x452 JUMPI PUSH1 0x40 MLOAD PUSH3 0x461BCD PUSH1 0xE5 SHL DUP2 MSTORE PUSH1 0x20 PUSH1 0x4 DUP3 ADD MSTORE PUSH1 0x34 PUSH1 0x24 DUP3 ADD MSTORE PUSH32 0x7472616E6466657246726F6D206661696C65642C207375626D697373696F6E20 PUSH1 0x44 DUP3 ADD MSTORE PUSH32 0x6E6F74206261636B65642062792066756E647321000000000000000000000000 PUSH1 0x64 DUP3 ADD MSTORE PUSH1 0x84 ADD PUSH2 0x349 JUMP JUMPDEST PUSH1 0x0 JUMPDEST PUSH1 0x3 DUP2 LT ISZERO PUSH2 0x55F JUMPI PUSH1 0x2 SLOAD PUSH1 0x1 PUSH1 0x1 PUSH1 0xA0 SHL SUB AND PUSH4 0x23B872DD CALLER ADDRESS DUP6 DUP6 PUSH1 0x3 DUP2 LT PUSH2 0x491 JUMPI PUSH4 0x4E487B71 PUSH1 0xE0 SHL PUSH1 0x0 MSTORE PUSH1 0x32 PUSH1 0x4 MSTORE PUSH1 0x24 PUSH1 0x0 REVERT JUMPDEST PUSH1 0x20 MUL ADD MLOAD PUSH1 0x40 MLOAD PUSH1 0x1 PUSH1 0x1 PUSH1 0xE0 SHL SUB NOT PUSH1 0xE0 DUP7 SWAP1 SHL AND DUP2 MSTORE PUSH1 0x1 PUSH1 0x1 PUSH1 0xA0 SHL SUB SWAP4 DUP5 AND PUSH1 0x4 DUP3 ADD MSTORE SWAP3 SWAP1 SWAP2 AND PUSH1 0x24 DUP4 ADD MSTORE PUSH1 0x44 DUP3 ADD MSTORE PUSH1 0x64 ADD PUSH1 0x0 PUSH1 0x40 MLOAD DUP1 DUP4 SUB DUP2 PUSH1 0x0 DUP8 DUP1 EXTCODESIZE ISZERO DUP1 ISZERO PUSH2 0x4E5 JUMPI PUSH1 0x0 DUP1 REVERT JUMPDEST POP GAS CALL ISZERO DUP1 ISZERO PUSH2 0x4F9 JUMPI RETURNDATASIZE PUSH1 0x0 DUP1 RETURNDATACOPY RETURNDATASIZE PUSH1 0x0 REVERT JUMPDEST POP POP PUSH1 0x29 SLOAD PUSH1 0x0 SWAP1 DUP2 MSTORE PUSH1 0x28 PUSH1 0x20 MSTORE PUSH1 0x40 SWAP1 KECCAK256 SWAP2 POP DUP4 SWAP1 POP DUP3 PUSH1 0x3 DUP2 LT PUSH2 0x530 JUMPI PUSH4 0x4E487B71 PUSH1 0xE0 SHL PUSH1 0x0 MSTORE PUSH1 0x32 PUSH1 0x4 MSTORE PUSH1 0x24 PUSH1 0x0 REVERT JUMPDEST PUSH1 0x20 SWAP1 DUP2 MUL SWAP2 SWAP1 SWAP2 ADD MLOAD DUP3 SLOAD PUSH1 0x1 DUP2 ADD DUP5 SSTORE PUSH1 0x0 SWAP4 DUP5 MSTORE SWAP2 SWAP1 SWAP3 KECCAK256 ADD SSTORE DUP1 PUSH2 0x557 DUP2 PUSH2 0x20C7 JUMP JUMPDEST SWAP2 POP POP PUSH2 0x455 JUMP JUMPDEST POP PUSH1 0x40 DUP1 MLOAD DUP1 DUP3 ADD DUP3 MSTORE CALLER DUP1 DUP3 MSTORE PUSH1 0x23 SLOAD PUSH1 0x20 DUP1 DUP5 ADD SWAP2 SWAP1 SWAP2 MSTORE PUSH1 0x29 DUP1 SLOAD PUSH1 0x0 SWAP1 DUP2 MSTORE PUSH1 0x28 DUP1 DUP5 MSTORE DUP7 DUP3 KECCAK256 SWAP5 DUP3 MSTORE PUSH1 0x1 SWAP1 SWAP5 ADD DUP4 MSTORE DUP6 DUP2 KECCAK256 DUP2 SWAP1 SSTORE SWAP1 SLOAD DUP2 MSTORE SWAP2 SWAP1 MSTORE SWAP2 DUP3 KECCAK256 PUSH1 0x3 ADD DUP1 SLOAD SWAP2 SWAP3 PUSH2 0x5B4 DUP4 PUSH2 0x20C7 JUMP JUMPDEST SWAP1 SWAP2 SSTORE POP POP PUSH1 0x29 DUP1 SLOAD PUSH1 0x0 SWAP1 DUP2 MSTORE PUSH1 0x28 PUSH1 0x20 SWAP1 DUP2 MSTORE PUSH1 0x40 DUP3 KECCAK256 PUSH1 0x2 SWAP1 DUP2 ADD DUP1 SLOAD PUSH1 0x1 DUP1 DUP3 ADD DUP4 SSTORE SWAP2 DUP6 MSTORE DUP4 DUP6 KECCAK256 DUP8 MLOAD SWAP2 SWAP1 SWAP4 MUL SWAP1 SWAP3 ADD DUP1 SLOAD PUSH20 0xFFFFFFFFFFFFFFFFFFFFFFFFFFFFFFFFFFFFFFFF NOT AND PUSH1 0x1 PUSH1 0x1 PUSH1 0xA0 SHL SUB SWAP1 SWAP4 AND SWAP3 SWAP1 SWAP3 OR DUP3 SSTORE SWAP2 DUP6 ADD MLOAD SWAP2 ADD SSTORE DUP2 SLOAD SWAP2 SWAP1 PUSH2 0x628 DUP4 PUSH2 0x20C7 JUMP JUMPDEST SWAP2 SWAP1 POP SSTORE POP POP POP JUMP JUMPDEST PUSH1 0x0 SLOAD PUSH1 0x1 PUSH1 0x1 PUSH1 0xA0 SHL SUB AND CALLER EQ PUSH2 0x69F JUMPI PUSH1 0x40 MLOAD PUSH3 0x461BCD PUSH1 0xE5 SHL DUP2 MSTORE PUSH1 0x20 PUSH1 0x4 DUP3 ADD MSTORE PUSH1 0x2B PUSH1 0x24 DUP3 ADD MSTORE PUSH32 0x4F6E6C792074686520506F6F6C204F776E65722063616E2063616C6C20746869 PUSH1 0x44 DUP3 ADD MSTORE PUSH11 0x732066756E6374696F6E21 PUSH1 0xA8 SHL PUSH1 0x64 DUP3 ADD MSTORE PUSH1 0x84 ADD PUSH2 0x349 JUMP JUMPDEST PUSH1 0x24 SLOAD PUSH1 0xFF AND ISZERO PUSH2 0x6F2 JUMPI PUSH1 0x40 MLOAD PUSH3 0x461BCD PUSH1 0xE5 SHL DUP2 MSTORE PUSH1 0x20 PUSH1 0x4 DUP3 ADD MSTORE PUSH1 0x18 PUSH1 0x24 DUP3 ADD MSTORE PUSH32 0x416C72656164792073656C65637465642077696E6E6572210000000000000000 PUSH1 0x44 DUP3 ADD MSTORE PUSH1 0x64 ADD PUSH2 0x349 JUMP JUMPDEST PUSH1 0xA SLOAD NUMBER GT PUSH2 0x769 JUMPI PUSH1 0x40 MLOAD PUSH3 0x461BCD PUSH1 0xE5 SHL DUP2 MSTORE PUSH1 0x20 PUSH1 0x4 DUP3 ADD MSTORE PUSH1 0x34 PUSH1 0x24 DUP3 ADD MSTORE PUSH32 0x43616E206F6E6C792063686F6F736520612077696E6E65722061667465722074 PUSH1 0x44 DUP3 ADD MSTORE PUSH32 0x68652063616D706169676E206973206F76657221000000000000000000000000 PUSH1 0x64 DUP3 ADD MSTORE PUSH1 0x84 ADD PUSH2 0x349 JUMP JUMPDEST PUSH1 0x26 SLOAD PUSH1 0xFF AND PUSH2 0x7E1 JUMPI PUSH1 0x40 MLOAD PUSH3 0x461BCD PUSH1 0xE5 SHL DUP2 MSTORE PUSH1 0x20 PUSH1 0x4 DUP3 ADD MSTORE PUSH1 0x23 PUSH1 0x24 DUP3 ADD MSTORE PUSH32 0x596F75206861766520746F2063616C6C2063686563466F725469657320666972 PUSH1 0x44 DUP3 ADD MSTORE PUSH32 0x7374210000000000000000000000000000000000000000000000000000000000 PUSH1 0x64 DUP3 ADD MSTORE PUSH1 0x84 ADD PUSH2 0x349 JUMP JUMPDEST PUSH1 0x24 DUP1 SLOAD PUSH1 0xFF NOT AND PUSH1 0x1 OR SWAP1 SSTORE PUSH1 0x0 DUP1 JUMPDEST PUSH1 0x27 SLOAD DUP2 LT ISZERO PUSH2 0x84A JUMPI PUSH1 0x20 DUP2 DUP2 SLOAD DUP2 LT PUSH2 0x81D JUMPI PUSH4 0x4E487B71 PUSH1 0xE0 SHL PUSH1 0x0 MSTORE PUSH1 0x32 PUSH1 0x4 MSTORE PUSH1 0x24 PUSH1 0x0 REVERT JUMPDEST SWAP1 PUSH1 0x0 MSTORE PUSH1 0x20 PUSH1 0x0 KECCAK256 ADD SLOAD DUP4 EQ ISZERO PUSH2 0x838 JUMPI PUSH1 0x1 SWAP2 POP PUSH2 0x84A JUMP JUMPDEST DUP1 PUSH2 0x842 DUP2 PUSH2 0x20C7 JUMP JUMPDEST SWAP2 POP POP PUSH2 0x7F2 JUMP JUMPDEST POP DUP1 PUSH2 0x8BE JUMPI PUSH1 0x40 MLOAD PUSH3 0x461BCD PUSH1 0xE5 SHL DUP2 MSTORE PUSH1 0x20 PUSH1 0x4 DUP3 ADD MSTORE PUSH1 0x2F PUSH1 0x24 DUP3 ADD MSTORE PUSH32 0x596F75206D7573742073656C65637420612077696E6E65722066726F6D207468 PUSH1 0x44 DUP3 ADD MSTORE PUSH32 0x6520746F702074656E206C697374210000000000000000000000000000000000 PUSH1 0x64 DUP3 ADD MSTORE PUSH1 0x84 ADD PUSH2 0x349 JUMP JUMPDEST PUSH1 0x22 DUP3 SWAP1 SSTORE PUSH1 0x2 DUP1 SLOAD PUSH1 0x0 DUP5 DUP2 MSTORE PUSH1 0x28 PUSH1 0x20 MSTORE PUSH1 0x40 DUP2 KECCAK256 SWAP1 SWAP3 ADD DUP1 SLOAD PUSH1 0x1 PUSH1 0x1 PUSH1 0xA0 SHL SUB SWAP1 SWAP3 AND SWAP3 PUSH4 0x23B872DD SWAP3 ADDRESS SWAP3 SWAP2 SWAP1 PUSH2 0x90A JUMPI PUSH4 0x4E487B71 PUSH1 0xE0 SHL PUSH1 0x0 MSTORE PUSH1 0x32 PUSH1 0x4 MSTORE PUSH1 0x24 PUSH1 0x0 REVERT JUMPDEST PUSH1 0x0 SWAP2 DUP3 MSTORE PUSH1 0x20 DUP1 DUP4 KECCAK256 PUSH1 0x2 SWAP1 SWAP3 MUL SWAP1 SWAP2 ADD SLOAD PUSH1 0x22 SLOAD DUP4 MSTORE PUSH1 0x28 SWAP1 SWAP2 MSTORE PUSH1 0x40 DUP3 KECCAK256 DUP1 SLOAD PUSH1 0x1 PUSH1 0x1 PUSH1 0xA0 SHL SUB SWAP1 SWAP3 AND SWAP3 SWAP1 SWAP2 PUSH2 0x955 JUMPI PUSH4 0x4E487B71 PUSH1 0xE0 SHL PUSH1 0x0 MSTORE PUSH1 0x32 PUSH1 0x4 MSTORE PUSH1 0x24 PUSH1 0x0 REVERT JUMPDEST PUSH1 0x0 SWAP2 DUP3 MSTORE PUSH1 0x20 SWAP1 SWAP2 KECCAK256 ADD SLOAD PUSH1 0x40 MLOAD PUSH1 0x1 PUSH1 0x1 PUSH1 0xE0 SHL SUB NOT PUSH1 0xE0 DUP7 SWAP1 SHL AND DUP2 MSTORE PUSH1 0x1 PUSH1 0x1 PUSH1 0xA0 SHL SUB SWAP4 DUP5 AND PUSH1 0x4 DUP3 ADD MSTORE SWAP3 SWAP1 SWAP2 AND PUSH1 0x24 DUP4 ADD MSTORE PUSH1 0x44 DUP3 ADD MSTORE PUSH1 0x64 ADD PUSH1 0x0 PUSH1 0x40 MLOAD DUP1 DUP4 SUB DUP2 PUSH1 0x0 DUP8 DUP1 EXTCODESIZE ISZERO DUP1 ISZERO PUSH2 0x9B0 JUMPI PUSH1 0x0 DUP1 REVERT JUMPDEST POP GAS CALL ISZERO DUP1 ISZERO PUSH2 0x9C4 JUMPI RETURNDATASIZE PUSH1 0x0 DUP1 RETURNDATACOPY RETURNDATASIZE PUSH1 0x0 REVERT JUMPDEST POP POP POP PUSH1 0x0 DUP4 DUP2 MSTORE PUSH1 0x28 PUSH1 0x20 MSTORE PUSH1 0x40 DUP2 KECCAK256 PUSH1 0x3 ADD SLOAD SWAP1 SWAP2 POP PUSH2 0x9E8 SWAP1 PUSH1 0x1 SWAP1 PUSH2 0x2075 JUMP JUMPDEST PUSH1 0x3 PUSH1 0x0 SWAP1 SLOAD SWAP1 PUSH2 0x100 EXP SWAP1 DIV PUSH1 0x1 PUSH1 0x1 PUSH1 0xA0 SHL SUB AND PUSH1 0x1 PUSH1 0x1 PUSH1 0xA0 SHL SUB AND PUSH4 0x22CCE689 PUSH1 0x40 MLOAD DUP2 PUSH4 0xFFFFFFFF AND PUSH1 0xE0 SHL DUP2 MSTORE PUSH1 0x4 ADD PUSH1 0x20 PUSH1 0x40 MLOAD DUP1 DUP4 SUB DUP2 PUSH1 0x0 DUP8 DUP1 EXTCODESIZE ISZERO DUP1 ISZERO PUSH2 0xA38 JUMPI PUSH1 0x0 DUP1 REVERT JUMPDEST POP GAS CALL ISZERO DUP1 ISZERO PUSH2 0xA4C JUMPI RETURNDATASIZE PUSH1 0x0 DUP1 RETURNDATACOPY RETURNDATASIZE PUSH1 0x0 REVERT JUMPDEST POP POP POP POP PUSH1 0x40 MLOAD RETURNDATASIZE PUSH1 0x1F NOT PUSH1 0x1F DUP3 ADD AND DUP3 ADD DUP1 PUSH1 0x40 MSTORE POP DUP2 ADD SWAP1 PUSH2 0xA70 SWAP2 SWAP1 PUSH2 0x1F11 JUMP JUMPDEST PUSH2 0xA7A SWAP2 SWAP1 PUSH2 0x20E2 JUMP JUMPDEST PUSH2 0xA85 SWAP1 PUSH1 0x1 PUSH2 0x203E JUMP JUMPDEST PUSH1 0x0 DUP5 DUP2 MSTORE PUSH1 0x28 PUSH1 0x20 MSTORE PUSH1 0x40 DUP2 KECCAK256 PUSH1 0x2 ADD DUP1 SLOAD SWAP3 SWAP4 POP SWAP1 SWAP2 DUP4 SWAP1 DUP2 LT PUSH2 0xABB JUMPI PUSH4 0x4E487B71 PUSH1 0xE0 SHL PUSH1 0x0 MSTORE PUSH1 0x32 PUSH1 0x4 MSTORE PUSH1 0x24 PUSH1 0x0 REVERT JUMPDEST PUSH1 0x0 SWAP2 DUP3 MSTORE PUSH1 0x20 DUP1 DUP4 KECCAK256 PUSH1 0x2 SWAP3 DUP4 MUL ADD SLOAD SWAP2 SLOAD PUSH1 0x22 SLOAD DUP5 MSTORE PUSH1 0x28 SWAP1 SWAP2 MSTORE PUSH1 0x40 SWAP1 SWAP3 KECCAK256 DUP1 SLOAD PUSH1 0x1 PUSH1 0x1 PUSH1 0xA0 SHL SUB SWAP3 DUP4 AND SWAP5 POP SWAP2 SWAP1 SWAP3 AND SWAP2 PUSH4 0x23B872DD SWAP2 ADDRESS SWAP2 DUP6 SWAP2 PUSH1 0x1 SWAP1 DUP2 LT PUSH2 0xB1A JUMPI PUSH4 0x4E487B71 PUSH1 0xE0 SHL PUSH1 0x0 MSTORE PUSH1 0x32 PUSH1 0x4 MSTORE PUSH1 0x24 PUSH1 0x0 REVERT JUMPDEST PUSH1 0x0 SWAP2 DUP3 MSTORE PUSH1 0x20 SWAP1 SWAP2 KECCAK256 ADD SLOAD PUSH1 0x40 MLOAD PUSH1 0x1 PUSH1 0x1 PUSH1 0xE0 SHL SUB NOT PUSH1 0xE0 DUP7 SWAP1 SHL AND DUP2 MSTORE PUSH1 0x1 PUSH1 0x1 PUSH1 0xA0 SHL SUB SWAP4 DUP5 AND PUSH1 0x4 DUP3 ADD MSTORE SWAP3 SWAP1 SWAP2 AND PUSH1 0x24 DUP4 ADD MSTORE PUSH1 0x44 DUP3 ADD MSTORE PUSH1 0x64 ADD PUSH1 0x0 PUSH1 0x40 MLOAD DUP1 DUP4 SUB DUP2 PUSH1 0x0 DUP8 DUP1 EXTCODESIZE ISZERO DUP1 ISZERO PUSH2 0xB75 JUMPI PUSH1 0x0 DUP1 REVERT JUMPDEST POP GAS CALL ISZERO DUP1 ISZERO PUSH2 0xB89 JUMPI RETURNDATASIZE PUSH1 0x0 DUP1 RETURNDATACOPY RETURNDATASIZE PUSH1 0x0 REVERT JUMPDEST POP POP PUSH1 0x2 DUP1 SLOAD PUSH1 0x0 DUP1 SLOAD PUSH1 0x22 SLOAD DUP3 MSTORE PUSH1 0x28 PUSH1 0x20 MSTORE PUSH1 0x40 SWAP1 SWAP2 KECCAK256 DUP1 SLOAD PUSH1 0x1 PUSH1 0x1 PUSH1 0xA0 SHL SUB SWAP4 DUP5 AND SWAP7 POP PUSH4 0x23B872DD SWAP6 POP ADDRESS SWAP5 SWAP4 SWAP1 SWAP3 AND SWAP3 SWAP1 SWAP2 DUP2 LT PUSH2 0xBDD JUMPI PUSH4 0x4E487B71 PUSH1 0xE0 SHL PUSH1 0x0 MSTORE PUSH1 0x32 PUSH1 0x4 MSTORE PUSH1 0x24 PUSH1 0x0 REVERT JUMPDEST PUSH1 0x0 SWAP2 DUP3 MSTORE PUSH1 0x20 SWAP1 SWAP2 KECCAK256 ADD SLOAD PUSH1 0x40 MLOAD PUSH1 0x1 PUSH1 0x1 PUSH1 0xE0 SHL SUB NOT PUSH1 0xE0 DUP7 SWAP1 SHL AND DUP2 MSTORE PUSH1 0x1 PUSH1 0x1 PUSH1 0xA0 SHL SUB SWAP4 DUP5 AND PUSH1 0x4 DUP3 ADD MSTORE SWAP3 SWAP1 SWAP2 AND PUSH1 0x24 DUP4 ADD MSTORE PUSH1 0x44 DUP3 ADD MSTORE PUSH1 0x64 ADD PUSH1 0x0 PUSH1 0x40 MLOAD DUP1 DUP4 SUB DUP2 PUSH1 0x0 DUP8 DUP1 EXTCODESIZE ISZERO DUP1 ISZERO PUSH2 0xC38 JUMPI PUSH1 0x0 DUP1 REVERT JUMPDEST POP GAS CALL ISZERO DUP1 ISZERO PUSH2 0xC4C JUMPI RETURNDATASIZE PUSH1 0x0 DUP1 RETURNDATACOPY RETURNDATASIZE PUSH1 0x0 REVERT JUMPDEST POP POP PUSH1 0x1 SLOAD PUSH1 0x0 SLOAD PUSH1 0x6 SLOAD PUSH1 0x40 MLOAD PUSH4 0x23B872DD PUSH1 0xE0 SHL DUP2 MSTORE ADDRESS PUSH1 0x4 DUP3 ADD MSTORE PUSH1 0x1 PUSH1 0x1 PUSH1 0xA0 SHL SUB SWAP3 DUP4 AND PUSH1 0x24 DUP3 ADD MSTORE PUSH1 0x44 DUP2 ADD SWAP2 SWAP1 SWAP2 MSTORE SWAP2 AND SWAP3 POP PUSH4 0x23B872DD SWAP2 POP PUSH1 0x64 ADD PUSH1 0x20 PUSH1 0x40 MLOAD DUP1 DUP4 SUB DUP2 PUSH1 0x0 DUP8 DUP1 EXTCODESIZE ISZERO DUP1 ISZERO PUSH2 0xCAA JUMPI PUSH1 0x0 DUP1 REVERT JUMPDEST POP GAS CALL ISZERO DUP1 ISZERO PUSH2 0xCBE JUMPI RETURNDATASIZE PUSH1 0x0 DUP1 RETURNDATACOPY RETURNDATASIZE PUSH1 0x0 REVERT JUMPDEST POP POP POP POP PUSH1 0x40 MLOAD RETURNDATASIZE PUSH1 0x1F NOT PUSH1 0x1F DUP3 ADD AND DUP3 ADD DUP1 PUSH1 0x40 MSTORE POP DUP2 ADD SWAP1 PUSH2 0xCE2 SWAP2 SWAP1 PUSH2 0x1EEA JUMP JUMPDEST POP POP POP POP POP JUMP JUMPDEST PUSH1 0x0 SLOAD PUSH1 0x1 PUSH1 0x1 PUSH1 0xA0 SHL SUB AND CALLER EQ PUSH2 0xD57 JUMPI PUSH1 0x40 MLOAD PUSH3 0x461BCD PUSH1 0xE5 SHL DUP2 MSTORE PUSH1 0x20 PUSH1 0x4 DUP3 ADD MSTORE PUSH1 0x2B PUSH1 0x24 DUP3 ADD MSTORE PUSH32 0x4F6E6C792074686520506F6F6C204F776E65722063616E2063616C6C20746869 PUSH1 0x44 DUP3 ADD MSTORE PUSH11 0x732066756E6374696F6E21 PUSH1 0xA8 SHL PUSH1 0x64 DUP3 ADD MSTORE PUSH1 0x84 ADD PUSH2 0x349 JUMP JUMPDEST PUSH1 0xB SLOAD PUSH1 0xFF AND PUSH2 0xDA9 JUMPI PUSH1 0x40 MLOAD PUSH3 0x461BCD PUSH1 0xE5 SHL DUP2 MSTORE PUSH1 0x20 PUSH1 0x4 DUP3 ADD MSTORE PUSH1 0x1C PUSH1 0x24 DUP3 ADD MSTORE PUSH32 0x4E65656420746F2072756E20676574546F7054656E2066697273742100000000 PUSH1 0x44 DUP3 ADD MSTORE PUSH1 0x64 ADD PUSH2 0x349 JUMP JUMPDEST PUSH1 0x26 SLOAD PUSH1 0xFF AND ISZERO PUSH2 0xDFC JUMPI PUSH1 0x40 MLOAD PUSH3 0x461BCD PUSH1 0xE5 SHL DUP2 MSTORE PUSH1 0x20 PUSH1 0x4 DUP3 ADD MSTORE PUSH1 0x18 PUSH1 0x24 DUP3 ADD MSTORE PUSH32 0x416C726561647920636865636B656420666F7220746965730000000000000000 PUSH1 0x44 DUP3 ADD MSTORE PUSH1 0x64 ADD PUSH2 0x349 JUMP JUMPDEST PUSH1 0x16 SLOAD PUSH1 0x0 DUP1 JUMPDEST PUSH1 0xA DUP2 LT ISZERO PUSH2 0xEF7 JUMPI DUP3 PUSH1 0x16 DUP3 PUSH1 0xA DUP2 LT PUSH2 0xE2E JUMPI PUSH4 0x4E487B71 PUSH1 0xE0 SHL PUSH1 0x0 MSTORE PUSH1 0x32 PUSH1 0x4 MSTORE PUSH1 0x24 PUSH1 0x0 REVERT JUMPDEST ADD SLOAD LT ISZERO PUSH2 0xEE5 JUMPI PUSH1 0x16 DUP2 PUSH1 0xA DUP2 LT PUSH2 0xE57 JUMPI PUSH4 0x4E487B71 PUSH1 0xE0 SHL PUSH1 0x0 MSTORE PUSH1 0x32 PUSH1 0x4 MSTORE PUSH1 0x24 PUSH1 0x0 REVERT JUMPDEST ADD SLOAD SWAP3 POP DUP1 SWAP2 POP PUSH1 0x20 PUSH1 0xC DUP3 PUSH1 0xA DUP2 LT PUSH2 0xE81 JUMPI PUSH4 0x4E487B71 PUSH1 0xE0 SHL PUSH1 0x0 MSTORE PUSH1 0x32 PUSH1 0x4 MSTORE PUSH1 0x24 PUSH1 0x0 REVERT JUMPDEST ADD SLOAD DUP2 SLOAD PUSH1 0x1 DUP2 ADD DUP4 SSTORE PUSH1 0x0 SWAP3 DUP4 MSTORE PUSH1 0x20 SWAP1 SWAP3 KECCAK256 SWAP1 SWAP2 ADD SSTORE PUSH1 0x21 PUSH1 0x16 DUP3 PUSH1 0xA DUP2 LT PUSH2 0xEBC JUMPI PUSH4 0x4E487B71 PUSH1 0xE0 SHL PUSH1 0x0 MSTORE PUSH1 0x32 PUSH1 0x4 MSTORE PUSH1 0x24 PUSH1 0x0 REVERT JUMPDEST ADD SLOAD DUP2 SLOAD PUSH1 0x1 DUP2 ADD DUP4 SSTORE PUSH1 0x0 SWAP3 DUP4 MSTORE PUSH1 0x20 DUP4 KECCAK256 ADD SSTORE PUSH1 0x27 DUP1 SLOAD SWAP2 PUSH2 0xEDF DUP4 PUSH2 0x20C7 JUMP JUMPDEST SWAP2 SWAP1 POP SSTORE POP JUMPDEST DUP1 PUSH2 0xEEF DUP2 PUSH2 0x20C7 JUMP JUMPDEST SWAP2 POP POP PUSH2 0xE03 JUMP JUMPDEST POP PUSH1 0x0 DUP1 JUMPDEST PUSH1 0x29 SLOAD DUP2 LT ISZERO PUSH2 0xFC7 JUMPI PUSH1 0x23 SLOAD PUSH1 0x0 DUP3 DUP2 MSTORE PUSH1 0x28 PUSH1 0x20 MSTORE PUSH1 0x40 SWAP1 KECCAK256 PUSH1 0x3 ADD SLOAD PUSH2 0xF27 SWAP1 PUSH1 0x1 SWAP1 PUSH2 0x2075 JUMP JUMPDEST PUSH2 0xF31 SWAP2 SWAP1 PUSH2 0x2056 JUMP JUMPDEST SWAP2 POP DUP2 DUP5 EQ ISZERO PUSH2 0xFB5 JUMPI PUSH1 0x20 DUP1 SLOAD PUSH1 0x1 DUP2 DUP2 ADD SWAP1 SWAP3 SSTORE PUSH32 0xC97BFAF2F8EE708C303A06D134F5ECD8389AE0432AF62DC132A24118292866BB ADD DUP3 SWAP1 SSTORE PUSH1 0x21 DUP1 SLOAD SWAP2 DUP3 ADD DUP2 SSTORE PUSH1 0x0 SWAP1 DUP2 MSTORE PUSH32 0x3A6357012C1A3AE0A17D304C9920310382D968EBCC4B1771F41C6B304205B570 SWAP1 SWAP2 ADD DUP4 SWAP1 SSTORE PUSH1 0x27 DUP1 SLOAD SWAP2 PUSH2 0xFAF DUP4 PUSH2 0x20C7 JUMP JUMPDEST SWAP2 SWAP1 POP SSTORE POP JUMPDEST DUP1 PUSH2 0xFBF DUP2 PUSH2 0x20C7 JUMP JUMPDEST SWAP2 POP POP PUSH2 0xEFC JUMP JUMPDEST POP POP PUSH1 0x26 DUP1 SLOAD PUSH1 0xFF NOT AND PUSH1 0x1 OR SWAP1 SSTORE POP POP JUMP JUMPDEST PUSH1 0x0 SLOAD PUSH1 0x1 PUSH1 0x1 PUSH1 0xA0 SHL SUB AND CALLER EQ PUSH2 0x1048 JUMPI PUSH1 0x40 MLOAD PUSH3 0x461BCD PUSH1 0xE5 SHL DUP2 MSTORE PUSH1 0x20 PUSH1 0x4 DUP3 ADD MSTORE PUSH1 0x2B PUSH1 0x24 DUP3 ADD MSTORE PUSH32 0x4F6E6C792074686520506F6F6C204F776E65722063616E2063616C6C20746869 PUSH1 0x44 DUP3 ADD MSTORE PUSH11 0x732066756E6374696F6E21 PUSH1 0xA8 SHL PUSH1 0x64 DUP3 ADD MSTORE PUSH1 0x84 ADD PUSH2 0x349 JUMP JUMPDEST DUP1 MLOAD PUSH2 0x105B SWAP1 PUSH1 0x4 SWAP1 PUSH1 0x20 DUP5 ADD SWAP1 PUSH2 0x1D8F JUMP JUMPDEST POP POP JUMP JUMPDEST PUSH1 0x0 SLOAD PUSH1 0x1 PUSH1 0x1 PUSH1 0xA0 SHL SUB AND CALLER EQ ISZERO PUSH2 0x10C4 JUMPI PUSH1 0x40 MLOAD PUSH3 0x461BCD PUSH1 0xE5 SHL DUP2 MSTORE PUSH1 0x20 PUSH1 0x4 DUP3 ADD MSTORE PUSH1 0x21 PUSH1 0x24 DUP3 ADD MSTORE PUSH32 0x4F6E6C792046616E732063616E2063616C6C20746869732066756E6374696F6E PUSH1 0x44 DUP3 ADD MSTORE PUSH1 0x21 PUSH1 0xF8 SHL PUSH1 0x64 DUP3 ADD MSTORE PUSH1 0x84 ADD PUSH2 0x349 JUMP JUMPDEST PUSH1 0x0 DUP2 DUP2 MSTORE PUSH1 0x28 PUSH1 0x20 MSTORE PUSH1 0x40 DUP2 KECCAK256 PUSH1 0x2 ADD DUP1 SLOAD SWAP1 SWAP2 SWAP1 PUSH2 0x10F4 JUMPI PUSH4 0x4E487B71 PUSH1 0xE0 SHL PUSH1 0x0 MSTORE PUSH1 0x32 PUSH1 0x4 MSTORE PUSH1 0x24 PUSH1 0x0 REVERT JUMPDEST PUSH1 0x0 SWAP2 DUP3 MSTORE PUSH1 0x20 SWAP1 SWAP2 KECCAK256 PUSH1 0x2 SWAP1 SWAP2 MUL ADD SLOAD PUSH1 0x1 PUSH1 0x1 PUSH1 0xA0 SHL SUB AND CALLER EQ ISZERO PUSH2 0x1183 JUMPI PUSH1 0x40 MLOAD PUSH3 0x461BCD PUSH1 0xE5 SHL DUP2 MSTORE PUSH1 0x20 PUSH1 0x4 DUP3 ADD MSTORE PUSH1 0x2D PUSH1 0x24 DUP3 ADD MSTORE PUSH32 0x4172746973742063616E206E6F7420766F746520666F72207468656972206F77 PUSH1 0x44 DUP3 ADD MSTORE PUSH32 0x6E207375626D697373696F6E2100000000000000000000000000000000000000 PUSH1 0x64 DUP3 ADD MSTORE PUSH1 0x84 ADD PUSH2 0x349 JUMP JUMPDEST PUSH1 0x7 SLOAD NUMBER LT ISZERO PUSH2 0x11FB JUMPI PUSH1 0x40 MLOAD PUSH3 0x461BCD PUSH1 0xE5 SHL DUP2 MSTORE PUSH1 0x20 PUSH1 0x4 DUP3 ADD MSTORE PUSH1 0x35 PUSH1 0x24 DUP3 ADD MSTORE PUSH32 0x43616E206E6F7420737461727420766F74696E6720756E74696C207375626D69 PUSH1 0x44 DUP3 ADD MSTORE PUSH32 0x7373696F6E20706572696F64206973206F766572210000000000000000000000 PUSH1 0x64 DUP3 ADD MSTORE PUSH1 0x84 ADD PUSH2 0x349 JUMP JUMPDEST PUSH1 0x9 SLOAD NUMBER GT ISZERO PUSH2 0x124D JUMPI PUSH1 0x40 MLOAD PUSH3 0x461BCD PUSH1 0xE5 SHL DUP2 MSTORE PUSH1 0x20 PUSH1 0x4 DUP3 ADD MSTORE PUSH1 0x1A PUSH1 0x24 DUP3 ADD MSTORE PUSH32 0x46616E20566F74696E6720506572696F64206973204F76657221000000000000 PUSH1 0x44 DUP3 ADD MSTORE PUSH1 0x64 ADD PUSH2 0x349 JUMP JUMPDEST PUSH1 0x0 DUP2 DUP2 MSTORE PUSH1 0x28 PUSH1 0x20 MSTORE PUSH1 0x40 DUP2 KECCAK256 DUP1 SLOAD DUP3 SWAP1 PUSH2 0x1279 JUMPI PUSH4 0x4E487B71 PUSH1 0xE0 SHL PUSH1 0x0 MSTORE PUSH1 0x32 PUSH1 0x4 MSTORE PUSH1 0x24 PUSH1 0x0 REVERT JUMPDEST SWAP1 PUSH1 0x0 MSTORE PUSH1 0x20 PUSH1 0x0 KECCAK256 ADD SLOAD GT PUSH2 0x12F7 JUMPI PUSH1 0x40 MLOAD PUSH3 0x461BCD PUSH1 0xE5 SHL DUP2 MSTORE PUSH1 0x20 PUSH1 0x4 DUP3 ADD MSTORE PUSH1 0x25 PUSH1 0x24 DUP3 ADD MSTORE PUSH32 0x546865726520617265206E6F204E46547320696E2074686973207375626D6973 PUSH1 0x44 DUP3 ADD MSTORE PUSH32 0x73696F6E21000000000000000000000000000000000000000000000000000000 PUSH1 0x64 DUP3 ADD MSTORE PUSH1 0x84 ADD PUSH2 0x349 JUMP JUMPDEST PUSH1 0x1 SLOAD PUSH1 0x23 SLOAD PUSH1 0x40 MLOAD PUSH4 0x23B872DD PUSH1 0xE0 SHL DUP2 MSTORE CALLER PUSH1 0x4 DUP3 ADD MSTORE ADDRESS PUSH1 0x24 DUP3 ADD MSTORE PUSH1 0x44 DUP2 ADD SWAP2 SWAP1 SWAP2 MSTORE PUSH1 0x1 PUSH1 0x1 PUSH1 0xA0 SHL SUB SWAP1 SWAP2 AND SWAP1 PUSH4 0x23B872DD SWAP1 PUSH1 0x64 ADD PUSH1 0x20 PUSH1 0x40 MLOAD DUP1 DUP4 SUB DUP2 PUSH1 0x0 DUP8 DUP1 EXTCODESIZE ISZERO DUP1 ISZERO PUSH2 0x134D JUMPI PUSH1 0x0 DUP1 REVERT JUMPDEST POP GAS CALL ISZERO DUP1 ISZERO PUSH2 0x1361 JUMPI RETURNDATASIZE PUSH1 0x0 DUP1 RETURNDATACOPY RETURNDATASIZE PUSH1 0x0 REVERT JUMPDEST POP POP POP POP PUSH1 0x40 MLOAD RETURNDATASIZE PUSH1 0x1F NOT PUSH1 0x1F DUP3 ADD AND DUP3 ADD DUP1 PUSH1 0x40 MSTORE POP DUP2 ADD SWAP1 PUSH2 0x1385 SWAP2 SWAP1 PUSH2 0x1EEA JUMP JUMPDEST PUSH2 0x13F7 JUMPI PUSH1 0x40 MLOAD PUSH3 0x461BCD PUSH1 0xE5 SHL DUP2 MSTORE PUSH1 0x20 PUSH1 0x4 DUP3 ADD MSTORE PUSH1 0x2E PUSH1 0x24 DUP3 ADD MSTORE PUSH32 0x7472616E6466657246726F6D206661696C65642C20766F7465206E6F74206261 PUSH1 0x44 DUP3 ADD MSTORE PUSH32 0x636B65642062792066756E647321000000000000000000000000000000000000 PUSH1 0x64 DUP3 ADD MSTORE PUSH1 0x84 ADD PUSH2 0x349 JUMP JUMPDEST PUSH1 0x1 JUMPDEST PUSH1 0x0 DUP3 DUP2 MSTORE PUSH1 0x28 PUSH1 0x20 MSTORE PUSH1 0x40 SWAP1 KECCAK256 PUSH1 0x3 ADD SLOAD DUP2 LT ISZERO PUSH2 0x14E5 JUMPI PUSH1 0x0 DUP3 DUP2 MSTORE PUSH1 0x28 PUSH1 0x20 MSTORE PUSH1 0x40 SWAP1 KECCAK256 PUSH1 0x2 ADD DUP1 SLOAD DUP3 SWAP1 DUP2 LT PUSH2 0x1444 JUMPI PUSH4 0x4E487B71 PUSH1 0xE0 SHL PUSH1 0x0 MSTORE PUSH1 0x32 PUSH1 0x4 MSTORE PUSH1 0x24 PUSH1 0x0 REVERT JUMPDEST PUSH1 0x0 SWAP2 DUP3 MSTORE PUSH1 0x20 SWAP1 SWAP2 KECCAK256 PUSH1 0x2 SWAP1 SWAP2 MUL ADD SLOAD PUSH1 0x1 PUSH1 0x1 PUSH1 0xA0 SHL SUB AND CALLER EQ ISZERO PUSH2 0x14D3 JUMPI PUSH1 0x40 MLOAD PUSH3 0x461BCD PUSH1 0xE5 SHL DUP2 MSTORE PUSH1 0x20 PUSH1 0x4 DUP3 ADD MSTORE PUSH1 0x2B PUSH1 0x24 DUP3 ADD MSTORE PUSH32 0x557365722068617320616C726561647920766F74656420666F72207468697320 PUSH1 0x44 DUP3 ADD MSTORE PUSH32 0x7375626D697373696F6E21000000000000000000000000000000000000000000 PUSH1 0x64 DUP3 ADD MSTORE PUSH1 0x84 ADD PUSH2 0x349 JUMP JUMPDEST DUP1 PUSH2 0x14DD DUP2 PUSH2 0x20C7 JUMP JUMPDEST SWAP2 POP POP PUSH2 0x13FA JUMP JUMPDEST POP PUSH1 0x40 DUP1 MLOAD DUP1 DUP3 ADD DUP3 MSTORE CALLER DUP2 MSTORE PUSH1 0x23 SLOAD PUSH1 0x20 DUP1 DUP4 ADD SWAP2 DUP3 MSTORE PUSH1 0x0 DUP6 DUP2 MSTORE PUSH1 0x28 DUP3 MSTORE SWAP4 DUP5 KECCAK256 PUSH1 0x2 DUP1 DUP3 ADD DUP1 SLOAD PUSH1 0x1 DUP1 DUP3 ADD DUP4 SSTORE SWAP2 DUP9 MSTORE SWAP4 DUP8 KECCAK256 DUP7 MLOAD SWAP5 SWAP1 SWAP3 MUL SWAP1 SWAP2 ADD DUP1 SLOAD PUSH20 0xFFFFFFFFFFFFFFFFFFFFFFFFFFFFFFFFFFFFFFFF NOT AND PUSH1 0x1 PUSH1 0x1 PUSH1 0xA0 SHL SUB SWAP1 SWAP5 AND SWAP4 SWAP1 SWAP4 OR DUP4 SSTORE SWAP3 MLOAD SWAP2 SWAP1 SWAP3 ADD SSTORE DUP4 DUP4 MSTORE PUSH1 0x3 ADD DUP1 SLOAD SWAP2 SWAP3 PUSH2 0x628 DUP4 PUSH2 0x20C7 JUMP JUMPDEST PUSH1 0xC DUP2 PUSH1 0xA DUP2 LT PUSH2 0x2CF JUMPI PUSH1 0x0 DUP1 REVERT JUMPDEST PUSH1 0xA SLOAD NUMBER GT PUSH2 0x15F1 JUMPI PUSH1 0x40 MLOAD PUSH3 0x461BCD PUSH1 0xE5 SHL DUP2 MSTORE PUSH1 0x20 PUSH1 0x4 DUP3 ADD MSTORE PUSH1 0x27 PUSH1 0x24 DUP3 ADD MSTORE PUSH32 0x43616E206E6F7420636173686F757420756E74696C2063616D706169676E2069 PUSH1 0x44 DUP3 ADD MSTORE PUSH32 0x73206F7665722100000000000000000000000000000000000000000000000000 PUSH1 0x64 DUP3 ADD MSTORE PUSH1 0x84 ADD PUSH2 0x349 JUMP JUMPDEST PUSH1 0x0 DUP1 PUSH1 0x0 JUMPDEST PUSH1 0x0 DUP5 DUP2 MSTORE PUSH1 0x28 PUSH1 0x20 MSTORE PUSH1 0x40 SWAP1 KECCAK256 PUSH1 0x3 ADD SLOAD DUP2 LT ISZERO PUSH2 0x1682 JUMPI PUSH1 0x0 DUP5 DUP2 MSTORE PUSH1 0x28 PUSH1 0x20 MSTORE PUSH1 0x40 SWAP1 KECCAK256 PUSH1 0x2 ADD DUP1 SLOAD CALLER SWAP2 SWAP1 DUP4 SWAP1 DUP2 LT PUSH2 0x1644 JUMPI PUSH4 0x4E487B71 PUSH1 0xE0 SHL PUSH1 0x0 MSTORE PUSH1 0x32 PUSH1 0x4 MSTORE PUSH1 0x24 PUSH1 0x0 REVERT JUMPDEST PUSH1 0x0 SWAP2 DUP3 MSTORE PUSH1 0x20 SWAP1 SWAP2 KECCAK256 PUSH1 0x2 SWAP1 SWAP2 MUL ADD SLOAD PUSH1 0x1 PUSH1 0x1 PUSH1 0xA0 SHL SUB AND EQ ISZERO PUSH2 0x1670 JUMPI PUSH1 0x1 SWAP3 POP DUP1 SWAP2 POP PUSH2 0x1682 JUMP JUMPDEST DUP1 PUSH2 0x167A DUP2 PUSH2 0x20C7 JUMP JUMPDEST SWAP2 POP POP PUSH2 0x15F7 JUMP JUMPDEST POP PUSH1 0x0 DUP4 DUP2 MSTORE PUSH1 0x28 PUSH1 0x20 MSTORE PUSH1 0x40 DUP2 KECCAK256 PUSH1 0x2 ADD DUP1 SLOAD DUP4 SWAP1 DUP2 LT PUSH2 0x16B4 JUMPI PUSH4 0x4E487B71 PUSH1 0xE0 SHL PUSH1 0x0 MSTORE PUSH1 0x32 PUSH1 0x4 MSTORE PUSH1 0x24 PUSH1 0x0 REVERT JUMPDEST SWAP1 PUSH1 0x0 MSTORE PUSH1 0x20 PUSH1 0x0 KECCAK256 SWAP1 PUSH1 0x2 MUL ADD PUSH1 0x1 ADD SLOAD SWAP1 POP PUSH1 0x0 PUSH1 0x28 PUSH1 0x0 DUP7 DUP2 MSTORE PUSH1 0x20 ADD SWAP1 DUP2 MSTORE PUSH1 0x20 ADD PUSH1 0x0 KECCAK256 PUSH1 0x2 ADD DUP4 DUP2 SLOAD DUP2 LT PUSH2 0x16FF JUMPI PUSH4 0x4E487B71 PUSH1 0xE0 SHL PUSH1 0x0 MSTORE PUSH1 0x32 PUSH1 0x4 MSTORE PUSH1 0x24 PUSH1 0x0 REVERT JUMPDEST SWAP1 PUSH1 0x0 MSTORE PUSH1 0x20 PUSH1 0x0 KECCAK256 SWAP1 PUSH1 0x2 MUL ADD PUSH1 0x1 ADD DUP2 SWAP1 SSTORE POP DUP3 DUP1 ISZERO PUSH2 0x171F JUMPI POP DUP2 ISZERO JUMPDEST ISZERO PUSH2 0x18D5 JUMPI PUSH1 0x1 SLOAD PUSH1 0x40 MLOAD PUSH4 0x23B872DD PUSH1 0xE0 SHL DUP2 MSTORE ADDRESS PUSH1 0x4 DUP3 ADD MSTORE CALLER PUSH1 0x24 DUP3 ADD MSTORE PUSH1 0x44 DUP2 ADD DUP4 SWAP1 MSTORE PUSH1 0x1 PUSH1 0x1 PUSH1 0xA0 SHL SUB SWAP1 SWAP2 AND SWAP1 PUSH4 0x23B872DD SWAP1 PUSH1 0x64 ADD PUSH1 0x20 PUSH1 0x40 MLOAD DUP1 DUP4 SUB DUP2 PUSH1 0x0 DUP8 DUP1 EXTCODESIZE ISZERO DUP1 ISZERO PUSH2 0x1776 JUMPI PUSH1 0x0 DUP1 REVERT JUMPDEST POP GAS CALL ISZERO DUP1 ISZERO PUSH2 0x178A JUMPI RETURNDATASIZE PUSH1 0x0 DUP1 RETURNDATACOPY RETURNDATASIZE PUSH1 0x0 REVERT JUMPDEST POP POP POP POP PUSH1 0x40 MLOAD RETURNDATASIZE PUSH1 0x1F NOT PUSH1 0x1F DUP3 ADD AND DUP3 ADD DUP1 PUSH1 0x40 MSTORE POP DUP2 ADD SWAP1 PUSH2 0x17AE SWAP2 SWAP1 PUSH2 0x1EEA JUMP JUMPDEST PUSH2 0x17B7 JUMPI PUSH1 0x0 DUP1 REVERT JUMPDEST PUSH1 0x22 SLOAD DUP5 EQ PUSH2 0x18D0 JUMPI PUSH1 0x0 JUMPDEST PUSH1 0x3 DUP2 LT ISZERO PUSH2 0x189A JUMPI PUSH1 0x2 SLOAD PUSH1 0x0 DUP7 DUP2 MSTORE PUSH1 0x28 PUSH1 0x20 MSTORE PUSH1 0x40 SWAP1 KECCAK256 DUP1 SLOAD PUSH1 0x1 PUSH1 0x1 PUSH1 0xA0 SHL SUB SWAP1 SWAP3 AND SWAP2 PUSH4 0x23B872DD SWAP2 ADDRESS SWAP2 CALLER SWAP2 SWAP1 DUP7 SWAP1 DUP2 LT PUSH2 0x1814 JUMPI PUSH4 0x4E487B71 PUSH1 0xE0 SHL PUSH1 0x0 MSTORE PUSH1 0x32 PUSH1 0x4 MSTORE PUSH1 0x24 PUSH1 0x0 REVERT JUMPDEST PUSH1 0x0 SWAP2 DUP3 MSTORE PUSH1 0x20 SWAP1 SWAP2 KECCAK256 ADD SLOAD PUSH1 0x40 MLOAD PUSH1 0x1 PUSH1 0x1 PUSH1 0xE0 SHL SUB NOT PUSH1 0xE0 DUP7 SWAP1 SHL AND DUP2 MSTORE PUSH1 0x1 PUSH1 0x1 PUSH1 0xA0 SHL SUB SWAP4 DUP5 AND PUSH1 0x4 DUP3 ADD MSTORE SWAP3 SWAP1 SWAP2 AND PUSH1 0x24 DUP4 ADD MSTORE PUSH1 0x44 DUP3 ADD MSTORE PUSH1 0x64 ADD PUSH1 0x0 PUSH1 0x40 MLOAD DUP1 DUP4 SUB DUP2 PUSH1 0x0 DUP8 DUP1 EXTCODESIZE ISZERO DUP1 ISZERO PUSH2 0x186F JUMPI PUSH1 0x0 DUP1 REVERT JUMPDEST POP GAS CALL ISZERO DUP1 ISZERO PUSH2 0x1883 JUMPI RETURNDATASIZE PUSH1 0x0 DUP1 RETURNDATACOPY RETURNDATASIZE PUSH1 0x0 REVERT JUMPDEST POP POP POP POP DUP1 DUP1 PUSH2 0x1892 SWAP1 PUSH2 0x20C7 JUMP JUMPDEST SWAP2 POP POP PUSH2 0x17C3 JUMP JUMPDEST POP PUSH1 0x40 DUP1 MLOAD PUSH1 0x60 DUP2 ADD DUP3 MSTORE PUSH1 0x0 DUP1 DUP3 MSTORE PUSH1 0x20 DUP1 DUP4 ADD DUP3 SWAP1 MSTORE DUP3 DUP5 ADD DUP3 SWAP1 MSTORE DUP8 DUP3 MSTORE PUSH1 0x28 SWAP1 MSTORE SWAP2 SWAP1 SWAP2 KECCAK256 PUSH2 0x18CE SWAP2 PUSH1 0x3 PUSH2 0x1E13 JUMP JUMPDEST POP JUMPDEST PUSH2 0x19C0 JUMP JUMPDEST DUP3 ISZERO PUSH2 0x196E JUMPI PUSH1 0x1 SLOAD PUSH1 0x40 MLOAD PUSH4 0x23B872DD PUSH1 0xE0 SHL DUP2 MSTORE ADDRESS PUSH1 0x4 DUP3 ADD MSTORE CALLER PUSH1 0x24 DUP3 ADD MSTORE PUSH1 0x44 DUP2 ADD DUP4 SWAP1 MSTORE PUSH1 0x1 PUSH1 0x1 PUSH1 0xA0 SHL SUB SWAP1 SWAP2 AND SWAP1 PUSH4 0x23B872DD SWAP1 PUSH1 0x64 ADD PUSH1 0x20 PUSH1 0x40 MLOAD DUP1 DUP4 SUB DUP2 PUSH1 0x0 DUP8 DUP1 EXTCODESIZE ISZERO DUP1 ISZERO PUSH2 0x192D JUMPI PUSH1 0x0 DUP1 REVERT JUMPDEST POP GAS CALL ISZERO DUP1 ISZERO PUSH2 0x1941 JUMPI RETURNDATASIZE PUSH1 0x0 DUP1 RETURNDATACOPY RETURNDATASIZE PUSH1 0x0 REVERT JUMPDEST POP POP POP POP PUSH1 0x40 MLOAD RETURNDATASIZE PUSH1 0x1F NOT PUSH1 0x1F DUP3 ADD AND DUP3 ADD DUP1 PUSH1 0x40 MSTORE POP DUP2 ADD SWAP1 PUSH2 0x1965 SWAP2 SWAP1 PUSH2 0x1EEA JUMP JUMPDEST PUSH2 0x18D0 JUMPI PUSH1 0x0 DUP1 REVERT JUMPDEST PUSH1 0x40 MLOAD PUSH3 0x461BCD PUSH1 0xE5 SHL DUP2 MSTORE PUSH1 0x20 PUSH1 0x4 DUP3 ADD MSTORE PUSH1 0x21 PUSH1 0x24 DUP3 ADD MSTORE PUSH32 0x5573657220776173206E6F7420666F756E6420696E207375626D697373696F6E PUSH1 0x44 DUP3 ADD MSTORE PUSH1 0x21 PUSH1 0xF8 SHL PUSH1 0x64 DUP3 ADD MSTORE PUSH1 0x84 ADD PUSH2 0x349 JUMP JUMPDEST POP POP POP POP JUMP JUMPDEST PUSH1 0x0 SLOAD PUSH1 0x1 PUSH1 0x1 PUSH1 0xA0 SHL SUB AND CALLER EQ PUSH2 0x1A34 JUMPI PUSH1 0x40 MLOAD PUSH3 0x461BCD PUSH1 0xE5 SHL DUP2 MSTORE PUSH1 0x20 PUSH1 0x4 DUP3 ADD MSTORE PUSH1 0x2B PUSH1 0x24 DUP3 ADD MSTORE PUSH32 0x4F6E6C792074686520506F6F6C204F776E65722063616E2063616C6C20746869 PUSH1 0x44 DUP3 ADD MSTORE PUSH11 0x732066756E6374696F6E21 PUSH1 0xA8 SHL PUSH1 0x64 DUP3 ADD MSTORE PUSH1 0x84 ADD PUSH2 0x349 JUMP JUMPDEST PUSH1 0x29 SLOAD PUSH1 0x25 SLOAD LT PUSH2 0x1AAD JUMPI PUSH1 0x40 MLOAD PUSH3 0x461BCD PUSH1 0xE5 SHL DUP2 MSTORE PUSH1 0x20 PUSH1 0x4 DUP3 ADD MSTORE PUSH1 0x2B PUSH1 0x24 DUP3 ADD MSTORE PUSH32 0x416C726561647920666F756E6420746F702074656E2066726F6D20616C6C2073 PUSH1 0x44 DUP3 ADD MSTORE PUSH32 0x75626D697373696F6E7321000000000000000000000000000000000000000000 PUSH1 0x64 DUP3 ADD MSTORE PUSH1 0x84 ADD PUSH2 0x349 JUMP JUMPDEST PUSH1 0x8 SLOAD NUMBER GT PUSH2 0x1B24 JUMPI PUSH1 0x40 MLOAD PUSH3 0x461BCD PUSH1 0xE5 SHL DUP2 MSTORE PUSH1 0x20 PUSH1 0x4 DUP3 ADD MSTORE PUSH1 0x2F PUSH1 0x24 DUP3 ADD MSTORE PUSH32 0x43616E6E6F742073656C65637420746F702074656E20756E74696C2066616E20 PUSH1 0x44 DUP3 ADD MSTORE PUSH32 0x766F74696E67206973206F766572210000000000000000000000000000000000 PUSH1 0x64 DUP3 ADD MSTORE PUSH1 0x84 ADD PUSH2 0x349 JUMP JUMPDEST PUSH1 0x0 DUP1 PUSH1 0x0 DUP1 JUMPDEST PUSH1 0x64 GAS GT DUP1 ISZERO PUSH2 0x1B3E JUMPI POP PUSH1 0x29 SLOAD PUSH1 0x25 SLOAD LT JUMPDEST ISZERO PUSH2 0x1CC7 JUMPI PUSH1 0x23 SLOAD PUSH1 0x25 SLOAD PUSH1 0x0 SWAP1 DUP2 MSTORE PUSH1 0x28 PUSH1 0x20 MSTORE PUSH1 0x40 SWAP1 KECCAK256 PUSH1 0x3 ADD SLOAD PUSH2 0x1B67 SWAP1 PUSH1 0x1 SWAP1 PUSH2 0x2075 JUMP JUMPDEST PUSH2 0x1B71 SWAP2 SWAP1 PUSH2 0x2056 JUMP JUMPDEST PUSH1 0x16 SLOAD SWAP5 POP PUSH1 0x0 SWAP4 POP SWAP2 POP DUP3 SWAP1 POP DUP1 JUMPDEST PUSH1 0xA DUP2 LT ISZERO PUSH2 0x1C69 JUMPI PUSH1 0x16 DUP2 PUSH1 0xA DUP2 LT PUSH2 0x1BAB JUMPI PUSH4 0x4E487B71 PUSH1 0xE0 SHL PUSH1 0x0 MSTORE PUSH1 0x32 PUSH1 0x4 MSTORE PUSH1 0x24 PUSH1 0x0 REVERT JUMPDEST ADD SLOAD PUSH2 0x1C04 JUMPI DUP3 PUSH1 0x16 DUP3 PUSH1 0xA DUP2 LT PUSH2 0x1BD3 JUMPI PUSH4 0x4E487B71 PUSH1 0xE0 SHL PUSH1 0x0 MSTORE PUSH1 0x32 PUSH1 0x4 MSTORE PUSH1 0x24 PUSH1 0x0 REVERT JUMPDEST ADD SSTORE PUSH1 0x25 SLOAD PUSH1 0xC DUP3 PUSH1 0xA DUP2 LT PUSH2 0x1BF9 JUMPI PUSH4 0x4E487B71 PUSH1 0xE0 SHL PUSH1 0x0 MSTORE PUSH1 0x32 PUSH1 0x4 MSTORE PUSH1 0x24 PUSH1 0x0 REVERT JUMPDEST ADD SSTORE PUSH1 0x1 SWAP2 POP PUSH2 0x1C69 JUMP JUMPDEST DUP5 PUSH1 0x16 DUP3 PUSH1 0xA DUP2 LT PUSH2 0x1C26 JUMPI PUSH4 0x4E487B71 PUSH1 0xE0 SHL PUSH1 0x0 MSTORE PUSH1 0x32 PUSH1 0x4 MSTORE PUSH1 0x24 PUSH1 0x0 REVERT JUMPDEST ADD SLOAD LT ISZERO PUSH2 0x1C57 JUMPI PUSH1 0x16 DUP2 PUSH1 0xA DUP2 LT PUSH2 0x1C4F JUMPI PUSH4 0x4E487B71 PUSH1 0xE0 SHL PUSH1 0x0 MSTORE PUSH1 0x32 PUSH1 0x4 MSTORE PUSH1 0x24 PUSH1 0x0 REVERT JUMPDEST ADD SLOAD SWAP5 POP DUP1 SWAP4 POP JUMPDEST DUP1 PUSH2 0x1C61 DUP2 PUSH2 0x20C7 JUMP JUMPDEST SWAP2 POP POP PUSH2 0x1B81 JUMP JUMPDEST POP DUP1 PUSH2 0x1CC2 JUMPI DUP4 DUP3 GT ISZERO PUSH2 0x1CC2 JUMPI DUP2 PUSH1 0x16 DUP5 PUSH1 0xA DUP2 LT PUSH2 0x1C99 JUMPI PUSH4 0x4E487B71 PUSH1 0xE0 SHL PUSH1 0x0 MSTORE PUSH1 0x32 PUSH1 0x4 MSTORE PUSH1 0x24 PUSH1 0x0 REVERT JUMPDEST ADD SSTORE PUSH1 0x25 SLOAD PUSH1 0xC DUP5 PUSH1 0xA DUP2 LT PUSH2 0x1CBF JUMPI PUSH4 0x4E487B71 PUSH1 0xE0 SHL PUSH1 0x0 MSTORE PUSH1 0x32 PUSH1 0x4 MSTORE PUSH1 0x24 PUSH1 0x0 REVERT JUMPDEST ADD SSTORE JUMPDEST PUSH2 0x1B2B JUMP JUMPDEST PUSH1 0x25 SLOAD PUSH2 0x1CD5 SWAP1 PUSH1 0x1 PUSH2 0x203E JUMP JUMPDEST PUSH1 0x25 SSTORE PUSH1 0x3 SLOAD PUSH1 0x40 MLOAD PUSH32 0xB37217A400000000000000000000000000000000000000000000000000000000 DUP2 MSTORE NUMBER PUSH1 0x4 DUP3 ADD MSTORE PUSH1 0x1 PUSH1 0x1 PUSH1 0xA0 SHL SUB SWAP1 SWAP2 AND SWAP1 PUSH4 0xB37217A4 SWAP1 PUSH1 0x24 ADD PUSH1 0x20 PUSH1 0x40 MLOAD DUP1 DUP4 SUB DUP2 PUSH1 0x0 DUP8 DUP1 EXTCODESIZE ISZERO DUP1 ISZERO PUSH2 0x1D36 JUMPI PUSH1 0x0 DUP1 REVERT JUMPDEST POP GAS CALL ISZERO DUP1 ISZERO PUSH2 0x1D4A JUMPI RETURNDATASIZE PUSH1 0x0 DUP1 RETURNDATACOPY RETURNDATASIZE PUSH1 0x0 REVERT JUMPDEST POP POP POP POP PUSH1 0x40 MLOAD RETURNDATASIZE PUSH1 0x1F NOT PUSH1 0x1F DUP3 ADD AND DUP3 ADD DUP1 PUSH1 0x40 MSTORE POP DUP2 ADD SWAP1 PUSH2 0x1D6E SWAP2 SWAP1 PUSH2 0x1F11 JUMP JUMPDEST POP POP PUSH1 0xB DUP1 SLOAD PUSH1 0xFF NOT AND PUSH1 0x1 OR SWAP1 SSTORE POP POP POP JUMP JUMPDEST PUSH1 0x4 DUP1 SLOAD PUSH2 0x23E SWAP1 PUSH2 0x208C JUMP JUMPDEST DUP3 DUP1 SLOAD PUSH2 0x1D9B SWAP1 PUSH2 0x208C JUMP JUMPDEST SWAP1 PUSH1 0x0 MSTORE PUSH1 0x20 PUSH1 0x0 KECCAK256 SWAP1 PUSH1 0x1F ADD PUSH1 0x20 SWAP1 DIV DUP2 ADD SWAP3 DUP3 PUSH2 0x1DBD JUMPI PUSH1 0x0 DUP6 SSTORE PUSH2 0x1E03 JUMP JUMPDEST DUP3 PUSH1 0x1F LT PUSH2 0x1DD6 JUMPI DUP1 MLOAD PUSH1 0xFF NOT AND DUP4 DUP1 ADD OR DUP6 SSTORE PUSH2 0x1E03 JUMP JUMPDEST DUP3 DUP1 ADD PUSH1 0x1 ADD DUP6 SSTORE DUP3 ISZERO PUSH2 0x1E03 JUMPI SWAP2 DUP3 ADD JUMPDEST DUP3 DUP2 GT ISZERO PUSH2 0x1E03 JUMPI DUP3 MLOAD DUP3 SSTORE SWAP2 PUSH1 0x20 ADD SWAP2 SWAP1 PUSH1 0x1 ADD SWAP1 PUSH2 0x1DE8 JUMP JUMPDEST POP PUSH2 0x1E0F SWAP3 SWAP2 POP PUSH2 0x1E53 JUMP JUMPDEST POP SWAP1 JUMP JUMPDEST DUP3 DUP1 SLOAD DUP3 DUP3 SSTORE SWAP1 PUSH1 0x0 MSTORE PUSH1 0x20 PUSH1 0x0 KECCAK256 SWAP1 DUP2 ADD SWAP3 DUP3 ISZERO PUSH2 0x1E03 JUMPI SWAP2 PUSH1 0x20 MUL DUP3 ADD JUMPDEST DUP3 DUP2 GT ISZERO PUSH2 0x1E03 JUMPI DUP3 MLOAD DUP3 SWAP1 PUSH1 0xFF AND SWAP1 SSTORE SWAP2 PUSH1 0x20 ADD SWAP2 SWAP1 PUSH1 0x1 ADD SWAP1 PUSH2 0x1E33 JUMP JUMPDEST JUMPDEST DUP1 DUP3 GT ISZERO PUSH2 0x1E0F JUMPI PUSH1 0x0 DUP2 SSTORE PUSH1 0x1 ADD PUSH2 0x1E54 JUMP JUMPDEST PUSH1 0x0 PUSH1 0x60 DUP3 DUP5 SUB SLT ISZERO PUSH2 0x1E79 JUMPI DUP1 DUP2 REVERT JUMPDEST DUP3 PUSH1 0x1F DUP4 ADD SLT PUSH2 0x1E87 JUMPI DUP1 DUP2 REVERT JUMPDEST PUSH1 0x40 MLOAD PUSH1 0x60 DUP2 ADD DUP2 DUP2 LT PUSH8 0xFFFFFFFFFFFFFFFF DUP3 GT OR ISZERO PUSH2 0x1EAA JUMPI PUSH2 0x1EAA PUSH2 0x2118 JUMP JUMPDEST PUSH1 0x40 MSTORE DUP1 DUP4 PUSH1 0x60 DUP2 ADD DUP7 LT ISZERO PUSH2 0x1EBE JUMPI DUP4 DUP5 REVERT JUMPDEST DUP4 JUMPDEST PUSH1 0x3 DUP2 LT ISZERO PUSH2 0x1EDF JUMPI DUP2 CALLDATALOAD DUP4 MSTORE PUSH1 0x20 SWAP3 DUP4 ADD SWAP3 SWAP1 SWAP2 ADD SWAP1 PUSH1 0x1 ADD PUSH2 0x1EC0 JUMP JUMPDEST POP SWAP2 SWAP6 SWAP5 POP POP POP POP POP JUMP JUMPDEST PUSH1 0x0 PUSH1 0x20 DUP3 DUP5 SUB SLT ISZERO PUSH2 0x1EFB JUMPI DUP1 DUP2 REVERT JUMPDEST DUP2 MLOAD DUP1 ISZERO ISZERO DUP2 EQ PUSH2 0x1F0A JUMPI DUP2 DUP3 REVERT JUMPDEST SWAP4 SWAP3 POP POP POP JUMP JUMPDEST PUSH1 0x0 PUSH1 0x20 DUP3 DUP5 SUB SLT ISZERO PUSH2 0x1F22 JUMPI DUP1 DUP2 REVERT JUMPDEST POP MLOAD SWAP2 SWAP1 POP JUMP JUMPDEST PUSH1 0x0 PUSH1 0x20 DUP3 DUP5 SUB SLT ISZERO PUSH2 0x1F3A JUMPI DUP1 DUP2 REVERT JUMPDEST DUP2 CALLDATALOAD PUSH8 0xFFFFFFFFFFFFFFFF DUP1 DUP3 GT ISZERO PUSH2 0x1F51 JUMPI DUP3 DUP4 REVERT JUMPDEST DUP2 DUP5 ADD SWAP2 POP DUP5 PUSH1 0x1F DUP4 ADD SLT PUSH2 0x1F64 JUMPI DUP3 DUP4 REVERT JUMPDEST DUP2 CALLDATALOAD DUP2 DUP2 GT ISZERO PUSH2 0x1F76 JUMPI PUSH2 0x1F76 PUSH2 0x2118 JUMP JUMPDEST PUSH1 0x40 MLOAD PUSH1 0x1F DUP3 ADD PUSH1 0x1F NOT SWAP1 DUP2 AND PUSH1 0x3F ADD AND DUP2 ADD SWAP1 DUP4 DUP3 GT DUP2 DUP4 LT OR ISZERO PUSH2 0x1F9E JUMPI PUSH2 0x1F9E PUSH2 0x2118 JUMP JUMPDEST DUP2 PUSH1 0x40 MSTORE DUP3 DUP2 MSTORE DUP8 PUSH1 0x20 DUP5 DUP8 ADD ADD GT ISZERO PUSH2 0x1FB6 JUMPI DUP6 DUP7 REVERT JUMPDEST DUP3 PUSH1 0x20 DUP7 ADD PUSH1 0x20 DUP4 ADD CALLDATACOPY SWAP2 DUP3 ADD PUSH1 0x20 ADD SWAP5 SWAP1 SWAP5 MSTORE SWAP6 SWAP5 POP POP POP POP POP JUMP JUMPDEST PUSH1 0x0 PUSH1 0x20 DUP3 DUP5 SUB SLT ISZERO PUSH2 0x1FE4 JUMPI DUP1 DUP2 REVERT JUMPDEST POP CALLDATALOAD SWAP2 SWAP1 POP JUMP JUMPDEST PUSH1 0x0 PUSH1 0x20 DUP1 DUP4 MSTORE DUP4 MLOAD DUP1 DUP3 DUP6 ADD MSTORE DUP3 JUMPDEST DUP2 DUP2 LT ISZERO PUSH2 0x2017 JUMPI DUP6 DUP2 ADD DUP4 ADD MLOAD DUP6 DUP3 ADD PUSH1 0x40 ADD MSTORE DUP3 ADD PUSH2 0x1FFB JUMP JUMPDEST DUP2 DUP2 GT ISZERO PUSH2 0x2028 JUMPI DUP4 PUSH1 0x40 DUP4 DUP8 ADD ADD MSTORE JUMPDEST POP PUSH1 0x1F ADD PUSH1 0x1F NOT AND SWAP3 SWAP1 SWAP3 ADD PUSH1 0x40 ADD SWAP4 SWAP3 POP POP POP JUMP JUMPDEST PUSH1 0x0 DUP3 NOT DUP3 GT ISZERO PUSH2 0x2051 JUMPI PUSH2 0x2051 PUSH2 0x2102 JUMP JUMPDEST POP ADD SWAP1 JUMP JUMPDEST PUSH1 0x0 DUP2 PUSH1 0x0 NOT DIV DUP4 GT DUP3 ISZERO ISZERO AND ISZERO PUSH2 0x2070 JUMPI PUSH2 0x2070 PUSH2 0x2102 JUMP JUMPDEST POP MUL SWAP1 JUMP JUMPDEST PUSH1 0x0 DUP3 DUP3 LT ISZERO PUSH2 0x2087 JUMPI PUSH2 0x2087 PUSH2 0x2102 JUMP JUMPDEST POP SUB SWAP1 JUMP JUMPDEST PUSH1 0x1 DUP2 DUP2 SHR SWAP1 DUP3 AND DUP1 PUSH2 0x20A0 JUMPI PUSH1 0x7F DUP3 AND SWAP2 POP JUMPDEST PUSH1 0x20 DUP3 LT DUP2 EQ ISZERO PUSH2 0x20C1 JUMPI PUSH4 0x4E487B71 PUSH1 0xE0 SHL PUSH1 0x0 MSTORE PUSH1 0x22 PUSH1 0x4 MSTORE PUSH1 0x24 PUSH1 0x0 REVERT JUMPDEST POP SWAP2 SWAP1 POP JUMP JUMPDEST PUSH1 0x0 PUSH1 0x0 NOT DUP3 EQ ISZERO PUSH2 0x20DB JUMPI PUSH2 0x20DB PUSH2 0x2102 JUMP JUMPDEST POP PUSH1 0x1 ADD SWAP1 JUMP JUMPDEST PUSH1 0x0 DUP3 PUSH2 0x20FD JUMPI PUSH4 0x4E487B71 PUSH1 0xE0 SHL DUP2 MSTORE PUSH1 0x12 PUSH1 0x4 MSTORE PUSH1 0x24 DUP2 REVERT JUMPDEST POP MOD SWAP1 JUMP JUMPDEST PUSH4 0x4E487B71 PUSH1 0xE0 SHL PUSH1 0x0 MSTORE PUSH1 0x11 PUSH1 0x4 MSTORE PUSH1 0x24 PUSH1 0x0 REVERT JUMPDEST PUSH4 0x4E487B71 PUSH1 0xE0 SHL PUSH1 0x0 MSTORE PUSH1 0x41 PUSH1 0x4 MSTORE PUSH1 0x24 PUSH1 0x0 REVERT INVALID LOG2 PUSH5 0x6970667358 0x22 SLT KECCAK256 SLT PUSH24 0x29B4C117F6313110A5C390054595665E6E5E2EF731C85EAD SWAP12 SWAP4 PUSH24 0xB8CB2664736F6C63430008040033A2646970667358221220 0x5D PUSH31 0xEF85151B902692C36E7FC6967A4C9E3DFE1642FB3EC9BDB986889CA2CF1764 PUSH20 0x6F6C634300080400330000000000000000000000 "
        },
        "methodIdentifiers": {
          "changePoolCreationBool(bool)": "64c3c343",
          "createPool(string,uint256,address,address,address,uint256,uint256,uint256,uint256)": "f9e8dab7",
          "owner()": "8da5cb5b",
          "renounceOwnership()": "715018a6",
          "setTwitterVerifyAddress(address)": "d1954fca",
          "transferOwnership(address)": "f2fde38b"
        }
      }
    }
  }
}