{
  "_format": "hh-sol-artifact-1",
  "contractName": "RandomNumberConsumer",
  "sourceName": "contracts/RandomNumberGenerator.sol",
  "abi": [
    {
      "inputs": [],
      "stateMutability": "nonpayable",
      "type": "constructor"
    },
    {
      "inputs": [
        {
          "internalType": "address",
          "name": "_address",
          "type": "address"
        }
      ],
      "name": "addToWhitelist",
      "outputs": [],
      "stateMutability": "nonpayable",
      "type": "function"
    },
    {
      "inputs": [
        {
          "internalType": "uint256",
          "name": "userProvidedSeed",
          "type": "uint256"
        }
      ],
      "name": "getRandomNumber",
      "outputs": [
        {
          "internalType": "bytes32",
          "name": "requestId",
          "type": "bytes32"
        }
      ],
      "stateMutability": "nonpayable",
      "type": "function"
    },
    {
      "inputs": [],
      "name": "owner",
      "outputs": [
        {
          "internalType": "address",
          "name": "",
          "type": "address"
        }
      ],
      "stateMutability": "view",
      "type": "function"
    },
    {
      "inputs": [],
      "name": "randomResult",
      "outputs": [
        {
          "internalType": "uint256",
          "name": "",
          "type": "uint256"
        }
      ],
      "stateMutability": "view",
      "type": "function"
    },
    {
      "inputs": [
        {
          "internalType": "bytes32",
          "name": "requestId",
          "type": "bytes32"
        },
        {
          "internalType": "uint256",
          "name": "randomness",
          "type": "uint256"
        }
      ],
      "name": "rawFulfillRandomness",
      "outputs": [],
      "stateMutability": "nonpayable",
      "type": "function"
    },
    {
      "inputs": [],
      "name": "seeRandomNumber",
      "outputs": [
        {
          "internalType": "uint256",
          "name": "",
          "type": "uint256"
        }
      ],
      "stateMutability": "nonpayable",
      "type": "function"
    },
    {
      "inputs": [
        {
          "internalType": "address",
          "name": "_address",
          "type": "address"
        }
      ],
      "name": "transferOwnership",
      "outputs": [],
      "stateMutability": "nonpayable",
      "type": "function"
    },
    {
      "inputs": [
        {
          "internalType": "address",
          "name": "_address",
          "type": "address"
        }
      ],
      "name": "withdrawLink",
      "outputs": [],
      "stateMutability": "nonpayable",
      "type": "function"
    }
  ],
  "bytecode": "0x60c060405234801561001057600080fd5b507f8c7382f9d8f56b33781fe506e897a4f1e2d1725500000000000000000000000060a0527f326c977e6efc84e512bb9c30f76e30c160ed06fb0000000000000000000000006080527f6e75b569a01ef56d18cab6a8e71e6600d6ce853834d4a5748b720d06f878b3a460015567016345785d8a0000600255600680546001600160a01b0319163317905573326c977e6efc84e512bb9c30f76e30c160ed06fb738c7382f9d8f56b33781fe506e897a4f1e2d172556109d56100f16000398061037a52806106cc52508061020b52806104a3528061069d52506109d56000f3fe608060405234801561001057600080fd5b50600436106100885760003560e01c806394985ddd1161005b57806394985ddd146100fb578063b37217a41461011e578063e43252d71461013b578063f2fde38b1461016157610088565b806322cce6891461008d57806342619f66146100a75780638da5cb5b146100af57806390e9ca7f146100d3575b600080fd5b610095610187565b60408051918252519081900360200190f35b61009561018d565b6100b7610193565b604080516001600160a01b039092168252519081900360200190f35b6100f9600480360360208110156100e957600080fd5b50356001600160a01b03166101a2565b005b6100f96004803603604081101561011157600080fd5b508035906020013561036f565b6100956004803603602081101561013457600080fd5b50356103fa565b6100f96004803603602081101561015157600080fd5b50356001600160a01b0316610568565b6100f96004803603602081101561017757600080fd5b50356001600160a01b031661061b565b60035490565b60035481565b6006546001600160a01b031681565b6006546001600160a01b031633146101eb5760405162461bcd60e51b81526004018080602001828103825260268152602001806109296026913960400191505060405180910390fd5b604080516370a0823160e01b815230600482015290516001600160a01b037f0000000000000000000000000000000000000000000000000000000000000000169163a9059cbb91849184916370a0823191602480820192602092909190829003018186803b15801561025c57600080fd5b505afa158015610270573d6000803e3d6000fd5b505050506040513d602081101561028657600080fd5b5051604080517fffffffff0000000000000000000000000000000000000000000000000000000060e086901b1681526001600160a01b03909316600484015260248301919091525160448083019260209291908290030181600087803b1580156102ef57600080fd5b505af1158015610303573d6000803e3d6000fd5b505050506040513d602081101561031957600080fd5b505161036c576040805162461bcd60e51b815260206004820152601260248201527f556e61626c6520746f207472616e736665720000000000000000000000000000604482015290519081900360640190fd5b50565b336001600160a01b037f000000000000000000000000000000000000000000000000000000000000000016146103ec576040805162461bcd60e51b815260206004820152601f60248201527f4f6e6c7920565246436f6f7264696e61746f722063616e2066756c66696c6c00604482015290519081900360640190fd5b6103f68282610693565b5050565b600080805b600554811015610443576004818154811061041657fe5b6000918252602090912001546001600160a01b031633141561043b5760019150610443565b6001016103ff565b50806104805760405162461bcd60e51b815260040180806020018281038252602681526020018061097a6026913960400191505060405180910390fd5b600254604080516370a0823160e01b815230600482015290516001600160a01b037f000000000000000000000000000000000000000000000000000000000000000016916370a08231916024808301926020929190829003018186803b1580156104e957600080fd5b505afa1580156104fd573d6000803e3d6000fd5b505050506040513d602081101561051357600080fd5b505110156105525760405162461bcd60e51b815260040180806020018281038252602b81526020018061094f602b913960400191505060405180910390fd5b61056160015460025485610699565b9392505050565b6006546001600160a01b031633146105b15760405162461bcd60e51b81526004018080602001828103825260268152602001806109296026913960400191505060405180910390fd5b60048054600180820183556000929092527f8a35acfbc15ff81a39ae7d344fd709f28e8600b4aa8c65c6b64bfe7fe36bd19b01805473ffffffffffffffffffffffffffffffffffffffff19166001600160a01b039390931692909217909155600580549091019055565b6006546001600160a01b031633146106645760405162461bcd60e51b81526004018080602001828103825260268152602001806109296026913960400191505060405180910390fd5b6006805473ffffffffffffffffffffffffffffffffffffffff19166001600160a01b0392909216919091179055565b60035550565b60007f00000000000000000000000000000000000000000000000000000000000000006001600160a01b0316634000aea07f000000000000000000000000000000000000000000000000000000000000000085878660405160200180838152602001828152602001925050506040516020818303038152906040526040518463ffffffff1660e01b815260040180846001600160a01b03166001600160a01b0316815260200183815260200180602001828103825283818151815260200191508051906020019080838360005b8381101561077e578181015183820152602001610766565b50505050905090810190601f1680156107ab5780820380516001836020036101000a031916815260200191505b50945050505050602060405180830381600087803b1580156107cc57600080fd5b505af11580156107e0573d6000803e3d6000fd5b505050506040513d60208110156107f657600080fd5b50506000848152602081905260408120546108169086908590309061085b565b60008681526020819052604090205490915061083990600163ffffffff6108a216565b60008681526020819052604090205561085285826108fc565b95945050505050565b60408051602080820196909652808201949094526001600160a01b039290921660608401526080808401919091528151808403909101815260a09092019052805191012090565b600082820183811015610561576040805162461bcd60e51b815260206004820152601b60248201527f536166654d6174683a206164646974696f6e206f766572666c6f770000000000604482015290519081900360640190fd5b60408051602080820194909452808201929092528051808303820181526060909201905280519101209056fe4f6e6c7920746865206f776e65722063616e2063616c6c20746869732066756e6374696f6e214e6f7420656e6f756768204c494e4b202d2066696c6c20636f6e74726163742077697468206661756365744d6573736167652073656e646572206e6f7420666f756e6420696e2077686974656c69737421a2646970667358221220f66cec9ffb881f0128cec6b99d7d9306ddddfc0cfa9d7d2cab59d761bfa24b4964736f6c63430006060033",
  "linkReferences": {},
  "deployedLinkReferences": {}
}