{
  "_format": "hh-sol-artifact-1",
  "contractName": "twitterverify",
  "sourceName": "contracts/twitterVerify.sol",
  "abi": [
    {
      "inputs": [],
      "stateMutability": "nonpayable",
      "type": "constructor"
    },
    {
      "anonymous": false,
      "inputs": [
        {
          "indexed": true,
          "internalType": "bytes32",
          "name": "id",
          "type": "bytes32"
        }
      ],
      "name": "ChainlinkCancelled",
      "type": "event"
    },
    {
      "anonymous": false,
      "inputs": [
        {
          "indexed": true,
          "internalType": "bytes32",
          "name": "id",
          "type": "bytes32"
        }
      ],
      "name": "ChainlinkFulfilled",
      "type": "event"
    },
    {
      "anonymous": false,
      "inputs": [
        {
          "indexed": true,
          "internalType": "bytes32",
          "name": "id",
          "type": "bytes32"
        }
      ],
      "name": "ChainlinkRequested",
      "type": "event"
    },
    {
      "anonymous": false,
      "inputs": [
        {
          "indexed": true,
          "internalType": "address",
          "name": "previousOwner",
          "type": "address"
        },
        {
          "indexed": true,
          "internalType": "address",
          "name": "newOwner",
          "type": "address"
        }
      ],
      "name": "OwnershipTransferred",
      "type": "event"
    },
    {
      "anonymous": false,
      "inputs": [
        {
          "indexed": false,
          "internalType": "bytes32",
          "name": "requestId",
          "type": "bytes32"
        }
      ],
      "name": "verificationFailed",
      "type": "event"
    },
    {
      "anonymous": false,
      "inputs": [
        {
          "indexed": false,
          "internalType": "bytes32",
          "name": "requestId",
          "type": "bytes32"
        },
        {
          "indexed": false,
          "internalType": "string",
          "name": "twitterHandle",
          "type": "string"
        }
      ],
      "name": "verificationSuccess",
      "type": "event"
    },
    {
      "inputs": [],
      "name": "LINK_CONTRACT_ADDRESS",
      "outputs": [
        {
          "internalType": "address",
          "name": "",
          "type": "address"
        }
      ],
      "stateMutability": "view",
      "type": "function"
    },
    {
      "inputs": [
        {
          "internalType": "address",
          "name": "_address",
          "type": "address"
        }
      ],
      "name": "createTestUser",
      "outputs": [],
      "stateMutability": "nonpayable",
      "type": "function"
    },
    {
      "inputs": [
        {
          "internalType": "bytes32",
          "name": "_requestId",
          "type": "bytes32"
        },
        {
          "internalType": "uint256",
          "name": "_address",
          "type": "uint256"
        }
      ],
      "name": "fulfill_verify",
      "outputs": [],
      "stateMutability": "nonpayable",
      "type": "function"
    },
    {
      "inputs": [
        {
          "internalType": "address",
          "name": "_address",
          "type": "address"
        }
      ],
      "name": "getTwitterHandle",
      "outputs": [
        {
          "internalType": "string",
          "name": "",
          "type": "string"
        }
      ],
      "stateMutability": "nonpayable",
      "type": "function"
    },
    {
      "inputs": [
        {
          "internalType": "address",
          "name": "_address",
          "type": "address"
        }
      ],
      "name": "getVerification",
      "outputs": [
        {
          "internalType": "bool",
          "name": "",
          "type": "bool"
        }
      ],
      "stateMutability": "nonpayable",
      "type": "function"
    },
    {
      "inputs": [],
      "name": "isOwner",
      "outputs": [
        {
          "internalType": "bool",
          "name": "",
          "type": "bool"
        }
      ],
      "stateMutability": "view",
      "type": "function"
    },
    {
      "inputs": [],
      "name": "owner",
      "outputs": [
        {
          "internalType": "address",
          "name": "",
          "type": "address"
        }
      ],
      "stateMutability": "view",
      "type": "function"
    },
    {
      "inputs": [
        {
          "internalType": "bytes32",
          "name": "_jobId",
          "type": "bytes32"
        }
      ],
      "name": "setJobId",
      "outputs": [],
      "stateMutability": "nonpayable",
      "type": "function"
    },
    {
      "inputs": [
        {
          "internalType": "address",
          "name": "newOwner",
          "type": "address"
        }
      ],
      "name": "transferOwnership",
      "outputs": [],
      "stateMutability": "nonpayable",
      "type": "function"
    },
    {
      "inputs": [
        {
          "internalType": "address",
          "name": "",
          "type": "address"
        }
      ],
      "name": "verificationMap",
      "outputs": [
        {
          "internalType": "bytes32",
          "name": "requestId",
          "type": "bytes32"
        },
        {
          "internalType": "bool",
          "name": "verified",
          "type": "bool"
        },
        {
          "internalType": "string",
          "name": "twitterHandle",
          "type": "string"
        }
      ],
      "stateMutability": "view",
      "type": "function"
    },
    {
      "inputs": [
        {
          "internalType": "string",
          "name": "_userHandle",
          "type": "string"
        }
      ],
      "name": "verifyUser",
      "outputs": [
        {
          "internalType": "bytes32",
          "name": "",
          "type": "bytes32"
        }
      ],
      "stateMutability": "nonpayable",
      "type": "function"
    }
  ],
  "bytecode": "0x60806040526001600455600b80546001600160a01b031990811673326c977e6efc84e512bb9c30f76e30c160ed06fb1791829055600c80549091166001600160a01b039290921691909117905534801561005857600080fd5b50600680546001600160a01b0319163317908190556040516001600160a01b0391909116906000907f8be0079c531659141344cd1fd0a4f28419497f9722a3daafe3b4186f6b6457e0908290a36100cb73326c977e6efc84e512bb9c30f76e30c160ed06fb6001600160e01b0361012616565b600780546001600160a01b031916730e70fe151fa8a1477d4e2a42028db8a231d2c8271790557f396464616533613562643635343764353930656235636361656162313432396560095567016345785d8a0000600855610148565b600280546001600160a01b0319166001600160a01b0392909216919091179055565b6114e1806101576000396000f3fe608060405234801561001057600080fd5b50600436106100c95760003560e01c8063a116519611610081578063ea6fe47e1161005b578063ea6fe47e14610304578063f15ad2641461030c578063f2fde38b146103a7576100c9565b8063a116519614610176578063d28834fa14610226578063e600c8171461024c576100c9565b80638da5cb5b116100b25780638da5cb5b146101275780638f32d59b1461014b5780639d9ecb2214610153576100c9565b8063508954f8146100ce5780637fc9592d146100ed575b600080fd5b6100eb600480360360208110156100e457600080fd5b50356103cd565b005b6101136004803603602081101561010357600080fd5b50356001600160a01b031661042b565b604080519115158252519081900360200190f35b61012f61044c565b604080516001600160a01b039092168252519081900360200190f35b61011361045c565b6100eb6004803603604081101561016957600080fd5b508035906020013561046d565b61019c6004803603602081101561018c57600080fd5b50356001600160a01b03166106ad565b604051808481526020018315151515815260200180602001828103825283818151815260200191508051906020019080838360005b838110156101e95781810151838201526020016101d1565b50505050905090810190601f1680156102165780820380516001836020036101000a031916815260200191505b5094505050505060405180910390f35b6100eb6004803603602081101561023c57600080fd5b50356001600160a01b031661075d565b6102f26004803603602081101561026257600080fd5b81019060208101813564010000000081111561027d57600080fd5b82018360208201111561028f57600080fd5b803590602001918460018302840111640100000000831117156102b157600080fd5b91908080601f01602080910402602001604051908101604052809392919081815260200183838082843760009201919091525092955061085a945050505050565b60408051918252519081900360200190f35b61012f610a32565b6103326004803603602081101561032257600080fd5b50356001600160a01b0316610a41565b6040805160208082528351818301528351919283929083019185019080838360005b8381101561036c578181015183820152602001610354565b50505050905090810190601f1680156103995780820380516001836020036101000a031916815260200191505b509250505060405180910390f35b6100eb600480360360208110156103bd57600080fd5b50356001600160a01b0316610af2565b6103d561045c565b610426576040805162461bcd60e51b815260206004820181905260248201527f4f776e61626c653a2063616c6c6572206973206e6f7420746865206f776e6572604482015290519081900360640190fd5b600955565b6001600160a01b03166000908152600a602052604090206001015460ff1690565b6006546001600160a01b03165b90565b6006546001600160a01b0316331490565b60008281526005602052604090205482906001600160a01b031633146104c45760405162461bcd60e51b81526004018080602001828103825260288152602001806114846028913960400191505060405180910390fd5b600081815260056020526040808220805473ffffffffffffffffffffffffffffffffffffffff191690555182917f7cc135e0cebb02c3480ae5d74d377283180a2601f8f644edf7987b009316c63a91a2816001600160a01b0381166105a3576040805185815290517f9252a22812d23549711234deb72980761f04f0bbaacf232ab264e6471d16548d9181900360200190a16040805162461bcd60e51b815260206004820152601960248201527f41646472657373206d757374206265206e6f6e207a65726f2e00000000000000604482015290519081900360640190fd5b6001600160a01b0381166000908152600a60205260409020548414156106a7576001600160a01b0381166000908152600a60209081526040918290206001818101805460ff191682179055835188815292830184815260029283018054600019938116156101000293909301909216929092049383018490527ff900aab519a246b322d696ab644cef7ecc41a3669e56c5add5bcc71fc412cd659388939192906060830190849080156106975780601f1061066c57610100808354040283529160200191610697565b820191906000526020600020905b81548152906001019060200180831161067a57829003601f168201915b5050935050505060405180910390a15b50505050565b600a6020908152600091825260409182902080546001808301546002808501805488516101009582161595909502600019011691909104601f8101879004870284018701909752868352929560ff909116949192918301828280156107535780601f1061072857610100808354040283529160200191610753565b820191906000526020600020905b81548152906001019060200180831161073657829003601f168201915b5050505050905083565b61076561045c565b6107b6576040805162461bcd60e51b815260206004820181905260248201527f4f776e61626c653a2063616c6c6572206973206e6f7420746865206f776e6572604482015290519081900360640190fd5b6107be611334565b506040805160608101825260008082526001602080840182815285518087018752600f81527f2a2a2a544553545f555345522a2a2a0000000000000000000000000000000000818401528587019081526001600160a01b0388168552600a835295909320845181559251918301805460ff19169215159290921790915592518051929384936108539260028501920190611353565b5050505050565b600c54600854604080517f23b872dd0000000000000000000000000000000000000000000000000000000081523360048201523060248201526044810192909252516000926001600160a01b0316916323b872dd91606480830192602092919082900301818787803b1580156108cf57600080fd5b505af11580156108e3573d6000803e3d6000fd5b505050506040513d60208110156108f957600080fd5b505161094c576040805162461bcd60e51b815260206004820152601360248201527f7472616e7366657246726f6d206661696c656400000000000000000000000000604482015290519081900360640190fd5b336000908152600a6020908152604090912060018101805460ff19169055835161097e92600290920191850190611353565b506109876113d1565b6009546109b590307f9d9ecb2200000000000000000000000000000000000000000000000000000000610b57565b60408051808201909152600681527f68616e646c65000000000000000000000000000000000000000000000000000060208201529091506109fe9082908563ffffffff610b8216565b600754600854610a19916001600160a01b0316908390610bb1565b336000908152600a602052604090208190559392505050565b600b546001600160a01b031681565b6001600160a01b0381166000908152600a60209081526040918290206002908101805484516001821615610100026000190190911692909204601f81018490048402830184019094528382526060939192909190830182828015610ae65780601f10610abb57610100808354040283529160200191610ae6565b820191906000526020600020905b815481529060010190602001808311610ac957829003601f168201915b50505050509050919050565b610afa61045c565b610b4b576040805162461bcd60e51b815260206004820181905260248201527f4f776e61626c653a2063616c6c6572206973206e6f7420746865206f776e6572604482015290519081900360640190fd5b610b5481610d95565b50565b610b5f6113d1565b610b676113d1565b610b798186868663ffffffff610e4316565b95945050505050565b6080830151610b97908363ffffffff610e9816565b6080830151610bac908263ffffffff610e9816565b505050565b6004546040805130606090811b602080840191909152603480840186905284518085039091018152605490930184528251928101929092209086019390935260008381526005909152818120805473ffffffffffffffffffffffffffffffffffffffff19166001600160a01b038816179055905182917fb5e6e01e79f91267dc17b4e6314d5d4d03593d2ceee0fbb452b750bd70ea5af991a26002546001600160a01b0316634000aea08584610c6687610eb5565b6040518463ffffffff1660e01b815260040180846001600160a01b03166001600160a01b0316815260200183815260200180602001828103825283818151815260200191508051906020019080838360005b83811015610cd0578181015183820152602001610cb8565b50505050905090810190601f168015610cfd5780820380516001836020036101000a031916815260200191505b50945050505050602060405180830381600087803b158015610d1e57600080fd5b505af1158015610d32573d6000803e3d6000fd5b505050506040513d6020811015610d4857600080fd5b5051610d855760405162461bcd60e51b81526004018080602001828103825260238152602001806114616023913960400191505060405180910390fd5b6004805460010190559392505050565b6001600160a01b038116610dda5760405162461bcd60e51b815260040180806020018281038252602681526020018061143b6026913960400191505060405180910390fd5b6006546040516001600160a01b038084169216907f8be0079c531659141344cd1fd0a4f28419497f9722a3daafe3b4186f6b6457e090600090a36006805473ffffffffffffffffffffffffffffffffffffffff19166001600160a01b0392909216919091179055565b610e4b6113d1565b610e5b856080015161010061100d565b50509183526001600160a01b031660208301527fffffffff0000000000000000000000000000000000000000000000000000000016604082015290565b610ea5826003835161104d565b610bac828263ffffffff61115716565b6060634042994660e01b6000808460000151856020015186604001518760600151600189608001516000015160405160240180896001600160a01b03166001600160a01b03168152602001888152602001878152602001866001600160a01b03166001600160a01b03168152602001856001600160e01b0319166001600160e01b031916815260200184815260200183815260200180602001828103825283818151815260200191508051906020019080838360005b83811015610f83578181015183820152602001610f6b565b50505050905090810190601f168015610fb05780820380516001836020036101000a031916815260200191505b5060408051601f198184030181529190526020810180516001600160e01b03167fffffffff00000000000000000000000000000000000000000000000000000000909d169c909c17909b5250989950505050505050505050919050565b611015611406565b602082061561102a5760208206602003820191505b506020808301829052604080518085526000815283019091019052815b92915050565b601781116110745761106e8360e0600585901b16831763ffffffff61117816565b50610bac565b60ff81116110aa57611097836018611fe0600586901b161763ffffffff61117816565b5061106e8382600163ffffffff61119016565b61ffff81116110e1576110ce836019611fe0600586901b161763ffffffff61117816565b5061106e8382600263ffffffff61119016565b63ffffffff811161111a5761110783601a611fe0600586901b161763ffffffff61117816565b5061106e8382600463ffffffff61119016565b67ffffffffffffffff8111610bac5761114483601b611fe0600586901b161763ffffffff61117816565b506106a78382600863ffffffff61119016565b61115f611406565b611171838460000151518485516111b1565b9392505050565b611180611406565b611171838460000151518461125d565b611198611406565b6111a98485600001515185856112a8565b949350505050565b6111b9611406565b82518211156111c757600080fd5b846020015182850111156111f1576111f1856111e98760200151878601611306565b60020261131d565b6000808651805187602083010193508088870111156112105787860182525b505050602084015b602084106112375780518252601f199093019260209182019101611218565b51815160001960208690036101000a019081169019919091161790525083949350505050565b611265611406565b836020015183106112815761128184856020015160020261131d565b83518051602085830101848153508085141561129e576001810182525b5093949350505050565b6112b0611406565b846020015184830111156112cd576112cd8585840160020261131d565b60006001836101000a0390508551838682010185831982511617815250805184870111156112fb5783860181525b509495945050505050565b600081831115611317575081611047565b50919050565b8151611329838361100d565b506106a78382611157565b6040805160608082018352600080835260208301529181019190915290565b828054600181600116156101000203166002900490600052602060002090601f016020900481019282601f1061139457805160ff19168380011785556113c1565b828001600101855582156113c1579182015b828111156113c15782518255916020019190600101906113a6565b506113cd929150611420565b5090565b6040805160a081018252600080825260208201819052918101829052606081019190915260808101611401611406565b905290565b604051806040016040528060608152602001600081525090565b61045991905b808211156113cd576000815560010161142656fe4f776e61626c653a206e6577206f776e657220697320746865207a65726f2061646472657373756e61626c6520746f207472616e73666572416e6443616c6c20746f206f7261636c65536f75726365206d75737420626520746865206f7261636c65206f66207468652072657175657374a2646970667358221220cd741cde007584802142c645dd325086476e2524fa561e70f2e877aa6943b87064736f6c63430006060033",
  "linkReferences": {},
  "deployedLinkReferences": {}
}