{
  "_format": "hh-sol-artifact-1",
  "contractName": "twitterverify",
  "sourceName": "contracts/twitterVerify.sol",
  "abi": [
    {
      "inputs": [],
      "stateMutability": "nonpayable",
      "type": "constructor"
    },
    {
      "anonymous": false,
      "inputs": [
        {
          "indexed": true,
          "internalType": "bytes32",
          "name": "id",
          "type": "bytes32"
        }
      ],
      "name": "ChainlinkCancelled",
      "type": "event"
    },
    {
      "anonymous": false,
      "inputs": [
        {
          "indexed": true,
          "internalType": "bytes32",
          "name": "id",
          "type": "bytes32"
        }
      ],
      "name": "ChainlinkFulfilled",
      "type": "event"
    },
    {
      "anonymous": false,
      "inputs": [
        {
          "indexed": true,
          "internalType": "bytes32",
          "name": "id",
          "type": "bytes32"
        }
      ],
      "name": "ChainlinkRequested",
      "type": "event"
    },
    {
      "anonymous": false,
      "inputs": [
        {
          "indexed": true,
          "internalType": "address",
          "name": "previousOwner",
          "type": "address"
        },
        {
          "indexed": true,
          "internalType": "address",
          "name": "newOwner",
          "type": "address"
        }
      ],
      "name": "OwnershipTransferred",
      "type": "event"
    },
    {
      "anonymous": false,
      "inputs": [
        {
          "indexed": false,
          "internalType": "bytes32",
          "name": "requestId",
          "type": "bytes32"
        }
      ],
      "name": "verificationFailed",
      "type": "event"
    },
    {
      "anonymous": false,
      "inputs": [
        {
          "indexed": false,
          "internalType": "bytes32",
          "name": "requestId",
          "type": "bytes32"
        },
        {
          "indexed": false,
          "internalType": "string",
          "name": "twitterHandle",
          "type": "string"
        }
      ],
      "name": "verificationSuccess",
      "type": "event"
    },
    {
      "inputs": [],
      "name": "LINK_CONTRACT_ADDRESS",
      "outputs": [
        {
          "internalType": "address",
          "name": "",
          "type": "address"
        }
      ],
      "stateMutability": "view",
      "type": "function"
    },
    {
      "inputs": [
        {
          "internalType": "bytes32",
          "name": "_requestId",
          "type": "bytes32"
        },
        {
          "internalType": "uint256",
          "name": "_address",
          "type": "uint256"
        }
      ],
      "name": "fulfill_verify",
      "outputs": [],
      "stateMutability": "nonpayable",
      "type": "function"
    },
    {
      "inputs": [],
      "name": "isOwner",
      "outputs": [
        {
          "internalType": "bool",
          "name": "",
          "type": "bool"
        }
      ],
      "stateMutability": "view",
      "type": "function"
    },
    {
      "inputs": [],
      "name": "owner",
      "outputs": [
        {
          "internalType": "address",
          "name": "",
          "type": "address"
        }
      ],
      "stateMutability": "view",
      "type": "function"
    },
    {
      "inputs": [
        {
          "internalType": "bytes32",
          "name": "_jobId",
          "type": "bytes32"
        }
      ],
      "name": "setJobId",
      "outputs": [],
      "stateMutability": "nonpayable",
      "type": "function"
    },
    {
      "inputs": [
        {
          "internalType": "address",
          "name": "newOwner",
          "type": "address"
        }
      ],
      "name": "transferOwnership",
      "outputs": [],
      "stateMutability": "nonpayable",
      "type": "function"
    },
    {
      "inputs": [
        {
          "internalType": "address",
          "name": "",
          "type": "address"
        }
      ],
      "name": "verificationMap",
      "outputs": [
        {
          "internalType": "bytes32",
          "name": "requestId",
          "type": "bytes32"
        },
        {
          "internalType": "bool",
          "name": "verified",
          "type": "bool"
        },
        {
          "internalType": "string",
          "name": "twitterHandle",
          "type": "string"
        }
      ],
      "stateMutability": "view",
      "type": "function"
    },
    {
      "inputs": [
        {
          "internalType": "string",
          "name": "_userHandle",
          "type": "string"
        }
      ],
      "name": "verifyUser",
      "outputs": [
        {
          "internalType": "bytes32",
          "name": "",
          "type": "bytes32"
        }
      ],
      "stateMutability": "nonpayable",
      "type": "function"
    }
  ],
  "bytecode": "0x60806040526001600455600b80546001600160a01b031990811673326c977e6efc84e512bb9c30f76e30c160ed06fb1791829055600c80549091166001600160a01b039290921691909117905534801561005857600080fd5b50600680546001600160a01b0319163317908190556040516001600160a01b0391909116906000907f8be0079c531659141344cd1fd0a4f28419497f9722a3daafe3b4186f6b6457e0908290a36100cb73326c977e6efc84e512bb9c30f76e30c160ed06fb6001600160e01b0361012616565b600780546001600160a01b031916730e70fe151fa8a1477d4e2a42028db8a231d2c8271790557f396464616533613562643635343764353930656235636361656162313432396560095567016345785d8a0000600855610148565b600280546001600160a01b0319166001600160a01b0392909216919091179055565b6111cb806101576000396000f3fe608060405234801561001057600080fd5b50600436106100885760003560e01c8063a11651961161005b578063a11651961461010f578063e600c817146101bf578063ea6fe47e14610277578063f2fde38b1461027f57610088565b8063508954f81461008d5780638da5cb5b146100ac5780638f32d59b146100d05780639d9ecb22146100ec575b600080fd5b6100aa600480360360208110156100a357600080fd5b50356102a5565b005b6100b4610303565b604080516001600160a01b039092168252519081900360200190f35b6100d8610313565b604080519115158252519081900360200190f35b6100aa6004803603604081101561010257600080fd5b5080359060200135610324565b6101356004803603602081101561012557600080fd5b50356001600160a01b0316610564565b604051808481526020018315151515815260200180602001828103825283818151815260200191508051906020019080838360005b8381101561018257818101518382015260200161016a565b50505050905090810190601f1680156101af5780820380516001836020036101000a031916815260200191505b5094505050505060405180910390f35b610265600480360360208110156101d557600080fd5b8101906020810181356401000000008111156101f057600080fd5b82018360208201111561020257600080fd5b8035906020019184600183028401116401000000008311171561022457600080fd5b91908080601f016020809104026020016040519081016040528093929190818152602001838380828437600092019190915250929550610614945050505050565b60408051918252519081900360200190f35b6100b46107ec565b6100aa6004803603602081101561029557600080fd5b50356001600160a01b03166107fb565b6102ad610313565b6102fe576040805162461bcd60e51b815260206004820181905260248201527f4f776e61626c653a2063616c6c6572206973206e6f7420746865206f776e6572604482015290519081900360640190fd5b600955565b6006546001600160a01b03165b90565b6006546001600160a01b0316331490565b60008281526005602052604090205482906001600160a01b0316331461037b5760405162461bcd60e51b815260040180806020018281038252602881526020018061116e6028913960400191505060405180910390fd5b600081815260056020526040808220805473ffffffffffffffffffffffffffffffffffffffff191690555182917f7cc135e0cebb02c3480ae5d74d377283180a2601f8f644edf7987b009316c63a91a2816001600160a01b03811661045a576040805185815290517f9252a22812d23549711234deb72980761f04f0bbaacf232ab264e6471d16548d9181900360200190a16040805162461bcd60e51b815260206004820152601960248201527f41646472657373206d757374206265206e6f6e207a65726f2e00000000000000604482015290519081900360640190fd5b6001600160a01b0381166000908152600a602052604090205484141561055e576001600160a01b0381166000908152600a60209081526040918290206001818101805460ff191682179055835188815292830184815260029283018054600019938116156101000293909301909216929092049383018490527ff900aab519a246b322d696ab644cef7ecc41a3669e56c5add5bcc71fc412cd6593889391929060608301908490801561054e5780601f106105235761010080835404028352916020019161054e565b820191906000526020600020905b81548152906001019060200180831161053157829003601f168201915b5050935050505060405180910390a15b50505050565b600a6020908152600091825260409182902080546001808301546002808501805488516101009582161595909502600019011691909104601f8101879004870284018701909752868352929560ff9091169491929183018282801561060a5780601f106105df5761010080835404028352916020019161060a565b820191906000526020600020905b8154815290600101906020018083116105ed57829003601f168201915b5050505050905083565b600c54600854604080517f23b872dd0000000000000000000000000000000000000000000000000000000081523360048201523060248201526044810192909252516000926001600160a01b0316916323b872dd91606480830192602092919082900301818787803b15801561068957600080fd5b505af115801561069d573d6000803e3d6000fd5b505050506040513d60208110156106b357600080fd5b5051610706576040805162461bcd60e51b815260206004820152601360248201527f7472616e7366657246726f6d206661696c656400000000000000000000000000604482015290519081900360640190fd5b336000908152600a6020908152604090912060018101805460ff1916905583516107389260029092019185019061103d565b506107416110bb565b60095461076f90307f9d9ecb2200000000000000000000000000000000000000000000000000000000610860565b60408051808201909152600681527f68616e646c65000000000000000000000000000000000000000000000000000060208201529091506107b89082908563ffffffff61088b16565b6007546008546107d3916001600160a01b03169083906108ba565b336000908152600a602052604090208190559392505050565b600b546001600160a01b031681565b610803610313565b610854576040805162461bcd60e51b815260206004820181905260248201527f4f776e61626c653a2063616c6c6572206973206e6f7420746865206f776e6572604482015290519081900360640190fd5b61085d81610a9e565b50565b6108686110bb565b6108706110bb565b6108828186868663ffffffff610b4c16565b95945050505050565b60808301516108a0908363ffffffff610ba116565b60808301516108b5908263ffffffff610ba116565b505050565b6004546040805130606090811b602080840191909152603480840186905284518085039091018152605490930184528251928101929092209086019390935260008381526005909152818120805473ffffffffffffffffffffffffffffffffffffffff19166001600160a01b038816179055905182917fb5e6e01e79f91267dc17b4e6314d5d4d03593d2ceee0fbb452b750bd70ea5af991a26002546001600160a01b0316634000aea0858461096f87610bbe565b6040518463ffffffff1660e01b815260040180846001600160a01b03166001600160a01b0316815260200183815260200180602001828103825283818151815260200191508051906020019080838360005b838110156109d95781810151838201526020016109c1565b50505050905090810190601f168015610a065780820380516001836020036101000a031916815260200191505b50945050505050602060405180830381600087803b158015610a2757600080fd5b505af1158015610a3b573d6000803e3d6000fd5b505050506040513d6020811015610a5157600080fd5b5051610a8e5760405162461bcd60e51b815260040180806020018281038252602381526020018061114b6023913960400191505060405180910390fd5b6004805460010190559392505050565b6001600160a01b038116610ae35760405162461bcd60e51b81526004018080602001828103825260268152602001806111256026913960400191505060405180910390fd5b6006546040516001600160a01b038084169216907f8be0079c531659141344cd1fd0a4f28419497f9722a3daafe3b4186f6b6457e090600090a36006805473ffffffffffffffffffffffffffffffffffffffff19166001600160a01b0392909216919091179055565b610b546110bb565b610b648560800151610100610d16565b50509183526001600160a01b031660208301527fffffffff0000000000000000000000000000000000000000000000000000000016604082015290565b610bae8260038351610d56565b6108b5828263ffffffff610e6016565b6060634042994660e01b6000808460000151856020015186604001518760600151600189608001516000015160405160240180896001600160a01b03166001600160a01b03168152602001888152602001878152602001866001600160a01b03166001600160a01b03168152602001856001600160e01b0319166001600160e01b031916815260200184815260200183815260200180602001828103825283818151815260200191508051906020019080838360005b83811015610c8c578181015183820152602001610c74565b50505050905090810190601f168015610cb95780820380516001836020036101000a031916815260200191505b5060408051601f198184030181529190526020810180516001600160e01b03167fffffffff00000000000000000000000000000000000000000000000000000000909d169c909c17909b5250989950505050505050505050919050565b610d1e6110f0565b6020820615610d335760208206602003820191505b506020808301829052604080518085526000815283019091019052815b92915050565b60178111610d7d57610d778360e0600585901b16831763ffffffff610e8116565b506108b5565b60ff8111610db357610da0836018611fe0600586901b161763ffffffff610e8116565b50610d778382600163ffffffff610e9916565b61ffff8111610dea57610dd7836019611fe0600586901b161763ffffffff610e8116565b50610d778382600263ffffffff610e9916565b63ffffffff8111610e2357610e1083601a611fe0600586901b161763ffffffff610e8116565b50610d778382600463ffffffff610e9916565b67ffffffffffffffff81116108b557610e4d83601b611fe0600586901b161763ffffffff610e8116565b5061055e8382600863ffffffff610e9916565b610e686110f0565b610e7a83846000015151848551610eba565b9392505050565b610e896110f0565b610e7a8384600001515184610f66565b610ea16110f0565b610eb2848560000151518585610fb1565b949350505050565b610ec26110f0565b8251821115610ed057600080fd5b84602001518285011115610efa57610efa85610ef2876020015187860161100f565b600202611026565b600080865180518760208301019350808887011115610f195787860182525b505050602084015b60208410610f405780518252601f199093019260209182019101610f21565b51815160001960208690036101000a019081169019919091161790525083949350505050565b610f6e6110f0565b83602001518310610f8a57610f8a848560200151600202611026565b835180516020858301018481535080851415610fa7576001810182525b5093949350505050565b610fb96110f0565b84602001518483011115610fd657610fd685858401600202611026565b60006001836101000a0390508551838682010185831982511617815250805184870111156110045783860181525b509495945050505050565b600081831115611020575081610d50565b50919050565b81516110328383610d16565b5061055e8382610e60565b828054600181600116156101000203166002900490600052602060002090601f016020900481019282601f1061107e57805160ff19168380011785556110ab565b828001600101855582156110ab579182015b828111156110ab578251825591602001919060010190611090565b506110b792915061110a565b5090565b6040805160a0810182526000808252602082018190529181018290526060810191909152608081016110eb6110f0565b905290565b604051806040016040528060608152602001600081525090565b61031091905b808211156110b7576000815560010161111056fe4f776e61626c653a206e6577206f776e657220697320746865207a65726f2061646472657373756e61626c6520746f207472616e73666572416e6443616c6c20746f206f7261636c65536f75726365206d75737420626520746865206f7261636c65206f66207468652072657175657374a2646970667358221220c3dbd7e700e3cbd73f68f4f7a25411bd0a1c91c9790b78d67216dbd64c9f89b064736f6c63430006060033",
  "linkReferences": {},
  "deployedLinkReferences": {}
}