{
  "address": "0x78C5358364A3eCe43A73A379BA199e8040F1cD81",
  "abi": [
    {
      "inputs": [
        {
          "internalType": "string",
          "name": "_poolName",
          "type": "string"
        },
        {
          "internalType": "string",
          "name": "_brandName",
          "type": "string"
        },
        {
          "internalType": "uint256",
          "name": "_capital",
          "type": "uint256"
        },
        {
          "internalType": "address",
          "name": "_capitalAddress",
          "type": "address"
        },
        {
          "internalType": "address",
          "name": "_nftAddress",
          "type": "address"
        },
        {
          "internalType": "address",
          "name": "_poolOwner",
          "type": "address"
        },
        {
          "internalType": "address",
          "name": "_rng",
          "type": "address"
        },
        {
          "internalType": "uint256",
          "name": "_campaignLength",
          "type": "uint256"
        },
        {
          "internalType": "uint256",
          "name": "_votingLength",
          "type": "uint256"
        },
        {
          "internalType": "uint256",
          "name": "_decisionLength",
          "type": "uint256"
        },
        {
          "internalType": "uint256",
          "name": "_submissionLength",
          "type": "uint256"
        }
      ],
      "stateMutability": "nonpayable",
      "type": "constructor"
    },
    {
      "anonymous": false,
      "inputs": [
        {
          "indexed": false,
          "internalType": "address",
          "name": "PoolAddress",
          "type": "address"
        },
        {
          "indexed": false,
          "internalType": "string",
          "name": "PoolName",
          "type": "string"
        },
        {
          "indexed": false,
          "internalType": "string",
          "name": "BrandName",
          "type": "string"
        },
        {
          "indexed": false,
          "internalType": "uint256",
          "name": "SubmissionNumber",
          "type": "uint256"
        },
        {
          "indexed": false,
          "internalType": "address",
          "name": "Caller",
          "type": "address"
        }
      ],
      "name": "CashedOut",
      "type": "event"
    },
    {
      "anonymous": false,
      "inputs": [
        {
          "indexed": false,
          "internalType": "address",
          "name": "PoolAddress",
          "type": "address"
        },
        {
          "indexed": false,
          "internalType": "string",
          "name": "PoolName",
          "type": "string"
        },
        {
          "indexed": false,
          "internalType": "string",
          "name": "BrandName",
          "type": "string"
        },
        {
          "indexed": false,
          "internalType": "uint256[10]",
          "name": "TopTen",
          "type": "uint256[10]"
        }
      ],
      "name": "NewTopTen",
      "type": "event"
    },
    {
      "anonymous": false,
      "inputs": [
        {
          "indexed": false,
          "internalType": "address",
          "name": "PoolAddress",
          "type": "address"
        },
        {
          "indexed": false,
          "internalType": "string",
          "name": "PoolName",
          "type": "string"
        },
        {
          "indexed": false,
          "internalType": "string",
          "name": "BrandName",
          "type": "string"
        },
        {
          "indexed": false,
          "internalType": "bool",
          "name": "BackedByFunds",
          "type": "bool"
        }
      ],
      "name": "PoolBacked",
      "type": "event"
    },
    {
      "anonymous": false,
      "inputs": [
        {
          "indexed": false,
          "internalType": "address",
          "name": "PoolAddress",
          "type": "address"
        },
        {
          "indexed": false,
          "internalType": "string",
          "name": "PoolName",
          "type": "string"
        },
        {
          "indexed": false,
          "internalType": "string",
          "name": "BrandName",
          "type": "string"
        }
      ],
      "name": "PoolNameChanged",
      "type": "event"
    },
    {
      "anonymous": false,
      "inputs": [
        {
          "indexed": false,
          "internalType": "address",
          "name": "PoolAddress",
          "type": "address"
        },
        {
          "indexed": false,
          "internalType": "string",
          "name": "PoolName",
          "type": "string"
        },
        {
          "indexed": false,
          "internalType": "string",
          "name": "BrandName",
          "type": "string"
        },
        {
          "indexed": false,
          "internalType": "uint256[]",
          "name": "Finalists",
          "type": "uint256[]"
        }
      ],
      "name": "SeeFinalists",
      "type": "event"
    },
    {
      "anonymous": false,
      "inputs": [
        {
          "indexed": false,
          "internalType": "address",
          "name": "PoolAddress",
          "type": "address"
        },
        {
          "indexed": false,
          "internalType": "string",
          "name": "PoolName",
          "type": "string"
        },
        {
          "indexed": false,
          "internalType": "string",
          "name": "BrandName",
          "type": "string"
        },
        {
          "indexed": false,
          "internalType": "uint256",
          "name": "SubmissionNumber",
          "type": "uint256"
        },
        {
          "indexed": false,
          "internalType": "address",
          "name": "ArtistAddress",
          "type": "address"
        },
        {
          "indexed": false,
          "internalType": "uint256[3]",
          "name": "NFTsInSubmission",
          "type": "uint256[3]"
        }
      ],
      "name": "SubmissionCreated",
      "type": "event"
    },
    {
      "anonymous": false,
      "inputs": [
        {
          "indexed": false,
          "internalType": "address",
          "name": "PoolAddress",
          "type": "address"
        },
        {
          "indexed": false,
          "internalType": "string",
          "name": "PoolName",
          "type": "string"
        },
        {
          "indexed": false,
          "internalType": "string",
          "name": "BrandName",
          "type": "string"
        },
        {
          "indexed": false,
          "internalType": "uint256",
          "name": "SubmissionNumber",
          "type": "uint256"
        },
        {
          "indexed": false,
          "internalType": "address",
          "name": "Voter",
          "type": "address"
        },
        {
          "indexed": false,
          "internalType": "uint256",
          "name": "NewVoteCount",
          "type": "uint256"
        }
      ],
      "name": "VoteSubmitted",
      "type": "event"
    },
    {
      "anonymous": false,
      "inputs": [
        {
          "indexed": false,
          "internalType": "address",
          "name": "PoolAddress",
          "type": "address"
        },
        {
          "indexed": false,
          "internalType": "string",
          "name": "PoolName",
          "type": "string"
        },
        {
          "indexed": false,
          "internalType": "string",
          "name": "BrandName",
          "type": "string"
        },
        {
          "indexed": false,
          "internalType": "uint256",
          "name": "Winner",
          "type": "uint256"
        }
      ],
      "name": "WinnerSelected",
      "type": "event"
    },
    {
      "inputs": [],
      "name": "backPool",
      "outputs": [],
      "stateMutability": "nonpayable",
      "type": "function"
    },
    {
      "inputs": [],
      "name": "backedByFunds",
      "outputs": [
        {
          "internalType": "bool",
          "name": "",
          "type": "bool"
        }
      ],
      "stateMutability": "view",
      "type": "function"
    },
    {
      "inputs": [],
      "name": "brandName",
      "outputs": [
        {
          "internalType": "string",
          "name": "",
          "type": "string"
        }
      ],
      "stateMutability": "view",
      "type": "function"
    },
    {
      "inputs": [],
      "name": "brandVotingEndTime",
      "outputs": [
        {
          "internalType": "uint256",
          "name": "",
          "type": "uint256"
        }
      ],
      "stateMutability": "view",
      "type": "function"
    },
    {
      "inputs": [],
      "name": "campaignEndTime",
      "outputs": [
        {
          "internalType": "uint256",
          "name": "",
          "type": "uint256"
        }
      ],
      "stateMutability": "view",
      "type": "function"
    },
    {
      "inputs": [
        {
          "internalType": "uint256",
          "name": "_submissionNumber",
          "type": "uint256"
        }
      ],
      "name": "cashout",
      "outputs": [],
      "stateMutability": "nonpayable",
      "type": "function"
    },
    {
      "inputs": [
        {
          "internalType": "string",
          "name": "_name",
          "type": "string"
        }
      ],
      "name": "changeName",
      "outputs": [],
      "stateMutability": "nonpayable",
      "type": "function"
    },
    {
      "inputs": [],
      "name": "checkForTies",
      "outputs": [],
      "stateMutability": "nonpayable",
      "type": "function"
    },
    {
      "inputs": [
        {
          "internalType": "uint256[3]",
          "name": "nfts",
          "type": "uint256[3]"
        }
      ],
      "name": "createSubmission",
      "outputs": [],
      "stateMutability": "nonpayable",
      "type": "function"
    },
    {
      "inputs": [
        {
          "internalType": "uint256",
          "name": "_submissionNumber",
          "type": "uint256"
        }
      ],
      "name": "fanVote",
      "outputs": [],
      "stateMutability": "nonpayable",
      "type": "function"
    },
    {
      "inputs": [],
      "name": "fanVotingEndTime",
      "outputs": [
        {
          "internalType": "uint256",
          "name": "",
          "type": "uint256"
        }
      ],
      "stateMutability": "view",
      "type": "function"
    },
    {
      "inputs": [],
      "name": "funds",
      "outputs": [
        {
          "internalType": "uint256",
          "name": "",
          "type": "uint256"
        }
      ],
      "stateMutability": "view",
      "type": "function"
    },
    {
      "inputs": [],
      "name": "getName",
      "outputs": [
        {
          "internalType": "string",
          "name": "",
          "type": "string"
        }
      ],
      "stateMutability": "view",
      "type": "function"
    },
    {
      "inputs": [],
      "name": "getTopTen",
      "outputs": [
        {
          "internalType": "uint256[10]",
          "name": "",
          "type": "uint256[10]"
        }
      ],
      "stateMutability": "view",
      "type": "function"
    },
    {
      "inputs": [],
      "name": "getTopTenAmount",
      "outputs": [
        {
          "internalType": "uint256[10]",
          "name": "",
          "type": "uint256[10]"
        }
      ],
      "stateMutability": "view",
      "type": "function"
    },
    {
      "inputs": [],
      "name": "getfinalists",
      "outputs": [
        {
          "internalType": "uint256[]",
          "name": "",
          "type": "uint256[]"
        }
      ],
      "stateMutability": "view",
      "type": "function"
    },
    {
      "inputs": [],
      "name": "getfinalistsAmount",
      "outputs": [
        {
          "internalType": "uint256[]",
          "name": "",
          "type": "uint256[]"
        }
      ],
      "stateMutability": "view",
      "type": "function"
    },
    {
      "inputs": [],
      "name": "poolName",
      "outputs": [
        {
          "internalType": "string",
          "name": "",
          "type": "string"
        }
      ],
      "stateMutability": "view",
      "type": "function"
    },
    {
      "inputs": [],
      "name": "seePoolBacking",
      "outputs": [
        {
          "internalType": "uint256",
          "name": "",
          "type": "uint256"
        }
      ],
      "stateMutability": "view",
      "type": "function"
    },
    {
      "inputs": [
        {
          "internalType": "uint256",
          "name": "submissionIndex",
          "type": "uint256"
        }
      ],
      "name": "selectWinner",
      "outputs": [],
      "stateMutability": "nonpayable",
      "type": "function"
    },
    {
      "inputs": [],
      "name": "submissionEndTime",
      "outputs": [
        {
          "internalType": "uint256",
          "name": "",
          "type": "uint256"
        }
      ],
      "stateMutability": "view",
      "type": "function"
    },
    {
      "inputs": [
        {
          "internalType": "uint256",
          "name": "",
          "type": "uint256"
        }
      ],
      "name": "submissions",
      "outputs": [
        {
          "internalType": "uint256",
          "name": "userCount",
          "type": "uint256"
        }
      ],
      "stateMutability": "view",
      "type": "function"
    },
    {
      "inputs": [
        {
          "internalType": "uint256",
          "name": "",
          "type": "uint256"
        }
      ],
      "name": "topTen",
      "outputs": [
        {
          "internalType": "uint256",
          "name": "",
          "type": "uint256"
        }
      ],
      "stateMutability": "view",
      "type": "function"
    },
    {
      "inputs": [
        {
          "internalType": "uint256",
          "name": "",
          "type": "uint256"
        }
      ],
      "name": "topTenAmount",
      "outputs": [
        {
          "internalType": "uint256",
          "name": "",
          "type": "uint256"
        }
      ],
      "stateMutability": "view",
      "type": "function"
    },
    {
      "inputs": [],
      "name": "topTenFound",
      "outputs": [
        {
          "internalType": "bool",
          "name": "",
          "type": "bool"
        }
      ],
      "stateMutability": "view",
      "type": "function"
    }
  ],
  "transactionHash": "0xeac518848a530bf03da1d41e9ede2321d524a15d19d600e63065a2a567cb40e0",
  "args": [
    "test",
    "test",
    "100",
    "0xc59Cd7D4A979373253476dAe531333eE45aEF2f4",
    "0xc59Cd7D4A979373253476dAe531333eE45aEF2f4",
    "0xa5E5860B34ac0C55884F2D0E9576d545e1c7Dfd4",
    "0xc59Cd7D4A979373253476dAe531333eE45aEF2f4",
    "300",
    "100",
    "100",
    "100"
  ],
  "solcInputHash": "ff2fa8ba0d90131797950665a178586f",
  "bytecode": "0x60806040526001602a553480156200001657600080fd5b5060405162002b0738038062002b078339810160408190526200003991620002a6565b600080546001600160a01b038089166001600160a01b03199283161790925560068b905560018054928b16929091169190911790556200007b600a8a620003b6565b602355600280546001600160a01b03808a166001600160a01b03199283161790925560038054928816929091169190911790558a51620000c39060049060208e019062000130565b508951620000d99060059060208d019062000130565b5042620000e7828262000391565b6007819055620000f990859062000391565b60088190556200010b90849062000391565b6009556200011a858262000391565b600a55506200042a9a5050505050505050505050565b8280546200013e90620003d7565b90600052602060002090601f016020900481019282620001625760008555620001ad565b82601f106200017d57805160ff1916838001178555620001ad565b82800160010185558215620001ad579182015b82811115620001ad57825182559160200191906001019062000190565b50620001bb929150620001bf565b5090565b5b80821115620001bb5760008155600101620001c0565b80516001600160a01b0381168114620001ee57600080fd5b919050565b600082601f83011262000204578081fd5b81516001600160401b038082111562000221576200022162000414565b604051601f8301601f19908116603f011681019082821181831017156200024c576200024c62000414565b8160405283815260209250868385880101111562000268578485fd5b8491505b838210156200028b57858201830151818301840152908201906200026c565b838211156200029c57848385830101525b9695505050505050565b60008060008060008060008060008060006101608c8e031215620002c8578687fd5b8b516001600160401b03811115620002de578788fd5b620002ec8e828f01620001f3565b60208e0151909c5090506001600160401b038111156200030a578788fd5b620003188e828f01620001f3565b9a505060408c015198506200033060608d01620001d6565b97506200034060808d01620001d6565b96506200035060a08d01620001d6565b95506200036060c08d01620001d6565b945060e08c015193506101008c015192506101208c015191506101408c015190509295989b509295989b9093969950565b60008219821115620003b157634e487b7160e01b81526011600452602481fd5b500190565b600082620003d257634e487b7160e01b81526012600452602481fd5b500490565b600181811c90821680620003ec57607f821691505b602082108114156200040e57634e487b7160e01b600052602260045260246000fd5b50919050565b634e487b7160e01b600052604160045260246000fd5b6126cd806200043a6000396000f3fe608060405234801561001057600080fd5b50600436106101735760003560e01c80635a047364116100de578063b278fa4b11610097578063d504887c11610071578063d504887c146102e2578063ead851ea146102eb578063f3466dfa146102f3578063fe94130f146102fb57600080fd5b8063b278fa4b146102bc578063c89f2ce4146102d1578063cb300137146102da57600080fd5b80635a047364146102365780635cd68d8b146102495780637429eee1146102665780638863544114610273578063a9e732bb14610286578063ad73349e1461029957600080fd5b806347ba59c91161013057806347ba59c9146101e25780634c524be4146101f75780634c9916571461020a5780635013a15814610212578063532eaca01461021a5780635353a2d81461022357600080fd5b806312498a701461017857806317d7de7c1461019457806320196065146101a95780633c18b298146101b15780633d702099146101c6578063461f839b146101d9575b600080fd5b610181600a5481565b6040519081526020015b60405180910390f35b61019c610303565b60405161018b9190612541565b61019c610395565b6101b9610423565b60405161018b91906124fd565b6101816101d436600461210c565b61047a565b61018160095481565b6101f56101f0366004611fa1565b610491565b005b6101f561020536600461210c565b61084f565b6101f5610ab0565b610181610eea565b61018160075481565b6101f5610231366004612062565b610f6b565b6101f561024436600461210c565b610fe9565b600b546102569060ff1681565b604051901515815260200161018b565b6028546102569060ff1681565b61018161028136600461210c565b61170d565b6101f561029436600461210c565b61171d565b6101816102a736600461210c565b60296020526000908152604090206003015481565b6102c4611c20565b60405161018b91906124cb565b61018160065481565b6101f5611c57565b61018160085481565b6101b9611e0f565b61019c611e65565b6102c4611e72565b60606004805461031290612615565b80601f016020809104026020016040519081016040528092919081815260200182805461033e90612615565b801561038b5780601f106103605761010080835404028352916020019161038b565b820191906000526020600020905b81548152906001019060200180831161036e57829003601f168201915b5050505050905090565b600580546103a290612615565b80601f01602080910402602001604051908101604052809291908181526020018280546103ce90612615565b801561041b5780601f106103f05761010080835404028352916020019161041b565b820191906000526020600020905b8154815290600101906020018083116103fe57829003601f168201915b505050505081565b6060602180548060200260200160405190810160405280929190818152602001828054801561038b57602002820191906000526020600020905b81548152602001906001019080831161045d575050505050905090565b601681600a811061048a57600080fd5b0154905081565b60285460ff166104e85760405162461bcd60e51b815260206004820152601c60248201527f506f6f6c206973206e6f74206261636b65642062792066756e6473210000000060448201526064015b60405180910390fd5b60075442106105565760405162461bcd60e51b815260206004820152603460248201527f43616e206e6f7420616464207375626d697373696f6e7320647572696e6720746044820152731a194819985b881d9bdd1a5b99c81c195c9a5bd960621b60648201526084016104df565b6001546023546040516323b872dd60e01b81526001600160a01b03909216916323b872dd9161058b91339130916004016121c2565b602060405180830381600087803b1580156105a557600080fd5b505af11580156105b9573d6000803e3d6000fd5b505050506040513d601f19601f820116820180604052508101906105dd9190612023565b6106465760405162461bcd60e51b815260206004820152603460248201527f7472616e6466657246726f6d206661696c65642c207375626d697373696f6e206044820152736e6f74206261636b65642062792066756e64732160601b60648201526084016104df565b60005b600381101561073c576002546001600160a01b03166323b872dd333085856003811061068557634e487b7160e01b600052603260045260246000fd5b60200201516040518463ffffffff1660e01b81526004016106a8939291906121c2565b600060405180830381600087803b1580156106c257600080fd5b505af11580156106d6573d6000803e3d6000fd5b5050602a5460009081526029602052604090209150839050826003811061070d57634e487b7160e01b600052603260045260246000fd5b60209081029190910151825460018101845560009384529190922001558061073481612650565b915050610649565b5060408051808201825233808252602354602080840191909152602a80546000908152602980845286822094825260019094018352858120819055905481529190529182206003018054919261079183612650565b9091555050602a8054600090815260296020908152604080832060029081018054600180820183559186529484902087519590920290910180546001600160a01b0319166001600160a01b03909516949094178455918501519290910191909155905490517f1eea0a51d9cf75dc1d5f774f2cf03c56178907ab0f73a5f32188a67965476c299161082e91309160049160059190339089906123f5565b60405180910390a1602a805490600061084683612650565b91905055505050565b6000546001600160a01b031633146108795760405162461bcd60e51b81526004016104df90612594565b60245460ff16156108cc5760405162461bcd60e51b815260206004820152601860248201527f416c72656164792073656c65637465642077696e6e657221000000000000000060448201526064016104df565b600a54421161093a5760405162461bcd60e51b815260206004820152603460248201527f43616e206f6e6c792063686f6f736520612077696e6e6572206166746572207460448201527368652063616d706169676e206973206f7665722160601b60648201526084016104df565b60265460ff166109985760405162461bcd60e51b8152602060048201526024808201527f596f75206861766520746f2063616c6c20636865636b466f72546965732066696044820152637273742160e01b60648201526084016104df565b6024805460ff191660011790556000805b602754811015610a0157602081815481106109d457634e487b7160e01b600052603260045260246000fd5b90600052602060002001548314156109ef5760019150610a01565b806109f981612650565b9150506109a9565b5080610a675760405162461bcd60e51b815260206004820152602f60248201527f596f75206d7573742073656c65637420612077696e6e65722066726f6d20746860448201526e6520746f702074656e206c6973742160881b60648201526084016104df565b60228290556040517fa7999556898ead0908e069fec8390ec5e1d3efef5b61f1bd12d3790919de0ce690610aa4903090600490600590879061235e565b60405180910390a15050565b6000546001600160a01b03163314610ada5760405162461bcd60e51b81526004016104df90612594565b6008544211610b435760405162461bcd60e51b815260206004820152602f60248201527f43616e6e6f742073656c65637420746f702074656e20756e74696c2066616e2060448201526e766f74696e67206973206f7665722160881b60648201526084016104df565b600a544210610b945760405162461bcd60e51b815260206004820152601860248201527f4465636973696f6e20706572696f64206973206f76657221000000000000000060448201526064016104df565b60265460ff1615610be75760405162461bcd60e51b815260206004820152601860248201527f416c726561647920636865636b656420666f722074696573000000000000000060448201526064016104df565b6016546000805b600a811015610ce2576020600c82600a8110610c1a57634e487b7160e01b600052603260045260246000fd5b0154815460018101835560009283526020909220909101556021601682600a8110610c5557634e487b7160e01b600052603260045260246000fd5b0154815460018101835560009283526020832001556027805491610c7883612650565b919050555082601682600a8110610c9f57634e487b7160e01b600052603260045260246000fd5b01541015610cd057601681600a8110610cc857634e487b7160e01b600052603260045260246000fd5b015492508091505b80610cda81612650565b915050610bee565b5060008060015b602a54811015610e1857602354600082815260296020526040902060030154610d14906001906125fe565b610d1e91906125df565b925082851415610e06576000915060005b600a811015610d86578160208281548110610d5a57634e487b7160e01b600052603260045260246000fd5b90600052602060002001541415610d745760019250610d86565b80610d7e81612650565b915050610d2f565b5081610e06576020805460018181019092557fc97bfaf2f8ee708c303a06d134f5ecd8389ae0432af62dc132a24118292866bb0182905560218054918201815560009081527f3a6357012c1a3ae0a17d304c9920310382d968ebcc4b1771f41c6b304205b5709091018490556027805491610e0083612650565b91905055505b80610e1081612650565b915050610ce9565b506026805460ff19166001179055600354604051632cdc85e960e21b81524260048201526001600160a01b039091169063b37217a490602401602060405180830381600087803b158015610e6b57600080fd5b505af1158015610e7f573d6000803e3d6000fd5b505050506040513d601f19601f82011682018060405250810190610ea3919061204a565b507fa229e1a2e4bf949baa1d82e8fca5b25ec618edecf7436638297ca0a95d00b6e730600460056020604051610edc9493929190612297565b60405180910390a150505050565b6001546040516370a0823160e01b81523060048201526000916001600160a01b0316906370a082319060240160206040518083038186803b158015610f2e57600080fd5b505afa158015610f42573d6000803e3d6000fd5b505050506040513d601f19601f82011682018060405250810190610f66919061204a565b905090565b6000546001600160a01b03163314610f955760405162461bcd60e51b81526004016104df90612594565b8051610fa8906004906020840190611ea9565b507f10a72d577a7c86348648b396152846654c0c3314dc10dc5a28142275bfb55e033060046005604051610fde939291906121e6565b60405180910390a150565b6000546001600160a01b031633141561104e5760405162461bcd60e51b815260206004820152602160248201527f4f6e6c792046616e732063616e2063616c6c20746869732066756e6374696f6e6044820152602160f81b60648201526084016104df565b60285460ff166110a05760405162461bcd60e51b815260206004820152601c60248201527f506f6f6c206973206e6f74206261636b65642062792066756e6473210000000060448201526064016104df565b600081815260296020526040812060020180549091906110d057634e487b7160e01b600052603260045260246000fd5b60009182526020909120600290910201546001600160a01b031633141561114f5760405162461bcd60e51b815260206004820152602d60248201527f4172746973742063616e206e6f7420766f746520666f72207468656972206f7760448201526c6e207375626d697373696f6e2160981b60648201526084016104df565b6007544210156111bf5760405162461bcd60e51b815260206004820152603560248201527f43616e206e6f7420737461727420766f74696e6720756e74696c207375626d696044820152747373696f6e20706572696f64206973206f7665722160581b60648201526084016104df565b6009544211156112115760405162461bcd60e51b815260206004820152601a60248201527f46616e20566f74696e6720506572696f64206973204f7665722100000000000060448201526064016104df565b60008181526029602052604081208054829061123d57634e487b7160e01b600052603260045260246000fd5b9060005260206000200154116112a35760405162461bcd60e51b815260206004820152602560248201527f546865726520617265206e6f204e46547320696e2074686973207375626d697360448201526473696f6e2160d81b60648201526084016104df565b6001546023546040516323b872dd60e01b81526001600160a01b03909216916323b872dd916112d891339130916004016121c2565b602060405180830381600087803b1580156112f257600080fd5b505af1158015611306573d6000803e3d6000fd5b505050506040513d601f19601f8201168201806040525081019061132a9190612023565b61138d5760405162461bcd60e51b815260206004820152602e60248201527f7472616e6466657246726f6d206661696c65642c20766f7465206e6f7420626160448201526d636b65642062792066756e64732160901b60648201526084016104df565b60015b6000828152602960205260409020600301548110156114695760008281526029602052604090206002018054829081106113da57634e487b7160e01b600052603260045260246000fd5b60009182526020909120600290910201546001600160a01b03163314156114575760405162461bcd60e51b815260206004820152602b60248201527f557365722068617320616c726561647920766f74656420666f7220746869732060448201526a7375626d697373696f6e2160a81b60648201526084016104df565b8061146181612650565b915050611390565b506040805180820182523381526023546020808301918252600085815260298252938420600280820180546001808201835591885293872086519490920290910180546001600160a01b0319166001600160a01b0390941693909317835592519190920155838352600301805491926114e183612650565b909155505060235460008381526029602052604081206003015490919061150a906001906125fe565b61151491906125df565b6016549091506000805b600a81101561158c5782601682600a811061154957634e487b7160e01b600052603260045260246000fd5b0154101561157a57601681600a811061157257634e487b7160e01b600052603260045260246000fd5b015492508091505b8061158481612650565b91505061151e565b506000805b600a8110156116035786600c82600a81106115bc57634e487b7160e01b600052603260045260246000fd5b015414156115f1576001915084601682600a81106115ea57634e487b7160e01b600052603260045260246000fd5b0155611603565b806115fb81612650565b915050611591565b50801580156116335750601682600a811061162e57634e487b7160e01b600052603260045260246000fd5b015484115b156116c25783601683600a811061165a57634e487b7160e01b600052603260045260246000fd5b015585600c83600a811061167e57634e487b7160e01b600052603260045260246000fd5b01556040517f29cddc1bc547ec52a5d235ce59b1486ca88ca0628749716343e7ec2fe9eb46f8906116b9903090600490600590600c90612226565b60405180910390a15b7fa279f508257ac833a0fb3550fc0ef0623bc2e0977e3d1791cd53273343bab3bf30600460058933896040516116fd96959493929190612479565b60405180910390a1505050505050565b600c81600a811061048a57600080fd5b600a54421161177e5760405162461bcd60e51b815260206004820152602760248201527f43616e206e6f7420636173686f757420756e74696c2063616d706169676e206960448201526673206f7665722160c81b60648201526084016104df565b6000546001600160a01b03163314156117ef5760405162461bcd60e51b815260206004820152602d60248201527f506f6f6c204f776e6572206d75737420636173686f757420766961207365747460448201526c1b1a5b99c818dbdb9d1c9858dd609a1b60648201526084016104df565b8061183c5760405162461bcd60e51b815260206004820152601c60248201527f5468657265206973206e6f207a65726f207375626d697373696f6e210000000060448201526064016104df565b60008060005b6000848152602960205260409020600301548110156118cd57600084815260296020526040902060020180543391908390811061188f57634e487b7160e01b600052603260045260246000fd5b60009182526020909120600290910201546001600160a01b031614156118bb57600192508091506118cd565b806118c581612650565b915050611842565b5060008381526029602052604081206002018054839081106118ff57634e487b7160e01b600052603260045260246000fd5b9060005260206000209060020201600101549050600060296000868152602001908152602001600020600201838154811061194a57634e487b7160e01b600052603260045260246000fd5b90600052602060002090600202016001018190555082801561196a575081155b15611b025760015460405163a9059cbb60e01b8152336004820152602481018390526001600160a01b039091169063a9059cbb90604401602060405180830381600087803b1580156119bb57600080fd5b505af11580156119cf573d6000803e3d6000fd5b505050506040513d601f19601f820116820180604052508101906119f39190612023565b6119fc57600080fd5b6022548414611afd5760005b6003811015611ac757600254600086815260296020526040902080546001600160a01b03909216916323b872dd91309133919086908110611a5957634e487b7160e01b600052603260045260246000fd5b90600052602060002001546040518463ffffffff1660e01b8152600401611a82939291906121c2565b600060405180830381600087803b158015611a9c57600080fd5b505af1158015611ab0573d6000803e3d6000fd5b505050508080611abf90612650565b915050611a08565b5060408051606081018252600080825260208083018290528284018290528782526029905291909120611afb916003611f2d565b505b611be7565b8215611b955760015460405163a9059cbb60e01b8152336004820152602481018390526001600160a01b039091169063a9059cbb90604401602060405180830381600087803b158015611b5457600080fd5b505af1158015611b68573d6000803e3d6000fd5b505050506040513d601f19601f82011682018060405250810190611b8c9190612023565b611afd57600080fd5b60405162461bcd60e51b815260206004820152602160248201527f5573657220776173206e6f7420666f756e6420696e207375626d697373696f6e6044820152602160f81b60648201526084016104df565b7ff2cb6e8ad7120180a3b9e171738081a6cb4c9b56aed5fbb35687f9d3cea142d730600460058733604051610edc9594939291906123a6565b611c28611f6d565b60408051610140810191829052600c805482529091600a90600d6020850180831161045d575050505050905090565b6000546001600160a01b03163314611c815760405162461bcd60e51b81526004016104df90612594565b60285460ff1615611cd45760405162461bcd60e51b815260206004820152601d60248201527f506f6f6c20616c7265616479206261636b65642062792066756e64732100000060448201526064016104df565b6001546006546040516323b872dd60e01b81526001600160a01b03909216916323b872dd91611d0991339130916004016121c2565b602060405180830381600087803b158015611d2357600080fd5b505af1158015611d37573d6000803e3d6000fd5b505050506040513d601f19601f82011682018060405250810190611d5b9190612023565b611dbe5760405162461bcd60e51b815260206004820152602e60248201527f7472616e6466657246726f6d206661696c65642c20706f6f6c206e6f7420626160448201526d636b65642062792066756e64732160901b60648201526084016104df565b6028805460ff191660019081179091556040517f0b8bbd80daf66bbd8f47f16497629c353fe2619570ea082faea56cb9391fb42291611e0591309160049160059190612314565b60405180910390a1565b6060602080548060200260200160405190810160405280929190818152602001828054801561038b576020028201919060005260206000209081548152602001906001019080831161045d575050505050905090565b600480546103a290612615565b611e7a611f6d565b604080516101408101918290526016805482529091600a9060176020850180831161045d575050505050905090565b828054611eb590612615565b90600052602060002090601f016020900481019282611ed75760008555611f1d565b82601f10611ef057805160ff1916838001178555611f1d565b82800160010185558215611f1d579182015b82811115611f1d578251825591602001919060010190611f02565b50611f29929150611f8c565b5090565b828054828255906000526020600020908101928215611f1d579160200282015b82811115611f1d578251829060ff16905591602001919060010190611f4d565b604051806101400160405280600a906020820280368337509192915050565b5b80821115611f295760008155600101611f8d565b600060608284031215611fb2578081fd5b82601f830112611fc0578081fd5b6040516060810181811067ffffffffffffffff82111715611fe357611fe3612681565b604052808360608101861015611ff7578384fd5b835b6003811015612018578135835260209283019290910190600101611ff9565b509195945050505050565b600060208284031215612034578081fd5b81518015158114612043578182fd5b9392505050565b60006020828403121561205b578081fd5b5051919050565b600060208284031215612073578081fd5b813567ffffffffffffffff8082111561208a578283fd5b818401915084601f83011261209d578283fd5b8135818111156120af576120af612681565b604051601f8201601f19908116603f011681019083821181831017156120d7576120d7612681565b816040528281528760208487010111156120ef578586fd5b826020860160208301379182016020019490945295945050505050565b60006020828403121561211d578081fd5b5035919050565b8054600090600181811c908083168061213e57607f831692505b602080841082141561215e57634e487b7160e01b86526022600452602486fd5b83885260208801828015612179576001811461218a576121b5565b60ff198716825282820197506121b5565b60008981526020902060005b878110156121af57815484820152908601908401612196565b83019850505b5050505050505092915050565b6001600160a01b039384168152919092166020820152604081019190915260600190565b6001600160a01b038416815260606020820181905260009061220a90830185612124565b828103604084015261221c8185612124565b9695505050505050565b6001600160a01b03851681526101a060208083018290526000919061224d84830188612124565b915083820360408501526122618287612124565b92506060840191508460005b600a81101561228a5781548452928201926001918201910161226d565b5050505095945050505050565b6001600160a01b0385168152608060208083018290526000916122bc90840187612124565b83810360408501526122ce8187612124565b84810360608601528554808252868552838520925090830190845b81811015612305578354835260019384019392850192016122e9565b50909998505050505050505050565b6001600160a01b038516815260806020820181905260009061233890830186612124565b828103604084015261234a8186612124565b915050821515606083015295945050505050565b6001600160a01b038516815260806020820181905260009061238290830186612124565b82810360408401526123948186612124565b91505082606083015295945050505050565b600060018060a01b03808816835260a060208401526123c860a0840188612124565b83810360408501526123da8188612124565b60608501969096525092909216608090910152509392505050565b6001600160a01b03878116825261010060208084018290526000929061241d8584018b612124565b92508483036040860152612431838a612124565b9350876060860152818716608086015260a08501925085915060005b600381101561246a5782518452928101929181019160010161244d565b50505050979650505050505050565b600060018060a01b03808916835260c0602084015261249b60c0840189612124565b83810360408501526124ad8189612124565b60608501979097525093909316608082015260a00152509392505050565b6101408101818360005b600a8110156124f45781518352602092830192909101906001016124d5565b50505092915050565b6020808252825182820181905260009190848201906040850190845b8181101561253557835183529284019291840191600101612519565b50909695505050505050565b6000602080835283518082850152825b8181101561256d57858101830151858201604001528201612551565b8181111561257e5783604083870101525b50601f01601f1916929092016040019392505050565b6020808252602b908201527f4f6e6c792074686520506f6f6c204f776e65722063616e2063616c6c2074686960408201526a732066756e6374696f6e2160a81b606082015260800190565b60008160001904831182151516156125f9576125f961266b565b500290565b6000828210156126105761261061266b565b500390565b600181811c9082168061262957607f821691505b6020821081141561264a57634e487b7160e01b600052602260045260246000fd5b50919050565b60006000198214156126645761266461266b565b5060010190565b634e487b7160e01b600052601160045260246000fd5b634e487b7160e01b600052604160045260246000fdfea26469706673582212207bf78c342af5cf6fcf515115e6912e1edd4669df79e8e63ebaf6a7c1ba40522564736f6c63430008040033",
  "devdoc": {
    "events": {
      "CashedOut(address,string,string,uint256,address)": {
        "details": "emitted when a someone calls cashout",
        "params": {
          "BrandName": "name of the brand running the campaign",
          "Caller": "the address of the caller who cashed out*",
          "PoolAddress": "address of the pool",
          "PoolName": "name of the pool",
          "SubmissionNumber": "the submission number the fan voted for"
        }
      },
      "NewTopTen(address,string,string,uint256[10])": {
        "details": "emitted when the Top Ten list changes from a fan vote",
        "params": {
          "BrandName": "name of the brand running the campaign",
          "PoolAddress": "address of the pool",
          "PoolName": "name of the pool",
          "TopTen": "the top ten submissions, an array of indexes, so if submission 1 is in it, 1 would be in the top ten*"
        }
      },
      "PoolBacked(address,string,string,bool)": {
        "details": "emitted when a pool is backed with enough campaign funds",
        "params": {
          "BackedByFunds": "bool showing whether the pool is backed by funds for not.*",
          "BrandName": "name of the brand running the campaign",
          "PoolAddress": "address of the pool",
          "PoolName": "name of the pool"
        }
      },
      "PoolNameChanged(address,string,string)": {
        "details": "emitted when a pool owner changes the pool name",
        "params": {
          "BrandName": "name of the brand running the campaign*",
          "PoolAddress": "address of the pool",
          "PoolName": "name of the pool"
        }
      },
      "SeeFinalists(address,string,string,uint256[])": {
        "details": "emitted when finalists list has been created",
        "params": {
          "BrandName": "name of the brand running the campaign",
          "Finalists": "an array of of indexing corresponding to the submission numbers that are finalists*",
          "PoolAddress": "address of the pool",
          "PoolName": "name of the pool"
        }
      },
      "SubmissionCreated(address,string,string,uint256,address,uint256[3])": {
        "details": "emitted when an artist created a submission",
        "params": {
          "ArtistAddress": "the address of the artist who created the submission",
          "BrandName": "name of the brand running the campaign",
          "NFTsInSubmission": "an array of uints that hold the token ids of the NFTs in the submission*",
          "PoolAddress": "address of the pool",
          "PoolName": "name of the pool",
          "SubmissionNumber": "the number assigned to this submission, when emitted this also represents total submission count"
        }
      },
      "VoteSubmitted(address,string,string,uint256,address,uint256)": {
        "details": "emitted when a fan votes on a submission",
        "params": {
          "BrandName": "name of the brand running the campaign",
          "NewVoteCount": "the new total vote count for that submission*",
          "PoolAddress": "address of the pool",
          "PoolName": "name of the pool",
          "SubmissionNumber": "the submission number the fan voted for",
          "Voter": "the address of the fan that made the vote"
        }
      },
      "WinnerSelected(address,string,string,uint256)": {
        "details": "emitted when the winner is chosen",
        "params": {
          "BrandName": "name of the brand running the campaign",
          "PoolAddress": "address of the pool",
          "PoolName": "name of the pool",
          "Winner": "the winning submission number*"
        }
      }
    },
    "kind": "dev",
    "methods": {
      "backPool()": {
        "details": "After a pool is created, the owner needs to transfer the funds to the pool in order to back it*"
      },
      "cashout(uint256)": {
        "details": "Function allows artists and fans to cashout from their submissions*"
      },
      "checkForTies()": {
        "details": "Function scans through top ten list, and finds entry with lowest vote count then function scans through all submissions and if it finds a submission with an equal vote count to the lowest in the top ten, it adds it to the finalist array. Function also adds top ten list to the finalists array Function also pings RNG contract to generate a new random number for when selectWinner is called ***WARNING unbounded for loop when looking through submissions!!!*** Might want to add a hard cap on submissions to avoid this.*"
      },
      "createSubmission(uint256[3])": {
        "details": "allow artists to create submissions Require artist to transfer userDeposit, and to transfer NFTs",
        "params": {
          "nfts": "Array of 3 nfts to transfer to the contract*"
        }
      },
      "fanVote(uint256)": {
        "details": "allow fans to vote on submissions Require caller transfers userDeposit to contract",
        "params": {
          "_submissionNumber": "the number of the submission the fan wants to vote for*"
        }
      },
      "selectWinner(uint256)": {
        "details": "Function to choose the winning submission, create a settling contract, and choose a lucky fan",
        "params": {
          "submissionIndex": "index of the winning submission TODO Remove reward distribution and instead create a settling contract*"
        }
      }
    },
    "version": 1
  },
  "userdoc": {
    "kind": "user",
    "methods": {},
    "version": 1
  },
  "storageLayout": {
    "storage": [
      {
        "astId": 2570,
        "contract": "contracts/Pool.sol:Pool",
        "label": "poolOwner",
        "offset": 0,
        "slot": "0",
        "type": "t_address"
      },
      {
        "astId": 2573,
        "contract": "contracts/Pool.sol:Pool",
        "label": "token",
        "offset": 0,
        "slot": "1",
        "type": "t_contract(IERC20)694"
      },
      {
        "astId": 2576,
        "contract": "contracts/Pool.sol:Pool",
        "label": "nft",
        "offset": 0,
        "slot": "2",
        "type": "t_contract(IERC721)1653"
      },
      {
        "astId": 2579,
        "contract": "contracts/Pool.sol:Pool",
        "label": "rng",
        "offset": 0,
        "slot": "3",
        "type": "t_contract(iRandomNumberGenerator)2568"
      },
      {
        "astId": 2581,
        "contract": "contracts/Pool.sol:Pool",
        "label": "poolName",
        "offset": 0,
        "slot": "4",
        "type": "t_string_storage"
      },
      {
        "astId": 2583,
        "contract": "contracts/Pool.sol:Pool",
        "label": "brandName",
        "offset": 0,
        "slot": "5",
        "type": "t_string_storage"
      },
      {
        "astId": 2585,
        "contract": "contracts/Pool.sol:Pool",
        "label": "funds",
        "offset": 0,
        "slot": "6",
        "type": "t_uint256"
      },
      {
        "astId": 2587,
        "contract": "contracts/Pool.sol:Pool",
        "label": "submissionEndTime",
        "offset": 0,
        "slot": "7",
        "type": "t_uint256"
      },
      {
        "astId": 2589,
        "contract": "contracts/Pool.sol:Pool",
        "label": "fanVotingEndTime",
        "offset": 0,
        "slot": "8",
        "type": "t_uint256"
      },
      {
        "astId": 2591,
        "contract": "contracts/Pool.sol:Pool",
        "label": "brandVotingEndTime",
        "offset": 0,
        "slot": "9",
        "type": "t_uint256"
      },
      {
        "astId": 2593,
        "contract": "contracts/Pool.sol:Pool",
        "label": "campaignEndTime",
        "offset": 0,
        "slot": "10",
        "type": "t_uint256"
      },
      {
        "astId": 2595,
        "contract": "contracts/Pool.sol:Pool",
        "label": "topTenFound",
        "offset": 0,
        "slot": "11",
        "type": "t_bool"
      },
      {
        "astId": 2599,
        "contract": "contracts/Pool.sol:Pool",
        "label": "topTen",
        "offset": 0,
        "slot": "12",
        "type": "t_array(t_uint256)10_storage"
      },
      {
        "astId": 2603,
        "contract": "contracts/Pool.sol:Pool",
        "label": "topTenAmount",
        "offset": 0,
        "slot": "22",
        "type": "t_array(t_uint256)10_storage"
      },
      {
        "astId": 2606,
        "contract": "contracts/Pool.sol:Pool",
        "label": "finalists",
        "offset": 0,
        "slot": "32",
        "type": "t_array(t_uint256)dyn_storage"
      },
      {
        "astId": 2609,
        "contract": "contracts/Pool.sol:Pool",
        "label": "finalistsAmounts",
        "offset": 0,
        "slot": "33",
        "type": "t_array(t_uint256)dyn_storage"
      },
      {
        "astId": 2611,
        "contract": "contracts/Pool.sol:Pool",
        "label": "winningSubmission",
        "offset": 0,
        "slot": "34",
        "type": "t_uint256"
      },
      {
        "astId": 2613,
        "contract": "contracts/Pool.sol:Pool",
        "label": "userDeposit",
        "offset": 0,
        "slot": "35",
        "type": "t_uint256"
      },
      {
        "astId": 2615,
        "contract": "contracts/Pool.sol:Pool",
        "label": "winnerSelected",
        "offset": 0,
        "slot": "36",
        "type": "t_bool"
      },
      {
        "astId": 2617,
        "contract": "contracts/Pool.sol:Pool",
        "label": "searchIndex",
        "offset": 0,
        "slot": "37",
        "type": "t_uint256"
      },
      {
        "astId": 2619,
        "contract": "contracts/Pool.sol:Pool",
        "label": "checkedForTies",
        "offset": 0,
        "slot": "38",
        "type": "t_bool"
      },
      {
        "astId": 2621,
        "contract": "contracts/Pool.sol:Pool",
        "label": "finalistsCount",
        "offset": 0,
        "slot": "39",
        "type": "t_uint256"
      },
      {
        "astId": 2623,
        "contract": "contracts/Pool.sol:Pool",
        "label": "backedByFunds",
        "offset": 0,
        "slot": "40",
        "type": "t_bool"
      },
      {
        "astId": 2647,
        "contract": "contracts/Pool.sol:Pool",
        "label": "submissions",
        "offset": 0,
        "slot": "41",
        "type": "t_mapping(t_uint256,t_struct(submission)2642_storage)"
      },
      {
        "astId": 2650,
        "contract": "contracts/Pool.sol:Pool",
        "label": "submissionCount",
        "offset": 0,
        "slot": "42",
        "type": "t_uint256"
      }
    ],
    "types": {
      "t_address": {
        "encoding": "inplace",
        "label": "address",
        "numberOfBytes": "20"
      },
      "t_array(t_struct(User)2628_storage)dyn_storage": {
        "base": "t_struct(User)2628_storage",
        "encoding": "dynamic_array",
        "label": "struct Pool.User[]",
        "numberOfBytes": "32"
      },
      "t_array(t_uint256)10_storage": {
        "base": "t_uint256",
        "encoding": "inplace",
        "label": "uint256[10]",
        "numberOfBytes": "320"
      },
      "t_array(t_uint256)dyn_storage": {
        "base": "t_uint256",
        "encoding": "dynamic_array",
        "label": "uint256[]",
        "numberOfBytes": "32"
      },
      "t_bool": {
        "encoding": "inplace",
        "label": "bool",
        "numberOfBytes": "1"
      },
      "t_contract(IERC20)694": {
        "encoding": "inplace",
        "label": "contract IERC20",
        "numberOfBytes": "20"
      },
      "t_contract(IERC721)1653": {
        "encoding": "inplace",
        "label": "contract IERC721",
        "numberOfBytes": "20"
      },
      "t_contract(iRandomNumberGenerator)2568": {
        "encoding": "inplace",
        "label": "contract iRandomNumberGenerator",
        "numberOfBytes": "20"
      },
      "t_mapping(t_address,t_uint256)": {
        "encoding": "mapping",
        "key": "t_address",
        "label": "mapping(address => uint256)",
        "numberOfBytes": "32",
        "value": "t_uint256"
      },
      "t_mapping(t_uint256,t_struct(submission)2642_storage)": {
        "encoding": "mapping",
        "key": "t_uint256",
        "label": "mapping(uint256 => struct Pool.submission)",
        "numberOfBytes": "32",
        "value": "t_struct(submission)2642_storage"
      },
      "t_string_storage": {
        "encoding": "bytes",
        "label": "string",
        "numberOfBytes": "32"
      },
      "t_struct(User)2628_storage": {
        "encoding": "inplace",
        "label": "struct Pool.User",
        "members": [
          {
            "astId": 2625,
            "contract": "contracts/Pool.sol:Pool",
            "label": "user",
            "offset": 0,
            "slot": "0",
            "type": "t_address"
          },
          {
            "astId": 2627,
            "contract": "contracts/Pool.sol:Pool",
            "label": "amount",
            "offset": 0,
            "slot": "1",
            "type": "t_uint256"
          }
        ],
        "numberOfBytes": "64"
      },
      "t_struct(submission)2642_storage": {
        "encoding": "inplace",
        "label": "struct Pool.submission",
        "members": [
          {
            "astId": 2631,
            "contract": "contracts/Pool.sol:Pool",
            "label": "nftList",
            "offset": 0,
            "slot": "0",
            "type": "t_array(t_uint256)dyn_storage"
          },
          {
            "astId": 2635,
            "contract": "contracts/Pool.sol:Pool",
            "label": "userIndex",
            "offset": 0,
            "slot": "1",
            "type": "t_mapping(t_address,t_uint256)"
          },
          {
            "astId": 2639,
            "contract": "contracts/Pool.sol:Pool",
            "label": "users",
            "offset": 0,
            "slot": "2",
            "type": "t_array(t_struct(User)2628_storage)dyn_storage"
          },
          {
            "astId": 2641,
            "contract": "contracts/Pool.sol:Pool",
            "label": "userCount",
            "offset": 0,
            "slot": "3",
            "type": "t_uint256"
          }
        ],
        "numberOfBytes": "128"
      },
      "t_uint256": {
        "encoding": "inplace",
        "label": "uint256",
        "numberOfBytes": "32"
      }
    }
  }
}