{
  "address": "0xA9f80e169d19eCa5C43466d1fB4042a31B058Cc0",
  "abi": [
    {
      "inputs": [],
      "stateMutability": "nonpayable",
      "type": "constructor"
    },
    {
      "anonymous": false,
      "inputs": [
        {
          "indexed": true,
          "internalType": "bytes32",
          "name": "id",
          "type": "bytes32"
        }
      ],
      "name": "ChainlinkCancelled",
      "type": "event"
    },
    {
      "anonymous": false,
      "inputs": [
        {
          "indexed": true,
          "internalType": "bytes32",
          "name": "id",
          "type": "bytes32"
        }
      ],
      "name": "ChainlinkFulfilled",
      "type": "event"
    },
    {
      "anonymous": false,
      "inputs": [
        {
          "indexed": true,
          "internalType": "bytes32",
          "name": "id",
          "type": "bytes32"
        }
      ],
      "name": "ChainlinkRequested",
      "type": "event"
    },
    {
      "anonymous": false,
      "inputs": [
        {
          "indexed": true,
          "internalType": "address",
          "name": "previousOwner",
          "type": "address"
        },
        {
          "indexed": true,
          "internalType": "address",
          "name": "newOwner",
          "type": "address"
        }
      ],
      "name": "OwnershipTransferred",
      "type": "event"
    },
    {
      "anonymous": false,
      "inputs": [
        {
          "indexed": false,
          "internalType": "bytes32",
          "name": "requestId",
          "type": "bytes32"
        }
      ],
      "name": "verificationFailed",
      "type": "event"
    },
    {
      "anonymous": false,
      "inputs": [
        {
          "indexed": false,
          "internalType": "bytes32",
          "name": "requestId",
          "type": "bytes32"
        },
        {
          "indexed": false,
          "internalType": "string",
          "name": "twitterHandle",
          "type": "string"
        }
      ],
      "name": "verificationSuccess",
      "type": "event"
    },
    {
      "inputs": [],
      "name": "LINK_CONTRACT_ADDRESS",
      "outputs": [
        {
          "internalType": "address",
          "name": "",
          "type": "address"
        }
      ],
      "stateMutability": "view",
      "type": "function"
    },
    {
      "inputs": [
        {
          "internalType": "address",
          "name": "_address",
          "type": "address"
        }
      ],
      "name": "createTestUser",
      "outputs": [],
      "stateMutability": "nonpayable",
      "type": "function"
    },
    {
      "inputs": [
        {
          "internalType": "bytes32",
          "name": "_requestId",
          "type": "bytes32"
        },
        {
          "internalType": "uint256",
          "name": "_address",
          "type": "uint256"
        }
      ],
      "name": "fulfill_verify",
      "outputs": [],
      "stateMutability": "nonpayable",
      "type": "function"
    },
    {
      "inputs": [
        {
          "internalType": "address",
          "name": "_address",
          "type": "address"
        }
      ],
      "name": "getTwitterHandle",
      "outputs": [
        {
          "internalType": "string",
          "name": "",
          "type": "string"
        }
      ],
      "stateMutability": "nonpayable",
      "type": "function"
    },
    {
      "inputs": [
        {
          "internalType": "address",
          "name": "_address",
          "type": "address"
        }
      ],
      "name": "getVerification",
      "outputs": [
        {
          "internalType": "bool",
          "name": "",
          "type": "bool"
        }
      ],
      "stateMutability": "nonpayable",
      "type": "function"
    },
    {
      "inputs": [],
      "name": "isOwner",
      "outputs": [
        {
          "internalType": "bool",
          "name": "",
          "type": "bool"
        }
      ],
      "stateMutability": "view",
      "type": "function"
    },
    {
      "inputs": [],
      "name": "owner",
      "outputs": [
        {
          "internalType": "address",
          "name": "",
          "type": "address"
        }
      ],
      "stateMutability": "view",
      "type": "function"
    },
    {
      "inputs": [
        {
          "internalType": "bytes32",
          "name": "_jobId",
          "type": "bytes32"
        }
      ],
      "name": "setJobId",
      "outputs": [],
      "stateMutability": "nonpayable",
      "type": "function"
    },
    {
      "inputs": [
        {
          "internalType": "address",
          "name": "newOwner",
          "type": "address"
        }
      ],
      "name": "transferOwnership",
      "outputs": [],
      "stateMutability": "nonpayable",
      "type": "function"
    },
    {
      "inputs": [
        {
          "internalType": "address",
          "name": "",
          "type": "address"
        }
      ],
      "name": "verificationMap",
      "outputs": [
        {
          "internalType": "bytes32",
          "name": "requestId",
          "type": "bytes32"
        },
        {
          "internalType": "bool",
          "name": "verified",
          "type": "bool"
        },
        {
          "internalType": "string",
          "name": "twitterHandle",
          "type": "string"
        }
      ],
      "stateMutability": "view",
      "type": "function"
    },
    {
      "inputs": [
        {
          "internalType": "string",
          "name": "_userHandle",
          "type": "string"
        }
      ],
      "name": "verifyUser",
      "outputs": [
        {
          "internalType": "bytes32",
          "name": "",
          "type": "bytes32"
        }
      ],
      "stateMutability": "nonpayable",
      "type": "function"
    }
  ],
  "transactionHash": "0x3fecaae147aa33fde9b8afb650bd5ec5c55238592fce854d9db29a928509abaa",
  "args": [],
  "solcInputHash": "f3ae9b180e87cd3cd1429407527d6ceb",
  "bytecode": "0x60806040526001600455600b80546001600160a01b031990811673326c977e6efc84e512bb9c30f76e30c160ed06fb1791829055600c80549091166001600160a01b039290921691909117905534801561005857600080fd5b50600680546001600160a01b0319163317908190556040516001600160a01b0391909116906000907f8be0079c531659141344cd1fd0a4f28419497f9722a3daafe3b4186f6b6457e0908290a36100cb73326c977e6efc84e512bb9c30f76e30c160ed06fb6001600160e01b0361012616565b600780546001600160a01b031916730e70fe151fa8a1477d4e2a42028db8a231d2c8271790557f396464616533613562643635343764353930656235636361656162313432396560095567016345785d8a0000600855610148565b600280546001600160a01b0319166001600160a01b0392909216919091179055565b611409806101576000396000f3fe608060405234801561001057600080fd5b50600436106100a95760003560e01c8063a116519611610071578063a116519614610156578063d28834fa14610206578063e600c8171461022c578063ea6fe47e146102e4578063f15ad264146102ec578063f2fde38b14610387576100a9565b8063508954f8146100ae5780637fc9592d146100cd5780638da5cb5b146101075780638f32d59b1461012b5780639d9ecb2214610133575b600080fd5b6100cb600480360360208110156100c457600080fd5b50356103ad565b005b6100f3600480360360208110156100e357600080fd5b50356001600160a01b031661040b565b604080519115158252519081900360200190f35b61010f61042c565b604080516001600160a01b039092168252519081900360200190f35b6100f361043c565b6100cb6004803603604081101561014957600080fd5b508035906020013561044d565b61017c6004803603602081101561016c57600080fd5b50356001600160a01b0316610680565b604051808481526020018315151515815260200180602001828103825283818151815260200191508051906020019080838360005b838110156101c95781810151838201526020016101b1565b50505050905090810190601f1680156101f65780820380516001836020036101000a031916815260200191505b5094505050505060405180910390f35b6100cb6004803603602081101561021c57600080fd5b50356001600160a01b0316610730565b6102d26004803603602081101561024257600080fd5b81019060208101813564010000000081111561025d57600080fd5b82018360208201111561026f57600080fd5b8035906020019184600183028401116401000000008311171561029157600080fd5b91908080601f01602080910402602001604051908101604052809392919081815260200183838082843760009201919091525092955061081f945050505050565b60408051918252519081900360200190f35b61010f6109a4565b6103126004803603602081101561030257600080fd5b50356001600160a01b03166109b3565b6040805160208082528351818301528351919283929083019185019080838360005b8381101561034c578181015183820152602001610334565b50505050905090810190601f1680156103795780820380516001836020036101000a031916815260200191505b509250505060405180910390f35b6100cb6004803603602081101561039d57600080fd5b50356001600160a01b0316610a64565b6103b561043c565b610406576040805162461bcd60e51b815260206004820181905260248201527f4f776e61626c653a2063616c6c6572206973206e6f7420746865206f776e6572604482015290519081900360640190fd5b600955565b6001600160a01b03166000908152600a602052604090206001015460ff1690565b6006546001600160a01b03165b90565b6006546001600160a01b0316331490565b60008281526005602052604090205482906001600160a01b031633146104a45760405162461bcd60e51b81526004018080602001828103825260288152602001806113ac6028913960400191505060405180910390fd5b60008181526005602052604080822080546001600160a01b03191690555182917f7cc135e0cebb02c3480ae5d74d377283180a2601f8f644edf7987b009316c63a91a2816001600160a01b038116610576576040805185815290517f9252a22812d23549711234deb72980761f04f0bbaacf232ab264e6471d16548d9181900360200190a16040805162461bcd60e51b815260206004820152601960248201527f41646472657373206d757374206265206e6f6e207a65726f2e00000000000000604482015290519081900360640190fd5b6001600160a01b0381166000908152600a602052604090205484141561067a576001600160a01b0381166000908152600a60209081526040918290206001818101805460ff191682179055835188815292830184815260029283018054600019938116156101000293909301909216929092049383018490527ff900aab519a246b322d696ab644cef7ecc41a3669e56c5add5bcc71fc412cd6593889391929060608301908490801561066a5780601f1061063f5761010080835404028352916020019161066a565b820191906000526020600020905b81548152906001019060200180831161064d57829003601f168201915b5050935050505060405180910390a15b50505050565b600a6020908152600091825260409182902080546001808301546002808501805488516101009582161595909502600019011691909104601f8101879004870284018701909752868352929560ff909116949192918301828280156107265780601f106106fb57610100808354040283529160200191610726565b820191906000526020600020905b81548152906001019060200180831161070957829003601f168201915b5050505050905083565b61073861043c565b610789576040805162461bcd60e51b815260206004820181905260248201527f4f776e61626c653a2063616c6c6572206973206e6f7420746865206f776e6572604482015290519081900360640190fd5b61079161125c565b506040805160608101825260008082526001602080840182815285518087018752600f81526e1515152a22a9aa2faaa9a2a915151560891b818401528587019081526001600160a01b0388168552600a835295909320845181559251918301805460ff1916921515929092179091559251805192938493610818926002850192019061127b565b5050505050565b600c54600854604080516323b872dd60e01b81523360048201523060248201526044810192909252516000926001600160a01b0316916323b872dd91606480830192602092919082900301818787803b15801561087b57600080fd5b505af115801561088f573d6000803e3d6000fd5b505050506040513d60208110156108a557600080fd5b50516108ee576040805162461bcd60e51b81526020600482015260136024820152721d1c985b9cd9995c919c9bdb4819985a5b1959606a1b604482015290519081900360640190fd5b336000908152600a6020908152604090912060018101805460ff1916905583516109209260029092019185019061127b565b506109296112f9565b60095461093e9030634ecf659160e11b610ac9565b60408051808201909152600681526568616e646c6560d01b60208201529091506109709082908563ffffffff610af416565b60075460085461098b916001600160a01b0316908390610b23565b336000908152600a602052604090208190559392505050565b600b546001600160a01b031681565b6001600160a01b0381166000908152600a60209081526040918290206002908101805484516001821615610100026000190190911692909204601f81018490048402830184019094528382526060939192909190830182828015610a585780601f10610a2d57610100808354040283529160200191610a58565b820191906000526020600020905b815481529060010190602001808311610a3b57829003601f168201915b50505050509050919050565b610a6c61043c565b610abd576040805162461bcd60e51b815260206004820181905260248201527f4f776e61626c653a2063616c6c6572206973206e6f7420746865206f776e6572604482015290519081900360640190fd5b610ac681610cfa565b50565b610ad16112f9565b610ad96112f9565b610aeb8186868663ffffffff610d9b16565b95945050505050565b6080830151610b09908363ffffffff610dd816565b6080830151610b1e908263ffffffff610dd816565b505050565b6004546040805130606090811b60208084019190915260348084018690528451808503909101815260549093018452825192810192909220908601939093526000838152600590915281812080546001600160a01b0319166001600160a01b038816179055905182917fb5e6e01e79f91267dc17b4e6314d5d4d03593d2ceee0fbb452b750bd70ea5af991a26002546001600160a01b0316634000aea08584610bcb87610df5565b6040518463ffffffff1660e01b815260040180846001600160a01b03166001600160a01b0316815260200183815260200180602001828103825283818151815260200191508051906020019080838360005b83811015610c35578181015183820152602001610c1d565b50505050905090810190601f168015610c625780820380516001836020036101000a031916815260200191505b50945050505050602060405180830381600087803b158015610c8357600080fd5b505af1158015610c97573d6000803e3d6000fd5b505050506040513d6020811015610cad57600080fd5b5051610cea5760405162461bcd60e51b81526004018080602001828103825260238152602001806113896023913960400191505060405180910390fd5b6004805460010190559392505050565b6001600160a01b038116610d3f5760405162461bcd60e51b81526004018080602001828103825260268152602001806113636026913960400191505060405180910390fd5b6006546040516001600160a01b038084169216907f8be0079c531659141344cd1fd0a4f28419497f9722a3daafe3b4186f6b6457e090600090a3600680546001600160a01b0319166001600160a01b0392909216919091179055565b610da36112f9565b610db38560800151610100610f35565b50509183526001600160a01b031660208301526001600160e01b031916604082015290565b610de58260038351610f75565b610b1e828263ffffffff61107f16565b6060634042994660e01b6000808460000151856020015186604001518760600151600189608001516000015160405160240180896001600160a01b03166001600160a01b03168152602001888152602001878152602001866001600160a01b03166001600160a01b03168152602001856001600160e01b0319166001600160e01b031916815260200184815260200183815260200180602001828103825283818151815260200191508051906020019080838360005b83811015610ec3578181015183820152602001610eab565b50505050905090810190601f168015610ef05780820380516001836020036101000a031916815260200191505b5060408051601f198184030181529190526020810180516001600160e01b03166001600160e01b0319909d169c909c17909b5250989950505050505050505050919050565b610f3d61132e565b6020820615610f525760208206602003820191505b506020808301829052604080518085526000815283019091019052815b92915050565b60178111610f9c57610f968360e0600585901b16831763ffffffff6110a016565b50610b1e565b60ff8111610fd257610fbf836018611fe0600586901b161763ffffffff6110a016565b50610f968382600163ffffffff6110b816565b61ffff811161100957610ff6836019611fe0600586901b161763ffffffff6110a016565b50610f968382600263ffffffff6110b816565b63ffffffff81116110425761102f83601a611fe0600586901b161763ffffffff6110a016565b50610f968382600463ffffffff6110b816565b67ffffffffffffffff8111610b1e5761106c83601b611fe0600586901b161763ffffffff6110a016565b5061067a8382600863ffffffff6110b816565b61108761132e565b611099838460000151518485516110d9565b9392505050565b6110a861132e565b6110998384600001515184611185565b6110c061132e565b6110d18485600001515185856111d0565b949350505050565b6110e161132e565b82518211156110ef57600080fd5b846020015182850111156111195761111985611111876020015187860161122e565b600202611245565b6000808651805187602083010193508088870111156111385787860182525b505050602084015b6020841061115f5780518252601f199093019260209182019101611140565b51815160001960208690036101000a019081169019919091161790525083949350505050565b61118d61132e565b836020015183106111a9576111a9848560200151600202611245565b8351805160208583010184815350808514156111c6576001810182525b5093949350505050565b6111d861132e565b846020015184830111156111f5576111f585858401600202611245565b60006001836101000a0390508551838682010185831982511617815250805184870111156112235783860181525b509495945050505050565b60008183111561123f575081610f6f565b50919050565b81516112518383610f35565b5061067a838261107f565b6040805160608082018352600080835260208301529181019190915290565b828054600181600116156101000203166002900490600052602060002090601f016020900481019282601f106112bc57805160ff19168380011785556112e9565b828001600101855582156112e9579182015b828111156112e95782518255916020019190600101906112ce565b506112f5929150611348565b5090565b6040805160a08101825260008082526020820181905291810182905260608101919091526080810161132961132e565b905290565b604051806040016040528060608152602001600081525090565b61043991905b808211156112f5576000815560010161134e56fe4f776e61626c653a206e6577206f776e657220697320746865207a65726f2061646472657373756e61626c6520746f207472616e73666572416e6443616c6c20746f206f7261636c65536f75726365206d75737420626520746865206f7261636c65206f66207468652072657175657374a26469706673582212208103179f39a51c1ff8d486c29c98adb6976831b8cac462c93af34f765045bd6964736f6c63430006060033",
  "devdoc": {
    "methods": {
      "isOwner()": {
        "details": "Returns true if the caller is the current owner."
      },
      "owner()": {
        "details": "Returns the address of the current owner."
      },
      "transferOwnership(address)": {
        "details": "Transfers ownership of the contract to a new account (`newOwner`). Can only be called by the current owner."
      }
    }
  },
  "userdoc": {
    "methods": {}
  },
  "storageLayout": {
    "storage": [
      {
        "astId": 303,
        "contract": "contracts/twitterVerify.sol:twitterverify",
        "label": "ens",
        "offset": 0,
        "slot": "0",
        "type": "t_contract(ENSInterface)1001"
      },
      {
        "astId": 305,
        "contract": "contracts/twitterVerify.sol:twitterverify",
        "label": "ensNode",
        "offset": 0,
        "slot": "1",
        "type": "t_bytes32"
      },
      {
        "astId": 307,
        "contract": "contracts/twitterVerify.sol:twitterverify",
        "label": "link",
        "offset": 0,
        "slot": "2",
        "type": "t_contract(LinkTokenInterface)1096"
      },
      {
        "astId": 309,
        "contract": "contracts/twitterVerify.sol:twitterverify",
        "label": "oracle",
        "offset": 0,
        "slot": "3",
        "type": "t_contract(ChainlinkRequestInterface)921"
      },
      {
        "astId": 312,
        "contract": "contracts/twitterVerify.sol:twitterverify",
        "label": "requestCount",
        "offset": 0,
        "slot": "4",
        "type": "t_uint256"
      },
      {
        "astId": 316,
        "contract": "contracts/twitterVerify.sol:twitterverify",
        "label": "pendingRequests",
        "offset": 0,
        "slot": "5",
        "type": "t_mapping(t_bytes32,t_address)"
      },
      {
        "astId": 2020,
        "contract": "contracts/twitterVerify.sol:twitterverify",
        "label": "_owner",
        "offset": 0,
        "slot": "6",
        "type": "t_address"
      },
      {
        "astId": 2465,
        "contract": "contracts/twitterVerify.sol:twitterverify",
        "label": "oracle",
        "offset": 0,
        "slot": "7",
        "type": "t_address"
      },
      {
        "astId": 2467,
        "contract": "contracts/twitterVerify.sol:twitterverify",
        "label": "fee",
        "offset": 0,
        "slot": "8",
        "type": "t_uint256"
      },
      {
        "astId": 2469,
        "contract": "contracts/twitterVerify.sol:twitterverify",
        "label": "verifyUserJobId",
        "offset": 0,
        "slot": "9",
        "type": "t_bytes32"
      },
      {
        "astId": 2480,
        "contract": "contracts/twitterVerify.sol:twitterverify",
        "label": "verificationMap",
        "offset": 0,
        "slot": "10",
        "type": "t_mapping(t_address,t_struct(userVerification)2476_storage)"
      },
      {
        "astId": 2493,
        "contract": "contracts/twitterVerify.sol:twitterverify",
        "label": "LINK_CONTRACT_ADDRESS",
        "offset": 0,
        "slot": "11",
        "type": "t_address"
      },
      {
        "astId": 2498,
        "contract": "contracts/twitterVerify.sol:twitterverify",
        "label": "link",
        "offset": 0,
        "slot": "12",
        "type": "t_contract(linkToken)2730"
      }
    ],
    "types": {
      "t_address": {
        "encoding": "inplace",
        "label": "address",
        "numberOfBytes": "20"
      },
      "t_bool": {
        "encoding": "inplace",
        "label": "bool",
        "numberOfBytes": "1"
      },
      "t_bytes32": {
        "encoding": "inplace",
        "label": "bytes32",
        "numberOfBytes": "32"
      },
      "t_contract(ChainlinkRequestInterface)921": {
        "encoding": "inplace",
        "label": "contract ChainlinkRequestInterface",
        "numberOfBytes": "20"
      },
      "t_contract(ENSInterface)1001": {
        "encoding": "inplace",
        "label": "contract ENSInterface",
        "numberOfBytes": "20"
      },
      "t_contract(LinkTokenInterface)1096": {
        "encoding": "inplace",
        "label": "contract LinkTokenInterface",
        "numberOfBytes": "20"
      },
      "t_contract(linkToken)2730": {
        "encoding": "inplace",
        "label": "contract linkToken",
        "numberOfBytes": "20"
      },
      "t_mapping(t_address,t_struct(userVerification)2476_storage)": {
        "encoding": "mapping",
        "key": "t_address",
        "label": "mapping(address => struct twitterverify.userVerification)",
        "numberOfBytes": "32",
        "value": "t_struct(userVerification)2476_storage"
      },
      "t_mapping(t_bytes32,t_address)": {
        "encoding": "mapping",
        "key": "t_bytes32",
        "label": "mapping(bytes32 => address)",
        "numberOfBytes": "32",
        "value": "t_address"
      },
      "t_string_storage": {
        "encoding": "bytes",
        "label": "string",
        "numberOfBytes": "32"
      },
      "t_struct(userVerification)2476_storage": {
        "encoding": "inplace",
        "label": "struct twitterverify.userVerification",
        "members": [
          {
            "astId": 2471,
            "contract": "contracts/twitterVerify.sol:twitterverify",
            "label": "requestId",
            "offset": 0,
            "slot": "0",
            "type": "t_bytes32"
          },
          {
            "astId": 2473,
            "contract": "contracts/twitterVerify.sol:twitterverify",
            "label": "verified",
            "offset": 0,
            "slot": "1",
            "type": "t_bool"
          },
          {
            "astId": 2475,
            "contract": "contracts/twitterVerify.sol:twitterverify",
            "label": "twitterHandle",
            "offset": 0,
            "slot": "2",
            "type": "t_string_storage"
          }
        ],
        "numberOfBytes": "96"
      },
      "t_uint256": {
        "encoding": "inplace",
        "label": "uint256",
        "numberOfBytes": "32"
      }
    }
  }
}