{
  "_format": "hh-sol-artifact-1",
  "contractName": "Pool",
  "sourceName": "contracts/Pool.sol",
  "abi": [
    {
      "inputs": [
        {
          "internalType": "string",
          "name": "_poolName",
          "type": "string"
        },
        {
          "internalType": "string",
          "name": "_brandName",
          "type": "string"
        },
        {
          "internalType": "uint256",
          "name": "_capital",
          "type": "uint256"
        },
        {
          "internalType": "address",
          "name": "_capitalAddress",
          "type": "address"
        },
        {
          "internalType": "address",
          "name": "_nftAddress",
          "type": "address"
        },
        {
          "internalType": "address",
          "name": "_poolOwner",
          "type": "address"
        },
        {
          "internalType": "address",
          "name": "_rng",
          "type": "address"
        },
        {
          "internalType": "uint256",
          "name": "_campaignLength",
          "type": "uint256"
        },
        {
          "internalType": "uint256",
          "name": "_votingLength",
          "type": "uint256"
        },
        {
          "internalType": "uint256",
          "name": "_decisionLength",
          "type": "uint256"
        },
        {
          "internalType": "uint256",
          "name": "_submissionLength",
          "type": "uint256"
        }
      ],
      "stateMutability": "nonpayable",
      "type": "constructor"
    },
    {
      "inputs": [],
      "name": "backPool",
      "outputs": [],
      "stateMutability": "nonpayable",
      "type": "function"
    },
    {
      "inputs": [],
      "name": "backedByFunds",
      "outputs": [
        {
          "internalType": "bool",
          "name": "",
          "type": "bool"
        }
      ],
      "stateMutability": "view",
      "type": "function"
    },
    {
      "inputs": [],
      "name": "brandName",
      "outputs": [
        {
          "internalType": "string",
          "name": "",
          "type": "string"
        }
      ],
      "stateMutability": "view",
      "type": "function"
    },
    {
      "inputs": [],
      "name": "brandVotingEndBlock",
      "outputs": [
        {
          "internalType": "uint256",
          "name": "",
          "type": "uint256"
        }
      ],
      "stateMutability": "view",
      "type": "function"
    },
    {
      "inputs": [],
      "name": "campaignEndBlock",
      "outputs": [
        {
          "internalType": "uint256",
          "name": "",
          "type": "uint256"
        }
      ],
      "stateMutability": "view",
      "type": "function"
    },
    {
      "inputs": [
        {
          "internalType": "uint256",
          "name": "_submissionNumber",
          "type": "uint256"
        }
      ],
      "name": "cashout",
      "outputs": [],
      "stateMutability": "nonpayable",
      "type": "function"
    },
    {
      "inputs": [
        {
          "internalType": "string",
          "name": "_name",
          "type": "string"
        }
      ],
      "name": "changeName",
      "outputs": [],
      "stateMutability": "nonpayable",
      "type": "function"
    },
    {
      "inputs": [],
      "name": "checkForTies",
      "outputs": [],
      "stateMutability": "nonpayable",
      "type": "function"
    },
    {
      "inputs": [
        {
          "internalType": "uint256[3]",
          "name": "nfts",
          "type": "uint256[3]"
        }
      ],
      "name": "createSubmission",
      "outputs": [],
      "stateMutability": "nonpayable",
      "type": "function"
    },
    {
      "inputs": [
        {
          "internalType": "uint256",
          "name": "_submissionNumber",
          "type": "uint256"
        }
      ],
      "name": "fanVote",
      "outputs": [],
      "stateMutability": "nonpayable",
      "type": "function"
    },
    {
      "inputs": [],
      "name": "fanVotingEndBlock",
      "outputs": [
        {
          "internalType": "uint256",
          "name": "",
          "type": "uint256"
        }
      ],
      "stateMutability": "view",
      "type": "function"
    },
    {
      "inputs": [],
      "name": "funds",
      "outputs": [
        {
          "internalType": "uint256",
          "name": "",
          "type": "uint256"
        }
      ],
      "stateMutability": "view",
      "type": "function"
    },
    {
      "inputs": [],
      "name": "getName",
      "outputs": [
        {
          "internalType": "string",
          "name": "",
          "type": "string"
        }
      ],
      "stateMutability": "view",
      "type": "function"
    },
    {
      "inputs": [],
      "name": "getTopTen",
      "outputs": [],
      "stateMutability": "nonpayable",
      "type": "function"
    },
    {
      "inputs": [],
      "name": "poolName",
      "outputs": [
        {
          "internalType": "string",
          "name": "",
          "type": "string"
        }
      ],
      "stateMutability": "view",
      "type": "function"
    },
    {
      "inputs": [],
      "name": "seePoolBacking",
      "outputs": [
        {
          "internalType": "uint256",
          "name": "",
          "type": "uint256"
        }
      ],
      "stateMutability": "view",
      "type": "function"
    },
    {
      "inputs": [
        {
          "internalType": "uint256",
          "name": "submissionIndex",
          "type": "uint256"
        }
      ],
      "name": "selectWinner",
      "outputs": [],
      "stateMutability": "nonpayable",
      "type": "function"
    },
    {
      "inputs": [],
      "name": "submissionEndBlock",
      "outputs": [
        {
          "internalType": "uint256",
          "name": "",
          "type": "uint256"
        }
      ],
      "stateMutability": "view",
      "type": "function"
    },
    {
      "inputs": [
        {
          "internalType": "uint256",
          "name": "",
          "type": "uint256"
        }
      ],
      "name": "submissions",
      "outputs": [
        {
          "internalType": "uint256",
          "name": "userCount",
          "type": "uint256"
        }
      ],
      "stateMutability": "view",
      "type": "function"
    },
    {
      "inputs": [
        {
          "internalType": "uint256",
          "name": "",
          "type": "uint256"
        }
      ],
      "name": "topTen",
      "outputs": [
        {
          "internalType": "uint256",
          "name": "",
          "type": "uint256"
        }
      ],
      "stateMutability": "view",
      "type": "function"
    },
    {
      "inputs": [
        {
          "internalType": "uint256",
          "name": "",
          "type": "uint256"
        }
      ],
      "name": "topTenAmount",
      "outputs": [
        {
          "internalType": "uint256",
          "name": "",
          "type": "uint256"
        }
      ],
      "stateMutability": "view",
      "type": "function"
    },
    {
      "inputs": [],
      "name": "topTenFound",
      "outputs": [
        {
          "internalType": "bool",
          "name": "",
          "type": "bool"
        }
      ],
      "stateMutability": "view",
      "type": "function"
    }
  ],
  "bytecode": "0x60806040526000602a553480156200001657600080fd5b50604051620029ed380380620029ed8339810160408190526200003991620002a6565b600080546001600160a01b038089166001600160a01b03199283161790925560068b905560018054928b16929091169190911790556200007b600a8a620003b6565b602355600280546001600160a01b03808a166001600160a01b03199283161790925560038054928816929091169190911790558a51620000c39060049060208e019062000130565b508951620000d99060059060208d019062000130565b5043620000e7828262000391565b6007819055620000f990859062000391565b60088190556200010b90849062000391565b6009556200011a858262000391565b600a55506200042a9a5050505050505050505050565b8280546200013e90620003d7565b90600052602060002090601f016020900481019282620001625760008555620001ad565b82601f106200017d57805160ff1916838001178555620001ad565b82800160010185558215620001ad579182015b82811115620001ad57825182559160200191906001019062000190565b50620001bb929150620001bf565b5090565b5b80821115620001bb5760008155600101620001c0565b80516001600160a01b0381168114620001ee57600080fd5b919050565b600082601f83011262000204578081fd5b81516001600160401b038082111562000221576200022162000414565b604051601f8301601f19908116603f011681019082821181831017156200024c576200024c62000414565b8160405283815260209250868385880101111562000268578485fd5b8491505b838210156200028b57858201830151818301840152908201906200026c565b838211156200029c57848385830101525b9695505050505050565b60008060008060008060008060008060006101608c8e031215620002c8578687fd5b8b516001600160401b03811115620002de578788fd5b620002ec8e828f01620001f3565b60208e0151909c5090506001600160401b038111156200030a578788fd5b620003188e828f01620001f3565b9a505060408c015198506200033060608d01620001d6565b97506200034060808d01620001d6565b96506200035060a08d01620001d6565b95506200036060c08d01620001d6565b945060e08c015193506101008c015192506101208c015191506101408c015190509295989b509295989b9093969950565b60008219821115620003b157634e487b7160e01b81526011600452602481fd5b500190565b600082620003d257634e487b7160e01b81526012600452602481fd5b500490565b600181811c90821680620003ec57607f821691505b602082108114156200040e57634e487b7160e01b600052602260045260246000fd5b50919050565b634e487b7160e01b600052604160045260246000fd5b6125b3806200043a6000396000f3fe608060405234801561001057600080fd5b50600436106101825760003560e01c80635a047364116100d8578063a9e732bb1161008c578063c89f2ce411610066578063c89f2ce4146102c7578063cb300137146102d0578063f3466dfa146102d857600080fd5b8063a9e732bb14610289578063ad73349e1461029c578063b278fa4b146102bf57600080fd5b80635cd68d8b116100bd5780635cd68d8b1461024c5780637429eee114610269578063886354411461027657600080fd5b80635a047364146102305780635cbddb9f1461024357600080fd5b80633d7020991161013a5780634c991657116101145780634c9916571461020d5780635013a158146102155780635353a2d81461021d57600080fd5b80633d702099146101d257806347ba59c9146101e55780634c524be4146101fa57600080fd5b80631b818fb51161016b5780631b818fb5146101b857806320196065146101c15780632180877f146101c957600080fd5b8063156a51d61461018757806317d7de7c146101a3575b600080fd5b61019060085481565b6040519081526020015b60405180910390f35b6101ab6102e0565b60405161019a919061243a565b61019060075481565b6101ab610372565b610190600a5481565b6101906101e0366004612422565b610400565b6101f86101f33660046122b7565b610417565b005b6101f8610208366004612422565b6107c4565b6101f8610e7c565b61019061116d565b6101f861022b366004612378565b611207565b6101f861023e366004612422565b61128c565b61019060095481565b600b546102599060ff1681565b604051901515815260200161019a565b6028546102599060ff1681565b610190610284366004612422565b6117e9565b6101f8610297366004612422565b6117f9565b6101906102aa366004612422565b60296020526000908152604090206003015481565b6101f8611c45565b61019060065481565b6101f8612001565b6101ab6121d1565b6060600480546102ef906124db565b80601f016020809104026020016040519081016040528092919081815260200182805461031b906124db565b80156103685780601f1061033d57610100808354040283529160200191610368565b820191906000526020600020905b81548152906001019060200180831161034b57829003601f168201915b5050505050905090565b6005805461037f906124db565b80601f01602080910402602001604051908101604052809291908181526020018280546103ab906124db565b80156103f85780601f106103cd576101008083540402835291602001916103f8565b820191906000526020600020905b8154815290600101906020018083116103db57829003601f168201915b505050505081565b601681600a811061041057600080fd5b0154905081565b60285460ff1661046e5760405162461bcd60e51b815260206004820152601c60248201527f506f6f6c206973206e6f74206261636b65642062792066756e6473210000000060448201526064015b60405180910390fd5b60075443106104e55760405162461bcd60e51b815260206004820152603460248201527f43616e206e6f7420616464207375626d697373696f6e7320647572696e67207460448201527f68652066616e20766f74696e6720706572696f640000000000000000000000006064820152608401610465565b6001546023546040516323b872dd60e01b815233600482015230602482015260448101919091526001600160a01b03909116906323b872dd90606401602060405180830381600087803b15801561053b57600080fd5b505af115801561054f573d6000803e3d6000fd5b505050506040513d601f19601f820116820180604052508101906105739190612339565b6105e55760405162461bcd60e51b815260206004820152603460248201527f7472616e6466657246726f6d206661696c65642c207375626d697373696f6e2060448201527f6e6f74206261636b65642062792066756e6473210000000000000000000000006064820152608401610465565b60005b60038110156106f2576002546001600160a01b03166323b872dd333085856003811061062457634e487b7160e01b600052603260045260246000fd5b60200201516040516001600160e01b031960e086901b1681526001600160a01b0393841660048201529290911660248301526044820152606401600060405180830381600087803b15801561067857600080fd5b505af115801561068c573d6000803e3d6000fd5b5050602a546000908152602960205260409020915083905082600381106106c357634e487b7160e01b600052603260045260246000fd5b6020908102919091015182546001810184556000938452919092200155806106ea81612516565b9150506105e8565b5060408051808201825233808252602354602080840191909152602a80546000908152602980845286822094825260019094018352858120819055905481529190529182206003018054919261074783612516565b9091555050602a8054600090815260296020908152604082206002908101805460018082018355918552838520875191909302909201805473ffffffffffffffffffffffffffffffffffffffff19166001600160a01b0390931692909217825591850151910155815491906107bb83612516565b91905055505050565b6000546001600160a01b031633146108325760405162461bcd60e51b815260206004820152602b60248201527f4f6e6c792074686520506f6f6c204f776e65722063616e2063616c6c2074686960448201526a732066756e6374696f6e2160a81b6064820152608401610465565b60245460ff16156108855760405162461bcd60e51b815260206004820152601860248201527f416c72656164792073656c65637465642077696e6e65722100000000000000006044820152606401610465565b600a5443116108fc5760405162461bcd60e51b815260206004820152603460248201527f43616e206f6e6c792063686f6f736520612077696e6e6572206166746572207460448201527f68652063616d706169676e206973206f766572210000000000000000000000006064820152608401610465565b60265460ff166109745760405162461bcd60e51b815260206004820152602360248201527f596f75206861766520746f2063616c6c2063686563466f72546965732066697260448201527f73742100000000000000000000000000000000000000000000000000000000006064820152608401610465565b6024805460ff191660011790556000805b6027548110156109dd57602081815481106109b057634e487b7160e01b600052603260045260246000fd5b90600052602060002001548314156109cb57600191506109dd565b806109d581612516565b915050610985565b5080610a515760405162461bcd60e51b815260206004820152602f60248201527f596f75206d7573742073656c65637420612077696e6e65722066726f6d20746860448201527f6520746f702074656e206c6973742100000000000000000000000000000000006064820152608401610465565b602282905560028054600084815260296020526040812090920180546001600160a01b03909216926323b872dd9230929190610a9d57634e487b7160e01b600052603260045260246000fd5b60009182526020808320600290920290910154602254835260299091526040822080546001600160a01b03909216929091610ae857634e487b7160e01b600052603260045260246000fd5b6000918252602090912001546040516001600160e01b031960e086901b1681526001600160a01b0393841660048201529290911660248301526044820152606401600060405180830381600087803b158015610b4357600080fd5b505af1158015610b57573d6000803e3d6000fd5b505050600083815260296020526040812060030154909150610b7b906001906124c4565b600360009054906101000a90046001600160a01b03166001600160a01b03166322cce6896040518163ffffffff1660e01b8152600401602060405180830381600087803b158015610bcb57600080fd5b505af1158015610bdf573d6000803e3d6000fd5b505050506040513d601f19601f82011682018060405250810190610c039190612360565b610c0d9190612531565b610c1890600161248d565b60008481526029602052604081206002018054929350909183908110610c4e57634e487b7160e01b600052603260045260246000fd5b6000918252602080832060029283020154915460225484526029909152604090922080546001600160a01b03928316945091909216916323b872dd91309185916001908110610cad57634e487b7160e01b600052603260045260246000fd5b6000918252602090912001546040516001600160e01b031960e086901b1681526001600160a01b0393841660048201529290911660248301526044820152606401600060405180830381600087803b158015610d0857600080fd5b505af1158015610d1c573d6000803e3d6000fd5b5050600280546000805460225482526029602052604090912080546001600160a01b0393841696506323b872dd95503094939092169290918110610d7057634e487b7160e01b600052603260045260246000fd5b6000918252602090912001546040516001600160e01b031960e086901b1681526001600160a01b0393841660048201529290911660248301526044820152606401600060405180830381600087803b158015610dcb57600080fd5b505af1158015610ddf573d6000803e3d6000fd5b50506001546000546006546040516323b872dd60e01b81523060048201526001600160a01b0392831660248201526044810191909152911692506323b872dd9150606401602060405180830381600087803b158015610e3d57600080fd5b505af1158015610e51573d6000803e3d6000fd5b505050506040513d601f19601f82011682018060405250810190610e759190612339565b5050505050565b6000546001600160a01b03163314610eea5760405162461bcd60e51b815260206004820152602b60248201527f4f6e6c792074686520506f6f6c204f776e65722063616e2063616c6c2074686960448201526a732066756e6374696f6e2160a81b6064820152608401610465565b600b5460ff16610f3c5760405162461bcd60e51b815260206004820152601c60248201527f4e65656420746f2072756e20676574546f7054656e20666972737421000000006044820152606401610465565b60265460ff1615610f8f5760405162461bcd60e51b815260206004820152601860248201527f416c726561647920636865636b656420666f72207469657300000000000000006044820152606401610465565b6016546000805b600a81101561108a5782601682600a8110610fc157634e487b7160e01b600052603260045260246000fd5b0154101561107857601681600a8110610fea57634e487b7160e01b600052603260045260246000fd5b015492508091506020600c82600a811061101457634e487b7160e01b600052603260045260246000fd5b0154815460018101835560009283526020909220909101556021601682600a811061104f57634e487b7160e01b600052603260045260246000fd5b015481546001810183556000928352602083200155602780549161107283612516565b91905055505b8061108281612516565b915050610f96565b506000805b602a5481101561115a576023546000828152602960205260409020600301546110ba906001906124c4565b6110c491906124a5565b915081841415611148576020805460018181019092557fc97bfaf2f8ee708c303a06d134f5ecd8389ae0432af62dc132a24118292866bb0182905560218054918201815560009081527f3a6357012c1a3ae0a17d304c9920310382d968ebcc4b1771f41c6b304205b570909101839055602780549161114283612516565b91905055505b8061115281612516565b91505061108f565b50506026805460ff191660011790555050565b6001546040517f70a082310000000000000000000000000000000000000000000000000000000081523060048201526000916001600160a01b0316906370a082319060240160206040518083038186803b1580156111ca57600080fd5b505afa1580156111de573d6000803e3d6000fd5b505050506040513d601f19601f820116820180604052508101906112029190612360565b905090565b6000546001600160a01b031633146112755760405162461bcd60e51b815260206004820152602b60248201527f4f6e6c792074686520506f6f6c204f776e65722063616e2063616c6c2074686960448201526a732066756e6374696f6e2160a81b6064820152608401610465565b80516112889060049060208401906121de565b5050565b6000546001600160a01b03163314156112f15760405162461bcd60e51b815260206004820152602160248201527f4f6e6c792046616e732063616e2063616c6c20746869732066756e6374696f6e6044820152602160f81b6064820152608401610465565b60285460ff166113435760405162461bcd60e51b815260206004820152601c60248201527f506f6f6c206973206e6f74206261636b65642062792066756e647321000000006044820152606401610465565b6000818152602960205260408120600201805490919061137357634e487b7160e01b600052603260045260246000fd5b60009182526020909120600290910201546001600160a01b03163314156114025760405162461bcd60e51b815260206004820152602d60248201527f4172746973742063616e206e6f7420766f746520666f72207468656972206f7760448201527f6e207375626d697373696f6e21000000000000000000000000000000000000006064820152608401610465565b60075443101561147a5760405162461bcd60e51b815260206004820152603560248201527f43616e206e6f7420737461727420766f74696e6720756e74696c207375626d6960448201527f7373696f6e20706572696f64206973206f7665722100000000000000000000006064820152608401610465565b6009544311156114cc5760405162461bcd60e51b815260206004820152601a60248201527f46616e20566f74696e6720506572696f64206973204f766572210000000000006044820152606401610465565b6000818152602960205260408120805482906114f857634e487b7160e01b600052603260045260246000fd5b9060005260206000200154116115765760405162461bcd60e51b815260206004820152602560248201527f546865726520617265206e6f204e46547320696e2074686973207375626d697360448201527f73696f6e210000000000000000000000000000000000000000000000000000006064820152608401610465565b6001546023546040516323b872dd60e01b815233600482015230602482015260448101919091526001600160a01b03909116906323b872dd90606401602060405180830381600087803b1580156115cc57600080fd5b505af11580156115e0573d6000803e3d6000fd5b505050506040513d601f19601f820116820180604052508101906116049190612339565b6116765760405162461bcd60e51b815260206004820152602e60248201527f7472616e6466657246726f6d206661696c65642c20766f7465206e6f7420626160448201527f636b65642062792066756e6473210000000000000000000000000000000000006064820152608401610465565b60015b6000828152602960205260409020600301548110156117645760008281526029602052604090206002018054829081106116c357634e487b7160e01b600052603260045260246000fd5b60009182526020909120600290910201546001600160a01b03163314156117525760405162461bcd60e51b815260206004820152602b60248201527f557365722068617320616c726561647920766f74656420666f7220746869732060448201527f7375626d697373696f6e210000000000000000000000000000000000000000006064820152608401610465565b8061175c81612516565b915050611679565b5060408051808201825233815260235460208083019182526000858152602982529384206002808201805460018082018355918852938720865194909202909101805473ffffffffffffffffffffffffffffffffffffffff19166001600160a01b0390941693909317835592519190920155838352600301805491926107bb83612516565b600c81600a811061041057600080fd5b600a5443116118705760405162461bcd60e51b815260206004820152602760248201527f43616e206e6f7420636173686f757420756e74696c2063616d706169676e206960448201527f73206f76657221000000000000000000000000000000000000000000000000006064820152608401610465565b60008060005b6000848152602960205260409020600301548110156119015760008481526029602052604090206002018054339190839081106118c357634e487b7160e01b600052603260045260246000fd5b60009182526020909120600290910201546001600160a01b031614156118ef5760019250809150611901565b806118f981612516565b915050611876565b50600083815260296020526040812060020180548390811061193357634e487b7160e01b600052603260045260246000fd5b9060005260206000209060020201600101549050600060296000868152602001908152602001600020600201838154811061197e57634e487b7160e01b600052603260045260246000fd5b90600052602060002090600202016001018190555082801561199e575081155b15611b54576001546040516323b872dd60e01b8152306004820152336024820152604481018390526001600160a01b03909116906323b872dd90606401602060405180830381600087803b1580156119f557600080fd5b505af1158015611a09573d6000803e3d6000fd5b505050506040513d601f19601f82011682018060405250810190611a2d9190612339565b611a3657600080fd5b6022548414611b4f5760005b6003811015611b1957600254600086815260296020526040902080546001600160a01b03909216916323b872dd91309133919086908110611a9357634e487b7160e01b600052603260045260246000fd5b6000918252602090912001546040516001600160e01b031960e086901b1681526001600160a01b0393841660048201529290911660248301526044820152606401600060405180830381600087803b158015611aee57600080fd5b505af1158015611b02573d6000803e3d6000fd5b505050508080611b1190612516565b915050611a42565b5060408051606081018252600080825260208083018290528284018290528782526029905291909120611b4d916003612262565b505b611c3f565b8215611bed576001546040516323b872dd60e01b8152306004820152336024820152604481018390526001600160a01b03909116906323b872dd90606401602060405180830381600087803b158015611bac57600080fd5b505af1158015611bc0573d6000803e3d6000fd5b505050506040513d601f19601f82011682018060405250810190611be49190612339565b611b4f57600080fd5b60405162461bcd60e51b815260206004820152602160248201527f5573657220776173206e6f7420666f756e6420696e207375626d697373696f6e6044820152602160f81b6064820152608401610465565b50505050565b6000546001600160a01b03163314611cb35760405162461bcd60e51b815260206004820152602b60248201527f4f6e6c792074686520506f6f6c204f776e65722063616e2063616c6c2074686960448201526a732066756e6374696f6e2160a81b6064820152608401610465565b602a5460255410611d2c5760405162461bcd60e51b815260206004820152602b60248201527f416c726561647920666f756e6420746f702074656e2066726f6d20616c6c207360448201527f75626d697373696f6e73210000000000000000000000000000000000000000006064820152608401610465565b6008544311611da35760405162461bcd60e51b815260206004820152602f60248201527f43616e6e6f742073656c65637420746f702074656e20756e74696c2066616e2060448201527f766f74696e67206973206f7665722100000000000000000000000000000000006064820152608401610465565b6000806000805b60645a118015611dbd5750602a54602554105b15611f4657602354602554600090815260296020526040902060030154611de6906001906124c4565b611df091906124a5565b6016549450600093509150829050805b600a811015611ee857601681600a8110611e2a57634e487b7160e01b600052603260045260246000fd5b0154611e835782601682600a8110611e5257634e487b7160e01b600052603260045260246000fd5b0155602554600c82600a8110611e7857634e487b7160e01b600052603260045260246000fd5b015560019150611ee8565b84601682600a8110611ea557634e487b7160e01b600052603260045260246000fd5b01541015611ed657601681600a8110611ece57634e487b7160e01b600052603260045260246000fd5b015494508093505b80611ee081612516565b915050611e00565b5080611f415783821115611f415781601684600a8110611f1857634e487b7160e01b600052603260045260246000fd5b0155602554600c84600a8110611f3e57634e487b7160e01b600052603260045260246000fd5b01555b611daa565b602554611f5490600161248d565b6025556003546040517fb37217a40000000000000000000000000000000000000000000000000000000081524360048201526001600160a01b039091169063b37217a490602401602060405180830381600087803b158015611fb557600080fd5b505af1158015611fc9573d6000803e3d6000fd5b505050506040513d601f19601f82011682018060405250810190611fed9190612360565b5050600b805460ff19166001179055505050565b6000546001600160a01b0316331461206f5760405162461bcd60e51b815260206004820152602b60248201527f4f6e6c792074686520506f6f6c204f776e65722063616e2063616c6c2074686960448201526a732066756e6374696f6e2160a81b6064820152608401610465565b60285460ff16156120c25760405162461bcd60e51b815260206004820152601d60248201527f506f6f6c20616c7265616479206261636b65642062792066756e6473210000006044820152606401610465565b6001546006546040516323b872dd60e01b815233600482015230602482015260448101919091526001600160a01b03909116906323b872dd90606401602060405180830381600087803b15801561211857600080fd5b505af115801561212c573d6000803e3d6000fd5b505050506040513d601f19601f820116820180604052508101906121509190612339565b6121c25760405162461bcd60e51b815260206004820152602e60248201527f7472616e6466657246726f6d206661696c65642c20706f6f6c206e6f7420626160448201527f636b65642062792066756e6473210000000000000000000000000000000000006064820152608401610465565b6028805460ff19166001179055565b6004805461037f906124db565b8280546121ea906124db565b90600052602060002090601f01602090048101928261220c5760008555612252565b82601f1061222557805160ff1916838001178555612252565b82800160010185558215612252579182015b82811115612252578251825591602001919060010190612237565b5061225e9291506122a2565b5090565b828054828255906000526020600020908101928215612252579160200282015b82811115612252578251829060ff16905591602001919060010190612282565b5b8082111561225e57600081556001016122a3565b6000606082840312156122c8578081fd5b82601f8301126122d6578081fd5b6040516060810181811067ffffffffffffffff821117156122f9576122f9612567565b60405280836060810186101561230d578384fd5b835b600381101561232e57813583526020928301929091019060010161230f565b509195945050505050565b60006020828403121561234a578081fd5b81518015158114612359578182fd5b9392505050565b600060208284031215612371578081fd5b5051919050565b600060208284031215612389578081fd5b813567ffffffffffffffff808211156123a0578283fd5b818401915084601f8301126123b3578283fd5b8135818111156123c5576123c5612567565b604051601f8201601f19908116603f011681019083821181831017156123ed576123ed612567565b81604052828152876020848701011115612405578586fd5b826020860160208301379182016020019490945295945050505050565b600060208284031215612433578081fd5b5035919050565b6000602080835283518082850152825b818110156124665785810183015185820160400152820161244a565b818111156124775783604083870101525b50601f01601f1916929092016040019392505050565b600082198211156124a0576124a0612551565b500190565b60008160001904831182151516156124bf576124bf612551565b500290565b6000828210156124d6576124d6612551565b500390565b600181811c908216806124ef57607f821691505b6020821081141561251057634e487b7160e01b600052602260045260246000fd5b50919050565b600060001982141561252a5761252a612551565b5060010190565b60008261254c57634e487b7160e01b81526012600452602481fd5b500690565b634e487b7160e01b600052601160045260246000fd5b634e487b7160e01b600052604160045260246000fdfea2646970667358221220f8c77921a33c5cb90beaafbf19d321b48f9dd959c6e41f4901980c796a994a1864736f6c63430008040033",
  "linkReferences": {},
  "deployedLinkReferences": {}
}