{
  "_format": "hh-sol-artifact-1",
  "contractName": "Pool",
  "sourceName": "contracts/Pool.sol",
  "abi": [
    {
      "inputs": [
        {
          "internalType": "string",
          "name": "_poolName",
          "type": "string"
        },
        {
          "internalType": "string",
          "name": "_brandName",
          "type": "string"
        },
        {
          "internalType": "uint256",
          "name": "_capital",
          "type": "uint256"
        },
        {
          "internalType": "address",
          "name": "_capitalAddress",
          "type": "address"
        },
        {
          "internalType": "address",
          "name": "_nftAddress",
          "type": "address"
        },
        {
          "internalType": "address",
          "name": "_poolOwner",
          "type": "address"
        },
        {
          "internalType": "address",
          "name": "_rng",
          "type": "address"
        },
        {
          "internalType": "uint256",
          "name": "_campaignLength",
          "type": "uint256"
        },
        {
          "internalType": "uint256",
          "name": "_votingLength",
          "type": "uint256"
        },
        {
          "internalType": "uint256",
          "name": "_decisionLength",
          "type": "uint256"
        },
        {
          "internalType": "uint256",
          "name": "_submissionLength",
          "type": "uint256"
        }
      ],
      "stateMutability": "nonpayable",
      "type": "constructor"
    },
    {
      "inputs": [],
      "name": "backPool",
      "outputs": [],
      "stateMutability": "nonpayable",
      "type": "function"
    },
    {
      "inputs": [],
      "name": "backedByFunds",
      "outputs": [
        {
          "internalType": "bool",
          "name": "",
          "type": "bool"
        }
      ],
      "stateMutability": "view",
      "type": "function"
    },
    {
      "inputs": [],
      "name": "brandName",
      "outputs": [
        {
          "internalType": "string",
          "name": "",
          "type": "string"
        }
      ],
      "stateMutability": "view",
      "type": "function"
    },
    {
      "inputs": [],
      "name": "brandVotingEndTime",
      "outputs": [
        {
          "internalType": "uint256",
          "name": "",
          "type": "uint256"
        }
      ],
      "stateMutability": "view",
      "type": "function"
    },
    {
      "inputs": [],
      "name": "campaignEndTime",
      "outputs": [
        {
          "internalType": "uint256",
          "name": "",
          "type": "uint256"
        }
      ],
      "stateMutability": "view",
      "type": "function"
    },
    {
      "inputs": [
        {
          "internalType": "uint256",
          "name": "_submissionNumber",
          "type": "uint256"
        }
      ],
      "name": "cashout",
      "outputs": [],
      "stateMutability": "nonpayable",
      "type": "function"
    },
    {
      "inputs": [
        {
          "internalType": "string",
          "name": "_name",
          "type": "string"
        }
      ],
      "name": "changeName",
      "outputs": [],
      "stateMutability": "nonpayable",
      "type": "function"
    },
    {
      "inputs": [],
      "name": "checkForTies",
      "outputs": [],
      "stateMutability": "nonpayable",
      "type": "function"
    },
    {
      "inputs": [
        {
          "internalType": "uint256[3]",
          "name": "nfts",
          "type": "uint256[3]"
        }
      ],
      "name": "createSubmission",
      "outputs": [],
      "stateMutability": "nonpayable",
      "type": "function"
    },
    {
      "inputs": [
        {
          "internalType": "uint256",
          "name": "_submissionNumber",
          "type": "uint256"
        }
      ],
      "name": "fanVote",
      "outputs": [],
      "stateMutability": "nonpayable",
      "type": "function"
    },
    {
      "inputs": [],
      "name": "fanVotingEndTime",
      "outputs": [
        {
          "internalType": "uint256",
          "name": "",
          "type": "uint256"
        }
      ],
      "stateMutability": "view",
      "type": "function"
    },
    {
      "inputs": [],
      "name": "funds",
      "outputs": [
        {
          "internalType": "uint256",
          "name": "",
          "type": "uint256"
        }
      ],
      "stateMutability": "view",
      "type": "function"
    },
    {
      "inputs": [],
      "name": "getName",
      "outputs": [
        {
          "internalType": "string",
          "name": "",
          "type": "string"
        }
      ],
      "stateMutability": "view",
      "type": "function"
    },
    {
      "inputs": [],
      "name": "poolName",
      "outputs": [
        {
          "internalType": "string",
          "name": "",
          "type": "string"
        }
      ],
      "stateMutability": "view",
      "type": "function"
    },
    {
      "inputs": [],
      "name": "seePoolBacking",
      "outputs": [
        {
          "internalType": "uint256",
          "name": "",
          "type": "uint256"
        }
      ],
      "stateMutability": "view",
      "type": "function"
    },
    {
      "inputs": [
        {
          "internalType": "uint256",
          "name": "submissionIndex",
          "type": "uint256"
        }
      ],
      "name": "selectWinner",
      "outputs": [],
      "stateMutability": "nonpayable",
      "type": "function"
    },
    {
      "inputs": [],
      "name": "submissionEndTime",
      "outputs": [
        {
          "internalType": "uint256",
          "name": "",
          "type": "uint256"
        }
      ],
      "stateMutability": "view",
      "type": "function"
    },
    {
      "inputs": [
        {
          "internalType": "uint256",
          "name": "",
          "type": "uint256"
        }
      ],
      "name": "submissions",
      "outputs": [
        {
          "internalType": "uint256",
          "name": "userCount",
          "type": "uint256"
        }
      ],
      "stateMutability": "view",
      "type": "function"
    },
    {
      "inputs": [
        {
          "internalType": "uint256",
          "name": "",
          "type": "uint256"
        }
      ],
      "name": "topTen",
      "outputs": [
        {
          "internalType": "uint256",
          "name": "",
          "type": "uint256"
        }
      ],
      "stateMutability": "view",
      "type": "function"
    },
    {
      "inputs": [
        {
          "internalType": "uint256",
          "name": "",
          "type": "uint256"
        }
      ],
      "name": "topTenAmount",
      "outputs": [
        {
          "internalType": "uint256",
          "name": "",
          "type": "uint256"
        }
      ],
      "stateMutability": "view",
      "type": "function"
    },
    {
      "inputs": [],
      "name": "topTenFound",
      "outputs": [
        {
          "internalType": "bool",
          "name": "",
          "type": "bool"
        }
      ],
      "stateMutability": "view",
      "type": "function"
    }
  ],
  "bytecode": "0x60806040526000602a553480156200001657600080fd5b50604051620025e6380380620025e68339810160408190526200003991620002a6565b600080546001600160a01b038089166001600160a01b03199283161790925560068b905560018054928b16929091169190911790556200007b600a8a620003b6565b602355600280546001600160a01b03808a166001600160a01b03199283161790925560038054928816929091169190911790558a51620000c39060049060208e019062000130565b508951620000d99060059060208d019062000130565b5042620000e7828262000391565b6007819055620000f990859062000391565b60088190556200010b90849062000391565b6009556200011a858262000391565b600a55506200042a9a5050505050505050505050565b8280546200013e90620003d7565b90600052602060002090601f016020900481019282620001625760008555620001ad565b82601f106200017d57805160ff1916838001178555620001ad565b82800160010185558215620001ad579182015b82811115620001ad57825182559160200191906001019062000190565b50620001bb929150620001bf565b5090565b5b80821115620001bb5760008155600101620001c0565b80516001600160a01b0381168114620001ee57600080fd5b919050565b600082601f83011262000204578081fd5b81516001600160401b038082111562000221576200022162000414565b604051601f8301601f19908116603f011681019082821181831017156200024c576200024c62000414565b8160405283815260209250868385880101111562000268578485fd5b8491505b838210156200028b57858201830151818301840152908201906200026c565b838211156200029c57848385830101525b9695505050505050565b60008060008060008060008060008060006101608c8e031215620002c8578687fd5b8b516001600160401b03811115620002de578788fd5b620002ec8e828f01620001f3565b60208e0151909c5090506001600160401b038111156200030a578788fd5b620003188e828f01620001f3565b9a505060408c015198506200033060608d01620001d6565b97506200034060808d01620001d6565b96506200035060a08d01620001d6565b95506200036060c08d01620001d6565b945060e08c015193506101008c015192506101208c015191506101408c015190509295989b509295989b9093969950565b60008219821115620003b157634e487b7160e01b81526011600452602481fd5b500190565b600082620003d257634e487b7160e01b81526012600452602481fd5b500490565b600181811c90821680620003ec57607f821691505b602082108114156200040e57634e487b7160e01b600052602260045260246000fd5b50919050565b634e487b7160e01b600052604160045260246000fd5b6121ac806200043a6000396000f3fe608060405234801561001057600080fd5b50600436106101375760003560e01c80635353a2d8116100b8578063a9e732bb1161007c578063a9e732bb14610235578063ad73349e14610248578063c89f2ce41461026b578063cb30013714610274578063d504887c1461027c578063f3466dfa1461028557600080fd5b80635353a2d8146101d25780635a047364146101e55780635cd68d8b146101f85780637429eee114610215578063886354411461022257600080fd5b806347ba59c9116100ff57806347ba59c9146101915780634c524be4146101a65780634c991657146101b95780635013a158146101c1578063532eaca0146101c957600080fd5b806312498a701461013c57806317d7de7c14610158578063201960651461016d5780633d70209914610175578063461f839b14610188575b600080fd5b610145600a5481565b6040519081526020015b60405180910390f35b61016061028d565b60405161014f9190611fe8565b61016061031f565b610145610183366004611fac565b6103ad565b61014560095481565b6101a461019f366004611e41565b6103c4565b005b6101a46101b4366004611fac565b610734565b6101a4610d28565b6101456110bb565b61014560075481565b6101a46101e0366004611f02565b61113c565b6101a46101f3366004611fac565b61117d565b600b546102059060ff1681565b604051901515815260200161014f565b6028546102059060ff1681565b610145610230366004611fac565b6117c5565b6101a4610243366004611fac565b6117d5565b610145610256366004611fac565b60296020526000908152604090206003015481565b61014560065481565b6101a4611be5565b61014560085481565b610160611d5b565b60606004805461029c906120d4565b80601f01602080910402602001604051908101604052809291908181526020018280546102c8906120d4565b80156103155780601f106102ea57610100808354040283529160200191610315565b820191906000526020600020905b8154815290600101906020018083116102f857829003601f168201915b5050505050905090565b6005805461032c906120d4565b80601f0160208091040260200160405190810160405280929190818152602001828054610358906120d4565b80156103a55780601f1061037a576101008083540402835291602001916103a5565b820191906000526020600020905b81548152906001019060200180831161038857829003601f168201915b505050505081565b601681600a81106103bd57600080fd5b0154905081565b60285460ff1661041b5760405162461bcd60e51b815260206004820152601c60248201527f506f6f6c206973206e6f74206261636b65642062792066756e6473210000000060448201526064015b60405180910390fd5b60075442106104895760405162461bcd60e51b815260206004820152603460248201527f43616e206e6f7420616464207375626d697373696f6e7320647572696e6720746044820152731a194819985b881d9bdd1a5b99c81c195c9a5bd960621b6064820152608401610412565b6001546023546040516323b872dd60e01b81526001600160a01b03909216916323b872dd916104be9133913091600401611fc4565b602060405180830381600087803b1580156104d857600080fd5b505af11580156104ec573d6000803e3d6000fd5b505050506040513d601f19601f820116820180604052508101906105109190611ec3565b6105795760405162461bcd60e51b815260206004820152603460248201527f7472616e6466657246726f6d206661696c65642c207375626d697373696f6e206044820152736e6f74206261636b65642062792066756e64732160601b6064820152608401610412565b60005b600381101561066f576002546001600160a01b03166323b872dd33308585600381106105b857634e487b7160e01b600052603260045260246000fd5b60200201516040518463ffffffff1660e01b81526004016105db93929190611fc4565b600060405180830381600087803b1580156105f557600080fd5b505af1158015610609573d6000803e3d6000fd5b5050602a5460009081526029602052604090209150839050826003811061064057634e487b7160e01b600052603260045260246000fd5b6020908102919091015182546001810184556000938452919092200155806106678161210f565b91505061057c565b5060408051808201825233808252602354602080840191909152602a8054600090815260298084528682209482526001909401835285812081905590548152919052918220600301805491926106c48361210f565b9091555050602a805460009081526029602090815260408220600290810180546001808201835591855283852087519190930290920180546001600160a01b0319166001600160a01b03909316929092178255918501519101558154919061072b8361210f565b91905055505050565b6000546001600160a01b0316331461075e5760405162461bcd60e51b81526004016104129061203b565b60245460ff16156107b15760405162461bcd60e51b815260206004820152601860248201527f416c72656164792073656c65637465642077696e6e65722100000000000000006044820152606401610412565b600a54421161081f5760405162461bcd60e51b815260206004820152603460248201527f43616e206f6e6c792063686f6f736520612077696e6e6572206166746572207460448201527368652063616d706169676e206973206f7665722160601b6064820152608401610412565b60265460ff1661087d5760405162461bcd60e51b815260206004820152602360248201527f596f75206861766520746f2063616c6c2063686563466f72546965732066697260448201526273742160e81b6064820152608401610412565b6024805460ff191660011790556000805b6027548110156108e657602081815481106108b957634e487b7160e01b600052603260045260246000fd5b90600052602060002001548314156108d457600191506108e6565b806108de8161210f565b91505061088e565b508061094c5760405162461bcd60e51b815260206004820152602f60248201527f596f75206d7573742073656c65637420612077696e6e65722066726f6d20746860448201526e6520746f702074656e206c6973742160881b6064820152608401610412565b602282905560028054600084815260296020526040812090920180546001600160a01b03909216926323b872dd923092919061099857634e487b7160e01b600052603260045260246000fd5b60009182526020808320600290920290910154602254835260299091526040822080546001600160a01b039092169290916109e357634e487b7160e01b600052603260045260246000fd5b90600052602060002001546040518463ffffffff1660e01b8152600401610a0c93929190611fc4565b600060405180830381600087803b158015610a2657600080fd5b505af1158015610a3a573d6000803e3d6000fd5b505050600083815260296020526040812060030154909150610a5e906001906120bd565b600360009054906101000a90046001600160a01b03166001600160a01b03166322cce6896040518163ffffffff1660e01b8152600401602060405180830381600087803b158015610aae57600080fd5b505af1158015610ac2573d6000803e3d6000fd5b505050506040513d601f19601f82011682018060405250810190610ae69190611eea565b610af0919061212a565b610afb906001612086565b60008481526029602052604081206002018054929350909183908110610b3157634e487b7160e01b600052603260045260246000fd5b6000918252602080832060029283020154915460225484526029909152604090922080546001600160a01b03928316945091909216916323b872dd91309185916001908110610b9057634e487b7160e01b600052603260045260246000fd5b90600052602060002001546040518463ffffffff1660e01b8152600401610bb993929190611fc4565b600060405180830381600087803b158015610bd357600080fd5b505af1158015610be7573d6000803e3d6000fd5b5050600280546000805460225482526029602052604090912080546001600160a01b0393841696506323b872dd95503094939092169290918110610c3b57634e487b7160e01b600052603260045260246000fd5b90600052602060002001546040518463ffffffff1660e01b8152600401610c6493929190611fc4565b600060405180830381600087803b158015610c7e57600080fd5b505af1158015610c92573d6000803e3d6000fd5b50506001546000546006546040516323b872dd60e01b81526001600160a01b0393841695506323b872dd9450610ccf933093169190600401611fc4565b602060405180830381600087803b158015610ce957600080fd5b505af1158015610cfd573d6000803e3d6000fd5b505050506040513d601f19601f82011682018060405250810190610d219190611ec3565b5050505050565b6000546001600160a01b03163314610d525760405162461bcd60e51b81526004016104129061203b565b6008544211610dbb5760405162461bcd60e51b815260206004820152602f60248201527f43616e6e6f742073656c65637420746f702074656e20756e74696c2066616e2060448201526e766f74696e67206973206f7665722160881b6064820152608401610412565b600a544210610e0c5760405162461bcd60e51b815260206004820152601860248201527f4465636973696f6e20706572696f64206973206f7665722100000000000000006044820152606401610412565b60265460ff1615610e5f5760405162461bcd60e51b815260206004820152601860248201527f416c726561647920636865636b656420666f72207469657300000000000000006044820152606401610412565b6016546000805b600a811015610f5a5782601682600a8110610e9157634e487b7160e01b600052603260045260246000fd5b01541015610f4857601681600a8110610eba57634e487b7160e01b600052603260045260246000fd5b015492508091506020600c82600a8110610ee457634e487b7160e01b600052603260045260246000fd5b0154815460018101835560009283526020909220909101556021601682600a8110610f1f57634e487b7160e01b600052603260045260246000fd5b0154815460018101835560009283526020832001556027805491610f428361210f565b91905055505b80610f528161210f565b915050610e66565b506000805b602a5481101561102a57602354600082815260296020526040902060030154610f8a906001906120bd565b610f94919061209e565b915081841415611018576020805460018181019092557fc97bfaf2f8ee708c303a06d134f5ecd8389ae0432af62dc132a24118292866bb0182905560218054918201815560009081527f3a6357012c1a3ae0a17d304c9920310382d968ebcc4b1771f41c6b304205b57090910183905560278054916110128361210f565b91905055505b806110228161210f565b915050610f5f565b506026805460ff19166001179055600354604051632cdc85e960e21b81524260048201526001600160a01b039091169063b37217a490602401602060405180830381600087803b15801561107d57600080fd5b505af1158015611091573d6000803e3d6000fd5b505050506040513d601f19601f820116820180604052508101906110b59190611eea565b50505050565b6001546040516370a0823160e01b81523060048201526000916001600160a01b0316906370a082319060240160206040518083038186803b1580156110ff57600080fd5b505afa158015611113573d6000803e3d6000fd5b505050506040513d601f19601f820116820180604052508101906111379190611eea565b905090565b6000546001600160a01b031633146111665760405162461bcd60e51b81526004016104129061203b565b8051611179906004906020840190611d68565b5050565b6000546001600160a01b03163314156111e25760405162461bcd60e51b815260206004820152602160248201527f4f6e6c792046616e732063616e2063616c6c20746869732066756e6374696f6e6044820152602160f81b6064820152608401610412565b60285460ff166112345760405162461bcd60e51b815260206004820152601c60248201527f506f6f6c206973206e6f74206261636b65642062792066756e647321000000006044820152606401610412565b6000818152602960205260408120600201805490919061126457634e487b7160e01b600052603260045260246000fd5b60009182526020909120600290910201546001600160a01b03163314156112e35760405162461bcd60e51b815260206004820152602d60248201527f4172746973742063616e206e6f7420766f746520666f72207468656972206f7760448201526c6e207375626d697373696f6e2160981b6064820152608401610412565b6007544210156113535760405162461bcd60e51b815260206004820152603560248201527f43616e206e6f7420737461727420766f74696e6720756e74696c207375626d696044820152747373696f6e20706572696f64206973206f7665722160581b6064820152608401610412565b6009544211156113a55760405162461bcd60e51b815260206004820152601a60248201527f46616e20566f74696e6720506572696f64206973204f766572210000000000006044820152606401610412565b6000818152602960205260408120805482906113d157634e487b7160e01b600052603260045260246000fd5b9060005260206000200154116114375760405162461bcd60e51b815260206004820152602560248201527f546865726520617265206e6f204e46547320696e2074686973207375626d697360448201526473696f6e2160d81b6064820152608401610412565b6001546023546040516323b872dd60e01b81526001600160a01b03909216916323b872dd9161146c9133913091600401611fc4565b602060405180830381600087803b15801561148657600080fd5b505af115801561149a573d6000803e3d6000fd5b505050506040513d601f19601f820116820180604052508101906114be9190611ec3565b6115215760405162461bcd60e51b815260206004820152602e60248201527f7472616e6466657246726f6d206661696c65642c20766f7465206e6f7420626160448201526d636b65642062792066756e64732160901b6064820152608401610412565b60015b6000828152602960205260409020600301548110156115fd57600082815260296020526040902060020180548290811061156e57634e487b7160e01b600052603260045260246000fd5b60009182526020909120600290910201546001600160a01b03163314156115eb5760405162461bcd60e51b815260206004820152602b60248201527f557365722068617320616c726561647920766f74656420666f7220746869732060448201526a7375626d697373696f6e2160a81b6064820152608401610412565b806115f58161210f565b915050611524565b506040805180820182523381526023546020808301918252600085815260298252938420600280820180546001808201835591885293872086519490920290910180546001600160a01b0319166001600160a01b0390941693909317835592519190920155838352600301805491926116758361210f565b909155505060235460008381526029602052604081206003015490919061169e906001906120bd565b6116a8919061209e565b6016549091506000805b600a81101561174b5782601682600a81106116dd57634e487b7160e01b600052603260045260246000fd5b0154101561173957601681600a811061170657634e487b7160e01b600052603260045260246000fd5b01549250809150601681600a811061172e57634e487b7160e01b600052603260045260246000fd5b01546117395761174b565b806117438161210f565b9150506116b2565b50601681600a811061176d57634e487b7160e01b600052603260045260246000fd5b0154831115610d215782601682600a811061179857634e487b7160e01b600052603260045260246000fd5b015584600c82600a81106117bc57634e487b7160e01b600052603260045260246000fd5b01555050505050565b600c81600a81106103bd57600080fd5b600a5442116118365760405162461bcd60e51b815260206004820152602760248201527f43616e206e6f7420636173686f757420756e74696c2063616d706169676e206960448201526673206f7665722160c81b6064820152608401610412565b60008060005b6000848152602960205260409020600301548110156118c757600084815260296020526040902060020180543391908390811061188957634e487b7160e01b600052603260045260246000fd5b60009182526020909120600290910201546001600160a01b031614156118b557600192508091506118c7565b806118bf8161210f565b91505061183c565b5060008381526029602052604081206002018054839081106118f957634e487b7160e01b600052603260045260246000fd5b9060005260206000209060020201600101549050600060296000868152602001908152602001600020600201838154811061194457634e487b7160e01b600052603260045260246000fd5b906000526020600020906002020160010181905550828015611964575081155b15611afe576001546040516323b872dd60e01b81526001600160a01b03909116906323b872dd9061199d90309033908690600401611fc4565b602060405180830381600087803b1580156119b757600080fd5b505af11580156119cb573d6000803e3d6000fd5b505050506040513d601f19601f820116820180604052508101906119ef9190611ec3565b6119f857600080fd5b6022548414611af95760005b6003811015611ac357600254600086815260296020526040902080546001600160a01b03909216916323b872dd91309133919086908110611a5557634e487b7160e01b600052603260045260246000fd5b90600052602060002001546040518463ffffffff1660e01b8152600401611a7e93929190611fc4565b600060405180830381600087803b158015611a9857600080fd5b505af1158015611aac573d6000803e3d6000fd5b505050508080611abb9061210f565b915050611a04565b5060408051606081018252600080825260208083018290528284018290528782526029905291909120611af7916003611dec565b505b6110b5565b8215611b93576001546040516323b872dd60e01b81526001600160a01b03909116906323b872dd90611b3890309033908690600401611fc4565b602060405180830381600087803b158015611b5257600080fd5b505af1158015611b66573d6000803e3d6000fd5b505050506040513d601f19601f82011682018060405250810190611b8a9190611ec3565b611af957600080fd5b60405162461bcd60e51b815260206004820152602160248201527f5573657220776173206e6f7420666f756e6420696e207375626d697373696f6e6044820152602160f81b6064820152608401610412565b6000546001600160a01b03163314611c0f5760405162461bcd60e51b81526004016104129061203b565b60285460ff1615611c625760405162461bcd60e51b815260206004820152601d60248201527f506f6f6c20616c7265616479206261636b65642062792066756e6473210000006044820152606401610412565b6001546006546040516323b872dd60e01b81526001600160a01b03909216916323b872dd91611c979133913091600401611fc4565b602060405180830381600087803b158015611cb157600080fd5b505af1158015611cc5573d6000803e3d6000fd5b505050506040513d601f19601f82011682018060405250810190611ce99190611ec3565b611d4c5760405162461bcd60e51b815260206004820152602e60248201527f7472616e6466657246726f6d206661696c65642c20706f6f6c206e6f7420626160448201526d636b65642062792066756e64732160901b6064820152608401610412565b6028805460ff19166001179055565b6004805461032c906120d4565b828054611d74906120d4565b90600052602060002090601f016020900481019282611d965760008555611ddc565b82601f10611daf57805160ff1916838001178555611ddc565b82800160010185558215611ddc579182015b82811115611ddc578251825591602001919060010190611dc1565b50611de8929150611e2c565b5090565b828054828255906000526020600020908101928215611ddc579160200282015b82811115611ddc578251829060ff16905591602001919060010190611e0c565b5b80821115611de85760008155600101611e2d565b600060608284031215611e52578081fd5b82601f830112611e60578081fd5b6040516060810181811067ffffffffffffffff82111715611e8357611e83612160565b604052808360608101861015611e97578384fd5b835b6003811015611eb8578135835260209283019290910190600101611e99565b509195945050505050565b600060208284031215611ed4578081fd5b81518015158114611ee3578182fd5b9392505050565b600060208284031215611efb578081fd5b5051919050565b600060208284031215611f13578081fd5b813567ffffffffffffffff80821115611f2a578283fd5b818401915084601f830112611f3d578283fd5b813581811115611f4f57611f4f612160565b604051601f8201601f19908116603f01168101908382118183101715611f7757611f77612160565b81604052828152876020848701011115611f8f578586fd5b826020860160208301379182016020019490945295945050505050565b600060208284031215611fbd578081fd5b5035919050565b6001600160a01b039384168152919092166020820152604081019190915260600190565b6000602080835283518082850152825b8181101561201457858101830151858201604001528201611ff8565b818111156120255783604083870101525b50601f01601f1916929092016040019392505050565b6020808252602b908201527f4f6e6c792074686520506f6f6c204f776e65722063616e2063616c6c2074686960408201526a732066756e6374696f6e2160a81b606082015260800190565b600082198211156120995761209961214a565b500190565b60008160001904831182151516156120b8576120b861214a565b500290565b6000828210156120cf576120cf61214a565b500390565b600181811c908216806120e857607f821691505b6020821081141561210957634e487b7160e01b600052602260045260246000fd5b50919050565b60006000198214156121235761212361214a565b5060010190565b60008261214557634e487b7160e01b81526012600452602481fd5b500690565b634e487b7160e01b600052601160045260246000fd5b634e487b7160e01b600052604160045260246000fdfea264697066735822122079f257f6cdbefbc0e5c0b94f667bb2e304f84cf265686d15e41ff3272da90d7a64736f6c63430008040033",
  "linkReferences": {},
  "deployedLinkReferences": {}
}