{
  "_format": "hh-sol-artifact-1",
  "contractName": "PoolFactory",
  "sourceName": "contracts/PoolFactory.sol",
  "abi": [
    {
      "inputs": [
        {
          "internalType": "address",
          "name": "_twitterVerifyAddress",
          "type": "address"
        },
        {
          "internalType": "address",
          "name": "linkTokenAddress",
          "type": "address"
        },
        {
          "internalType": "address",
          "name": "rngAddress",
          "type": "address"
        }
      ],
      "stateMutability": "nonpayable",
      "type": "constructor"
    },
    {
      "anonymous": false,
      "inputs": [
        {
          "indexed": true,
          "internalType": "address",
          "name": "previousOwner",
          "type": "address"
        },
        {
          "indexed": true,
          "internalType": "address",
          "name": "newOwner",
          "type": "address"
        }
      ],
      "name": "OwnershipTransferred",
      "type": "event"
    },
    {
      "inputs": [
        {
          "internalType": "bool",
          "name": "_bool",
          "type": "bool"
        }
      ],
      "name": "changePoolCreationBool",
      "outputs": [],
      "stateMutability": "nonpayable",
      "type": "function"
    },
    {
      "inputs": [
        {
          "internalType": "string",
          "name": "_poolName",
          "type": "string"
        },
        {
          "internalType": "uint256",
          "name": "_capital",
          "type": "uint256"
        },
        {
          "internalType": "address",
          "name": "_capitalAddress",
          "type": "address"
        },
        {
          "internalType": "address",
          "name": "_nftAddress",
          "type": "address"
        },
        {
          "internalType": "uint256",
          "name": "_campaignLength",
          "type": "uint256"
        },
        {
          "internalType": "uint256",
          "name": "_votingLength",
          "type": "uint256"
        },
        {
          "internalType": "uint256",
          "name": "_decisionLength",
          "type": "uint256"
        },
        {
          "internalType": "uint256",
          "name": "_submissionLength",
          "type": "uint256"
        }
      ],
      "name": "createPool",
      "outputs": [],
      "stateMutability": "nonpayable",
      "type": "function"
    },
    {
      "inputs": [
        {
          "internalType": "uint256",
          "name": "_index",
          "type": "uint256"
        }
      ],
      "name": "getPoolAddress",
      "outputs": [
        {
          "internalType": "address",
          "name": "",
          "type": "address"
        }
      ],
      "stateMutability": "view",
      "type": "function"
    },
    {
      "inputs": [],
      "name": "owner",
      "outputs": [
        {
          "internalType": "address",
          "name": "",
          "type": "address"
        }
      ],
      "stateMutability": "view",
      "type": "function"
    },
    {
      "inputs": [],
      "name": "renounceOwnership",
      "outputs": [],
      "stateMutability": "nonpayable",
      "type": "function"
    },
    {
      "inputs": [
        {
          "internalType": "address",
          "name": "_address",
          "type": "address"
        }
      ],
      "name": "setTwitterVerifyAddress",
      "outputs": [],
      "stateMutability": "nonpayable",
      "type": "function"
    },
    {
      "inputs": [
        {
          "internalType": "address",
          "name": "newOwner",
          "type": "address"
        }
      ],
      "name": "transferOwnership",
      "outputs": [],
      "stateMutability": "nonpayable",
      "type": "function"
    }
  ],
  "bytecode": "0x608060405234801561001057600080fd5b506040516136de3803806136de83398101604081905261002f916100e8565b600080546001600160a01b031916339081178255604051909182917f8be0079c531659141344cd1fd0a4f28419497f9722a3daafe3b4186f6b6457e0908290a350600280546001600160a01b039485166001600160a01b031991821681179092556003805482169092179091556004805492851692821692909217909155600680549290931691811682179092556005805490921617905561012a565b80516001600160a01b03811681146100e357600080fd5b919050565b6000806000606084860312156100fc578283fd5b610105846100cc565b9250610113602085016100cc565b9150610121604085016100cc565b90509250925092565b6135a5806101396000396000f3fe60806040523480156200001157600080fd5b5060043610620000865760003560e01c80637bc2ae7c11620000625780637bc2ae7c14620000e15780638da5cb5b14620000f8578063d1954fca146200010a578063f2fde38b146200012157600080fd5b8062a5ae21146200008b57806364c3c34314620000be578063715018a614620000d7575b600080fd5b620000a26200009c36600462000ae8565b62000138565b6040516001600160a01b03909116815260200160405180910390f35b620000d5620000cf36600462000958565b62000177565b005b620000d562000210565b620000d5620000f236600462000a18565b620002c3565b6000546001600160a01b0316620000a2565b620000d56200011b36600462000934565b62000732565b620000d56200013236600462000934565b620007c7565b6000600182815481106200015c57634e487b7160e01b600052603260045260246000fd5b6000918252602090912001546001600160a01b031692915050565b6000546001600160a01b03163314620001d75760405162461bcd60e51b815260206004820181905260248201527f4f776e61626c653a2063616c6c6572206973206e6f7420746865206f776e657260448201526064015b60405180910390fd5b60008054911515600160a01b027fffffffffffffffffffffff00ffffffffffffffffffffffffffffffffffffffff909216919091179055565b6000546001600160a01b031633146200026c5760405162461bcd60e51b815260206004820181905260248201527f4f776e61626c653a2063616c6c6572206973206e6f7420746865206f776e65726044820152606401620001ce565b600080546040516001600160a01b03909116907f8be0079c531659141344cd1fd0a4f28419497f9722a3daafe3b4186f6b6457e0908390a36000805473ffffffffffffffffffffffffffffffffffffffff19169055565b600054600160a01b900460ff16620003445760405162461bcd60e51b815260206004820152602760248201527f506f6f6c206372656174696f6e2069732063757272656e746c79206e6f74206160448201527f6c6c6f77656421000000000000000000000000000000000000000000000000006064820152608401620001ce565b6003546040517f7fc9592d0000000000000000000000000000000000000000000000000000000081523360048201526001600160a01b0390911690637fc9592d90602401602060405180830381600087803b158015620003a357600080fd5b505af1158015620003b8573d6000803e3d6000fd5b505050506040513d601f19601f82011682018060405250810190620003de919062000977565b620004525760405162461bcd60e51b815260206004820152602c60248201527f43616c6c65722061646472657373206973206e6f74207665726966696564207760448201527f69746820547769747465722100000000000000000000000000000000000000006064820152608401620001ce565b600554600480546040517f23b872dd00000000000000000000000000000000000000000000000000000000815233928101929092526001600160a01b03908116602483015267016345785d8a00006044830152909116906323b872dd90606401602060405180830381600087803b158015620004cd57600080fd5b505af1158015620004e2573d6000803e3d6000fd5b505050506040513d601f19601f8201168201806040525081019062000508919062000977565b620005565760405162461bcd60e51b815260206004820152601960248201527f4c696e6b207472616e7366657246726f6d206661696c656421000000000000006044820152606401620001ce565b6003546040517ff15ad2640000000000000000000000000000000000000000000000000000000081523360048201526000918a916001600160a01b039091169063f15ad26490602401600060405180830381600087803b158015620005ba57600080fd5b505af1158015620005cf573d6000803e3d6000fd5b505050506040513d6000823e601f3d908101601f19168201604052620005f9919081019062000996565b89898933600460009054906101000a90046001600160a01b03168b8b8b8b604051620006259062000909565b6200063b9b9a9998979695949392919062000b2f565b604051809103906000f08015801562000658573d6000803e3d6000fd5b506001805480820182556000919091527fb10e2d527612073b26eecdfd717e6a320cf44b4afac2b0732d9fcbe2b7fa0cf601805473ffffffffffffffffffffffffffffffffffffffff19166001600160a01b03838116918217909255600480546040517fe43252d700000000000000000000000000000000000000000000000000000000815291820192909252929350169063e43252d790602401600060405180830381600087803b1580156200070e57600080fd5b505af115801562000723573d6000803e3d6000fd5b50505050505050505050505050565b6000546001600160a01b031633146200078e5760405162461bcd60e51b815260206004820181905260248201527f4f776e61626c653a2063616c6c6572206973206e6f7420746865206f776e65726044820152606401620001ce565b600280546001600160a01b0390921673ffffffffffffffffffffffffffffffffffffffff19928316811790915560038054909216179055565b6000546001600160a01b03163314620008235760405162461bcd60e51b815260206004820181905260248201527f4f776e61626c653a2063616c6c6572206973206e6f7420746865206f776e65726044820152606401620001ce565b6001600160a01b038116620008a15760405162461bcd60e51b815260206004820152602660248201527f4f776e61626c653a206e6577206f776e657220697320746865207a65726f206160448201527f64647265737300000000000000000000000000000000000000000000000000006064820152608401620001ce565b600080546040516001600160a01b03808516939216917f8be0079c531659141344cd1fd0a4f28419497f9722a3daafe3b4186f6b6457e091a36000805473ffffffffffffffffffffffffffffffffffffffff19166001600160a01b0392909216919091179055565b6129058062000c6b83390190565b80356001600160a01b03811681146200092f57600080fd5b919050565b60006020828403121562000946578081fd5b620009518262000917565b9392505050565b6000602082840312156200096a578081fd5b8135620009518162000c58565b60006020828403121562000989578081fd5b8151620009518162000c58565b600060208284031215620009a8578081fd5b815167ffffffffffffffff811115620009bf578182fd5b8201601f81018413620009d0578182fd5b8051620009e7620009e18262000be4565b62000bb0565b818152856020838501011115620009fc578384fd5b62000a0f82602083016020860162000c0f565b95945050505050565b600080600080600080600080610100898b03121562000a35578384fd5b883567ffffffffffffffff81111562000a4c578485fd5b8901601f81018b1362000a5d578485fd5b803562000a6e620009e18262000be4565b8181528c602083850101111562000a83578687fd5b816020840160208301378660208383010152809a505050506020890135965062000ab060408a0162000917565b955062000ac060608a0162000917565b979a969950949760808101359660a0820135965060c0820135955060e0909101359350915050565b60006020828403121562000afa578081fd5b5035919050565b6000815180845262000b1b81602086016020860162000c0f565b601f01601f19169290920160200192915050565b600061016080835262000b458184018f62000b01565b9050828103602084015262000b5b818e62000b01565b604084019c909c5250506001600160a01b039889166060820152968816608088015294871660a08701529290951660c085015260e0840152610100830193909352610120820192909252610140015292915050565b604051601f8201601f1916810167ffffffffffffffff8111828210171562000bdc5762000bdc62000c42565b604052919050565b600067ffffffffffffffff82111562000c015762000c0162000c42565b50601f01601f191660200190565b60005b8381101562000c2c57818101518382015260200162000c12565b8381111562000c3c576000848401525b50505050565b634e487b7160e01b600052604160045260246000fd5b801515811462000c6757600080fd5b5056fe60806040526000602a553480156200001657600080fd5b5060405162002905380380620029058339810160408190526200003991620002a6565b600080546001600160a01b038089166001600160a01b03199283161790925560068b905560018054928b16929091169190911790556200007b600a8a620003b6565b602355600280546001600160a01b03808a166001600160a01b03199283161790925560038054928816929091169190911790558a51620000c39060049060208e019062000130565b508951620000d99060059060208d019062000130565b5043620000e7828262000391565b6007819055620000f990859062000391565b60088190556200010b90849062000391565b6009556200011a858262000391565b600a55506200042a9a5050505050505050505050565b8280546200013e90620003d7565b90600052602060002090601f016020900481019282620001625760008555620001ad565b82601f106200017d57805160ff1916838001178555620001ad565b82800160010185558215620001ad579182015b82811115620001ad57825182559160200191906001019062000190565b50620001bb929150620001bf565b5090565b5b80821115620001bb5760008155600101620001c0565b80516001600160a01b0381168114620001ee57600080fd5b919050565b600082601f83011262000204578081fd5b81516001600160401b038082111562000221576200022162000414565b604051601f8301601f19908116603f011681019082821181831017156200024c576200024c62000414565b8160405283815260209250868385880101111562000268578485fd5b8491505b838210156200028b57858201830151818301840152908201906200026c565b838211156200029c57848385830101525b9695505050505050565b60008060008060008060008060008060006101608c8e031215620002c8578687fd5b8b516001600160401b03811115620002de578788fd5b620002ec8e828f01620001f3565b60208e0151909c5090506001600160401b038111156200030a578788fd5b620003188e828f01620001f3565b9a505060408c015198506200033060608d01620001d6565b97506200034060808d01620001d6565b96506200035060a08d01620001d6565b95506200036060c08d01620001d6565b945060e08c015193506101008c015192506101208c015191506101408c015190509295989b509295989b9093969950565b60008219821115620003b157634e487b7160e01b81526011600452602481fd5b500190565b600082620003d257634e487b7160e01b81526012600452602481fd5b500490565b600181811c90821680620003ec57607f821691505b602082108114156200040e57634e487b7160e01b600052602260045260246000fd5b50919050565b634e487b7160e01b600052604160045260246000fd5b6124cb806200043a6000396000f3fe608060405234801561001057600080fd5b506004361061016c5760003560e01c80635a047364116100cd578063a9e732bb11610081578063c89f2ce411610066578063c89f2ce414610286578063cb3001371461028f578063f3466dfa1461029757600080fd5b8063a9e732bb1461026b578063b278fa4b1461027e57600080fd5b80635cd68d8b116100b25780635cd68d8b1461022e5780637429eee11461024b578063886354411461025857600080fd5b80635a047364146102125780635cbddb9f1461022557600080fd5b80633d702099116101245780634c524be4116101095780634c524be4146101e45780634c991657146101f75780635353a2d8146101ff57600080fd5b80633d702099146101bc57806347ba59c9146101cf57600080fd5b80631b818fb5116101555780631b818fb5146101a257806320196065146101ab5780632180877f146101b357600080fd5b8063156a51d61461017157806317d7de7c1461018d575b600080fd5b61017a60085481565b6040519081526020015b60405180910390f35b61019561029f565b6040516101849190612352565b61017a60075481565b610195610331565b61017a600a5481565b61017a6101ca36600461233a565b6103bf565b6101e26101dd3660046121cf565b6103d6565b005b6101e26101f236600461233a565b610783565b6101e2610e3b565b6101e261020d366004612290565b61112c565b6101e261022036600461233a565b6111b1565b61017a60095481565b600b5461023b9060ff1681565b6040519015158152602001610184565b60285461023b9060ff1681565b61017a61026636600461233a565b61170e565b6101e261027936600461233a565b61171e565b6101e2611b6a565b61017a60065481565b6101e2611f26565b6101956120e9565b6060600480546102ae906123f3565b80601f01602080910402602001604051908101604052809291908181526020018280546102da906123f3565b80156103275780601f106102fc57610100808354040283529160200191610327565b820191906000526020600020905b81548152906001019060200180831161030a57829003601f168201915b5050505050905090565b6005805461033e906123f3565b80601f016020809104026020016040519081016040528092919081815260200182805461036a906123f3565b80156103b75780601f1061038c576101008083540402835291602001916103b7565b820191906000526020600020905b81548152906001019060200180831161039a57829003601f168201915b505050505081565b601681600a81106103cf57600080fd5b0154905081565b60285460ff1661042d5760405162461bcd60e51b815260206004820152601c60248201527f506f6f6c206973206e6f74206261636b65642062792066756e6473210000000060448201526064015b60405180910390fd5b60075443106104a45760405162461bcd60e51b815260206004820152603460248201527f43616e206e6f7420616464207375626d697373696f6e7320647572696e67207460448201527f68652066616e20766f74696e6720706572696f640000000000000000000000006064820152608401610424565b6001546023546040516323b872dd60e01b815233600482015230602482015260448101919091526001600160a01b03909116906323b872dd90606401602060405180830381600087803b1580156104fa57600080fd5b505af115801561050e573d6000803e3d6000fd5b505050506040513d601f19601f820116820180604052508101906105329190612251565b6105a45760405162461bcd60e51b815260206004820152603460248201527f7472616e6466657246726f6d206661696c65642c207375626d697373696f6e2060448201527f6e6f74206261636b65642062792066756e6473210000000000000000000000006064820152608401610424565b60005b60038110156106b1576002546001600160a01b03166323b872dd33308585600381106105e357634e487b7160e01b600052603260045260246000fd5b60200201516040516001600160e01b031960e086901b1681526001600160a01b0393841660048201529290911660248301526044820152606401600060405180830381600087803b15801561063757600080fd5b505af115801561064b573d6000803e3d6000fd5b5050602a5460009081526029602052604090209150839050826003811061068257634e487b7160e01b600052603260045260246000fd5b6020908102919091015182546001810184556000938452919092200155806106a98161242e565b9150506105a7565b5060408051808201825233808252602354602080840191909152602a8054600090815260298084528682209482526001909401835285812081905590548152919052918220600301805491926107068361242e565b9091555050602a8054600090815260296020908152604082206002908101805460018082018355918552838520875191909302909201805473ffffffffffffffffffffffffffffffffffffffff19166001600160a01b03909316929092178255918501519101558154919061077a8361242e565b91905055505050565b6000546001600160a01b031633146107f15760405162461bcd60e51b815260206004820152602b60248201527f4f6e6c792074686520506f6f6c204f776e65722063616e2063616c6c2074686960448201526a732066756e6374696f6e2160a81b6064820152608401610424565b60245460ff16156108445760405162461bcd60e51b815260206004820152601860248201527f416c72656164792073656c65637465642077696e6e65722100000000000000006044820152606401610424565b600a5443116108bb5760405162461bcd60e51b815260206004820152603460248201527f43616e206f6e6c792063686f6f736520612077696e6e6572206166746572207460448201527f68652063616d706169676e206973206f766572210000000000000000000000006064820152608401610424565b60265460ff166109335760405162461bcd60e51b815260206004820152602360248201527f596f75206861766520746f2063616c6c2063686563466f72546965732066697260448201527f73742100000000000000000000000000000000000000000000000000000000006064820152608401610424565b6024805460ff191660011790556000805b60275481101561099c576020818154811061096f57634e487b7160e01b600052603260045260246000fd5b906000526020600020015483141561098a576001915061099c565b806109948161242e565b915050610944565b5080610a105760405162461bcd60e51b815260206004820152602f60248201527f596f75206d7573742073656c65637420612077696e6e65722066726f6d20746860448201527f6520746f702074656e206c6973742100000000000000000000000000000000006064820152608401610424565b602282905560028054600084815260296020526040812090920180546001600160a01b03909216926323b872dd9230929190610a5c57634e487b7160e01b600052603260045260246000fd5b60009182526020808320600290920290910154602254835260299091526040822080546001600160a01b03909216929091610aa757634e487b7160e01b600052603260045260246000fd5b6000918252602090912001546040516001600160e01b031960e086901b1681526001600160a01b0393841660048201529290911660248301526044820152606401600060405180830381600087803b158015610b0257600080fd5b505af1158015610b16573d6000803e3d6000fd5b505050600083815260296020526040812060030154909150610b3a906001906123dc565b600360009054906101000a90046001600160a01b03166001600160a01b03166322cce6896040518163ffffffff1660e01b8152600401602060405180830381600087803b158015610b8a57600080fd5b505af1158015610b9e573d6000803e3d6000fd5b505050506040513d601f19601f82011682018060405250810190610bc29190612278565b610bcc9190612449565b610bd79060016123a5565b60008481526029602052604081206002018054929350909183908110610c0d57634e487b7160e01b600052603260045260246000fd5b6000918252602080832060029283020154915460225484526029909152604090922080546001600160a01b03928316945091909216916323b872dd91309185916001908110610c6c57634e487b7160e01b600052603260045260246000fd5b6000918252602090912001546040516001600160e01b031960e086901b1681526001600160a01b0393841660048201529290911660248301526044820152606401600060405180830381600087803b158015610cc757600080fd5b505af1158015610cdb573d6000803e3d6000fd5b5050600280546000805460225482526029602052604090912080546001600160a01b0393841696506323b872dd95503094939092169290918110610d2f57634e487b7160e01b600052603260045260246000fd5b6000918252602090912001546040516001600160e01b031960e086901b1681526001600160a01b0393841660048201529290911660248301526044820152606401600060405180830381600087803b158015610d8a57600080fd5b505af1158015610d9e573d6000803e3d6000fd5b50506001546000546006546040516323b872dd60e01b81523060048201526001600160a01b0392831660248201526044810191909152911692506323b872dd9150606401602060405180830381600087803b158015610dfc57600080fd5b505af1158015610e10573d6000803e3d6000fd5b505050506040513d601f19601f82011682018060405250810190610e349190612251565b5050505050565b6000546001600160a01b03163314610ea95760405162461bcd60e51b815260206004820152602b60248201527f4f6e6c792074686520506f6f6c204f776e65722063616e2063616c6c2074686960448201526a732066756e6374696f6e2160a81b6064820152608401610424565b600b5460ff16610efb5760405162461bcd60e51b815260206004820152601c60248201527f4e65656420746f2072756e20676574546f7054656e20666972737421000000006044820152606401610424565b60265460ff1615610f4e5760405162461bcd60e51b815260206004820152601860248201527f416c726561647920636865636b656420666f72207469657300000000000000006044820152606401610424565b6016546000805b600a8110156110495782601682600a8110610f8057634e487b7160e01b600052603260045260246000fd5b0154101561103757601681600a8110610fa957634e487b7160e01b600052603260045260246000fd5b015492508091506020600c82600a8110610fd357634e487b7160e01b600052603260045260246000fd5b0154815460018101835560009283526020909220909101556021601682600a811061100e57634e487b7160e01b600052603260045260246000fd5b01548154600181018355600092835260208320015560278054916110318361242e565b91905055505b806110418161242e565b915050610f55565b506000805b602a5481101561111957602354600082815260296020526040902060030154611079906001906123dc565b61108391906123bd565b915081841415611107576020805460018181019092557fc97bfaf2f8ee708c303a06d134f5ecd8389ae0432af62dc132a24118292866bb0182905560218054918201815560009081527f3a6357012c1a3ae0a17d304c9920310382d968ebcc4b1771f41c6b304205b57090910183905560278054916111018361242e565b91905055505b806111118161242e565b91505061104e565b50506026805460ff191660011790555050565b6000546001600160a01b0316331461119a5760405162461bcd60e51b815260206004820152602b60248201527f4f6e6c792074686520506f6f6c204f776e65722063616e2063616c6c2074686960448201526a732066756e6374696f6e2160a81b6064820152608401610424565b80516111ad9060049060208401906120f6565b5050565b6000546001600160a01b03163314156112165760405162461bcd60e51b815260206004820152602160248201527f4f6e6c792046616e732063616e2063616c6c20746869732066756e6374696f6e6044820152602160f81b6064820152608401610424565b60285460ff166112685760405162461bcd60e51b815260206004820152601c60248201527f506f6f6c206973206e6f74206261636b65642062792066756e647321000000006044820152606401610424565b6000818152602960205260408120600201805490919061129857634e487b7160e01b600052603260045260246000fd5b60009182526020909120600290910201546001600160a01b03163314156113275760405162461bcd60e51b815260206004820152602d60248201527f4172746973742063616e206e6f7420766f746520666f72207468656972206f7760448201527f6e207375626d697373696f6e21000000000000000000000000000000000000006064820152608401610424565b60075443101561139f5760405162461bcd60e51b815260206004820152603560248201527f43616e206e6f7420737461727420766f74696e6720756e74696c207375626d6960448201527f7373696f6e20706572696f64206973206f7665722100000000000000000000006064820152608401610424565b6009544311156113f15760405162461bcd60e51b815260206004820152601a60248201527f46616e20566f74696e6720506572696f64206973204f766572210000000000006044820152606401610424565b60008181526029602052604081208054829061141d57634e487b7160e01b600052603260045260246000fd5b90600052602060002001541161149b5760405162461bcd60e51b815260206004820152602560248201527f546865726520617265206e6f204e46547320696e2074686973207375626d697360448201527f73696f6e210000000000000000000000000000000000000000000000000000006064820152608401610424565b6001546023546040516323b872dd60e01b815233600482015230602482015260448101919091526001600160a01b03909116906323b872dd90606401602060405180830381600087803b1580156114f157600080fd5b505af1158015611505573d6000803e3d6000fd5b505050506040513d601f19601f820116820180604052508101906115299190612251565b61159b5760405162461bcd60e51b815260206004820152602e60248201527f7472616e6466657246726f6d206661696c65642c20766f7465206e6f7420626160448201527f636b65642062792066756e6473210000000000000000000000000000000000006064820152608401610424565b60015b6000828152602960205260409020600301548110156116895760008281526029602052604090206002018054829081106115e857634e487b7160e01b600052603260045260246000fd5b60009182526020909120600290910201546001600160a01b03163314156116775760405162461bcd60e51b815260206004820152602b60248201527f557365722068617320616c726561647920766f74656420666f7220746869732060448201527f7375626d697373696f6e210000000000000000000000000000000000000000006064820152608401610424565b806116818161242e565b91505061159e565b5060408051808201825233815260235460208083019182526000858152602982529384206002808201805460018082018355918852938720865194909202909101805473ffffffffffffffffffffffffffffffffffffffff19166001600160a01b03909416939093178355925191909201558383526003018054919261077a8361242e565b600c81600a81106103cf57600080fd5b600a5443116117955760405162461bcd60e51b815260206004820152602760248201527f43616e206e6f7420636173686f757420756e74696c2063616d706169676e206960448201527f73206f76657221000000000000000000000000000000000000000000000000006064820152608401610424565b60008060005b6000848152602960205260409020600301548110156118265760008481526029602052604090206002018054339190839081106117e857634e487b7160e01b600052603260045260246000fd5b60009182526020909120600290910201546001600160a01b031614156118145760019250809150611826565b8061181e8161242e565b91505061179b565b50600083815260296020526040812060020180548390811061185857634e487b7160e01b600052603260045260246000fd5b906000526020600020906002020160010154905060006029600086815260200190815260200160002060020183815481106118a357634e487b7160e01b600052603260045260246000fd5b9060005260206000209060020201600101819055508280156118c3575081155b15611a79576001546040516323b872dd60e01b8152306004820152336024820152604481018390526001600160a01b03909116906323b872dd90606401602060405180830381600087803b15801561191a57600080fd5b505af115801561192e573d6000803e3d6000fd5b505050506040513d601f19601f820116820180604052508101906119529190612251565b61195b57600080fd5b6022548414611a745760005b6003811015611a3e57600254600086815260296020526040902080546001600160a01b03909216916323b872dd913091339190869081106119b857634e487b7160e01b600052603260045260246000fd5b6000918252602090912001546040516001600160e01b031960e086901b1681526001600160a01b0393841660048201529290911660248301526044820152606401600060405180830381600087803b158015611a1357600080fd5b505af1158015611a27573d6000803e3d6000fd5b505050508080611a369061242e565b915050611967565b5060408051606081018252600080825260208083018290528284018290528782526029905291909120611a7291600361217a565b505b611b64565b8215611b12576001546040516323b872dd60e01b8152306004820152336024820152604481018390526001600160a01b03909116906323b872dd90606401602060405180830381600087803b158015611ad157600080fd5b505af1158015611ae5573d6000803e3d6000fd5b505050506040513d601f19601f82011682018060405250810190611b099190612251565b611a7457600080fd5b60405162461bcd60e51b815260206004820152602160248201527f5573657220776173206e6f7420666f756e6420696e207375626d697373696f6e6044820152602160f81b6064820152608401610424565b50505050565b6000546001600160a01b03163314611bd85760405162461bcd60e51b815260206004820152602b60248201527f4f6e6c792074686520506f6f6c204f776e65722063616e2063616c6c2074686960448201526a732066756e6374696f6e2160a81b6064820152608401610424565b602a5460255410611c515760405162461bcd60e51b815260206004820152602b60248201527f416c726561647920666f756e6420746f702074656e2066726f6d20616c6c207360448201527f75626d697373696f6e73210000000000000000000000000000000000000000006064820152608401610424565b6008544311611cc85760405162461bcd60e51b815260206004820152602f60248201527f43616e6e6f742073656c65637420746f702074656e20756e74696c2066616e2060448201527f766f74696e67206973206f7665722100000000000000000000000000000000006064820152608401610424565b6000806000805b60645a118015611ce25750602a54602554105b15611e6b57602354602554600090815260296020526040902060030154611d0b906001906123dc565b611d1591906123bd565b6016549450600093509150829050805b600a811015611e0d57601681600a8110611d4f57634e487b7160e01b600052603260045260246000fd5b0154611da85782601682600a8110611d7757634e487b7160e01b600052603260045260246000fd5b0155602554600c82600a8110611d9d57634e487b7160e01b600052603260045260246000fd5b015560019150611e0d565b84601682600a8110611dca57634e487b7160e01b600052603260045260246000fd5b01541015611dfb57601681600a8110611df357634e487b7160e01b600052603260045260246000fd5b015494508093505b80611e058161242e565b915050611d25565b5080611e665783821115611e665781601684600a8110611e3d57634e487b7160e01b600052603260045260246000fd5b0155602554600c84600a8110611e6357634e487b7160e01b600052603260045260246000fd5b01555b611ccf565b602554611e799060016123a5565b6025556003546040517fb37217a40000000000000000000000000000000000000000000000000000000081524360048201526001600160a01b039091169063b37217a490602401602060405180830381600087803b158015611eda57600080fd5b505af1158015611eee573d6000803e3d6000fd5b505050506040513d601f19601f82011682018060405250810190611f129190612278565b5050600b805460ff19166001179055505050565b6000546001600160a01b03163314611f945760405162461bcd60e51b815260206004820152602b60248201527f4f6e6c792074686520506f6f6c204f776e65722063616e2063616c6c2074686960448201526a732066756e6374696f6e2160a81b6064820152608401610424565b60285460ff1615611fe75760405162461bcd60e51b815260206004820152601d60248201527f506f6f6c20616c7265616479206261636b65642062792066756e6473210000006044820152606401610424565b6001546006546040516323b872dd60e01b815233600482015230602482015260448101919091526001600160a01b03909116906323b872dd90606401602060405180830381600087803b15801561203d57600080fd5b505af1158015612051573d6000803e3d6000fd5b505050506040513d601f19601f820116820180604052508101906120759190612251565b6120e75760405162461bcd60e51b815260206004820152602e60248201527f7472616e6466657246726f6d206661696c65642c20706f6f6c206e6f7420626160448201527f636b65642062792066756e6473210000000000000000000000000000000000006064820152608401610424565b565b6004805461033e906123f3565b828054612102906123f3565b90600052602060002090601f016020900481019282612124576000855561216a565b82601f1061213d57805160ff191683800117855561216a565b8280016001018555821561216a579182015b8281111561216a57825182559160200191906001019061214f565b506121769291506121ba565b5090565b82805482825590600052602060002090810192821561216a579160200282015b8281111561216a578251829060ff1690559160200191906001019061219a565b5b8082111561217657600081556001016121bb565b6000606082840312156121e0578081fd5b82601f8301126121ee578081fd5b6040516060810181811067ffffffffffffffff821117156122115761221161247f565b604052808360608101861015612225578384fd5b835b6003811015612246578135835260209283019290910190600101612227565b509195945050505050565b600060208284031215612262578081fd5b81518015158114612271578182fd5b9392505050565b600060208284031215612289578081fd5b5051919050565b6000602082840312156122a1578081fd5b813567ffffffffffffffff808211156122b8578283fd5b818401915084601f8301126122cb578283fd5b8135818111156122dd576122dd61247f565b604051601f8201601f19908116603f011681019083821181831017156123055761230561247f565b8160405282815287602084870101111561231d578586fd5b826020860160208301379182016020019490945295945050505050565b60006020828403121561234b578081fd5b5035919050565b6000602080835283518082850152825b8181101561237e57858101830151858201604001528201612362565b8181111561238f5783604083870101525b50601f01601f1916929092016040019392505050565b600082198211156123b8576123b8612469565b500190565b60008160001904831182151516156123d7576123d7612469565b500290565b6000828210156123ee576123ee612469565b500390565b600181811c9082168061240757607f821691505b6020821081141561242857634e487b7160e01b600052602260045260246000fd5b50919050565b600060001982141561244257612442612469565b5060010190565b60008261246457634e487b7160e01b81526012600452602481fd5b500690565b634e487b7160e01b600052601160045260246000fd5b634e487b7160e01b600052604160045260246000fdfea264697066735822122081c9bcb0037ce6faa2a9f9c5defb6403dbd6c3e3341e3d0ba37b92387613f32564736f6c63430008040033a2646970667358221220054dfeaf10c6eebae03c26f7b69687b286e61650bfa2de1fa920b5637e9e84ec64736f6c63430008040033",
  "linkReferences": {},
  "deployedLinkReferences": {}
}