{
  "_format": "hh-sol-artifact-1",
  "contractName": "PoolFactory",
  "sourceName": "contracts/PoolFactory.sol",
  "abi": [
    {
      "inputs": [
        {
          "internalType": "address",
          "name": "_twitterVerifyAddress",
          "type": "address"
        }
      ],
      "stateMutability": "nonpayable",
      "type": "constructor"
    },
    {
      "anonymous": false,
      "inputs": [
        {
          "indexed": true,
          "internalType": "address",
          "name": "previousOwner",
          "type": "address"
        },
        {
          "indexed": true,
          "internalType": "address",
          "name": "newOwner",
          "type": "address"
        }
      ],
      "name": "OwnershipTransferred",
      "type": "event"
    },
    {
      "inputs": [
        {
          "internalType": "bool",
          "name": "_bool",
          "type": "bool"
        }
      ],
      "name": "changePoolCreationBool",
      "outputs": [],
      "stateMutability": "nonpayable",
      "type": "function"
    },
    {
      "inputs": [
        {
          "internalType": "string",
          "name": "_poolName",
          "type": "string"
        },
        {
          "internalType": "uint256",
          "name": "_capital",
          "type": "uint256"
        },
        {
          "internalType": "address",
          "name": "_capitalAddress",
          "type": "address"
        },
        {
          "internalType": "address",
          "name": "_nftAddress",
          "type": "address"
        },
        {
          "internalType": "address",
          "name": "_rng",
          "type": "address"
        },
        {
          "internalType": "uint256",
          "name": "_campaignLength",
          "type": "uint256"
        },
        {
          "internalType": "uint256",
          "name": "_votingLength",
          "type": "uint256"
        },
        {
          "internalType": "uint256",
          "name": "_decisionLength",
          "type": "uint256"
        },
        {
          "internalType": "uint256",
          "name": "_submissionLength",
          "type": "uint256"
        }
      ],
      "name": "createPool",
      "outputs": [],
      "stateMutability": "nonpayable",
      "type": "function"
    },
    {
      "inputs": [],
      "name": "owner",
      "outputs": [
        {
          "internalType": "address",
          "name": "",
          "type": "address"
        }
      ],
      "stateMutability": "view",
      "type": "function"
    },
    {
      "inputs": [],
      "name": "renounceOwnership",
      "outputs": [],
      "stateMutability": "nonpayable",
      "type": "function"
    },
    {
      "inputs": [
        {
          "internalType": "address",
          "name": "_address",
          "type": "address"
        }
      ],
      "name": "setTwitterVerifyAddress",
      "outputs": [],
      "stateMutability": "nonpayable",
      "type": "function"
    },
    {
      "inputs": [
        {
          "internalType": "address",
          "name": "newOwner",
          "type": "address"
        }
      ],
      "name": "transferOwnership",
      "outputs": [],
      "stateMutability": "nonpayable",
      "type": "function"
    }
  ],
  "bytecode": "0x608060405234801561001057600080fd5b506040516131ac3803806131ac83398101604081905261002f9161009f565b600080546001600160a01b031916339081178255604051909182917f8be0079c531659141344cd1fd0a4f28419497f9722a3daafe3b4186f6b6457e0908290a350600280546001600160a01b039092166001600160a01b03199283168117909155600380549092161790556100cd565b6000602082840312156100b0578081fd5b81516001600160a01b03811681146100c6578182fd5b9392505050565b6130d0806100dc6000396000f3fe60806040523480156200001157600080fd5b50600436106200007b5760003560e01c8063d1954fca1162000056578063d1954fca14620000c2578063f2fde38b14620000d9578063f9e8dab714620000f057600080fd5b806364c3c3431462000080578063715018a614620000995780638da5cb5b14620000a3575b600080fd5b620000976200009136600462000660565b62000107565b005b62000097620001b1565b600054604080516001600160a01b039092168252519081900360200190f35b62000097620000d33660046200063c565b62000264565b62000097620000ea3660046200063c565b620002f9565b62000097620001013660046200067f565b6200043b565b6000546001600160a01b03163314620001675760405162461bcd60e51b815260206004820181905260248201527f4f776e61626c653a2063616c6c6572206973206e6f7420746865206f776e657260448201526064015b60405180910390fd5b6000805491151574010000000000000000000000000000000000000000027fffffffffffffffffffffff00ffffffffffffffffffffffffffffffffffffffff909216919091179055565b6000546001600160a01b031633146200020d5760405162461bcd60e51b815260206004820181905260248201527f4f776e61626c653a2063616c6c6572206973206e6f7420746865206f776e657260448201526064016200015e565b600080546040516001600160a01b03909116907f8be0079c531659141344cd1fd0a4f28419497f9722a3daafe3b4186f6b6457e0908390a36000805473ffffffffffffffffffffffffffffffffffffffff19169055565b6000546001600160a01b03163314620002c05760405162461bcd60e51b815260206004820181905260248201527f4f776e61626c653a2063616c6c6572206973206e6f7420746865206f776e657260448201526064016200015e565b600280546001600160a01b0390921673ffffffffffffffffffffffffffffffffffffffff19928316811790915560038054909216179055565b6000546001600160a01b03163314620003555760405162461bcd60e51b815260206004820181905260248201527f4f776e61626c653a2063616c6c6572206973206e6f7420746865206f776e657260448201526064016200015e565b6001600160a01b038116620003d35760405162461bcd60e51b815260206004820152602660248201527f4f776e61626c653a206e6577206f776e657220697320746865207a65726f206160448201527f646472657373000000000000000000000000000000000000000000000000000060648201526084016200015e565b600080546040516001600160a01b03808516939216917f8be0079c531659141344cd1fd0a4f28419497f9722a3daafe3b4186f6b6457e091a36000805473ffffffffffffffffffffffffffffffffffffffff19166001600160a01b0392909216919091179055565b6003546040517f7fc9592d0000000000000000000000000000000000000000000000000000000081523360048201526000916001600160a01b031690637fc9592d90602401600060405180830381600087803b1580156200049b57600080fd5b505af1158015620004b0573d6000803e3d6000fd5b505050506040513d6000823e601f3d908101601f19168201604052620004da919081019062000769565b90508060200151620005555760405162461bcd60e51b815260206004820152602c60248201527f43616c6c65722061646472657373206973206e6f74207665726966696564207760448201527f697468205477697474657221000000000000000000000000000000000000000060648201526084016200015e565b60008a82604001518b8b8b338c8c8c8c8c604051620005749062000611565b6200058a9b9a9998979695949392919062000865565b604051809103906000f080158015620005a7573d6000803e3d6000fd5b506001805480820182556000919091527fb10e2d527612073b26eecdfd717e6a320cf44b4afac2b0732d9fcbe2b7fa0cf601805473ffffffffffffffffffffffffffffffffffffffff19166001600160a01b03929092169190911790555050505050505050505050565b6126b580620009e683390190565b80356001600160a01b03811681146200063757600080fd5b919050565b6000602082840312156200064e578081fd5b62000659826200061f565b9392505050565b60006020828403121562000672578081fd5b81356200065981620009d3565b60008060008060008060008060006101208a8c0312156200069e578485fd5b893567ffffffffffffffff811115620006b5578586fd5b8a01601f81018c13620006c6578586fd5b8035620006dd620006d78262000946565b62000912565b8181528d6020838501011115620006f2578788fd5b816020840160208301378760208383010152809b5050505060208a013597506200071f60408b016200061f565b96506200072f60608b016200061f565b95506200073f60808b016200061f565b989b979a50959894979660a0860135965060c08601359560e0810135955061010001359350915050565b600060208083850312156200077c578182fd5b825167ffffffffffffffff8082111562000794578384fd5b9084019060608287031215620007a8578384fd5b620007b2620008e6565b8251815283830151620007c581620009d3565b81850152604083015182811115620007db578586fd5b80840193505086601f840112620007f0578485fd5b8251915062000803620006d78362000946565b828152878584860101111562000817578586fd5b620008288386830187870162000971565b60408201529695505050505050565b600081518084526200085181602086016020860162000971565b601f01601f19169290920160200192915050565b60006101608083526200087b8184018f62000837565b9050828103602084015262000891818e62000837565b604084019c909c5250506001600160a01b039889166060820152968816608088015294871660a08701529290951660c085015260e0840152610100830193909352610120820192909252610140015292915050565b6040516060810167ffffffffffffffff811182821017156200090c576200090c620009a4565b60405290565b604051601f8201601f1916810167ffffffffffffffff811182821017156200093e576200093e620009a4565b604052919050565b600067ffffffffffffffff821115620009635762000963620009a4565b50601f01601f191660200190565b60005b838110156200098e57818101518382015260200162000974565b838111156200099e576000848401525b50505050565b7f4e487b7100000000000000000000000000000000000000000000000000000000600052604160045260246000fd5b8015158114620009e257600080fd5b5056fe608060405260006029553480156200001657600080fd5b50604051620026b5380380620026b58339810160408190526200003991620003bd565b600080546001600160a01b03199081166001600160a01b0389811691821790935560068c905560018054909216928b169283179091556040516323b872dd60e01b81526004810191909152306024820152604481018b90526323b872dd90606401602060405180830381600087803b158015620000b557600080fd5b505af1158015620000ca573d6000803e3d6000fd5b505050506040513d601f19601f82011682018060405250810190620000f0919062000394565b620001585760405162461bcd60e51b815260206004820152602e60248201527f7472616e6466657246726f6d206661696c65642c20706f6f6c206e6f7420626160448201526d636b65642062792066756e64732160901b606482015260840160405180910390fd5b600a600654620001699190620004cd565b602355600280546001600160a01b03808a166001600160a01b03199283161790925560038054928816929091169190911790558a51620001b19060049060208e01906200021e565b508951620001c79060059060208d01906200021e565b5043620001d58282620004a8565b6007819055620001e7908590620004a8565b6008819055620001f9908490620004a8565b600955620002088582620004a8565b600a5550620005419a5050505050505050505050565b8280546200022c90620004ee565b90600052602060002090601f0160209004810192826200025057600085556200029b565b82601f106200026b57805160ff19168380011785556200029b565b828001600101855582156200029b579182015b828111156200029b5782518255916020019190600101906200027e565b50620002a9929150620002ad565b5090565b5b80821115620002a95760008155600101620002ae565b80516001600160a01b0381168114620002dc57600080fd5b919050565b600082601f830112620002f2578081fd5b81516001600160401b03808211156200030f576200030f6200052b565b604051601f8301601f19908116603f011681019082821181831017156200033a576200033a6200052b565b8160405283815260209250868385880101111562000356578485fd5b8491505b838210156200037957858201830151818301840152908201906200035a565b838211156200038a57848385830101525b9695505050505050565b600060208284031215620003a6578081fd5b81518015158114620003b6578182fd5b9392505050565b60008060008060008060008060008060006101608c8e031215620003df578687fd5b8b516001600160401b03811115620003f5578788fd5b620004038e828f01620002e1565b60208e0151909c5090506001600160401b0381111562000421578788fd5b6200042f8e828f01620002e1565b9a505060408c015198506200044760608d01620002c4565b97506200045760808d01620002c4565b96506200046760a08d01620002c4565b95506200047760c08d01620002c4565b945060e08c015193506101008c015192506101208c015191506101408c015190509295989b509295989b9093969950565b60008219821115620004c857634e487b7160e01b81526011600452602481fd5b500190565b600082620004e957634e487b7160e01b81526012600452602481fd5b500490565b600181811c908216806200050357607f821691505b602082108114156200052557634e487b7160e01b600052602260045260246000fd5b50919050565b634e487b7160e01b600052604160045260246000fd5b61216480620005516000396000f3fe608060405234801561001057600080fd5b506004361061011b5760003560e01c80635353a2d8116100b25780638863544111610081578063b278fa4b11610066578063b278fa4b14610218578063c89f2ce414610220578063f3466dfa1461022957600080fd5b806388635441146101f2578063a9e732bb1461020557600080fd5b80635353a2d8146101a65780635a047364146101b95780635cbddb9f146101cc5780635cd68d8b146101d557600080fd5b80633d702099116100ee5780633d7020991461016357806347ba59c9146101765780634c524be41461018b5780634c9916571461019e57600080fd5b8063156a51d6146101205780631b818fb51461013c57806320196065146101455780632180877f1461015a575b600080fd5b61012960085481565b6040519081526020015b60405180910390f35b61012960075481565b61014d610231565b6040516101339190611feb565b610129600a5481565b610129610171366004611fd3565b6102bf565b610189610184366004611e68565b6102d6565b005b610189610199366004611fd3565b610631565b610189610ce9565b6101896101b4366004611f29565b610fda565b6101896101c7366004611fd3565b61105f565b61012960095481565b600b546101e29060ff1681565b6040519015158152602001610133565b610129610200366004611fd3565b61156a565b610189610213366004611fd3565b61157a565b6101896119c6565b61012960065481565b61014d611d82565b6005805461023e9061208c565b80601f016020809104026020016040519081016040528092919081815260200182805461026a9061208c565b80156102b75780601f1061028c576101008083540402835291602001916102b7565b820191906000526020600020905b81548152906001019060200180831161029a57829003601f168201915b505050505081565b601681600a81106102cf57600080fd5b0154905081565b60075443106103525760405162461bcd60e51b815260206004820152603460248201527f43616e206e6f7420616464207375626d697373696f6e7320647572696e67207460448201527f68652066616e20766f74696e6720706572696f6400000000000000000000000060648201526084015b60405180910390fd5b6001546023546040516323b872dd60e01b815233600482015230602482015260448101919091526001600160a01b03909116906323b872dd90606401602060405180830381600087803b1580156103a857600080fd5b505af11580156103bc573d6000803e3d6000fd5b505050506040513d601f19601f820116820180604052508101906103e09190611eea565b6104525760405162461bcd60e51b815260206004820152603460248201527f7472616e6466657246726f6d206661696c65642c207375626d697373696f6e2060448201527f6e6f74206261636b65642062792066756e6473210000000000000000000000006064820152608401610349565b60005b600381101561055f576002546001600160a01b03166323b872dd333085856003811061049157634e487b7160e01b600052603260045260246000fd5b60200201516040516001600160e01b031960e086901b1681526001600160a01b0393841660048201529290911660248301526044820152606401600060405180830381600087803b1580156104e557600080fd5b505af11580156104f9573d6000803e3d6000fd5b505060295460009081526028602052604090209150839050826003811061053057634e487b7160e01b600052603260045260246000fd5b602090810291909101518254600181018455600093845291909220015580610557816120c7565b915050610455565b506040805180820182523380825260235460208084019190915260298054600090815260288084528682209482526001909401835285812081905590548152919052918220600301805491926105b4836120c7565b909155505060298054600090815260286020908152604082206002908101805460018082018355918552838520875191909302909201805473ffffffffffffffffffffffffffffffffffffffff19166001600160a01b039093169290921782559185015191015581549190610628836120c7565b91905055505050565b6000546001600160a01b0316331461069f5760405162461bcd60e51b815260206004820152602b60248201527f4f6e6c792074686520506f6f6c204f776e65722063616e2063616c6c2074686960448201526a732066756e6374696f6e2160a81b6064820152608401610349565b60245460ff16156106f25760405162461bcd60e51b815260206004820152601860248201527f416c72656164792073656c65637465642077696e6e65722100000000000000006044820152606401610349565b600a5443116107695760405162461bcd60e51b815260206004820152603460248201527f43616e206f6e6c792063686f6f736520612077696e6e6572206166746572207460448201527f68652063616d706169676e206973206f766572210000000000000000000000006064820152608401610349565b60265460ff166107e15760405162461bcd60e51b815260206004820152602360248201527f596f75206861766520746f2063616c6c2063686563466f72546965732066697260448201527f73742100000000000000000000000000000000000000000000000000000000006064820152608401610349565b6024805460ff191660011790556000805b60275481101561084a576020818154811061081d57634e487b7160e01b600052603260045260246000fd5b9060005260206000200154831415610838576001915061084a565b80610842816120c7565b9150506107f2565b50806108be5760405162461bcd60e51b815260206004820152602f60248201527f596f75206d7573742073656c65637420612077696e6e65722066726f6d20746860448201527f6520746f702074656e206c6973742100000000000000000000000000000000006064820152608401610349565b602282905560028054600084815260286020526040812090920180546001600160a01b03909216926323b872dd923092919061090a57634e487b7160e01b600052603260045260246000fd5b60009182526020808320600290920290910154602254835260289091526040822080546001600160a01b0390921692909161095557634e487b7160e01b600052603260045260246000fd5b6000918252602090912001546040516001600160e01b031960e086901b1681526001600160a01b0393841660048201529290911660248301526044820152606401600060405180830381600087803b1580156109b057600080fd5b505af11580156109c4573d6000803e3d6000fd5b5050506000838152602860205260408120600301549091506109e890600190612075565b600360009054906101000a90046001600160a01b03166001600160a01b03166322cce6896040518163ffffffff1660e01b8152600401602060405180830381600087803b158015610a3857600080fd5b505af1158015610a4c573d6000803e3d6000fd5b505050506040513d601f19601f82011682018060405250810190610a709190611f11565b610a7a91906120e2565b610a8590600161203e565b60008481526028602052604081206002018054929350909183908110610abb57634e487b7160e01b600052603260045260246000fd5b6000918252602080832060029283020154915460225484526028909152604090922080546001600160a01b03928316945091909216916323b872dd91309185916001908110610b1a57634e487b7160e01b600052603260045260246000fd5b6000918252602090912001546040516001600160e01b031960e086901b1681526001600160a01b0393841660048201529290911660248301526044820152606401600060405180830381600087803b158015610b7557600080fd5b505af1158015610b89573d6000803e3d6000fd5b5050600280546000805460225482526028602052604090912080546001600160a01b0393841696506323b872dd95503094939092169290918110610bdd57634e487b7160e01b600052603260045260246000fd5b6000918252602090912001546040516001600160e01b031960e086901b1681526001600160a01b0393841660048201529290911660248301526044820152606401600060405180830381600087803b158015610c3857600080fd5b505af1158015610c4c573d6000803e3d6000fd5b50506001546000546006546040516323b872dd60e01b81523060048201526001600160a01b0392831660248201526044810191909152911692506323b872dd9150606401602060405180830381600087803b158015610caa57600080fd5b505af1158015610cbe573d6000803e3d6000fd5b505050506040513d601f19601f82011682018060405250810190610ce29190611eea565b5050505050565b6000546001600160a01b03163314610d575760405162461bcd60e51b815260206004820152602b60248201527f4f6e6c792074686520506f6f6c204f776e65722063616e2063616c6c2074686960448201526a732066756e6374696f6e2160a81b6064820152608401610349565b600b5460ff16610da95760405162461bcd60e51b815260206004820152601c60248201527f4e65656420746f2072756e20676574546f7054656e20666972737421000000006044820152606401610349565b60265460ff1615610dfc5760405162461bcd60e51b815260206004820152601860248201527f416c726561647920636865636b656420666f72207469657300000000000000006044820152606401610349565b6016546000805b600a811015610ef75782601682600a8110610e2e57634e487b7160e01b600052603260045260246000fd5b01541015610ee557601681600a8110610e5757634e487b7160e01b600052603260045260246000fd5b015492508091506020600c82600a8110610e8157634e487b7160e01b600052603260045260246000fd5b0154815460018101835560009283526020909220909101556021601682600a8110610ebc57634e487b7160e01b600052603260045260246000fd5b0154815460018101835560009283526020832001556027805491610edf836120c7565b91905055505b80610eef816120c7565b915050610e03565b506000805b602954811015610fc757602354600082815260286020526040902060030154610f2790600190612075565b610f319190612056565b915081841415610fb5576020805460018181019092557fc97bfaf2f8ee708c303a06d134f5ecd8389ae0432af62dc132a24118292866bb0182905560218054918201815560009081527f3a6357012c1a3ae0a17d304c9920310382d968ebcc4b1771f41c6b304205b5709091018390556027805491610faf836120c7565b91905055505b80610fbf816120c7565b915050610efc565b50506026805460ff191660011790555050565b6000546001600160a01b031633146110485760405162461bcd60e51b815260206004820152602b60248201527f4f6e6c792074686520506f6f6c204f776e65722063616e2063616c6c2074686960448201526a732066756e6374696f6e2160a81b6064820152608401610349565b805161105b906004906020840190611d8f565b5050565b6000546001600160a01b03163314156110c45760405162461bcd60e51b815260206004820152602160248201527f4f6e6c792046616e732063616e2063616c6c20746869732066756e6374696f6e6044820152602160f81b6064820152608401610349565b600081815260286020526040812060020180549091906110f457634e487b7160e01b600052603260045260246000fd5b60009182526020909120600290910201546001600160a01b03163314156111835760405162461bcd60e51b815260206004820152602d60248201527f4172746973742063616e206e6f7420766f746520666f72207468656972206f7760448201527f6e207375626d697373696f6e21000000000000000000000000000000000000006064820152608401610349565b6007544310156111fb5760405162461bcd60e51b815260206004820152603560248201527f43616e206e6f7420737461727420766f74696e6720756e74696c207375626d6960448201527f7373696f6e20706572696f64206973206f7665722100000000000000000000006064820152608401610349565b60095443111561124d5760405162461bcd60e51b815260206004820152601a60248201527f46616e20566f74696e6720506572696f64206973204f766572210000000000006044820152606401610349565b60008181526028602052604081208054829061127957634e487b7160e01b600052603260045260246000fd5b9060005260206000200154116112f75760405162461bcd60e51b815260206004820152602560248201527f546865726520617265206e6f204e46547320696e2074686973207375626d697360448201527f73696f6e210000000000000000000000000000000000000000000000000000006064820152608401610349565b6001546023546040516323b872dd60e01b815233600482015230602482015260448101919091526001600160a01b03909116906323b872dd90606401602060405180830381600087803b15801561134d57600080fd5b505af1158015611361573d6000803e3d6000fd5b505050506040513d601f19601f820116820180604052508101906113859190611eea565b6113f75760405162461bcd60e51b815260206004820152602e60248201527f7472616e6466657246726f6d206661696c65642c20766f7465206e6f7420626160448201527f636b65642062792066756e6473210000000000000000000000000000000000006064820152608401610349565b60015b6000828152602860205260409020600301548110156114e557600082815260286020526040902060020180548290811061144457634e487b7160e01b600052603260045260246000fd5b60009182526020909120600290910201546001600160a01b03163314156114d35760405162461bcd60e51b815260206004820152602b60248201527f557365722068617320616c726561647920766f74656420666f7220746869732060448201527f7375626d697373696f6e210000000000000000000000000000000000000000006064820152608401610349565b806114dd816120c7565b9150506113fa565b5060408051808201825233815260235460208083019182526000858152602882529384206002808201805460018082018355918852938720865194909202909101805473ffffffffffffffffffffffffffffffffffffffff19166001600160a01b039094169390931783559251919092015583835260030180549192610628836120c7565b600c81600a81106102cf57600080fd5b600a5443116115f15760405162461bcd60e51b815260206004820152602760248201527f43616e206e6f7420636173686f757420756e74696c2063616d706169676e206960448201527f73206f76657221000000000000000000000000000000000000000000000000006064820152608401610349565b60008060005b60008481526028602052604090206003015481101561168257600084815260286020526040902060020180543391908390811061164457634e487b7160e01b600052603260045260246000fd5b60009182526020909120600290910201546001600160a01b031614156116705760019250809150611682565b8061167a816120c7565b9150506115f7565b5060008381526028602052604081206002018054839081106116b457634e487b7160e01b600052603260045260246000fd5b906000526020600020906002020160010154905060006028600086815260200190815260200160002060020183815481106116ff57634e487b7160e01b600052603260045260246000fd5b90600052602060002090600202016001018190555082801561171f575081155b156118d5576001546040516323b872dd60e01b8152306004820152336024820152604481018390526001600160a01b03909116906323b872dd90606401602060405180830381600087803b15801561177657600080fd5b505af115801561178a573d6000803e3d6000fd5b505050506040513d601f19601f820116820180604052508101906117ae9190611eea565b6117b757600080fd5b60225484146118d05760005b600381101561189a57600254600086815260286020526040902080546001600160a01b03909216916323b872dd9130913391908690811061181457634e487b7160e01b600052603260045260246000fd5b6000918252602090912001546040516001600160e01b031960e086901b1681526001600160a01b0393841660048201529290911660248301526044820152606401600060405180830381600087803b15801561186f57600080fd5b505af1158015611883573d6000803e3d6000fd5b505050508080611892906120c7565b9150506117c3565b50604080516060810182526000808252602080830182905282840182905287825260289052919091206118ce916003611e13565b505b6119c0565b821561196e576001546040516323b872dd60e01b8152306004820152336024820152604481018390526001600160a01b03909116906323b872dd90606401602060405180830381600087803b15801561192d57600080fd5b505af1158015611941573d6000803e3d6000fd5b505050506040513d601f19601f820116820180604052508101906119659190611eea565b6118d057600080fd5b60405162461bcd60e51b815260206004820152602160248201527f5573657220776173206e6f7420666f756e6420696e207375626d697373696f6e6044820152602160f81b6064820152608401610349565b50505050565b6000546001600160a01b03163314611a345760405162461bcd60e51b815260206004820152602b60248201527f4f6e6c792074686520506f6f6c204f776e65722063616e2063616c6c2074686960448201526a732066756e6374696f6e2160a81b6064820152608401610349565b60295460255410611aad5760405162461bcd60e51b815260206004820152602b60248201527f416c726561647920666f756e6420746f702074656e2066726f6d20616c6c207360448201527f75626d697373696f6e73210000000000000000000000000000000000000000006064820152608401610349565b6008544311611b245760405162461bcd60e51b815260206004820152602f60248201527f43616e6e6f742073656c65637420746f702074656e20756e74696c2066616e2060448201527f766f74696e67206973206f7665722100000000000000000000000000000000006064820152608401610349565b6000806000805b60645a118015611b3e5750602954602554105b15611cc757602354602554600090815260286020526040902060030154611b6790600190612075565b611b719190612056565b6016549450600093509150829050805b600a811015611c6957601681600a8110611bab57634e487b7160e01b600052603260045260246000fd5b0154611c045782601682600a8110611bd357634e487b7160e01b600052603260045260246000fd5b0155602554600c82600a8110611bf957634e487b7160e01b600052603260045260246000fd5b015560019150611c69565b84601682600a8110611c2657634e487b7160e01b600052603260045260246000fd5b01541015611c5757601681600a8110611c4f57634e487b7160e01b600052603260045260246000fd5b015494508093505b80611c61816120c7565b915050611b81565b5080611cc25783821115611cc25781601684600a8110611c9957634e487b7160e01b600052603260045260246000fd5b0155602554600c84600a8110611cbf57634e487b7160e01b600052603260045260246000fd5b01555b611b2b565b602554611cd590600161203e565b6025556003546040517fb37217a40000000000000000000000000000000000000000000000000000000081524360048201526001600160a01b039091169063b37217a490602401602060405180830381600087803b158015611d3657600080fd5b505af1158015611d4a573d6000803e3d6000fd5b505050506040513d601f19601f82011682018060405250810190611d6e9190611f11565b5050600b805460ff19166001179055505050565b6004805461023e9061208c565b828054611d9b9061208c565b90600052602060002090601f016020900481019282611dbd5760008555611e03565b82601f10611dd657805160ff1916838001178555611e03565b82800160010185558215611e03579182015b82811115611e03578251825591602001919060010190611de8565b50611e0f929150611e53565b5090565b828054828255906000526020600020908101928215611e03579160200282015b82811115611e03578251829060ff16905591602001919060010190611e33565b5b80821115611e0f5760008155600101611e54565b600060608284031215611e79578081fd5b82601f830112611e87578081fd5b6040516060810181811067ffffffffffffffff82111715611eaa57611eaa612118565b604052808360608101861015611ebe578384fd5b835b6003811015611edf578135835260209283019290910190600101611ec0565b509195945050505050565b600060208284031215611efb578081fd5b81518015158114611f0a578182fd5b9392505050565b600060208284031215611f22578081fd5b5051919050565b600060208284031215611f3a578081fd5b813567ffffffffffffffff80821115611f51578283fd5b818401915084601f830112611f64578283fd5b813581811115611f7657611f76612118565b604051601f8201601f19908116603f01168101908382118183101715611f9e57611f9e612118565b81604052828152876020848701011115611fb6578586fd5b826020860160208301379182016020019490945295945050505050565b600060208284031215611fe4578081fd5b5035919050565b6000602080835283518082850152825b8181101561201757858101830151858201604001528201611ffb565b818111156120285783604083870101525b50601f01601f1916929092016040019392505050565b6000821982111561205157612051612102565b500190565b600081600019048311821515161561207057612070612102565b500290565b60008282101561208757612087612102565b500390565b600181811c908216806120a057607f821691505b602082108114156120c157634e487b7160e01b600052602260045260246000fd5b50919050565b60006000198214156120db576120db612102565b5060010190565b6000826120fd57634e487b7160e01b81526012600452602481fd5b500690565b634e487b7160e01b600052601160045260246000fd5b634e487b7160e01b600052604160045260246000fdfea2646970667358221220127729b4c117f6313110a5c390054595665e6e5e2ef731c85ead9b9377b8cb2664736f6c63430008040033a26469706673582212205d7eef85151b902692c36e7fc6967a4c9e3dfe1642fb3ec9bdb986889ca2cf1764736f6c63430008040033",
  "linkReferences": {},
  "deployedLinkReferences": {}
}