{
  "_format": "hh-sol-artifact-1",
  "contractName": "PoolFactory",
  "sourceName": "contracts/PoolFactory.sol",
  "abi": [
    {
      "inputs": [
        {
          "internalType": "address",
          "name": "_twitterVerifyAddress",
          "type": "address"
        },
        {
          "internalType": "address",
          "name": "linkTokenAddress",
          "type": "address"
        },
        {
          "internalType": "address",
          "name": "rngAddress",
          "type": "address"
        }
      ],
      "stateMutability": "nonpayable",
      "type": "constructor"
    },
    {
      "anonymous": false,
      "inputs": [
        {
          "indexed": true,
          "internalType": "address",
          "name": "previousOwner",
          "type": "address"
        },
        {
          "indexed": true,
          "internalType": "address",
          "name": "newOwner",
          "type": "address"
        }
      ],
      "name": "OwnershipTransferred",
      "type": "event"
    },
    {
      "inputs": [
        {
          "internalType": "bool",
          "name": "_bool",
          "type": "bool"
        }
      ],
      "name": "changePoolCreationBool",
      "outputs": [],
      "stateMutability": "nonpayable",
      "type": "function"
    },
    {
      "inputs": [
        {
          "internalType": "string",
          "name": "_poolName",
          "type": "string"
        },
        {
          "internalType": "uint256",
          "name": "_capital",
          "type": "uint256"
        },
        {
          "internalType": "address",
          "name": "_capitalAddress",
          "type": "address"
        },
        {
          "internalType": "address",
          "name": "_nftAddress",
          "type": "address"
        },
        {
          "internalType": "uint256",
          "name": "_campaignLength",
          "type": "uint256"
        },
        {
          "internalType": "uint256",
          "name": "_votingLength",
          "type": "uint256"
        },
        {
          "internalType": "uint256",
          "name": "_decisionLength",
          "type": "uint256"
        },
        {
          "internalType": "uint256",
          "name": "_submissionLength",
          "type": "uint256"
        }
      ],
      "name": "createPool",
      "outputs": [],
      "stateMutability": "nonpayable",
      "type": "function"
    },
    {
      "inputs": [
        {
          "internalType": "uint256",
          "name": "_index",
          "type": "uint256"
        }
      ],
      "name": "getPoolAddress",
      "outputs": [
        {
          "internalType": "address",
          "name": "",
          "type": "address"
        }
      ],
      "stateMutability": "view",
      "type": "function"
    },
    {
      "inputs": [],
      "name": "owner",
      "outputs": [
        {
          "internalType": "address",
          "name": "",
          "type": "address"
        }
      ],
      "stateMutability": "view",
      "type": "function"
    },
    {
      "inputs": [],
      "name": "renounceOwnership",
      "outputs": [],
      "stateMutability": "nonpayable",
      "type": "function"
    },
    {
      "inputs": [
        {
          "internalType": "address",
          "name": "_address",
          "type": "address"
        }
      ],
      "name": "setTwitterVerifyAddress",
      "outputs": [],
      "stateMutability": "nonpayable",
      "type": "function"
    },
    {
      "inputs": [
        {
          "internalType": "address",
          "name": "newOwner",
          "type": "address"
        }
      ],
      "name": "transferOwnership",
      "outputs": [],
      "stateMutability": "nonpayable",
      "type": "function"
    }
  ],
  "bytecode": "0x608060405234801561001057600080fd5b5060405161379838038061379883398101604081905261002f916100e8565b600080546001600160a01b031916339081178255604051909182917f8be0079c531659141344cd1fd0a4f28419497f9722a3daafe3b4186f6b6457e0908290a350600280546001600160a01b039485166001600160a01b031991821681179092556003805482169092179091556004805492851692821692909217909155600680549290931691811682179092556005805490921617905561012a565b80516001600160a01b03811681146100e357600080fd5b919050565b6000806000606084860312156100fc578283fd5b610105846100cc565b9250610113602085016100cc565b9150610121604085016100cc565b90509250925092565b61365f806101396000396000f3fe60806040523480156200001157600080fd5b5060043610620000865760003560e01c80637bc2ae7c11620000625780637bc2ae7c14620000e15780638da5cb5b14620000f8578063d1954fca146200010a578063f2fde38b146200012157600080fd5b8062a5ae21146200008b57806364c3c34314620000be578063715018a614620000d7575b600080fd5b620000a26200009c36600462000ae8565b62000138565b6040516001600160a01b03909116815260200160405180910390f35b620000d5620000cf36600462000958565b62000177565b005b620000d562000210565b620000d5620000f236600462000a18565b620002c3565b6000546001600160a01b0316620000a2565b620000d56200011b36600462000934565b62000732565b620000d56200013236600462000934565b620007c7565b6000600182815481106200015c57634e487b7160e01b600052603260045260246000fd5b6000918252602090912001546001600160a01b031692915050565b6000546001600160a01b03163314620001d75760405162461bcd60e51b815260206004820181905260248201527f4f776e61626c653a2063616c6c6572206973206e6f7420746865206f776e657260448201526064015b60405180910390fd5b60008054911515600160a01b027fffffffffffffffffffffff00ffffffffffffffffffffffffffffffffffffffff909216919091179055565b6000546001600160a01b031633146200026c5760405162461bcd60e51b815260206004820181905260248201527f4f776e61626c653a2063616c6c6572206973206e6f7420746865206f776e65726044820152606401620001ce565b600080546040516001600160a01b03909116907f8be0079c531659141344cd1fd0a4f28419497f9722a3daafe3b4186f6b6457e0908390a36000805473ffffffffffffffffffffffffffffffffffffffff19169055565b600054600160a01b900460ff16620003445760405162461bcd60e51b815260206004820152602760248201527f506f6f6c206372656174696f6e2069732063757272656e746c79206e6f74206160448201527f6c6c6f77656421000000000000000000000000000000000000000000000000006064820152608401620001ce565b6003546040517f7fc9592d0000000000000000000000000000000000000000000000000000000081523360048201526001600160a01b0390911690637fc9592d90602401602060405180830381600087803b158015620003a357600080fd5b505af1158015620003b8573d6000803e3d6000fd5b505050506040513d601f19601f82011682018060405250810190620003de919062000977565b620004525760405162461bcd60e51b815260206004820152602c60248201527f43616c6c65722061646472657373206973206e6f74207665726966696564207760448201527f69746820547769747465722100000000000000000000000000000000000000006064820152608401620001ce565b600554600480546040517f23b872dd00000000000000000000000000000000000000000000000000000000815233928101929092526001600160a01b03908116602483015267016345785d8a00006044830152909116906323b872dd90606401602060405180830381600087803b158015620004cd57600080fd5b505af1158015620004e2573d6000803e3d6000fd5b505050506040513d601f19601f8201168201806040525081019062000508919062000977565b620005565760405162461bcd60e51b815260206004820152601960248201527f4c696e6b207472616e7366657246726f6d206661696c656421000000000000006044820152606401620001ce565b6003546040517ff15ad2640000000000000000000000000000000000000000000000000000000081523360048201526000918a916001600160a01b039091169063f15ad26490602401600060405180830381600087803b158015620005ba57600080fd5b505af1158015620005cf573d6000803e3d6000fd5b505050506040513d6000823e601f3d908101601f19168201604052620005f9919081019062000996565b89898933600460009054906101000a90046001600160a01b03168b8b8b8b604051620006259062000909565b6200063b9b9a9998979695949392919062000b2f565b604051809103906000f08015801562000658573d6000803e3d6000fd5b506001805480820182556000919091527fb10e2d527612073b26eecdfd717e6a320cf44b4afac2b0732d9fcbe2b7fa0cf601805473ffffffffffffffffffffffffffffffffffffffff19166001600160a01b03838116918217909255600480546040517fe43252d700000000000000000000000000000000000000000000000000000000815291820192909252929350169063e43252d790602401600060405180830381600087803b1580156200070e57600080fd5b505af115801562000723573d6000803e3d6000fd5b50505050505050505050505050565b6000546001600160a01b031633146200078e5760405162461bcd60e51b815260206004820181905260248201527f4f776e61626c653a2063616c6c6572206973206e6f7420746865206f776e65726044820152606401620001ce565b600280546001600160a01b0390921673ffffffffffffffffffffffffffffffffffffffff19928316811790915560038054909216179055565b6000546001600160a01b03163314620008235760405162461bcd60e51b815260206004820181905260248201527f4f776e61626c653a2063616c6c6572206973206e6f7420746865206f776e65726044820152606401620001ce565b6001600160a01b038116620008a15760405162461bcd60e51b815260206004820152602660248201527f4f776e61626c653a206e6577206f776e657220697320746865207a65726f206160448201527f64647265737300000000000000000000000000000000000000000000000000006064820152608401620001ce565b600080546040516001600160a01b03808516939216917f8be0079c531659141344cd1fd0a4f28419497f9722a3daafe3b4186f6b6457e091a36000805473ffffffffffffffffffffffffffffffffffffffff19166001600160a01b0392909216919091179055565b6129bf8062000c6b83390190565b80356001600160a01b03811681146200092f57600080fd5b919050565b60006020828403121562000946578081fd5b620009518262000917565b9392505050565b6000602082840312156200096a578081fd5b8135620009518162000c58565b60006020828403121562000989578081fd5b8151620009518162000c58565b600060208284031215620009a8578081fd5b815167ffffffffffffffff811115620009bf578182fd5b8201601f81018413620009d0578182fd5b8051620009e7620009e18262000be4565b62000bb0565b818152856020838501011115620009fc578384fd5b62000a0f82602083016020860162000c0f565b95945050505050565b600080600080600080600080610100898b03121562000a35578384fd5b883567ffffffffffffffff81111562000a4c578485fd5b8901601f81018b1362000a5d578485fd5b803562000a6e620009e18262000be4565b8181528c602083850101111562000a83578687fd5b816020840160208301378660208383010152809a505050506020890135965062000ab060408a0162000917565b955062000ac060608a0162000917565b979a969950949760808101359660a0820135965060c0820135955060e0909101359350915050565b60006020828403121562000afa578081fd5b5035919050565b6000815180845262000b1b81602086016020860162000c0f565b601f01601f19169290920160200192915050565b600061016080835262000b458184018f62000b01565b9050828103602084015262000b5b818e62000b01565b604084019c909c5250506001600160a01b039889166060820152968816608088015294871660a08701529290951660c085015260e0840152610100830193909352610120820192909252610140015292915050565b604051601f8201601f1916810167ffffffffffffffff8111828210171562000bdc5762000bdc62000c42565b604052919050565b600067ffffffffffffffff82111562000c015762000c0162000c42565b50601f01601f191660200190565b60005b8381101562000c2c57818101518382015260200162000c12565b8381111562000c3c576000848401525b50505050565b634e487b7160e01b600052604160045260246000fd5b801515811462000c6757600080fd5b5056fe60806040526000602a553480156200001657600080fd5b50604051620029bf380380620029bf8339810160408190526200003991620002a6565b600080546001600160a01b038089166001600160a01b03199283161790925560068b905560018054928b16929091169190911790556200007b600a8a620003b6565b602355600280546001600160a01b03808a166001600160a01b03199283161790925560038054928816929091169190911790558a51620000c39060049060208e019062000130565b508951620000d99060059060208d019062000130565b5043620000e7828262000391565b6007819055620000f990859062000391565b60088190556200010b90849062000391565b6009556200011a858262000391565b600a55506200042a9a5050505050505050505050565b8280546200013e90620003d7565b90600052602060002090601f016020900481019282620001625760008555620001ad565b82601f106200017d57805160ff1916838001178555620001ad565b82800160010185558215620001ad579182015b82811115620001ad57825182559160200191906001019062000190565b50620001bb929150620001bf565b5090565b5b80821115620001bb5760008155600101620001c0565b80516001600160a01b0381168114620001ee57600080fd5b919050565b600082601f83011262000204578081fd5b81516001600160401b038082111562000221576200022162000414565b604051601f8301601f19908116603f011681019082821181831017156200024c576200024c62000414565b8160405283815260209250868385880101111562000268578485fd5b8491505b838210156200028b57858201830151818301840152908201906200026c565b838211156200029c57848385830101525b9695505050505050565b60008060008060008060008060008060006101608c8e031215620002c8578687fd5b8b516001600160401b03811115620002de578788fd5b620002ec8e828f01620001f3565b60208e0151909c5090506001600160401b038111156200030a578788fd5b620003188e828f01620001f3565b9a505060408c015198506200033060608d01620001d6565b97506200034060808d01620001d6565b96506200035060a08d01620001d6565b95506200036060c08d01620001d6565b945060e08c015193506101008c015192506101208c015191506101408c015190509295989b509295989b9093969950565b60008219821115620003b157634e487b7160e01b81526011600452602481fd5b500190565b600082620003d257634e487b7160e01b81526012600452602481fd5b500490565b600181811c90821680620003ec57607f821691505b602082108114156200040e57634e487b7160e01b600052602260045260246000fd5b50919050565b634e487b7160e01b600052604160045260246000fd5b612585806200043a6000396000f3fe608060405234801561001057600080fd5b50600436106101775760003560e01c80635353a2d8116100d8578063886354411161008c578063c89f2ce411610066578063c89f2ce414610299578063cb300137146102a2578063f3466dfa146102aa57600080fd5b8063886354411461026b578063a9e732bb1461027e578063b278fa4b1461029157600080fd5b80635cbddb9f116100bd5780635cbddb9f146102385780635cd68d8b146102415780637429eee11461025e57600080fd5b80635353a2d8146102125780635a0473641461022557600080fd5b80633d7020991161012f5780634c524be4116101145780634c524be4146101ef5780634c991657146102025780635013a1581461020a57600080fd5b80633d702099146101c757806347ba59c9146101da57600080fd5b80631b818fb5116101605780631b818fb5146101ad57806320196065146101b65780632180877f146101be57600080fd5b8063156a51d61461017c57806317d7de7c14610198575b600080fd5b61018560085481565b6040519081526020015b60405180910390f35b6101a06102b2565b60405161018f919061240c565b61018560075481565b6101a0610344565b610185600a5481565b6101856101d53660046123f4565b6103d2565b6101ed6101e8366004612289565b6103e9565b005b6101ed6101fd3660046123f4565b610796565b6101ed610e4e565b61018561113f565b6101ed61022036600461234a565b6111d9565b6101ed6102333660046123f4565b61125e565b61018560095481565b600b5461024e9060ff1681565b604051901515815260200161018f565b60285461024e9060ff1681565b6101856102793660046123f4565b6117bb565b6101ed61028c3660046123f4565b6117cb565b6101ed611c17565b61018560065481565b6101ed611fd3565b6101a06121a3565b6060600480546102c1906124ad565b80601f01602080910402602001604051908101604052809291908181526020018280546102ed906124ad565b801561033a5780601f1061030f5761010080835404028352916020019161033a565b820191906000526020600020905b81548152906001019060200180831161031d57829003601f168201915b5050505050905090565b60058054610351906124ad565b80601f016020809104026020016040519081016040528092919081815260200182805461037d906124ad565b80156103ca5780601f1061039f576101008083540402835291602001916103ca565b820191906000526020600020905b8154815290600101906020018083116103ad57829003601f168201915b505050505081565b601681600a81106103e257600080fd5b0154905081565b60285460ff166104405760405162461bcd60e51b815260206004820152601c60248201527f506f6f6c206973206e6f74206261636b65642062792066756e6473210000000060448201526064015b60405180910390fd5b60075443106104b75760405162461bcd60e51b815260206004820152603460248201527f43616e206e6f7420616464207375626d697373696f6e7320647572696e67207460448201527f68652066616e20766f74696e6720706572696f640000000000000000000000006064820152608401610437565b6001546023546040516323b872dd60e01b815233600482015230602482015260448101919091526001600160a01b03909116906323b872dd90606401602060405180830381600087803b15801561050d57600080fd5b505af1158015610521573d6000803e3d6000fd5b505050506040513d601f19601f82011682018060405250810190610545919061230b565b6105b75760405162461bcd60e51b815260206004820152603460248201527f7472616e6466657246726f6d206661696c65642c207375626d697373696f6e2060448201527f6e6f74206261636b65642062792066756e6473210000000000000000000000006064820152608401610437565b60005b60038110156106c4576002546001600160a01b03166323b872dd33308585600381106105f657634e487b7160e01b600052603260045260246000fd5b60200201516040516001600160e01b031960e086901b1681526001600160a01b0393841660048201529290911660248301526044820152606401600060405180830381600087803b15801561064a57600080fd5b505af115801561065e573d6000803e3d6000fd5b5050602a5460009081526029602052604090209150839050826003811061069557634e487b7160e01b600052603260045260246000fd5b6020908102919091015182546001810184556000938452919092200155806106bc816124e8565b9150506105ba565b5060408051808201825233808252602354602080840191909152602a805460009081526029808452868220948252600190940183528581208190559054815291905291822060030180549192610719836124e8565b9091555050602a8054600090815260296020908152604082206002908101805460018082018355918552838520875191909302909201805473ffffffffffffffffffffffffffffffffffffffff19166001600160a01b03909316929092178255918501519101558154919061078d836124e8565b91905055505050565b6000546001600160a01b031633146108045760405162461bcd60e51b815260206004820152602b60248201527f4f6e6c792074686520506f6f6c204f776e65722063616e2063616c6c2074686960448201526a732066756e6374696f6e2160a81b6064820152608401610437565b60245460ff16156108575760405162461bcd60e51b815260206004820152601860248201527f416c72656164792073656c65637465642077696e6e65722100000000000000006044820152606401610437565b600a5443116108ce5760405162461bcd60e51b815260206004820152603460248201527f43616e206f6e6c792063686f6f736520612077696e6e6572206166746572207460448201527f68652063616d706169676e206973206f766572210000000000000000000000006064820152608401610437565b60265460ff166109465760405162461bcd60e51b815260206004820152602360248201527f596f75206861766520746f2063616c6c2063686563466f72546965732066697260448201527f73742100000000000000000000000000000000000000000000000000000000006064820152608401610437565b6024805460ff191660011790556000805b6027548110156109af576020818154811061098257634e487b7160e01b600052603260045260246000fd5b906000526020600020015483141561099d57600191506109af565b806109a7816124e8565b915050610957565b5080610a235760405162461bcd60e51b815260206004820152602f60248201527f596f75206d7573742073656c65637420612077696e6e65722066726f6d20746860448201527f6520746f702074656e206c6973742100000000000000000000000000000000006064820152608401610437565b602282905560028054600084815260296020526040812090920180546001600160a01b03909216926323b872dd9230929190610a6f57634e487b7160e01b600052603260045260246000fd5b60009182526020808320600290920290910154602254835260299091526040822080546001600160a01b03909216929091610aba57634e487b7160e01b600052603260045260246000fd5b6000918252602090912001546040516001600160e01b031960e086901b1681526001600160a01b0393841660048201529290911660248301526044820152606401600060405180830381600087803b158015610b1557600080fd5b505af1158015610b29573d6000803e3d6000fd5b505050600083815260296020526040812060030154909150610b4d90600190612496565b600360009054906101000a90046001600160a01b03166001600160a01b03166322cce6896040518163ffffffff1660e01b8152600401602060405180830381600087803b158015610b9d57600080fd5b505af1158015610bb1573d6000803e3d6000fd5b505050506040513d601f19601f82011682018060405250810190610bd59190612332565b610bdf9190612503565b610bea90600161245f565b60008481526029602052604081206002018054929350909183908110610c2057634e487b7160e01b600052603260045260246000fd5b6000918252602080832060029283020154915460225484526029909152604090922080546001600160a01b03928316945091909216916323b872dd91309185916001908110610c7f57634e487b7160e01b600052603260045260246000fd5b6000918252602090912001546040516001600160e01b031960e086901b1681526001600160a01b0393841660048201529290911660248301526044820152606401600060405180830381600087803b158015610cda57600080fd5b505af1158015610cee573d6000803e3d6000fd5b5050600280546000805460225482526029602052604090912080546001600160a01b0393841696506323b872dd95503094939092169290918110610d4257634e487b7160e01b600052603260045260246000fd5b6000918252602090912001546040516001600160e01b031960e086901b1681526001600160a01b0393841660048201529290911660248301526044820152606401600060405180830381600087803b158015610d9d57600080fd5b505af1158015610db1573d6000803e3d6000fd5b50506001546000546006546040516323b872dd60e01b81523060048201526001600160a01b0392831660248201526044810191909152911692506323b872dd9150606401602060405180830381600087803b158015610e0f57600080fd5b505af1158015610e23573d6000803e3d6000fd5b505050506040513d601f19601f82011682018060405250810190610e47919061230b565b5050505050565b6000546001600160a01b03163314610ebc5760405162461bcd60e51b815260206004820152602b60248201527f4f6e6c792074686520506f6f6c204f776e65722063616e2063616c6c2074686960448201526a732066756e6374696f6e2160a81b6064820152608401610437565b600b5460ff16610f0e5760405162461bcd60e51b815260206004820152601c60248201527f4e65656420746f2072756e20676574546f7054656e20666972737421000000006044820152606401610437565b60265460ff1615610f615760405162461bcd60e51b815260206004820152601860248201527f416c726561647920636865636b656420666f72207469657300000000000000006044820152606401610437565b6016546000805b600a81101561105c5782601682600a8110610f9357634e487b7160e01b600052603260045260246000fd5b0154101561104a57601681600a8110610fbc57634e487b7160e01b600052603260045260246000fd5b015492508091506020600c82600a8110610fe657634e487b7160e01b600052603260045260246000fd5b0154815460018101835560009283526020909220909101556021601682600a811061102157634e487b7160e01b600052603260045260246000fd5b0154815460018101835560009283526020832001556027805491611044836124e8565b91905055505b80611054816124e8565b915050610f68565b506000805b602a5481101561112c5760235460008281526029602052604090206003015461108c90600190612496565b6110969190612477565b91508184141561111a576020805460018181019092557fc97bfaf2f8ee708c303a06d134f5ecd8389ae0432af62dc132a24118292866bb0182905560218054918201815560009081527f3a6357012c1a3ae0a17d304c9920310382d968ebcc4b1771f41c6b304205b5709091018390556027805491611114836124e8565b91905055505b80611124816124e8565b915050611061565b50506026805460ff191660011790555050565b6001546040517f70a082310000000000000000000000000000000000000000000000000000000081523060048201526000916001600160a01b0316906370a082319060240160206040518083038186803b15801561119c57600080fd5b505afa1580156111b0573d6000803e3d6000fd5b505050506040513d601f19601f820116820180604052508101906111d49190612332565b905090565b6000546001600160a01b031633146112475760405162461bcd60e51b815260206004820152602b60248201527f4f6e6c792074686520506f6f6c204f776e65722063616e2063616c6c2074686960448201526a732066756e6374696f6e2160a81b6064820152608401610437565b805161125a9060049060208401906121b0565b5050565b6000546001600160a01b03163314156112c35760405162461bcd60e51b815260206004820152602160248201527f4f6e6c792046616e732063616e2063616c6c20746869732066756e6374696f6e6044820152602160f81b6064820152608401610437565b60285460ff166113155760405162461bcd60e51b815260206004820152601c60248201527f506f6f6c206973206e6f74206261636b65642062792066756e647321000000006044820152606401610437565b6000818152602960205260408120600201805490919061134557634e487b7160e01b600052603260045260246000fd5b60009182526020909120600290910201546001600160a01b03163314156113d45760405162461bcd60e51b815260206004820152602d60248201527f4172746973742063616e206e6f7420766f746520666f72207468656972206f7760448201527f6e207375626d697373696f6e21000000000000000000000000000000000000006064820152608401610437565b60075443101561144c5760405162461bcd60e51b815260206004820152603560248201527f43616e206e6f7420737461727420766f74696e6720756e74696c207375626d6960448201527f7373696f6e20706572696f64206973206f7665722100000000000000000000006064820152608401610437565b60095443111561149e5760405162461bcd60e51b815260206004820152601a60248201527f46616e20566f74696e6720506572696f64206973204f766572210000000000006044820152606401610437565b6000818152602960205260408120805482906114ca57634e487b7160e01b600052603260045260246000fd5b9060005260206000200154116115485760405162461bcd60e51b815260206004820152602560248201527f546865726520617265206e6f204e46547320696e2074686973207375626d697360448201527f73696f6e210000000000000000000000000000000000000000000000000000006064820152608401610437565b6001546023546040516323b872dd60e01b815233600482015230602482015260448101919091526001600160a01b03909116906323b872dd90606401602060405180830381600087803b15801561159e57600080fd5b505af11580156115b2573d6000803e3d6000fd5b505050506040513d601f19601f820116820180604052508101906115d6919061230b565b6116485760405162461bcd60e51b815260206004820152602e60248201527f7472616e6466657246726f6d206661696c65642c20766f7465206e6f7420626160448201527f636b65642062792066756e6473210000000000000000000000000000000000006064820152608401610437565b60015b60008281526029602052604090206003015481101561173657600082815260296020526040902060020180548290811061169557634e487b7160e01b600052603260045260246000fd5b60009182526020909120600290910201546001600160a01b03163314156117245760405162461bcd60e51b815260206004820152602b60248201527f557365722068617320616c726561647920766f74656420666f7220746869732060448201527f7375626d697373696f6e210000000000000000000000000000000000000000006064820152608401610437565b8061172e816124e8565b91505061164b565b5060408051808201825233815260235460208083019182526000858152602982529384206002808201805460018082018355918852938720865194909202909101805473ffffffffffffffffffffffffffffffffffffffff19166001600160a01b03909416939093178355925191909201558383526003018054919261078d836124e8565b600c81600a81106103e257600080fd5b600a5443116118425760405162461bcd60e51b815260206004820152602760248201527f43616e206e6f7420636173686f757420756e74696c2063616d706169676e206960448201527f73206f76657221000000000000000000000000000000000000000000000000006064820152608401610437565b60008060005b6000848152602960205260409020600301548110156118d357600084815260296020526040902060020180543391908390811061189557634e487b7160e01b600052603260045260246000fd5b60009182526020909120600290910201546001600160a01b031614156118c157600192508091506118d3565b806118cb816124e8565b915050611848565b50600083815260296020526040812060020180548390811061190557634e487b7160e01b600052603260045260246000fd5b9060005260206000209060020201600101549050600060296000868152602001908152602001600020600201838154811061195057634e487b7160e01b600052603260045260246000fd5b906000526020600020906002020160010181905550828015611970575081155b15611b26576001546040516323b872dd60e01b8152306004820152336024820152604481018390526001600160a01b03909116906323b872dd90606401602060405180830381600087803b1580156119c757600080fd5b505af11580156119db573d6000803e3d6000fd5b505050506040513d601f19601f820116820180604052508101906119ff919061230b565b611a0857600080fd5b6022548414611b215760005b6003811015611aeb57600254600086815260296020526040902080546001600160a01b03909216916323b872dd91309133919086908110611a6557634e487b7160e01b600052603260045260246000fd5b6000918252602090912001546040516001600160e01b031960e086901b1681526001600160a01b0393841660048201529290911660248301526044820152606401600060405180830381600087803b158015611ac057600080fd5b505af1158015611ad4573d6000803e3d6000fd5b505050508080611ae3906124e8565b915050611a14565b5060408051606081018252600080825260208083018290528284018290528782526029905291909120611b1f916003612234565b505b611c11565b8215611bbf576001546040516323b872dd60e01b8152306004820152336024820152604481018390526001600160a01b03909116906323b872dd90606401602060405180830381600087803b158015611b7e57600080fd5b505af1158015611b92573d6000803e3d6000fd5b505050506040513d601f19601f82011682018060405250810190611bb6919061230b565b611b2157600080fd5b60405162461bcd60e51b815260206004820152602160248201527f5573657220776173206e6f7420666f756e6420696e207375626d697373696f6e6044820152602160f81b6064820152608401610437565b50505050565b6000546001600160a01b03163314611c855760405162461bcd60e51b815260206004820152602b60248201527f4f6e6c792074686520506f6f6c204f776e65722063616e2063616c6c2074686960448201526a732066756e6374696f6e2160a81b6064820152608401610437565b602a5460255410611cfe5760405162461bcd60e51b815260206004820152602b60248201527f416c726561647920666f756e6420746f702074656e2066726f6d20616c6c207360448201527f75626d697373696f6e73210000000000000000000000000000000000000000006064820152608401610437565b6008544311611d755760405162461bcd60e51b815260206004820152602f60248201527f43616e6e6f742073656c65637420746f702074656e20756e74696c2066616e2060448201527f766f74696e67206973206f7665722100000000000000000000000000000000006064820152608401610437565b6000806000805b60645a118015611d8f5750602a54602554105b15611f1857602354602554600090815260296020526040902060030154611db890600190612496565b611dc29190612477565b6016549450600093509150829050805b600a811015611eba57601681600a8110611dfc57634e487b7160e01b600052603260045260246000fd5b0154611e555782601682600a8110611e2457634e487b7160e01b600052603260045260246000fd5b0155602554600c82600a8110611e4a57634e487b7160e01b600052603260045260246000fd5b015560019150611eba565b84601682600a8110611e7757634e487b7160e01b600052603260045260246000fd5b01541015611ea857601681600a8110611ea057634e487b7160e01b600052603260045260246000fd5b015494508093505b80611eb2816124e8565b915050611dd2565b5080611f135783821115611f135781601684600a8110611eea57634e487b7160e01b600052603260045260246000fd5b0155602554600c84600a8110611f1057634e487b7160e01b600052603260045260246000fd5b01555b611d7c565b602554611f2690600161245f565b6025556003546040517fb37217a40000000000000000000000000000000000000000000000000000000081524360048201526001600160a01b039091169063b37217a490602401602060405180830381600087803b158015611f8757600080fd5b505af1158015611f9b573d6000803e3d6000fd5b505050506040513d601f19601f82011682018060405250810190611fbf9190612332565b5050600b805460ff19166001179055505050565b6000546001600160a01b031633146120415760405162461bcd60e51b815260206004820152602b60248201527f4f6e6c792074686520506f6f6c204f776e65722063616e2063616c6c2074686960448201526a732066756e6374696f6e2160a81b6064820152608401610437565b60285460ff16156120945760405162461bcd60e51b815260206004820152601d60248201527f506f6f6c20616c7265616479206261636b65642062792066756e6473210000006044820152606401610437565b6001546006546040516323b872dd60e01b815233600482015230602482015260448101919091526001600160a01b03909116906323b872dd90606401602060405180830381600087803b1580156120ea57600080fd5b505af11580156120fe573d6000803e3d6000fd5b505050506040513d601f19601f82011682018060405250810190612122919061230b565b6121945760405162461bcd60e51b815260206004820152602e60248201527f7472616e6466657246726f6d206661696c65642c20706f6f6c206e6f7420626160448201527f636b65642062792066756e6473210000000000000000000000000000000000006064820152608401610437565b6028805460ff19166001179055565b60048054610351906124ad565b8280546121bc906124ad565b90600052602060002090601f0160209004810192826121de5760008555612224565b82601f106121f757805160ff1916838001178555612224565b82800160010185558215612224579182015b82811115612224578251825591602001919060010190612209565b50612230929150612274565b5090565b828054828255906000526020600020908101928215612224579160200282015b82811115612224578251829060ff16905591602001919060010190612254565b5b808211156122305760008155600101612275565b60006060828403121561229a578081fd5b82601f8301126122a8578081fd5b6040516060810181811067ffffffffffffffff821117156122cb576122cb612539565b6040528083606081018610156122df578384fd5b835b60038110156123005781358352602092830192909101906001016122e1565b509195945050505050565b60006020828403121561231c578081fd5b8151801515811461232b578182fd5b9392505050565b600060208284031215612343578081fd5b5051919050565b60006020828403121561235b578081fd5b813567ffffffffffffffff80821115612372578283fd5b818401915084601f830112612385578283fd5b81358181111561239757612397612539565b604051601f8201601f19908116603f011681019083821181831017156123bf576123bf612539565b816040528281528760208487010111156123d7578586fd5b826020860160208301379182016020019490945295945050505050565b600060208284031215612405578081fd5b5035919050565b6000602080835283518082850152825b818110156124385785810183015185820160400152820161241c565b818111156124495783604083870101525b50601f01601f1916929092016040019392505050565b6000821982111561247257612472612523565b500190565b600081600019048311821515161561249157612491612523565b500290565b6000828210156124a8576124a8612523565b500390565b600181811c908216806124c157607f821691505b602082108114156124e257634e487b7160e01b600052602260045260246000fd5b50919050565b60006000198214156124fc576124fc612523565b5060010190565b60008261251e57634e487b7160e01b81526012600452602481fd5b500690565b634e487b7160e01b600052601160045260246000fd5b634e487b7160e01b600052604160045260246000fdfea2646970667358221220997ae0b71cfd3c503786056a3e251337323f1dccf07531009172cbc030250e7e64736f6c63430008040033a26469706673582212206b14e23482528f04f17ea004b3733355f79fc2069bc1b1e9aa77679f4f64806f64736f6c63430008040033",
  "linkReferences": {},
  "deployedLinkReferences": {}
}